{
  "address": "0x8964671D0936b96Ae3DbBC24cBc9CAb08623029B",
  "abi": [
    {
      "inputs": [
        {
          "internalType": "string",
          "name": "_name",
          "type": "string"
        },
        {
          "internalType": "string",
          "name": "_symbol",
          "type": "string"
        },
        {
          "internalType": "string",
          "name": "_initNotRevealedUri",
          "type": "string"
        },
        {
          "internalType": "address",
          "name": "_paymentsToken",
          "type": "address"
        }
      ],
      "stateMutability": "nonpayable",
      "type": "constructor"
    },
    {
      "anonymous": false,
      "inputs": [
        {
          "indexed": true,
          "internalType": "address",
          "name": "owner",
          "type": "address"
        },
        {
          "indexed": true,
          "internalType": "address",
          "name": "approved",
          "type": "address"
        },
        {
          "indexed": true,
          "internalType": "uint256",
          "name": "tokenId",
          "type": "uint256"
        }
      ],
      "name": "Approval",
      "type": "event"
    },
    {
      "anonymous": false,
      "inputs": [
        {
          "indexed": true,
          "internalType": "address",
          "name": "owner",
          "type": "address"
        },
        {
          "indexed": true,
          "internalType": "address",
          "name": "operator",
          "type": "address"
        },
        {
          "indexed": false,
          "internalType": "bool",
          "name": "approved",
          "type": "bool"
        }
      ],
      "name": "ApprovalForAll",
      "type": "event"
    },
    {
      "anonymous": false,
      "inputs": [
        {
          "indexed": true,
          "internalType": "address",
          "name": "previousOwner",
          "type": "address"
        },
        {
          "indexed": true,
          "internalType": "address",
          "name": "newOwner",
          "type": "address"
        }
      ],
      "name": "OwnershipTransferred",
      "type": "event"
    },
    {
      "anonymous": false,
      "inputs": [
        {
          "indexed": true,
          "internalType": "address",
          "name": "from",
          "type": "address"
        },
        {
          "indexed": true,
          "internalType": "address",
          "name": "to",
          "type": "address"
        },
        {
          "indexed": true,
          "internalType": "uint256",
          "name": "tokenId",
          "type": "uint256"
        }
      ],
      "name": "Transfer",
      "type": "event"
    },
    {
      "inputs": [
        {
          "internalType": "address",
          "name": "",
          "type": "address"
        }
      ],
      "name": "addressMintedBalance",
      "outputs": [
        {
          "internalType": "uint256",
          "name": "",
          "type": "uint256"
        }
      ],
      "stateMutability": "view",
      "type": "function"
    },
    {
      "inputs": [
        {
          "internalType": "address",
          "name": "to",
          "type": "address"
        },
        {
          "internalType": "uint256",
          "name": "tokenId",
          "type": "uint256"
        }
      ],
      "name": "approve",
      "outputs": [],
      "stateMutability": "nonpayable",
      "type": "function"
    },
    {
      "inputs": [
        {
          "internalType": "address",
          "name": "owner",
          "type": "address"
        }
      ],
      "name": "balanceOf",
      "outputs": [
        {
          "internalType": "uint256",
          "name": "",
          "type": "uint256"
        }
      ],
      "stateMutability": "view",
      "type": "function"
    },
    {
      "inputs": [],
      "name": "baseExtension",
      "outputs": [
        {
          "internalType": "string",
          "name": "",
          "type": "string"
        }
      ],
      "stateMutability": "view",
      "type": "function"
    },
    {
      "inputs": [],
      "name": "cost",
      "outputs": [
        {
          "internalType": "uint256",
          "name": "",
          "type": "uint256"
        }
      ],
      "stateMutability": "view",
      "type": "function"
    },
    {
      "inputs": [
        {
          "internalType": "uint256",
          "name": "tokenId",
          "type": "uint256"
        }
      ],
      "name": "getApproved",
      "outputs": [
        {
          "internalType": "address",
          "name": "",
          "type": "address"
        }
      ],
      "stateMutability": "view",
      "type": "function"
    },
    {
      "inputs": [],
      "name": "getBaseURI",
      "outputs": [
        {
          "internalType": "string",
          "name": "",
          "type": "string"
        }
      ],
      "stateMutability": "view",
      "type": "function"
    },
    {
      "inputs": [],
      "name": "getContractBalance",
      "outputs": [
        {
          "internalType": "uint256",
          "name": "",
          "type": "uint256"
        }
      ],
      "stateMutability": "view",
      "type": "function"
    },
    {
      "inputs": [],
      "name": "getCurrentCost",
      "outputs": [
        {
          "internalType": "uint256",
          "name": "",
          "type": "uint256"
        }
      ],
      "stateMutability": "view",
      "type": "function"
    },
    {
      "inputs": [],
      "name": "getSaleStarted",
      "outputs": [
        {
          "internalType": "bool",
          "name": "",
          "type": "bool"
        }
      ],
      "stateMutability": "view",
      "type": "function"
    },
    {
      "inputs": [
        {
          "internalType": "uint256",
          "name": "tokenId",
          "type": "uint256"
        }
      ],
      "name": "getStakedTime",
      "outputs": [
        {
          "internalType": "uint256",
          "name": "",
          "type": "uint256"
        }
      ],
      "stateMutability": "view",
      "type": "function"
    },
    {
      "inputs": [
        {
          "internalType": "address",
          "name": "_owner",
          "type": "address"
        }
      ],
      "name": "getUserMints",
      "outputs": [
        {
          "internalType": "uint256",
          "name": "",
          "type": "uint256"
        }
      ],
      "stateMutability": "view",
      "type": "function"
    },
    {
      "inputs": [
        {
          "internalType": "uint256",
          "name": "_mintAmount",
          "type": "uint256"
        },
        {
          "internalType": "address",
          "name": "destination",
          "type": "address"
        }
      ],
      "name": "gift",
      "outputs": [],
      "stateMutability": "nonpayable",
      "type": "function"
    },
    {
      "inputs": [
        {
          "internalType": "address",
          "name": "owner",
          "type": "address"
        },
        {
          "internalType": "address",
          "name": "operator",
          "type": "address"
        }
      ],
      "name": "isApprovedForAll",
      "outputs": [
        {
          "internalType": "bool",
          "name": "",
          "type": "bool"
        }
      ],
      "stateMutability": "view",
      "type": "function"
    },
    {
      "inputs": [
        {
          "internalType": "address",
          "name": "_user",
          "type": "address"
        }
      ],
      "name": "isWhitelisted",
      "outputs": [
        {
          "internalType": "bool",
          "name": "",
          "type": "bool"
        }
      ],
      "stateMutability": "view",
      "type": "function"
    },
    {
      "inputs": [],
      "name": "maxMintAmount",
      "outputs": [
        {
          "internalType": "uint256",
          "name": "",
          "type": "uint256"
        }
      ],
      "stateMutability": "view",
      "type": "function"
    },
    {
      "inputs": [],
      "name": "maxSupply",
      "outputs": [
        {
          "internalType": "uint256",
          "name": "",
          "type": "uint256"
        }
      ],
      "stateMutability": "view",
      "type": "function"
    },
    {
      "inputs": [
        {
          "internalType": "uint256",
          "name": "_mintAmount",
          "type": "uint256"
        }
      ],
      "name": "mint",
      "outputs": [],
      "stateMutability": "nonpayable",
      "type": "function"
    },
    {
      "inputs": [],
      "name": "name",
      "outputs": [
        {
          "internalType": "string",
          "name": "",
          "type": "string"
        }
      ],
      "stateMutability": "view",
      "type": "function"
    },
    {
      "inputs": [],
      "name": "nftPerAddressLimit",
      "outputs": [
        {
          "internalType": "uint256",
          "name": "",
          "type": "uint256"
        }
      ],
      "stateMutability": "view",
      "type": "function"
    },
    {
      "inputs": [],
      "name": "notRevealedUri",
      "outputs": [
        {
          "internalType": "string",
          "name": "",
          "type": "string"
        }
      ],
      "stateMutability": "view",
      "type": "function"
    },
    {
      "inputs": [],
      "name": "owner",
      "outputs": [
        {
          "internalType": "address",
          "name": "",
          "type": "address"
        }
      ],
      "stateMutability": "view",
      "type": "function"
    },
    {
      "inputs": [
        {
          "internalType": "uint256",
          "name": "tokenId",
          "type": "uint256"
        }
      ],
      "name": "ownerOf",
      "outputs": [
        {
          "internalType": "address",
          "name": "",
          "type": "address"
        }
      ],
      "stateMutability": "view",
      "type": "function"
    },
    {
      "inputs": [
        {
          "internalType": "bool",
          "name": "_state",
          "type": "bool"
        }
      ],
      "name": "pause",
      "outputs": [],
      "stateMutability": "nonpayable",
      "type": "function"
    },
    {
      "inputs": [],
      "name": "paused",
      "outputs": [
        {
          "internalType": "bool",
          "name": "",
          "type": "bool"
        }
      ],
      "stateMutability": "view",
      "type": "function"
    },
    {
      "inputs": [],
      "name": "paymentsToken",
      "outputs": [
        {
          "internalType": "contract IERC20",
          "name": "",
          "type": "address"
        }
      ],
      "stateMutability": "view",
      "type": "function"
    },
    {
      "inputs": [],
      "name": "publicSaleDate",
      "outputs": [
        {
          "internalType": "uint256",
          "name": "",
          "type": "uint256"
        }
      ],
      "stateMutability": "view",
      "type": "function"
    },
    {
      "inputs": [
        {
          "internalType": "uint256",
          "name": "_ownerMintedCount",
          "type": "uint256"
        },
        {
          "internalType": "uint256",
          "name": "_mintAmount",
          "type": "uint256"
        }
      ],
      "name": "publicsaleValidations",
      "outputs": [],
      "stateMutability": "view",
      "type": "function"
    },
    {
      "inputs": [],
      "name": "renounceOwnership",
      "outputs": [],
      "stateMutability": "nonpayable",
      "type": "function"
    },
    {
      "inputs": [],
      "name": "reveal",
      "outputs": [],
      "stateMutability": "nonpayable",
      "type": "function"
    },
    {
      "inputs": [],
      "name": "revealed",
      "outputs": [
        {
          "internalType": "bool",
          "name": "",
          "type": "bool"
        }
      ],
      "stateMutability": "view",
      "type": "function"
    },
    {
      "inputs": [
        {
          "internalType": "address",
          "name": "from",
          "type": "address"
        },
        {
          "internalType": "address",
          "name": "to",
          "type": "address"
        },
        {
          "internalType": "uint256",
          "name": "tokenId",
          "type": "uint256"
        }
      ],
      "name": "safeTransferFrom",
      "outputs": [],
      "stateMutability": "nonpayable",
      "type": "function"
    },
    {
      "inputs": [
        {
          "internalType": "address",
          "name": "from",
          "type": "address"
        },
        {
          "internalType": "address",
          "name": "to",
          "type": "address"
        },
        {
          "internalType": "uint256",
          "name": "tokenId",
          "type": "uint256"
        },
        {
          "internalType": "bytes",
          "name": "_data",
          "type": "bytes"
        }
      ],
      "name": "safeTransferFrom",
      "outputs": [],
      "stateMutability": "nonpayable",
      "type": "function"
    },
    {
      "inputs": [
        {
          "internalType": "address",
          "name": "operator",
          "type": "address"
        },
        {
          "internalType": "bool",
          "name": "approved",
          "type": "bool"
        }
      ],
      "name": "setApprovalForAll",
      "outputs": [],
      "stateMutability": "nonpayable",
      "type": "function"
    },
    {
      "inputs": [
        {
          "internalType": "string",
          "name": "_newBaseExtension",
          "type": "string"
        }
      ],
      "name": "setBaseExtension",
      "outputs": [],
      "stateMutability": "nonpayable",
      "type": "function"
    },
    {
      "inputs": [
        {
          "internalType": "string",
          "name": "_newBaseURI",
          "type": "string"
        }
      ],
      "name": "setBaseURI",
      "outputs": [],
      "stateMutability": "nonpayable",
      "type": "function"
    },
    {
      "inputs": [
        {
          "internalType": "uint256",
          "name": "_newCost",
          "type": "uint256"
        }
      ],
      "name": "setCost",
      "outputs": [],
      "stateMutability": "nonpayable",
      "type": "function"
    },
    {
      "inputs": [
        {
          "internalType": "uint256",
          "name": "_maxSupply",
          "type": "uint256"
        }
      ],
      "name": "setMaxSupply",
      "outputs": [],
      "stateMutability": "nonpayable",
      "type": "function"
    },
    {
      "inputs": [
        {
          "internalType": "uint256",
          "name": "_limit",
          "type": "uint256"
        }
      ],
      "name": "setNftPerAddressLimit",
      "outputs": [],
      "stateMutability": "nonpayable",
      "type": "function"
    },
    {
      "inputs": [
        {
          "internalType": "string",
          "name": "_notRevealedURI",
          "type": "string"
        }
      ],
      "name": "setNotRevealedURI",
      "outputs": [],
      "stateMutability": "nonpayable",
      "type": "function"
    },
    {
      "inputs": [
        {
          "internalType": "uint256",
          "name": "_publicSaleDate",
          "type": "uint256"
        }
      ],
      "name": "setPublicSaleDate",
      "outputs": [],
      "stateMutability": "nonpayable",
      "type": "function"
    },
    {
      "inputs": [
        {
          "internalType": "address",
          "name": "_address",
          "type": "address"
        }
      ],
      "name": "setStakingAddress",
      "outputs": [],
      "stateMutability": "nonpayable",
      "type": "function"
    },
    {
      "inputs": [
        {
          "internalType": "uint256",
          "name": "_newmaxMintAmount",
          "type": "uint256"
        }
      ],
      "name": "setmaxMintAmount",
      "outputs": [],
      "stateMutability": "nonpayable",
      "type": "function"
    },
    {
      "inputs": [
        {
          "internalType": "uint256",
          "name": "",
          "type": "uint256"
        }
      ],
      "name": "stakeTime",
      "outputs": [
        {
          "internalType": "uint256",
          "name": "",
          "type": "uint256"
        }
      ],
      "stateMutability": "view",
      "type": "function"
    },
    {
      "inputs": [
        {
          "internalType": "uint256",
          "name": "",
          "type": "uint256"
        }
      ],
      "name": "stakedInTime",
      "outputs": [
        {
          "internalType": "uint256",
          "name": "",
          "type": "uint256"
        }
      ],
      "stateMutability": "view",
      "type": "function"
    },
    {
      "inputs": [],
      "name": "stakingAddress",
      "outputs": [
        {
          "internalType": "address",
          "name": "",
          "type": "address"
        }
      ],
      "stateMutability": "view",
      "type": "function"
    },
    {
      "inputs": [
        {
          "internalType": "bytes4",
          "name": "interfaceId",
          "type": "bytes4"
        }
      ],
      "name": "supportsInterface",
      "outputs": [
        {
          "internalType": "bool",
          "name": "",
          "type": "bool"
        }
      ],
      "stateMutability": "view",
      "type": "function"
    },
    {
      "inputs": [],
      "name": "symbol",
      "outputs": [
        {
          "internalType": "string",
          "name": "",
          "type": "string"
        }
      ],
      "stateMutability": "view",
      "type": "function"
    },
    {
      "inputs": [
        {
          "internalType": "uint256",
          "name": "index",
          "type": "uint256"
        }
      ],
      "name": "tokenByIndex",
      "outputs": [
        {
          "internalType": "uint256",
          "name": "",
          "type": "uint256"
        }
      ],
      "stateMutability": "view",
      "type": "function"
    },
    {
      "inputs": [
        {
          "internalType": "address",
          "name": "owner",
          "type": "address"
        },
        {
          "internalType": "uint256",
          "name": "index",
          "type": "uint256"
        }
      ],
      "name": "tokenOfOwnerByIndex",
      "outputs": [
        {
          "internalType": "uint256",
          "name": "",
          "type": "uint256"
        }
      ],
      "stateMutability": "view",
      "type": "function"
    },
    {
      "inputs": [
        {
          "internalType": "uint256",
          "name": "tokenId",
          "type": "uint256"
        }
      ],
      "name": "tokenURI",
      "outputs": [
        {
          "internalType": "string",
          "name": "",
          "type": "string"
        }
      ],
      "stateMutability": "view",
      "type": "function"
    },
    {
      "inputs": [],
      "name": "totalSupply",
      "outputs": [
        {
          "internalType": "uint256",
          "name": "",
          "type": "uint256"
        }
      ],
      "stateMutability": "view",
      "type": "function"
    },
    {
      "inputs": [
        {
          "internalType": "address",
          "name": "from",
          "type": "address"
        },
        {
          "internalType": "address",
          "name": "to",
          "type": "address"
        },
        {
          "internalType": "uint256",
          "name": "tokenId",
          "type": "uint256"
        }
      ],
      "name": "transferFrom",
      "outputs": [],
      "stateMutability": "nonpayable",
      "type": "function"
    },
    {
      "inputs": [
        {
          "internalType": "address",
          "name": "newOwner",
          "type": "address"
        }
      ],
      "name": "transferOwnership",
      "outputs": [],
      "stateMutability": "nonpayable",
      "type": "function"
    },
    {
      "inputs": [
        {
          "internalType": "uint256",
          "name": "tokenId",
          "type": "uint256"
        },
        {
          "internalType": "bool",
          "name": "isStake",
          "type": "bool"
        }
      ],
      "name": "updateStakeTime",
      "outputs": [],
      "stateMutability": "nonpayable",
      "type": "function"
    },
    {
      "inputs": [
        {
          "internalType": "address",
          "name": "_owner",
          "type": "address"
        }
      ],
      "name": "walletOfOwner",
      "outputs": [
        {
          "internalType": "uint256[]",
          "name": "",
          "type": "uint256[]"
        }
      ],
      "stateMutability": "view",
      "type": "function"
    },
    {
      "inputs": [
        {
          "internalType": "address[]",
          "name": "addresses",
          "type": "address[]"
        }
      ],
      "name": "whitelistUsers",
      "outputs": [],
      "stateMutability": "nonpayable",
      "type": "function"
    },
    {
      "inputs": [],
      "name": "withdraw",
      "outputs": [],
      "stateMutability": "payable",
      "type": "function"
    }
  ],
  "transactionHash": "0x0e7d76e44e796ca7442eba30f7bc0fcab9c2cf0bec6348086095aacb479007ae",
  "args": [
    "AgencyWolfBillionaireClub",
    "AWBC",
    "https://nftassets.annex.finance/ipfs/QmeHoeon52U4HYuemkfuKtzxcSZV2xSW69rBeEKKPzav4G",
    "0xb75f3F9D35d256a94BBd7A3fC2E16c768E17930E"
  ],
  "solcInputHash": "81f490f87f8e67253ef0ca0c9bb37303",
  "bytecode": "0x60c06040526005608081905264173539b7b760d91b60a09081526200002891600c9190620001ae565b5069152d02c7e14af6800000600e55612710600f55601460105560646011556361808d906012556013805461ffff60a01b191690553480156200006a57600080fd5b50604051620039d0380380620039d08339810160408190526200008d91620002e0565b835184908490620000a6906000906020850190620001ae565b508051620000bc906001906020840190620001ae565b505050620000d9620000d36200010960201b60201c565b6200010d565b601880546001600160a01b0319166001600160a01b038316179055620000ff826200015f565b5050505062000513565b3390565b600a80546001600160a01b038381166001600160a01b0319831681179093556040519116919082907f8be0079c531659141344cd1fd0a4f28419497f9722a3daafe3b4186f6b6457e090600090a35050565b600a546001600160a01b03163314620001955760405162461bcd60e51b81526004016200018c90620003a1565b60405180910390fd5b8051620001aa90600d906020840190620001ae565b5050565b828054620001bc906200046d565b90600052602060002090601f016020900481019282620001e057600085556200022b565b82601f10620001fb57805160ff19168380011785556200022b565b828001600101855582156200022b579182015b828111156200022b5782518255916020019190600101906200020e565b50620002399291506200023d565b5090565b5b808211156200023957600081556001016200023e565b60006200026b6200026584620003fb565b620003dc565b905082815260208101848484011115620002885762000288600080fd5b620002958482856200043a565b509392505050565b8051620002aa81620004f9565b92915050565b600082601f830112620002c657620002c6600080fd5b8151620002d884826020860162000254565b949350505050565b60008060008060808587031215620002fb57620002fb600080fd5b84516001600160401b03811115620003165762000316600080fd5b6200032487828801620002b0565b94505060208501516001600160401b03811115620003455762000345600080fd5b6200035387828801620002b0565b93505060408501516001600160401b03811115620003745762000374600080fd5b6200038287828801620002b0565b925050606062000395878288016200029d565b91505092959194509250565b60208082528181019081527f4f776e61626c653a2063616c6c6572206973206e6f7420746865206f776e6572604083015260608201620002aa565b6000620003e860405190565b9050620003f682826200049e565b919050565b60006001600160401b03821115620004175762000417620004e3565b601f19601f83011660200192915050565b60006001600160a01b038216620002aa565b60005b83811015620004575781810151838201526020016200043d565b8381111562000467576000848401525b50505050565b6002810460018216806200048257607f821691505b60208210811415620004985762000498620004cd565b50919050565b601f19601f83011681018181106001600160401b0382111715620004c657620004c6620004e3565b6040525050565b634e487b7160e01b600052602260045260246000fd5b634e487b7160e01b600052604160045260246000fd5b620005048162000428565b81146200051057600080fd5b50565b6134ad80620005236000396000f3fe6080604052600436106103815760003560e01c806370a08231116101d1578063ba7d2c7611610102578063da3ef23f116100a0578063f2c4ce1e1161006f578063f2c4ce1e14610a45578063f2fde38b14610a65578063f4e0d9ac14610a85578063ffb75cab14610aa557600080fd5b8063da3ef23f146109a6578063e985e9c5146109c6578063eced387314610a0f578063edec5f2714610a2557600080fd5b8063cfa92d94116100dc578063cfa92d9414610923578063d0eb26b014610950578063d5abeb0114610970578063d7b4be241461098657600080fd5b8063ba7d2c76146108d8578063c6682862146108ee578063c87b56dd1461090357600080fd5b806395d89b411161016f578063a22cb46511610149578063a22cb46514610856578063a475b5dd14610876578063ae1f5a941461088b578063b88d4fde146108b857600080fd5b806395d89b41146108015780639b6b3f6b14610816578063a0712d681461083657600080fd5b80637f00c7a6116101ab5780637f00c7a61461078e578063831e60de146107ae57806383a076be146107c35780638da5cb5b146107e357600080fd5b806370a0823114610744578063714c539814610764578063715018a61461077957600080fd5b80632f745c59116102b657806351830227116102545780635c975abb116102235780635c975abb146106ce5780636352211e146106ef5780636f8b44b01461070f5780636f9fb98a1461072f57600080fd5b8063518302271461064d57806353e4c0b81461066e57806355f804b31461068e5780635b0d65d8146106ae57600080fd5b806342842e0e1161029057806342842e0e146105c0578063438b6300146105e057806344a0d68a1461060d5780634f6ccce71461062d57600080fd5b80632f745c591461055f5780633af32abf1461057f5780633ccfd60b146105b857600080fd5b80630b64251e1161032357806318160ddd116102fd57806318160ddd146104e757806318cae269146104fc578063239c70ae1461052957806323b872dd1461053f57600080fd5b80630b64251e1461049c5780630e54a883146104b157806313faede6146104d157600080fd5b8063081812fc1161035f578063081812fc14610400578063081c8c441461042d578063095ea7b3146104425780630a42f0491461046257600080fd5b806301ffc9a71461038657806302329a29146103bc57806306fdde03146103de575b600080fd5b34801561039257600080fd5b506103a66103a1366004612705565b610ac5565b6040516103b39190613046565b60405180910390f35b3480156103c857600080fd5b506103dc6103d73660046126c3565b610af0565b005b3480156103ea57600080fd5b506103f3610b41565b6040516103b39190613062565b34801561040c57600080fd5b5061042061041b366004612782565b610bd3565b6040516103b39190612fa0565b34801561043957600080fd5b506103f3610c23565b34801561044e57600080fd5b506103dc61045d366004612655565b610cb1565b34801561046e57600080fd5b5061048f61047d366004612782565b60176020526000908152604090205481565b6040516103b39190613208565b3480156104a857600080fd5b506103a6610d37565b3480156104bd57600080fd5b506103dc6104cc366004612782565b610d5a565b3480156104dd57600080fd5b5061048f600e5481565b3480156104f357600080fd5b5060085461048f565b34801561050857600080fd5b5061048f6105173660046124f5565b60156020526000908152604090205481565b34801561053557600080fd5b5061048f60105481565b34801561054b57600080fd5b506103dc61055a366004612553565b610d89565b34801561056b57600080fd5b5061048f61057a366004612655565b610dba565b34801561058b57600080fd5b506103a661059a3660046124f5565b6001600160a01b031660009081526014602052604090205460ff1690565b6103dc610e0c565b3480156105cc57600080fd5b506103dc6105db366004612553565b610f4e565b3480156105ec57600080fd5b506106006105fb3660046124f5565b610f69565b6040516103b39190613035565b34801561061957600080fd5b506103dc610628366004612782565b61100b565b34801561063957600080fd5b5061048f610648366004612782565b61103a565b34801561065957600080fd5b506013546103a690600160a81b900460ff1681565b34801561067a57600080fd5b506103dc6106893660046127e6565b611088565b34801561069a57600080fd5b506103dc6106a9366004612747565b61111d565b3480156106ba57600080fd5b506103dc6106c9366004612808565b61115a565b3480156106da57600080fd5b506013546103a690600160a01b900460ff1681565b3480156106fb57600080fd5b5061042061070a366004612782565b6111a7565b34801561071b57600080fd5b506103dc61072a366004612782565b6111dc565b34801561073b57600080fd5b5061048f61120b565b34801561075057600080fd5b5061048f61075f3660046124f5565b61123d565b34801561077057600080fd5b506103f3611281565b34801561078557600080fd5b506103dc6112bb565b34801561079a57600080fd5b506103dc6107a9366004612782565b6112f1565b3480156107ba57600080fd5b50600e5461048f565b3480156107cf57600080fd5b506103dc6107de3660046127c4565b611320565b3480156107ef57600080fd5b50600a546001600160a01b0316610420565b34801561080d57600080fd5b506103f3611402565b34801561082257600080fd5b5061048f610831366004612782565b611411565b34801561084257600080fd5b506103dc610851366004612782565b611467565b34801561086257600080fd5b506103dc610871366004612622565b611611565b34801561088257600080fd5b506103dc61161c565b34801561089757600080fd5b506018546108ab906001600160a01b031681565b6040516103b39190613054565b3480156108c457600080fd5b506103dc6108d33660046125a3565b61165b565b3480156108e457600080fd5b5061048f60115481565b3480156108fa57600080fd5b506103f361168d565b34801561090f57600080fd5b506103f361091e366004612782565b61169a565b34801561092f57600080fd5b5061048f61093e366004612782565b60166020526000908152604090205481565b34801561095c57600080fd5b506103dc61096b366004612782565b6117d7565b34801561097c57600080fd5b5061048f600f5481565b34801561099257600080fd5b50601354610420906001600160a01b031681565b3480156109b257600080fd5b506103dc6109c1366004612747565b611806565b3480156109d257600080fd5b506103a66109e1366004612516565b6001600160a01b03918216600090815260056020908152604080832093909416825291909152205460ff1690565b348015610a1b57600080fd5b5061048f60125481565b348015610a3157600080fd5b506103dc610a40366004612688565b611843565b348015610a5157600080fd5b506103dc610a60366004612747565b6118d5565b348015610a7157600080fd5b506103dc610a803660046124f5565b611912565b348015610a9157600080fd5b506103dc610aa03660046124f5565b61196e565b348015610ab157600080fd5b5061048f610ac03660046124f5565b6119ba565b60006001600160e01b0319821663780e9d6360e01b1480610aea5750610aea826119c6565b92915050565b600a546001600160a01b03163314610b235760405162461bcd60e51b8152600401610b1a90613183565b60405180910390fd5b60138054911515600160a01b0260ff60a01b19909216919091179055565b606060008054610b5090613338565b80601f0160208091040260200160405190810160405280929190818152602001828054610b7c90613338565b8015610bc95780601f10610b9e57610100808354040283529160200191610bc9565b820191906000526020600020905b815481529060010190602001808311610bac57829003601f168201915b5050505050905090565b6000818152600260205260408120546001600160a01b0316610c075760405162461bcd60e51b8152600401610b1a90613173565b506000908152600460205260409020546001600160a01b031690565b600d8054610c3090613338565b80601f0160208091040260200160405190810160405280929190818152602001828054610c5c90613338565b8015610ca95780601f10610c7e57610100808354040283529160200191610ca9565b820191906000526020600020905b815481529060010190602001808311610c8c57829003601f168201915b505050505081565b6000610cbc826111a7565b9050806001600160a01b0316836001600160a01b03161415610cf05760405162461bcd60e51b8152600401610b1a906131b3565b336001600160a01b0382161480610d0c5750610d0c81336109e1565b610d285760405162461bcd60e51b8152600401610b1a90613123565b610d328383611a16565b505050565b60006012544210158015610d555750601354600160a01b900460ff16155b905090565b600a546001600160a01b03163314610d845760405162461bcd60e51b8152600401610b1a90613183565b601255565b610d933382611a84565b610daf5760405162461bcd60e51b8152600401610b1a906131d8565b610d32838383611b36565b6000610dc58361123d565b8210610de35760405162461bcd60e51b8152600401610b1a90613083565b506001600160a01b03919091166000908152600660209081526040808320938352929052205490565b600a546001600160a01b03163314610e365760405162461bcd60e51b8152600401610b1a90613183565b6018546040516370a0823160e01b81526000916001600160a01b0316906370a0823190610e67903090600401612fa0565b60206040518083038186803b158015610e7f57600080fd5b505afa158015610e93573d6000803e3d6000fd5b505050506040513d601f19601f82011682018060405250810190610eb791906127a3565b905060008111610ec657600080fd5b60185460405163a9059cbb60e01b81526001600160a01b039091169063a9059cbb90610ef8903390859060040161301a565b602060405180830381600087803b158015610f1257600080fd5b505af1158015610f26573d6000803e3d6000fd5b505050506040513d601f19601f82011682018060405250810190610f4a91906126e4565b5050565b610d328383836040518060200160405280600081525061165b565b60606000610f768361123d565b905060008167ffffffffffffffff811115610f9357610f9361342f565b604051908082528060200260200182016040528015610fbc578160200160208202803683370190505b50905060005b8281101561100357610fd48582610dba565b828281518110610fe657610fe6613419565b602090810291909101015280610ffb81613392565b915050610fc2565b509392505050565b600a546001600160a01b031633146110355760405162461bcd60e51b8152600401610b1a90613183565b600e55565b600061104560085490565b82106110635760405162461bcd60e51b8152600401610b1a906131e8565b6008828154811061107657611076613419565b90600052602060002001549050919050565b6013546001600160a01b031633146110b25760405162461bcd60e51b8152600401610b1a906131c3565b80156110cc57506000908152601760205260409020429055565b6000828152601760209081526040808320546016909252909120546110f290429061327c565b6110fc91906132c7565b60008381526016602090815260408083209390935560179052908120555050565b600a546001600160a01b031633146111475760405162461bcd60e51b8152600401610b1a90613183565b8051610f4a90600b906020840190612328565b601154611167828461327c565b11156111855760405162461bcd60e51b8152600401610b1a906130d3565b601054811115610f4a5760405162461bcd60e51b8152600401610b1a90613103565b6000818152600260205260408120546001600160a01b031680610aea5760405162461bcd60e51b8152600401610b1a90613143565b600a546001600160a01b031633146112065760405162461bcd60e51b8152600401610b1a90613183565b600f55565b600a546000906001600160a01b031633146112385760405162461bcd60e51b8152600401610b1a90613183565b504790565b60006001600160a01b0382166112655760405162461bcd60e51b8152600401610b1a90613133565b506001600160a01b031660009081526003602052604090205490565b600a546060906001600160a01b031633146112ae5760405162461bcd60e51b8152600401610b1a90613183565b600b8054610b5090613338565b600a546001600160a01b031633146112e55760405162461bcd60e51b8152600401610b1a90613183565b6112ef6000611c63565b565b600a546001600160a01b0316331461131b5760405162461bcd60e51b8152600401610b1a90613183565b601055565b600a546001600160a01b0316331461134a5760405162461bcd60e51b8152600401610b1a90613183565b6000821161136a5760405162461bcd60e51b8152600401610b1a906131f8565b600061137560085490565b600f54909150611385848361327c565b11156113a35760405162461bcd60e51b8152600401610b1a90613153565b60015b8381116113fc576001600160a01b03831660009081526015602052604081208054916113d183613392565b909155506113ea9050836113e5838561327c565b611cb5565b806113f481613392565b9150506113a6565b50505050565b606060018054610b5090613338565b600081815260166020908152604080832054601790925282205415610aea5760008381526017602090815260408083205460169092529091205461145690429061327c565b61146091906132c7565b9392505050565b601354600160a01b900460ff16156114915760405162461bcd60e51b8152600401610b1a90613193565b6012544210156114b35760405162461bcd60e51b8152600401610b1a90613073565b80600081116114d45760405162461bcd60e51b8152600401610b1a906131f8565b60006114df60085490565b336000908152601560205260409020549091506114fc818561115a565b600f54611509858461327c565b11156115275760405162461bcd60e51b8152600401610b1a90613153565b601854600e546001600160a01b03909116906323b872dd903390309061154e9089906132a8565b6040518463ffffffff1660e01b815260040161156c93929190612fae565b602060405180830381600087803b15801561158657600080fd5b505af115801561159a573d6000803e3d6000fd5b505050506040513d601f19601f820116820180604052508101906115be91906126e4565b5060015b84811161160a573360009081526015602052604081208054916115e483613392565b909155506115f89050336113e5838661327c565b8061160281613392565b9150506115c2565b5050505050565b610f4a338383611ccf565b600a546001600160a01b031633146116465760405162461bcd60e51b8152600401610b1a90613183565b6013805460ff60a81b1916600160a81b179055565b6116653383611a84565b6116815760405162461bcd60e51b8152600401610b1a906131d8565b6113fc84848484611d72565b600c8054610c3090613338565b6000818152600260205260409020546060906001600160a01b03166116d15760405162461bcd60e51b8152600401610b1a906131a3565b601354600160a81b900460ff1661177457600d80546116ef90613338565b80601f016020809104026020016040519081016040528092919081815260200182805461171b90613338565b80156117685780601f1061173d57610100808354040283529160200191611768565b820191906000526020600020905b81548152906001019060200180831161174b57829003601f168201915b50505050509050919050565b600061177e611da5565b9050600081511161179e5760405180602001604052806000815250611460565b806117a884611db4565b600c6040516020016117bc93929190612f73565b6040516020818303038152906040529392505050565b919050565b600a546001600160a01b031633146118015760405162461bcd60e51b8152600401610b1a90613183565b601155565b600a546001600160a01b031633146118305760405162461bcd60e51b8152600401610b1a90613183565b8051610f4a90600c906020840190612328565b600a546001600160a01b0316331461186d5760405162461bcd60e51b8152600401610b1a90613183565b60005b8151811015610f4a5760016014600084848151811061189157611891613419565b6020908102919091018101516001600160a01b03168252810191909152604001600020805460ff1916911515919091179055806118cd81613392565b915050611870565b600a546001600160a01b031633146118ff5760405162461bcd60e51b8152600401610b1a90613183565b8051610f4a90600d906020840190612328565b600a546001600160a01b0316331461193c5760405162461bcd60e51b8152600401610b1a90613183565b6001600160a01b0381166119625760405162461bcd60e51b8152600401610b1a906130a3565b61196b81611c63565b50565b600a546001600160a01b031633146119985760405162461bcd60e51b8152600401610b1a90613183565b601380546001600160a01b0319166001600160a01b0392909216919091179055565b6000806114608361123d565b60006001600160e01b031982166380ac58cd60e01b14806119f757506001600160e01b03198216635b5e139f60e01b145b80610aea57506301ffc9a760e01b6001600160e01b0319831614610aea565b600081815260046020526040902080546001600160a01b0319166001600160a01b0384169081179091558190611a4b826111a7565b6001600160a01b03167f8c5be1e5ebec7d5bd14f71427d1e84f3dd0314c0f7b2291e5b200ac8c7c3b92560405160405180910390a45050565b6000818152600260205260408120546001600160a01b0316611ab85760405162461bcd60e51b8152600401610b1a90613113565b6000611ac3836111a7565b9050806001600160a01b0316846001600160a01b03161480611afe5750836001600160a01b0316611af384610bd3565b6001600160a01b0316145b80611b2e57506001600160a01b0380821660009081526005602090815260408083209388168352929052205460ff165b949350505050565b826001600160a01b0316611b49826111a7565b6001600160a01b031614611b6f5760405162461bcd60e51b8152600401610b1a906130b3565b6001600160a01b038216611b955760405162461bcd60e51b8152600401610b1a906130e3565b611ba0838383611eb2565b611bab600082611a16565b6001600160a01b0383166000908152600360205260408120805460019290611bd49084906132c7565b90915550506001600160a01b0382166000908152600360205260408120805460019290611c0290849061327c565b909155505060008181526002602052604080822080546001600160a01b0319166001600160a01b0386811691821790925591518493918716917fddf252ad1be2c89b69c2b068fc378daa952ba7f163c4a11628f55a4df523b3ef91a4505050565b600a80546001600160a01b038381166001600160a01b0319831681179093556040519116919082907f8be0079c531659141344cd1fd0a4f28419497f9722a3daafe3b4186f6b6457e090600090a35050565b610f4a828260405180602001604052806000815250611f6a565b816001600160a01b0316836001600160a01b03161415611d015760405162461bcd60e51b8152600401610b1a906130f3565b6001600160a01b0383811660008181526005602090815260408083209487168084529490915290819020805460ff1916851515179055517f17307eab39ab6107e8899845ad3d59bd9653f200f220920489ca2b5937696c3190611d65908590613046565b60405180910390a3505050565b611d7d848484611b36565b611d8984848484611f9d565b6113fc5760405162461bcd60e51b8152600401610b1a90613093565b6060600b8054610b5090613338565b606081611dd85750506040805180820190915260018152600360fc1b602082015290565b8160005b8115611e025780611dec81613392565b9150611dfb9050600a83613294565b9150611ddc565b60008167ffffffffffffffff811115611e1d57611e1d61342f565b6040519080825280601f01601f191660200182016040528015611e47576020820181803683370190505b5090505b8415611b2e57611e5c6001836132c7565b9150611e69600a866133ad565b611e7490603061327c565b60f81b818381518110611e8957611e89613419565b60200101906001600160f81b031916908160001a905350611eab600a86613294565b9450611e4b565b6001600160a01b038316611f0d57611f0881600880546000838152600960205260408120829055600182018355919091527ff3f7a9fe364faab93b216da50a3214154f22a0a2b415b23a84c8169e8b636ee30155565b611f30565b816001600160a01b0316836001600160a01b031614611f3057611f3083826120aa565b6001600160a01b038216611f4757610d3281612147565b826001600160a01b0316826001600160a01b031614610d3257610d3282826121f6565b611f74838361223a565b611f816000848484611f9d565b610d325760405162461bcd60e51b8152600401610b1a90613093565b60006001600160a01b0384163b1561209f57604051630a85bd0160e11b81526001600160a01b0385169063150b7a0290611fe1903390899088908890600401612fd6565b602060405180830381600087803b158015611ffb57600080fd5b505af192505050801561202b575060408051601f3d908101601f1916820190925261202891810190612726565b60015b612085573d808015612059576040519150601f19603f3d011682016040523d82523d6000602084013e61205e565b606091505b50805161207d5760405162461bcd60e51b8152600401610b1a90613093565b805181602001fd5b6001600160e01b031916630a85bd0160e11b149050611b2e565b506001949350505050565b600060016120b78461123d565b6120c191906132c7565b600083815260076020526040902054909150808214612114576001600160a01b03841660009081526006602090815260408083208584528252808320548484528184208190558352600790915290208190555b5060009182526007602090815260408084208490556001600160a01b039094168352600681528383209183525290812055565b600854600090612159906001906132c7565b6000838152600960205260408120546008805493945090928490811061218157612181613419565b9060005260206000200154905080600883815481106121a2576121a2613419565b60009182526020808320909101929092558281526009909152604080822084905585825281205560088054806121da576121da613403565b6001900381819060005260206000200160009055905550505050565b60006122018361123d565b6001600160a01b039093166000908152600660209081526040808320868452825280832085905593825260079052919091209190915550565b6001600160a01b0382166122605760405162461bcd60e51b8152600401610b1a90613163565b6000818152600260205260409020546001600160a01b0316156122955760405162461bcd60e51b8152600401610b1a906130c3565b6122a160008383611eb2565b6001600160a01b03821660009081526003602052604081208054600192906122ca90849061327c565b909155505060008181526002602052604080822080546001600160a01b0319166001600160a01b03861690811790915590518392907fddf252ad1be2c89b69c2b068fc378daa952ba7f163c4a11628f55a4df523b3ef908290a45050565b82805461233490613338565b90600052602060002090601f016020900481019282612356576000855561239c565b82601f1061236f57805160ff191683800117855561239c565b8280016001018555821561239c579182015b8281111561239c578251825591602001919060010190612381565b506123a89291506123ac565b5090565b5b808211156123a857600081556001016123ad565b60006123d46123cf8461322d565b613216565b905080838252602082019050828560208602820111156123f6576123f6600080fd5b60005b85811015612422578161240c8882612460565b84525060209283019291909101906001016123f9565b5050509392505050565b600061243a6123cf84613251565b90508281526020810184848401111561245557612455600080fd5b611003848285613300565b8035610aea81613445565b600082601f83011261247f5761247f600080fd5b8135611b2e8482602086016123c1565b8035610aea81613459565b8051610aea81613459565b8035610aea81613461565b8051610aea81613461565b600082601f8301126124cf576124cf600080fd5b8135611b2e84826020860161242c565b8035610aea81613471565b8051610aea81613471565b60006020828403121561250a5761250a600080fd5b6000611b2e8484612460565b6000806040838503121561252c5761252c600080fd5b60006125388585612460565b925050602061254985828601612460565b9150509250929050565b60008060006060848603121561256b5761256b600080fd5b60006125778686612460565b935050602061258886828701612460565b9250506040612599868287016124df565b9150509250925092565b600080600080608085870312156125bc576125bc600080fd5b60006125c88787612460565b94505060206125d987828801612460565b93505060406125ea878288016124df565b925050606085013567ffffffffffffffff81111561260a5761260a600080fd5b612616878288016124bb565b91505092959194509250565b6000806040838503121561263857612638600080fd5b60006126448585612460565b92505060206125498582860161248f565b6000806040838503121561266b5761266b600080fd5b60006126778585612460565b9250506020612549858286016124df565b60006020828403121561269d5761269d600080fd5b813567ffffffffffffffff8111156126b7576126b7600080fd5b611b2e8482850161246b565b6000602082840312156126d8576126d8600080fd5b6000611b2e848461248f565b6000602082840312156126f9576126f9600080fd5b6000611b2e848461249a565b60006020828403121561271a5761271a600080fd5b6000611b2e84846124a5565b60006020828403121561273b5761273b600080fd5b6000611b2e84846124b0565b60006020828403121561275c5761275c600080fd5b813567ffffffffffffffff81111561277657612776600080fd5b611b2e848285016124bb565b60006020828403121561279757612797600080fd5b6000611b2e84846124df565b6000602082840312156127b8576127b8600080fd5b6000611b2e84846124ea565b600080604083850312156127da576127da600080fd5b600061253885856124df565b600080604083850312156127fc576127fc600080fd5b600061264485856124df565b6000806040838503121561281e5761281e600080fd5b600061267785856124df565b60006128368383612f6d565b505060200190565b612847816132de565b82525050565b6000612857825190565b80845260209384019383018060005b8381101561288b57815161287a888261282a565b975060208301925050600101612866565b509495945050505050565b801515612847565b60006128a8825190565b8084526020840193506128bf81856020860161330c565b601f01601f19169290920192915050565b612847816132ef565b60006128e3825190565b6128f181856020860161330c565b9290920192915050565b6000815461290881613338565b60018216801561291f576001811461293057612960565b60ff19831686528186019350612960565b60008581526020902060005b838110156129585781548882015260019091019060200161293c565b838801955050505b50505092915050565b601881526000602082017f53616c6520686173206e6f742073746172746564207965740000000000000000815291505b5060200190565b602b81526000602082017f455243373231456e756d657261626c653a206f776e657220696e646578206f7581526a74206f6620626f756e647360a81b602082015291505b5060400190565b603281526000602082017f4552433732313a207472616e7366657220746f206e6f6e20455243373231526581527131b2b4bb32b91034b6b83632b6b2b73a32b960711b602082015291506129e4565b602681526000602082017f4f776e61626c653a206e6577206f776e657220697320746865207a65726f206181526564647265737360d01b602082015291506129e4565b602581526000602082017f4552433732313a207472616e736665722066726f6d20696e636f72726563742081526437bbb732b960d91b602082015291506129e4565b601c81526000602082017f4552433732313a20746f6b656e20616c7265616479206d696e7465640000000081529150612999565b601c81526000602082017f6d6178204e46542070657220616464726573732065786365656465640000000081529150612999565b602481526000602082017f4552433732313a207472616e7366657220746f20746865207a65726f206164648152637265737360e01b602082015291506129e4565b601981526000602082017f4552433732313a20617070726f766520746f2063616c6c65720000000000000081529150612999565b602881526000602082017f6d6178206d696e7420616d6f756e7420706572207472616e73616374696f6e20815267195e18d95959195960c21b602082015291506129e4565b602c81526000602082017f4552433732313a206f70657261746f7220717565727920666f72206e6f6e657881526b34b9ba32b73a103a37b5b2b760a11b602082015291506129e4565b603881526000602082017f4552433732313a20617070726f76652063616c6c6572206973206e6f74206f7781527f6e6572206e6f7220617070726f76656420666f7220616c6c0000000000000000602082015291506129e4565b602a81526000602082017f4552433732313a2062616c616e636520717565727920666f7220746865207a65815269726f206164647265737360b01b602082015291506129e4565b602981526000602082017f4552433732313a206f776e657220717565727920666f72206e6f6e657869737481526832b73a103a37b5b2b760b91b602082015291506129e4565b60168152600060208201751b585e08139195081b1a5b5a5d08195e18d95959195960521b81529150612999565b60208082527f4552433732313a206d696e7420746f20746865207a65726f206164647265737391019081526000612999565b602c81526000602082017f4552433732313a20617070726f76656420717565727920666f72206e6f6e657881526b34b9ba32b73a103a37b5b2b760a11b602082015291506129e4565b60208082527f4f776e61626c653a2063616c6c6572206973206e6f7420746865206f776e657291019081526000612999565b60168152600060208201751d1a194818dbdb9d1c9858dd081a5cc81c185d5cd95960521b81529150612999565b602f81526000602082017f4552433732314d657461646174613a2055524920717565727920666f72206e6f81526e3732bc34b9ba32b73a103a37b5b2b760891b602082015291506129e4565b602181526000602082017f4552433732313a20617070726f76616c20746f2063757272656e74206f776e658152603960f91b602082015291506129e4565b603181526000602082017f4552433732313a207472616e736665722063616c6c6572206973206e6f74206f8152701ddb995c881b9bdc88185c1c1c9bdd9959607a1b602082015291506129e4565b602c81526000602082017f455243373231456e756d657261626c653a20676c6f62616c20696e646578206f81526b7574206f6620626f756e647360a01b602082015291506129e4565b601b81526000602082017f6e65656420746f206d696e74206174206c656173742031204e4654000000000081529150612999565b80612847565b6000612f7f82866128d9565b9150612f8b82856128d9565b9150612f9782846128fb565b95945050505050565b60208101610aea828461283e565b60608101612fbc828661283e565b612fc9602083018561283e565b611b2e6040830184612f6d565b60808101612fe4828761283e565b612ff1602083018661283e565b612ffe6040830185612f6d565b8181036060830152613010818461289e565b9695505050505050565b60408101613028828561283e565b6114606020830184612f6d565b60208082528101611460818461284d565b60208101610aea8284612896565b60208101610aea82846128d0565b60208082528101611460818461289e565b60208082528101610aea81612969565b60208082528101610aea816129a0565b60208082528101610aea816129eb565b60208082528101610aea81612a3a565b60208082528101610aea81612a7d565b60208082528101610aea81612abf565b60208082528101610aea81612af3565b60208082528101610aea81612b27565b60208082528101610aea81612b68565b60208082528101610aea81612b9c565b60208082528101610aea81612be1565b60208082528101610aea81612c2a565b60208082528101610aea81612c84565b60208082528101610aea81612ccb565b60208082528101610aea81612d11565b60208082528101610aea81612d3e565b60208082528101610aea81612d70565b60208082528101610aea81612db9565b60208082528101610aea81612deb565b60208082528101610aea81612e18565b60208082528101610aea81612e64565b60208082528101610aea816000815260200190565b60208082528101610aea81612ea2565b60208082528101610aea81612ef0565b60208082528101610aea81612f39565b60208101610aea8284612f6d565b600061322160405190565b90506117d28282613365565b600067ffffffffffffffff8211156132475761324761342f565b5060209081020190565b600067ffffffffffffffff82111561326b5761326b61342f565b601f19601f83011660200192915050565b6000821982111561328f5761328f6133c1565b500190565b6000826132a3576132a36133d7565b500490565b60008160001904831182151516156132c2576132c26133c1565b500290565b6000828210156132d9576132d96133c1565b500390565b60006001600160a01b038216610aea565b6000610aea826000610aea826132de565b82818337506000910152565b60005b8381101561332757818101518382015260200161330f565b838111156113fc5750506000910152565b60028104600182168061334c57607f821691505b6020821081141561335f5761335f6133ed565b50919050565b601f19601f830116810181811067ffffffffffffffff8211171561338b5761338b61342f565b6040525050565b60006000198214156133a6576133a66133c1565b5060010190565b6000826133bc576133bc6133d7565b500690565b634e487b7160e01b600052601160045260246000fd5b634e487b7160e01b600052601260045260246000fd5b634e487b7160e01b600052602260045260246000fd5b634e487b7160e01b600052603160045260246000fd5b634e487b7160e01b600052603260045260246000fd5b634e487b7160e01b600052604160045260246000fd5b61344e816132de565b811461196b57600080fd5b80151561344e565b6001600160e01b0319811661344e565b8061344e56fea264697066735822122071f91c5128034bece0435c25ea7193eaa511fc050777c66d9f30bee246c89b6564736f6c63430008070033",
  "devdoc": {
    "kind": "dev",
    "methods": {
      "approve(address,uint256)": {
        "details": "See {IERC721-approve}."
      },
      "balanceOf(address)": {
        "details": "See {IERC721-balanceOf}."
      },
      "getApproved(uint256)": {
        "details": "See {IERC721-getApproved}."
      },
      "isApprovedForAll(address,address)": {
        "details": "See {IERC721-isApprovedForAll}."
      },
      "name()": {
        "details": "See {IERC721Metadata-name}."
      },
      "owner()": {
        "details": "Returns the address of the current owner."
      },
      "ownerOf(uint256)": {
        "details": "See {IERC721-ownerOf}."
      },
      "renounceOwnership()": {
        "details": "Leaves the contract without owner. It will not be possible to call `onlyOwner` functions anymore. Can only be called by the current owner. NOTE: Renouncing ownership will leave the contract without an owner, thereby removing any functionality that is only available to the owner."
      },
      "safeTransferFrom(address,address,uint256)": {
        "details": "See {IERC721-safeTransferFrom}."
      },
      "safeTransferFrom(address,address,uint256,bytes)": {
        "details": "See {IERC721-safeTransferFrom}."
      },
      "setApprovalForAll(address,bool)": {
        "details": "See {IERC721-setApprovalForAll}."
      },
      "supportsInterface(bytes4)": {
        "details": "See {IERC165-supportsInterface}."
      },
      "symbol()": {
        "details": "See {IERC721Metadata-symbol}."
      },
      "tokenByIndex(uint256)": {
        "details": "See {IERC721Enumerable-tokenByIndex}."
      },
      "tokenOfOwnerByIndex(address,uint256)": {
        "details": "See {IERC721Enumerable-tokenOfOwnerByIndex}."
      },
      "tokenURI(uint256)": {
        "details": "See {IERC721Metadata-tokenURI}."
      },
      "totalSupply()": {
        "details": "See {IERC721Enumerable-totalSupply}."
      },
      "transferFrom(address,address,uint256)": {
        "details": "See {IERC721-transferFrom}."
      },
      "transferOwnership(address)": {
        "details": "Transfers ownership of the contract to a new account (`newOwner`). Can only be called by the current owner."
      }
    },
    "version": 1
  },
  "userdoc": {
    "kind": "user",
    "methods": {},
    "version": 1
  },
  "storageLayout": {
    "storage": [
      {
        "astId": 208,
        "contract": "contracts/AWBC.sol:AgencyWolfBillionaireClub",
        "label": "_name",
        "offset": 0,
        "slot": "0",
        "type": "t_string_storage"
      },
      {
        "astId": 210,
        "contract": "contracts/AWBC.sol:AgencyWolfBillionaireClub",
        "label": "_symbol",
        "offset": 0,
        "slot": "1",
        "type": "t_string_storage"
      },
      {
        "astId": 214,
        "contract": "contracts/AWBC.sol:AgencyWolfBillionaireClub",
        "label": "_owners",
        "offset": 0,
        "slot": "2",
        "type": "t_mapping(t_uint256,t_address)"
      },
      {
        "astId": 218,
        "contract": "contracts/AWBC.sol:AgencyWolfBillionaireClub",
        "label": "_balances",
        "offset": 0,
        "slot": "3",
        "type": "t_mapping(t_address,t_uint256)"
      },
      {
        "astId": 222,
        "contract": "contracts/AWBC.sol:AgencyWolfBillionaireClub",
        "label": "_tokenApprovals",
        "offset": 0,
        "slot": "4",
        "type": "t_mapping(t_uint256,t_address)"
      },
      {
        "astId": 228,
        "contract": "contracts/AWBC.sol:AgencyWolfBillionaireClub",
        "label": "_operatorApprovals",
        "offset": 0,
        "slot": "5",
        "type": "t_mapping(t_address,t_mapping(t_address,t_bool))"
      },
      {
        "astId": 1197,
        "contract": "contracts/AWBC.sol:AgencyWolfBillionaireClub",
        "label": "_ownedTokens",
        "offset": 0,
        "slot": "6",
        "type": "t_mapping(t_address,t_mapping(t_uint256,t_uint256))"
      },
      {
        "astId": 1201,
        "contract": "contracts/AWBC.sol:AgencyWolfBillionaireClub",
        "label": "_ownedTokensIndex",
        "offset": 0,
        "slot": "7",
        "type": "t_mapping(t_uint256,t_uint256)"
      },
      {
        "astId": 1204,
        "contract": "contracts/AWBC.sol:AgencyWolfBillionaireClub",
        "label": "_allTokens",
        "offset": 0,
        "slot": "8",
        "type": "t_array(t_uint256)dyn_storage"
      },
      {
        "astId": 1208,
        "contract": "contracts/AWBC.sol:AgencyWolfBillionaireClub",
        "label": "_allTokensIndex",
        "offset": 0,
        "slot": "9",
        "type": "t_mapping(t_uint256,t_uint256)"
      },
      {
        "astId": 7,
        "contract": "contracts/AWBC.sol:AgencyWolfBillionaireClub",
        "label": "_owner",
        "offset": 0,
        "slot": "10",
        "type": "t_address"
      },
      {
        "astId": 2148,
        "contract": "contracts/AWBC.sol:AgencyWolfBillionaireClub",
        "label": "baseURI",
        "offset": 0,
        "slot": "11",
        "type": "t_string_storage"
      },
      {
        "astId": 2151,
        "contract": "contracts/AWBC.sol:AgencyWolfBillionaireClub",
        "label": "baseExtension",
        "offset": 0,
        "slot": "12",
        "type": "t_string_storage"
      },
      {
        "astId": 2153,
        "contract": "contracts/AWBC.sol:AgencyWolfBillionaireClub",
        "label": "notRevealedUri",
        "offset": 0,
        "slot": "13",
        "type": "t_string_storage"
      },
      {
        "astId": 2156,
        "contract": "contracts/AWBC.sol:AgencyWolfBillionaireClub",
        "label": "cost",
        "offset": 0,
        "slot": "14",
        "type": "t_uint256"
      },
      {
        "astId": 2159,
        "contract": "contracts/AWBC.sol:AgencyWolfBillionaireClub",
        "label": "maxSupply",
        "offset": 0,
        "slot": "15",
        "type": "t_uint256"
      },
      {
        "astId": 2162,
        "contract": "contracts/AWBC.sol:AgencyWolfBillionaireClub",
        "label": "maxMintAmount",
        "offset": 0,
        "slot": "16",
        "type": "t_uint256"
      },
      {
        "astId": 2165,
        "contract": "contracts/AWBC.sol:AgencyWolfBillionaireClub",
        "label": "nftPerAddressLimit",
        "offset": 0,
        "slot": "17",
        "type": "t_uint256"
      },
      {
        "astId": 2168,
        "contract": "contracts/AWBC.sol:AgencyWolfBillionaireClub",
        "label": "publicSaleDate",
        "offset": 0,
        "slot": "18",
        "type": "t_uint256"
      },
      {
        "astId": 2170,
        "contract": "contracts/AWBC.sol:AgencyWolfBillionaireClub",
        "label": "stakingAddress",
        "offset": 0,
        "slot": "19",
        "type": "t_address"
      },
      {
        "astId": 2173,
        "contract": "contracts/AWBC.sol:AgencyWolfBillionaireClub",
        "label": "paused",
        "offset": 20,
        "slot": "19",
        "type": "t_bool"
      },
      {
        "astId": 2176,
        "contract": "contracts/AWBC.sol:AgencyWolfBillionaireClub",
        "label": "revealed",
        "offset": 21,
        "slot": "19",
        "type": "t_bool"
      },
      {
        "astId": 2180,
        "contract": "contracts/AWBC.sol:AgencyWolfBillionaireClub",
        "label": "whitelistedAddresses",
        "offset": 0,
        "slot": "20",
        "type": "t_mapping(t_address,t_bool)"
      },
      {
        "astId": 2184,
        "contract": "contracts/AWBC.sol:AgencyWolfBillionaireClub",
        "label": "addressMintedBalance",
        "offset": 0,
        "slot": "21",
        "type": "t_mapping(t_address,t_uint256)"
      },
      {
        "astId": 2188,
        "contract": "contracts/AWBC.sol:AgencyWolfBillionaireClub",
        "label": "stakedInTime",
        "offset": 0,
        "slot": "22",
        "type": "t_mapping(t_uint256,t_uint256)"
      },
      {
        "astId": 2192,
        "contract": "contracts/AWBC.sol:AgencyWolfBillionaireClub",
        "label": "stakeTime",
        "offset": 0,
        "slot": "23",
        "type": "t_mapping(t_uint256,t_uint256)"
      },
      {
        "astId": 2195,
        "contract": "contracts/AWBC.sol:AgencyWolfBillionaireClub",
        "label": "paymentsToken",
        "offset": 0,
        "slot": "24",
        "type": "t_contract(IERC20)182"
      }
    ],
    "types": {
      "t_address": {
        "encoding": "inplace",
        "label": "address",
        "numberOfBytes": "20"
      },
      "t_array(t_uint256)dyn_storage": {
        "base": "t_uint256",
        "encoding": "dynamic_array",
        "label": "uint256[]",
        "numberOfBytes": "32"
      },
      "t_bool": {
        "encoding": "inplace",
        "label": "bool",
        "numberOfBytes": "1"
      },
      "t_contract(IERC20)182": {
        "encoding": "inplace",
        "label": "contract IERC20",
        "numberOfBytes": "20"
      },
      "t_mapping(t_address,t_bool)": {
        "encoding": "mapping",
        "key": "t_address",
        "label": "mapping(address => bool)",
        "numberOfBytes": "32",
        "value": "t_bool"
      },
      "t_mapping(t_address,t_mapping(t_address,t_bool))": {
        "encoding": "mapping",
        "key": "t_address",
        "label": "mapping(address => mapping(address => bool))",
        "numberOfBytes": "32",
        "value": "t_mapping(t_address,t_bool)"
      },
      "t_mapping(t_address,t_mapping(t_uint256,t_uint256))": {
        "encoding": "mapping",
        "key": "t_address",
        "label": "mapping(address => mapping(uint256 => uint256))",
        "numberOfBytes": "32",
        "value": "t_mapping(t_uint256,t_uint256)"
      },
      "t_mapping(t_address,t_uint256)": {
        "encoding": "mapping",
        "key": "t_address",
        "label": "mapping(address => uint256)",
        "numberOfBytes": "32",
        "value": "t_uint256"
      },
      "t_mapping(t_uint256,t_address)": {
        "encoding": "mapping",
        "key": "t_uint256",
        "label": "mapping(uint256 => address)",
        "numberOfBytes": "32",
        "value": "t_address"
      },
      "t_mapping(t_uint256,t_uint256)": {
        "encoding": "mapping",
        "key": "t_uint256",
        "label": "mapping(uint256 => uint256)",
        "numberOfBytes": "32",
        "value": "t_uint256"
      },
      "t_string_storage": {
        "encoding": "bytes",
        "label": "string",
        "numberOfBytes": "32"
      },
      "t_uint256": {
        "encoding": "inplace",
        "label": "uint256",
        "numberOfBytes": "32"
      }
    }
  }
}