{
  "address": "0x70Cc3a8FD70C5925a92FE1932616b6c89C78C698",
  "abi": [
    {
      "inputs": [
        {
          "internalType": "string",
          "name": "_name",
          "type": "string"
        },
        {
          "internalType": "string",
          "name": "_symbol",
          "type": "string"
        },
        {
          "internalType": "string",
          "name": "_initNotRevealedUri",
          "type": "string"
        },
        {
          "internalType": "address",
          "name": "_paymentsToken",
          "type": "address"
        }
      ],
      "stateMutability": "nonpayable",
      "type": "constructor"
    },
    {
      "anonymous": false,
      "inputs": [
        {
          "indexed": true,
          "internalType": "address",
          "name": "owner",
          "type": "address"
        },
        {
          "indexed": true,
          "internalType": "address",
          "name": "approved",
          "type": "address"
        },
        {
          "indexed": true,
          "internalType": "uint256",
          "name": "tokenId",
          "type": "uint256"
        }
      ],
      "name": "Approval",
      "type": "event"
    },
    {
      "anonymous": false,
      "inputs": [
        {
          "indexed": true,
          "internalType": "address",
          "name": "owner",
          "type": "address"
        },
        {
          "indexed": true,
          "internalType": "address",
          "name": "operator",
          "type": "address"
        },
        {
          "indexed": false,
          "internalType": "bool",
          "name": "approved",
          "type": "bool"
        }
      ],
      "name": "ApprovalForAll",
      "type": "event"
    },
    {
      "anonymous": false,
      "inputs": [
        {
          "indexed": true,
          "internalType": "address",
          "name": "previousOwner",
          "type": "address"
        },
        {
          "indexed": true,
          "internalType": "address",
          "name": "newOwner",
          "type": "address"
        }
      ],
      "name": "OwnershipTransferred",
      "type": "event"
    },
    {
      "anonymous": false,
      "inputs": [
        {
          "indexed": true,
          "internalType": "address",
          "name": "from",
          "type": "address"
        },
        {
          "indexed": true,
          "internalType": "address",
          "name": "to",
          "type": "address"
        },
        {
          "indexed": true,
          "internalType": "uint256",
          "name": "tokenId",
          "type": "uint256"
        }
      ],
      "name": "Transfer",
      "type": "event"
    },
    {
      "inputs": [
        {
          "internalType": "address",
          "name": "",
          "type": "address"
        }
      ],
      "name": "addressMintedBalance",
      "outputs": [
        {
          "internalType": "uint256",
          "name": "",
          "type": "uint256"
        }
      ],
      "stateMutability": "view",
      "type": "function"
    },
    {
      "inputs": [
        {
          "internalType": "address",
          "name": "to",
          "type": "address"
        },
        {
          "internalType": "uint256",
          "name": "tokenId",
          "type": "uint256"
        }
      ],
      "name": "approve",
      "outputs": [],
      "stateMutability": "nonpayable",
      "type": "function"
    },
    {
      "inputs": [
        {
          "internalType": "address",
          "name": "owner",
          "type": "address"
        }
      ],
      "name": "balanceOf",
      "outputs": [
        {
          "internalType": "uint256",
          "name": "",
          "type": "uint256"
        }
      ],
      "stateMutability": "view",
      "type": "function"
    },
    {
      "inputs": [],
      "name": "baseExtension",
      "outputs": [
        {
          "internalType": "string",
          "name": "",
          "type": "string"
        }
      ],
      "stateMutability": "view",
      "type": "function"
    },
    {
      "inputs": [],
      "name": "cost",
      "outputs": [
        {
          "internalType": "uint256",
          "name": "",
          "type": "uint256"
        }
      ],
      "stateMutability": "view",
      "type": "function"
    },
    {
      "inputs": [
        {
          "internalType": "uint256",
          "name": "tokenId",
          "type": "uint256"
        }
      ],
      "name": "getApproved",
      "outputs": [
        {
          "internalType": "address",
          "name": "",
          "type": "address"
        }
      ],
      "stateMutability": "view",
      "type": "function"
    },
    {
      "inputs": [],
      "name": "getBaseURI",
      "outputs": [
        {
          "internalType": "string",
          "name": "",
          "type": "string"
        }
      ],
      "stateMutability": "view",
      "type": "function"
    },
    {
      "inputs": [],
      "name": "getContractBalance",
      "outputs": [
        {
          "internalType": "uint256",
          "name": "",
          "type": "uint256"
        }
      ],
      "stateMutability": "view",
      "type": "function"
    },
    {
      "inputs": [],
      "name": "getCurrentCost",
      "outputs": [
        {
          "internalType": "uint256",
          "name": "",
          "type": "uint256"
        }
      ],
      "stateMutability": "view",
      "type": "function"
    },
    {
      "inputs": [
        {
          "internalType": "uint256",
          "name": "tokenId",
          "type": "uint256"
        }
      ],
      "name": "getStakedTime",
      "outputs": [
        {
          "internalType": "uint256",
          "name": "",
          "type": "uint256"
        }
      ],
      "stateMutability": "view",
      "type": "function"
    },
    {
      "inputs": [
        {
          "internalType": "uint256",
          "name": "_mintAmount",
          "type": "uint256"
        },
        {
          "internalType": "address",
          "name": "destination",
          "type": "address"
        }
      ],
      "name": "gift",
      "outputs": [],
      "stateMutability": "nonpayable",
      "type": "function"
    },
    {
      "inputs": [
        {
          "internalType": "address",
          "name": "owner",
          "type": "address"
        },
        {
          "internalType": "address",
          "name": "operator",
          "type": "address"
        }
      ],
      "name": "isApprovedForAll",
      "outputs": [
        {
          "internalType": "bool",
          "name": "",
          "type": "bool"
        }
      ],
      "stateMutability": "view",
      "type": "function"
    },
    {
      "inputs": [
        {
          "internalType": "address",
          "name": "_user",
          "type": "address"
        }
      ],
      "name": "isWhitelisted",
      "outputs": [
        {
          "internalType": "bool",
          "name": "",
          "type": "bool"
        }
      ],
      "stateMutability": "view",
      "type": "function"
    },
    {
      "inputs": [],
      "name": "maxMintAmount",
      "outputs": [
        {
          "internalType": "uint256",
          "name": "",
          "type": "uint256"
        }
      ],
      "stateMutability": "view",
      "type": "function"
    },
    {
      "inputs": [],
      "name": "maxSupply",
      "outputs": [
        {
          "internalType": "uint256",
          "name": "",
          "type": "uint256"
        }
      ],
      "stateMutability": "view",
      "type": "function"
    },
    {
      "inputs": [
        {
          "internalType": "uint256",
          "name": "_mintAmount",
          "type": "uint256"
        }
      ],
      "name": "mint",
      "outputs": [],
      "stateMutability": "nonpayable",
      "type": "function"
    },
    {
      "inputs": [],
      "name": "name",
      "outputs": [
        {
          "internalType": "string",
          "name": "",
          "type": "string"
        }
      ],
      "stateMutability": "view",
      "type": "function"
    },
    {
      "inputs": [],
      "name": "nftPerAddressLimit",
      "outputs": [
        {
          "internalType": "uint256",
          "name": "",
          "type": "uint256"
        }
      ],
      "stateMutability": "view",
      "type": "function"
    },
    {
      "inputs": [],
      "name": "notRevealedUri",
      "outputs": [
        {
          "internalType": "string",
          "name": "",
          "type": "string"
        }
      ],
      "stateMutability": "view",
      "type": "function"
    },
    {
      "inputs": [],
      "name": "owner",
      "outputs": [
        {
          "internalType": "address",
          "name": "",
          "type": "address"
        }
      ],
      "stateMutability": "view",
      "type": "function"
    },
    {
      "inputs": [
        {
          "internalType": "uint256",
          "name": "tokenId",
          "type": "uint256"
        }
      ],
      "name": "ownerOf",
      "outputs": [
        {
          "internalType": "address",
          "name": "",
          "type": "address"
        }
      ],
      "stateMutability": "view",
      "type": "function"
    },
    {
      "inputs": [
        {
          "internalType": "bool",
          "name": "_state",
          "type": "bool"
        }
      ],
      "name": "pause",
      "outputs": [],
      "stateMutability": "nonpayable",
      "type": "function"
    },
    {
      "inputs": [],
      "name": "paused",
      "outputs": [
        {
          "internalType": "bool",
          "name": "",
          "type": "bool"
        }
      ],
      "stateMutability": "view",
      "type": "function"
    },
    {
      "inputs": [],
      "name": "paymentsToken",
      "outputs": [
        {
          "internalType": "contract IERC20",
          "name": "",
          "type": "address"
        }
      ],
      "stateMutability": "view",
      "type": "function"
    },
    {
      "inputs": [],
      "name": "publicSaleDate",
      "outputs": [
        {
          "internalType": "uint256",
          "name": "",
          "type": "uint256"
        }
      ],
      "stateMutability": "view",
      "type": "function"
    },
    {
      "inputs": [
        {
          "internalType": "uint256",
          "name": "_ownerMintedCount",
          "type": "uint256"
        },
        {
          "internalType": "uint256",
          "name": "_mintAmount",
          "type": "uint256"
        }
      ],
      "name": "publicsaleValidations",
      "outputs": [],
      "stateMutability": "view",
      "type": "function"
    },
    {
      "inputs": [],
      "name": "renounceOwnership",
      "outputs": [],
      "stateMutability": "nonpayable",
      "type": "function"
    },
    {
      "inputs": [],
      "name": "reveal",
      "outputs": [],
      "stateMutability": "nonpayable",
      "type": "function"
    },
    {
      "inputs": [],
      "name": "revealed",
      "outputs": [
        {
          "internalType": "bool",
          "name": "",
          "type": "bool"
        }
      ],
      "stateMutability": "view",
      "type": "function"
    },
    {
      "inputs": [
        {
          "internalType": "address",
          "name": "from",
          "type": "address"
        },
        {
          "internalType": "address",
          "name": "to",
          "type": "address"
        },
        {
          "internalType": "uint256",
          "name": "tokenId",
          "type": "uint256"
        }
      ],
      "name": "safeTransferFrom",
      "outputs": [],
      "stateMutability": "nonpayable",
      "type": "function"
    },
    {
      "inputs": [
        {
          "internalType": "address",
          "name": "from",
          "type": "address"
        },
        {
          "internalType": "address",
          "name": "to",
          "type": "address"
        },
        {
          "internalType": "uint256",
          "name": "tokenId",
          "type": "uint256"
        },
        {
          "internalType": "bytes",
          "name": "_data",
          "type": "bytes"
        }
      ],
      "name": "safeTransferFrom",
      "outputs": [],
      "stateMutability": "nonpayable",
      "type": "function"
    },
    {
      "inputs": [
        {
          "internalType": "address",
          "name": "operator",
          "type": "address"
        },
        {
          "internalType": "bool",
          "name": "approved",
          "type": "bool"
        }
      ],
      "name": "setApprovalForAll",
      "outputs": [],
      "stateMutability": "nonpayable",
      "type": "function"
    },
    {
      "inputs": [
        {
          "internalType": "string",
          "name": "_newBaseExtension",
          "type": "string"
        }
      ],
      "name": "setBaseExtension",
      "outputs": [],
      "stateMutability": "nonpayable",
      "type": "function"
    },
    {
      "inputs": [
        {
          "internalType": "string",
          "name": "_newBaseURI",
          "type": "string"
        }
      ],
      "name": "setBaseURI",
      "outputs": [],
      "stateMutability": "nonpayable",
      "type": "function"
    },
    {
      "inputs": [
        {
          "internalType": "uint256",
          "name": "_newCost",
          "type": "uint256"
        }
      ],
      "name": "setCost",
      "outputs": [],
      "stateMutability": "nonpayable",
      "type": "function"
    },
    {
      "inputs": [
        {
          "internalType": "uint256",
          "name": "_maxSupply",
          "type": "uint256"
        }
      ],
      "name": "setMaxSupply",
      "outputs": [],
      "stateMutability": "nonpayable",
      "type": "function"
    },
    {
      "inputs": [
        {
          "internalType": "uint256",
          "name": "_limit",
          "type": "uint256"
        }
      ],
      "name": "setNftPerAddressLimit",
      "outputs": [],
      "stateMutability": "nonpayable",
      "type": "function"
    },
    {
      "inputs": [
        {
          "internalType": "string",
          "name": "_notRevealedURI",
          "type": "string"
        }
      ],
      "name": "setNotRevealedURI",
      "outputs": [],
      "stateMutability": "nonpayable",
      "type": "function"
    },
    {
      "inputs": [
        {
          "internalType": "uint256",
          "name": "_publicSaleDate",
          "type": "uint256"
        }
      ],
      "name": "setPublicSaleDate",
      "outputs": [],
      "stateMutability": "nonpayable",
      "type": "function"
    },
    {
      "inputs": [
        {
          "internalType": "address",
          "name": "_address",
          "type": "address"
        }
      ],
      "name": "setStakingAddress",
      "outputs": [],
      "stateMutability": "nonpayable",
      "type": "function"
    },
    {
      "inputs": [
        {
          "internalType": "uint256",
          "name": "_newmaxMintAmount",
          "type": "uint256"
        }
      ],
      "name": "setmaxMintAmount",
      "outputs": [],
      "stateMutability": "nonpayable",
      "type": "function"
    },
    {
      "inputs": [
        {
          "internalType": "uint256",
          "name": "",
          "type": "uint256"
        }
      ],
      "name": "stakeTime",
      "outputs": [
        {
          "internalType": "uint256",
          "name": "",
          "type": "uint256"
        }
      ],
      "stateMutability": "view",
      "type": "function"
    },
    {
      "inputs": [
        {
          "internalType": "uint256",
          "name": "",
          "type": "uint256"
        }
      ],
      "name": "stakedInTime",
      "outputs": [
        {
          "internalType": "uint256",
          "name": "",
          "type": "uint256"
        }
      ],
      "stateMutability": "view",
      "type": "function"
    },
    {
      "inputs": [],
      "name": "stakingAddress",
      "outputs": [
        {
          "internalType": "address",
          "name": "",
          "type": "address"
        }
      ],
      "stateMutability": "view",
      "type": "function"
    },
    {
      "inputs": [
        {
          "internalType": "bytes4",
          "name": "interfaceId",
          "type": "bytes4"
        }
      ],
      "name": "supportsInterface",
      "outputs": [
        {
          "internalType": "bool",
          "name": "",
          "type": "bool"
        }
      ],
      "stateMutability": "view",
      "type": "function"
    },
    {
      "inputs": [],
      "name": "symbol",
      "outputs": [
        {
          "internalType": "string",
          "name": "",
          "type": "string"
        }
      ],
      "stateMutability": "view",
      "type": "function"
    },
    {
      "inputs": [
        {
          "internalType": "uint256",
          "name": "index",
          "type": "uint256"
        }
      ],
      "name": "tokenByIndex",
      "outputs": [
        {
          "internalType": "uint256",
          "name": "",
          "type": "uint256"
        }
      ],
      "stateMutability": "view",
      "type": "function"
    },
    {
      "inputs": [
        {
          "internalType": "address",
          "name": "owner",
          "type": "address"
        },
        {
          "internalType": "uint256",
          "name": "index",
          "type": "uint256"
        }
      ],
      "name": "tokenOfOwnerByIndex",
      "outputs": [
        {
          "internalType": "uint256",
          "name": "",
          "type": "uint256"
        }
      ],
      "stateMutability": "view",
      "type": "function"
    },
    {
      "inputs": [
        {
          "internalType": "uint256",
          "name": "tokenId",
          "type": "uint256"
        }
      ],
      "name": "tokenURI",
      "outputs": [
        {
          "internalType": "string",
          "name": "",
          "type": "string"
        }
      ],
      "stateMutability": "view",
      "type": "function"
    },
    {
      "inputs": [],
      "name": "totalSupply",
      "outputs": [
        {
          "internalType": "uint256",
          "name": "",
          "type": "uint256"
        }
      ],
      "stateMutability": "view",
      "type": "function"
    },
    {
      "inputs": [
        {
          "internalType": "address",
          "name": "from",
          "type": "address"
        },
        {
          "internalType": "address",
          "name": "to",
          "type": "address"
        },
        {
          "internalType": "uint256",
          "name": "tokenId",
          "type": "uint256"
        }
      ],
      "name": "transferFrom",
      "outputs": [],
      "stateMutability": "nonpayable",
      "type": "function"
    },
    {
      "inputs": [
        {
          "internalType": "address",
          "name": "newOwner",
          "type": "address"
        }
      ],
      "name": "transferOwnership",
      "outputs": [],
      "stateMutability": "nonpayable",
      "type": "function"
    },
    {
      "inputs": [
        {
          "internalType": "uint256",
          "name": "tokenId",
          "type": "uint256"
        },
        {
          "internalType": "bool",
          "name": "isStake",
          "type": "bool"
        }
      ],
      "name": "updateStakeTime",
      "outputs": [],
      "stateMutability": "nonpayable",
      "type": "function"
    },
    {
      "inputs": [
        {
          "internalType": "address",
          "name": "_owner",
          "type": "address"
        }
      ],
      "name": "walletOfOwner",
      "outputs": [
        {
          "internalType": "uint256[]",
          "name": "",
          "type": "uint256[]"
        }
      ],
      "stateMutability": "view",
      "type": "function"
    },
    {
      "inputs": [
        {
          "internalType": "address[]",
          "name": "addresses",
          "type": "address[]"
        }
      ],
      "name": "whitelistUsers",
      "outputs": [],
      "stateMutability": "nonpayable",
      "type": "function"
    },
    {
      "inputs": [],
      "name": "withdraw",
      "outputs": [],
      "stateMutability": "payable",
      "type": "function"
    }
  ],
  "transactionHash": "0x451557dd0de93ddd2ebb66dfc9518d006fd1b3f0894278021447cb891fa58868",
  "args": [
    "AgencyWolfBillionaireClub",
    "AWBC",
    "https://nftassets.annex.finance/ipfs/QmeHoeon52U4HYuemkfuKtzxcSZV2xSW69rBeEKKPzav4G",
    "0xb75f3F9D35d256a94BBd7A3fC2E16c768E17930E"
  ],
  "solcInputHash": "98eb19465cbc9940d30b9f32d955b606",
  "bytecode": "0x60c06040526005608081905264173539b7b760d91b60a09081526200002891600c9190620001ae565b5069152d02c7e14af6800000600e55612710600f55601460105560646011556361808d906012556013805461ffff60a01b191690553480156200006a57600080fd5b5060405162003956380380620039568339810160408190526200008d91620002e0565b835184908490620000a6906000906020850190620001ae565b508051620000bc906001906020840190620001ae565b505050620000d9620000d36200010960201b60201c565b6200010d565b601880546001600160a01b0319166001600160a01b038316179055620000ff826200015f565b5050505062000513565b3390565b600a80546001600160a01b038381166001600160a01b0319831681179093556040519116919082907f8be0079c531659141344cd1fd0a4f28419497f9722a3daafe3b4186f6b6457e090600090a35050565b600a546001600160a01b03163314620001955760405162461bcd60e51b81526004016200018c90620003a1565b60405180910390fd5b8051620001aa90600d906020840190620001ae565b5050565b828054620001bc906200046d565b90600052602060002090601f016020900481019282620001e057600085556200022b565b82601f10620001fb57805160ff19168380011785556200022b565b828001600101855582156200022b579182015b828111156200022b5782518255916020019190600101906200020e565b50620002399291506200023d565b5090565b5b808211156200023957600081556001016200023e565b60006200026b6200026584620003fb565b620003dc565b905082815260208101848484011115620002885762000288600080fd5b620002958482856200043a565b509392505050565b8051620002aa81620004f9565b92915050565b600082601f830112620002c657620002c6600080fd5b8151620002d884826020860162000254565b949350505050565b60008060008060808587031215620002fb57620002fb600080fd5b84516001600160401b03811115620003165762000316600080fd5b6200032487828801620002b0565b94505060208501516001600160401b03811115620003455762000345600080fd5b6200035387828801620002b0565b93505060408501516001600160401b03811115620003745762000374600080fd5b6200038287828801620002b0565b925050606062000395878288016200029d565b91505092959194509250565b60208082528181019081527f4f776e61626c653a2063616c6c6572206973206e6f7420746865206f776e6572604083015260608201620002aa565b6000620003e860405190565b9050620003f682826200049e565b919050565b60006001600160401b03821115620004175762000417620004e3565b601f19601f83011660200192915050565b60006001600160a01b038216620002aa565b60005b83811015620004575781810151838201526020016200043d565b8381111562000467576000848401525b50505050565b6002810460018216806200048257607f821691505b60208210811415620004985762000498620004cd565b50919050565b601f19601f83011681018181106001600160401b0382111715620004c657620004c6620004e3565b6040525050565b634e487b7160e01b600052602260045260246000fd5b634e487b7160e01b600052604160045260246000fd5b620005048162000428565b81146200051057600080fd5b50565b61343380620005236000396000f3fe60806040526004361061036b5760003560e01c806370a08231116101c6578063ba7d2c76116100f7578063da3ef23f11610095578063edec5f271161006f578063edec5f27146109fa578063f2c4ce1e14610a1a578063f2fde38b14610a3a578063f4e0d9ac14610a5a57600080fd5b8063da3ef23f1461097b578063e985e9c51461099b578063eced3873146109e457600080fd5b8063cfa92d94116100d1578063cfa92d94146108f8578063d0eb26b014610925578063d5abeb0114610945578063d7b4be241461095b57600080fd5b8063ba7d2c76146108ad578063c6682862146108c3578063c87b56dd146108d857600080fd5b806395d89b4111610164578063a22cb4651161013e578063a22cb4651461082b578063a475b5dd1461084b578063ae1f5a9414610860578063b88d4fde1461088d57600080fd5b806395d89b41146107d65780639b6b3f6b146107eb578063a0712d681461080b57600080fd5b80637f00c7a6116101a05780637f00c7a614610763578063831e60de1461078357806383a076be146107985780638da5cb5b146107b857600080fd5b806370a0823114610719578063714c539814610739578063715018a61461074e57600080fd5b80633af32abf116102a057806353e4c0b81161023e5780635c975abb116102185780635c975abb146106a35780636352211e146106c45780636f8b44b0146106e45780636f9fb98a1461070457600080fd5b806353e4c0b81461064357806355f804b3146106635780635b0d65d81461068357600080fd5b8063438b63001161027a578063438b6300146105b557806344a0d68a146105e25780634f6ccce714610602578063518302271461062257600080fd5b80633af32abf146105545780633ccfd60b1461058d57806342842e0e1461059557600080fd5b80630e54a8831161030d57806318cae269116102e757806318cae269146104d1578063239c70ae146104fe57806323b872dd146105145780632f745c591461053457600080fd5b80630e54a8831461048657806313faede6146104a657806318160ddd146104bc57600080fd5b8063081812fc11610349578063081812fc146103ea578063081c8c4414610417578063095ea7b31461042c5780630a42f0491461044c57600080fd5b806301ffc9a71461037057806302329a29146103a657806306fdde03146103c8575b600080fd5b34801561037c57600080fd5b5061039061038b36600461268b565b610a7a565b60405161039d9190612fcc565b60405180910390f35b3480156103b257600080fd5b506103c66103c1366004612649565b610aa5565b005b3480156103d457600080fd5b506103dd610af6565b60405161039d9190612fe8565b3480156103f657600080fd5b5061040a610405366004612708565b610b88565b60405161039d9190612f26565b34801561042357600080fd5b506103dd610bd8565b34801561043857600080fd5b506103c66104473660046125db565b610c66565b34801561045857600080fd5b50610479610467366004612708565b60176020526000908152604090205481565b60405161039d919061318e565b34801561049257600080fd5b506103c66104a1366004612708565b610cec565b3480156104b257600080fd5b50610479600e5481565b3480156104c857600080fd5b50600854610479565b3480156104dd57600080fd5b506104796104ec36600461247b565b60156020526000908152604090205481565b34801561050a57600080fd5b5061047960105481565b34801561052057600080fd5b506103c661052f3660046124d9565b610d1b565b34801561054057600080fd5b5061047961054f3660046125db565b610d4c565b34801561056057600080fd5b5061039061056f36600461247b565b6001600160a01b031660009081526014602052604090205460ff1690565b6103c6610d9e565b3480156105a157600080fd5b506103c66105b03660046124d9565b610ee0565b3480156105c157600080fd5b506105d56105d036600461247b565b610efb565b60405161039d9190612fbb565b3480156105ee57600080fd5b506103c66105fd366004612708565b610f9d565b34801561060e57600080fd5b5061047961061d366004612708565b610fcc565b34801561062e57600080fd5b5060135461039090600160a81b900460ff1681565b34801561064f57600080fd5b506103c661065e36600461276c565b61101a565b34801561066f57600080fd5b506103c661067e3660046126cd565b6110af565b34801561068f57600080fd5b506103c661069e36600461278e565b6110ec565b3480156106af57600080fd5b5060135461039090600160a01b900460ff1681565b3480156106d057600080fd5b5061040a6106df366004612708565b611139565b3480156106f057600080fd5b506103c66106ff366004612708565b61116e565b34801561071057600080fd5b5061047961119d565b34801561072557600080fd5b5061047961073436600461247b565b6111cf565b34801561074557600080fd5b506103dd611213565b34801561075a57600080fd5b506103c661124d565b34801561076f57600080fd5b506103c661077e366004612708565b611283565b34801561078f57600080fd5b50600e54610479565b3480156107a457600080fd5b506103c66107b336600461274a565b6112b2565b3480156107c457600080fd5b50600a546001600160a01b031661040a565b3480156107e257600080fd5b506103dd611394565b3480156107f757600080fd5b50610479610806366004612708565b6113a3565b34801561081757600080fd5b506103c6610826366004612708565b6113f9565b34801561083757600080fd5b506103c66108463660046125a8565b6115a3565b34801561085757600080fd5b506103c66115ae565b34801561086c57600080fd5b50601854610880906001600160a01b031681565b60405161039d9190612fda565b34801561089957600080fd5b506103c66108a8366004612529565b6115ed565b3480156108b957600080fd5b5061047960115481565b3480156108cf57600080fd5b506103dd61161f565b3480156108e457600080fd5b506103dd6108f3366004612708565b61162c565b34801561090457600080fd5b50610479610913366004612708565b60166020526000908152604090205481565b34801561093157600080fd5b506103c6610940366004612708565b611769565b34801561095157600080fd5b50610479600f5481565b34801561096757600080fd5b5060135461040a906001600160a01b031681565b34801561098757600080fd5b506103c66109963660046126cd565b611798565b3480156109a757600080fd5b506103906109b636600461249c565b6001600160a01b03918216600090815260056020908152604080832093909416825291909152205460ff1690565b3480156109f057600080fd5b5061047960125481565b348015610a0657600080fd5b506103c6610a1536600461260e565b6117d5565b348015610a2657600080fd5b506103c6610a353660046126cd565b611867565b348015610a4657600080fd5b506103c6610a5536600461247b565b6118a4565b348015610a6657600080fd5b506103c6610a7536600461247b565b611900565b60006001600160e01b0319821663780e9d6360e01b1480610a9f5750610a9f8261194c565b92915050565b600a546001600160a01b03163314610ad85760405162461bcd60e51b8152600401610acf90613109565b60405180910390fd5b60138054911515600160a01b0260ff60a01b19909216919091179055565b606060008054610b05906132be565b80601f0160208091040260200160405190810160405280929190818152602001828054610b31906132be565b8015610b7e5780601f10610b5357610100808354040283529160200191610b7e565b820191906000526020600020905b815481529060010190602001808311610b6157829003601f168201915b5050505050905090565b6000818152600260205260408120546001600160a01b0316610bbc5760405162461bcd60e51b8152600401610acf906130f9565b506000908152600460205260409020546001600160a01b031690565b600d8054610be5906132be565b80601f0160208091040260200160405190810160405280929190818152602001828054610c11906132be565b8015610c5e5780601f10610c3357610100808354040283529160200191610c5e565b820191906000526020600020905b815481529060010190602001808311610c4157829003601f168201915b505050505081565b6000610c7182611139565b9050806001600160a01b0316836001600160a01b03161415610ca55760405162461bcd60e51b8152600401610acf90613139565b336001600160a01b0382161480610cc15750610cc181336109b6565b610cdd5760405162461bcd60e51b8152600401610acf906130a9565b610ce7838361199c565b505050565b600a546001600160a01b03163314610d165760405162461bcd60e51b8152600401610acf90613109565b601255565b610d253382611a0a565b610d415760405162461bcd60e51b8152600401610acf9061315e565b610ce7838383611abc565b6000610d57836111cf565b8210610d755760405162461bcd60e51b8152600401610acf90613009565b506001600160a01b03919091166000908152600660209081526040808320938352929052205490565b600a546001600160a01b03163314610dc85760405162461bcd60e51b8152600401610acf90613109565b6018546040516370a0823160e01b81526000916001600160a01b0316906370a0823190610df9903090600401612f26565b60206040518083038186803b158015610e1157600080fd5b505afa158015610e25573d6000803e3d6000fd5b505050506040513d601f19601f82011682018060405250810190610e499190612729565b905060008111610e5857600080fd5b60185460405163a9059cbb60e01b81526001600160a01b039091169063a9059cbb90610e8a9033908590600401612fa0565b602060405180830381600087803b158015610ea457600080fd5b505af1158015610eb8573d6000803e3d6000fd5b505050506040513d601f19601f82011682018060405250810190610edc919061266a565b5050565b610ce7838383604051806020016040528060008152506115ed565b60606000610f08836111cf565b905060008167ffffffffffffffff811115610f2557610f256133b5565b604051908082528060200260200182016040528015610f4e578160200160208202803683370190505b50905060005b82811015610f9557610f668582610d4c565b828281518110610f7857610f7861339f565b602090810291909101015280610f8d81613318565b915050610f54565b509392505050565b600a546001600160a01b03163314610fc75760405162461bcd60e51b8152600401610acf90613109565b600e55565b6000610fd760085490565b8210610ff55760405162461bcd60e51b8152600401610acf9061316e565b600882815481106110085761100861339f565b90600052602060002001549050919050565b6013546001600160a01b031633146110445760405162461bcd60e51b8152600401610acf90613149565b801561105e57506000908152601760205260409020429055565b600082815260176020908152604080832054601690925290912054611084904290613202565b61108e919061324d565b60008381526016602090815260408083209390935560179052908120555050565b600a546001600160a01b031633146110d95760405162461bcd60e51b8152600401610acf90613109565b8051610edc90600b9060208401906122ae565b6011546110f98284613202565b11156111175760405162461bcd60e51b8152600401610acf90613059565b601054811115610edc5760405162461bcd60e51b8152600401610acf90613089565b6000818152600260205260408120546001600160a01b031680610a9f5760405162461bcd60e51b8152600401610acf906130c9565b600a546001600160a01b031633146111985760405162461bcd60e51b8152600401610acf90613109565b600f55565b600a546000906001600160a01b031633146111ca5760405162461bcd60e51b8152600401610acf90613109565b504790565b60006001600160a01b0382166111f75760405162461bcd60e51b8152600401610acf906130b9565b506001600160a01b031660009081526003602052604090205490565b600a546060906001600160a01b031633146112405760405162461bcd60e51b8152600401610acf90613109565b600b8054610b05906132be565b600a546001600160a01b031633146112775760405162461bcd60e51b8152600401610acf90613109565b6112816000611be9565b565b600a546001600160a01b031633146112ad5760405162461bcd60e51b8152600401610acf90613109565b601055565b600a546001600160a01b031633146112dc5760405162461bcd60e51b8152600401610acf90613109565b600082116112fc5760405162461bcd60e51b8152600401610acf9061317e565b600061130760085490565b600f549091506113178483613202565b11156113355760405162461bcd60e51b8152600401610acf906130d9565b60015b83811161138e576001600160a01b038316600090815260156020526040812080549161136383613318565b9091555061137c9050836113778385613202565b611c3b565b8061138681613318565b915050611338565b50505050565b606060018054610b05906132be565b600081815260166020908152604080832054601790925282205415610a9f576000838152601760209081526040808320546016909252909120546113e8904290613202565b6113f2919061324d565b9392505050565b601354600160a01b900460ff16156114235760405162461bcd60e51b8152600401610acf90613119565b6012544210156114455760405162461bcd60e51b8152600401610acf90612ff9565b80600081116114665760405162461bcd60e51b8152600401610acf9061317e565b600061147160085490565b3360009081526015602052604090205490915061148e81856110ec565b600f5461149b8584613202565b11156114b95760405162461bcd60e51b8152600401610acf906130d9565b601854600e546001600160a01b03909116906323b872dd90339030906114e090899061322e565b6040518463ffffffff1660e01b81526004016114fe93929190612f34565b602060405180830381600087803b15801561151857600080fd5b505af115801561152c573d6000803e3d6000fd5b505050506040513d601f19601f82011682018060405250810190611550919061266a565b5060015b84811161159c5733600090815260156020526040812080549161157683613318565b9091555061158a9050336113778386613202565b8061159481613318565b915050611554565b5050505050565b610edc338383611c55565b600a546001600160a01b031633146115d85760405162461bcd60e51b8152600401610acf90613109565b6013805460ff60a81b1916600160a81b179055565b6115f73383611a0a565b6116135760405162461bcd60e51b8152600401610acf9061315e565b61138e84848484611cf8565b600c8054610be5906132be565b6000818152600260205260409020546060906001600160a01b03166116635760405162461bcd60e51b8152600401610acf90613129565b601354600160a81b900460ff1661170657600d8054611681906132be565b80601f01602080910402602001604051908101604052809291908181526020018280546116ad906132be565b80156116fa5780601f106116cf576101008083540402835291602001916116fa565b820191906000526020600020905b8154815290600101906020018083116116dd57829003601f168201915b50505050509050919050565b6000611710611d2b565b9050600081511161173057604051806020016040528060008152506113f2565b8061173a84611d3a565b600c60405160200161174e93929190612ef9565b6040516020818303038152906040529392505050565b919050565b600a546001600160a01b031633146117935760405162461bcd60e51b8152600401610acf90613109565b601155565b600a546001600160a01b031633146117c25760405162461bcd60e51b8152600401610acf90613109565b8051610edc90600c9060208401906122ae565b600a546001600160a01b031633146117ff5760405162461bcd60e51b8152600401610acf90613109565b60005b8151811015610edc576001601460008484815181106118235761182361339f565b6020908102919091018101516001600160a01b03168252810191909152604001600020805460ff19169115159190911790558061185f81613318565b915050611802565b600a546001600160a01b031633146118915760405162461bcd60e51b8152600401610acf90613109565b8051610edc90600d9060208401906122ae565b600a546001600160a01b031633146118ce5760405162461bcd60e51b8152600401610acf90613109565b6001600160a01b0381166118f45760405162461bcd60e51b8152600401610acf90613029565b6118fd81611be9565b50565b600a546001600160a01b0316331461192a5760405162461bcd60e51b8152600401610acf90613109565b601380546001600160a01b0319166001600160a01b0392909216919091179055565b60006001600160e01b031982166380ac58cd60e01b148061197d57506001600160e01b03198216635b5e139f60e01b145b80610a9f57506301ffc9a760e01b6001600160e01b0319831614610a9f565b600081815260046020526040902080546001600160a01b0319166001600160a01b03841690811790915581906119d182611139565b6001600160a01b03167f8c5be1e5ebec7d5bd14f71427d1e84f3dd0314c0f7b2291e5b200ac8c7c3b92560405160405180910390a45050565b6000818152600260205260408120546001600160a01b0316611a3e5760405162461bcd60e51b8152600401610acf90613099565b6000611a4983611139565b9050806001600160a01b0316846001600160a01b03161480611a845750836001600160a01b0316611a7984610b88565b6001600160a01b0316145b80611ab457506001600160a01b0380821660009081526005602090815260408083209388168352929052205460ff165b949350505050565b826001600160a01b0316611acf82611139565b6001600160a01b031614611af55760405162461bcd60e51b8152600401610acf90613039565b6001600160a01b038216611b1b5760405162461bcd60e51b8152600401610acf90613069565b611b26838383611e38565b611b3160008261199c565b6001600160a01b0383166000908152600360205260408120805460019290611b5a90849061324d565b90915550506001600160a01b0382166000908152600360205260408120805460019290611b88908490613202565b909155505060008181526002602052604080822080546001600160a01b0319166001600160a01b0386811691821790925591518493918716917fddf252ad1be2c89b69c2b068fc378daa952ba7f163c4a11628f55a4df523b3ef91a4505050565b600a80546001600160a01b038381166001600160a01b0319831681179093556040519116919082907f8be0079c531659141344cd1fd0a4f28419497f9722a3daafe3b4186f6b6457e090600090a35050565b610edc828260405180602001604052806000815250611ef0565b816001600160a01b0316836001600160a01b03161415611c875760405162461bcd60e51b8152600401610acf90613079565b6001600160a01b0383811660008181526005602090815260408083209487168084529490915290819020805460ff1916851515179055517f17307eab39ab6107e8899845ad3d59bd9653f200f220920489ca2b5937696c3190611ceb908590612fcc565b60405180910390a3505050565b611d03848484611abc565b611d0f84848484611f23565b61138e5760405162461bcd60e51b8152600401610acf90613019565b6060600b8054610b05906132be565b606081611d5e5750506040805180820190915260018152600360fc1b602082015290565b8160005b8115611d885780611d7281613318565b9150611d819050600a8361321a565b9150611d62565b60008167ffffffffffffffff811115611da357611da36133b5565b6040519080825280601f01601f191660200182016040528015611dcd576020820181803683370190505b5090505b8415611ab457611de260018361324d565b9150611def600a86613333565b611dfa906030613202565b60f81b818381518110611e0f57611e0f61339f565b60200101906001600160f81b031916908160001a905350611e31600a8661321a565b9450611dd1565b6001600160a01b038316611e9357611e8e81600880546000838152600960205260408120829055600182018355919091527ff3f7a9fe364faab93b216da50a3214154f22a0a2b415b23a84c8169e8b636ee30155565b611eb6565b816001600160a01b0316836001600160a01b031614611eb657611eb68382612030565b6001600160a01b038216611ecd57610ce7816120cd565b826001600160a01b0316826001600160a01b031614610ce757610ce7828261217c565b611efa83836121c0565b611f076000848484611f23565b610ce75760405162461bcd60e51b8152600401610acf90613019565b60006001600160a01b0384163b1561202557604051630a85bd0160e11b81526001600160a01b0385169063150b7a0290611f67903390899088908890600401612f5c565b602060405180830381600087803b158015611f8157600080fd5b505af1925050508015611fb1575060408051601f3d908101601f19168201909252611fae918101906126ac565b60015b61200b573d808015611fdf576040519150601f19603f3d011682016040523d82523d6000602084013e611fe4565b606091505b5080516120035760405162461bcd60e51b8152600401610acf90613019565b805181602001fd5b6001600160e01b031916630a85bd0160e11b149050611ab4565b506001949350505050565b6000600161203d846111cf565b612047919061324d565b60008381526007602052604090205490915080821461209a576001600160a01b03841660009081526006602090815260408083208584528252808320548484528184208190558352600790915290208190555b5060009182526007602090815260408084208490556001600160a01b039094168352600681528383209183525290812055565b6008546000906120df9060019061324d565b600083815260096020526040812054600880549394509092849081106121075761210761339f565b9060005260206000200154905080600883815481106121285761212861339f565b600091825260208083209091019290925582815260099091526040808220849055858252812055600880548061216057612160613389565b6001900381819060005260206000200160009055905550505050565b6000612187836111cf565b6001600160a01b039093166000908152600660209081526040808320868452825280832085905593825260079052919091209190915550565b6001600160a01b0382166121e65760405162461bcd60e51b8152600401610acf906130e9565b6000818152600260205260409020546001600160a01b03161561221b5760405162461bcd60e51b8152600401610acf90613049565b61222760008383611e38565b6001600160a01b0382166000908152600360205260408120805460019290612250908490613202565b909155505060008181526002602052604080822080546001600160a01b0319166001600160a01b03861690811790915590518392907fddf252ad1be2c89b69c2b068fc378daa952ba7f163c4a11628f55a4df523b3ef908290a45050565b8280546122ba906132be565b90600052602060002090601f0160209004810192826122dc5760008555612322565b82601f106122f557805160ff1916838001178555612322565b82800160010185558215612322579182015b82811115612322578251825591602001919060010190612307565b5061232e929150612332565b5090565b5b8082111561232e5760008155600101612333565b600061235a612355846131b3565b61319c565b9050808382526020820190508285602086028201111561237c5761237c600080fd5b60005b858110156123a8578161239288826123e6565b845250602092830192919091019060010161237f565b5050509392505050565b60006123c0612355846131d7565b9050828152602081018484840111156123db576123db600080fd5b610f95848285613286565b8035610a9f816133cb565b600082601f83011261240557612405600080fd5b8135611ab4848260208601612347565b8035610a9f816133df565b8051610a9f816133df565b8035610a9f816133e7565b8051610a9f816133e7565b600082601f83011261245557612455600080fd5b8135611ab48482602086016123b2565b8035610a9f816133f7565b8051610a9f816133f7565b60006020828403121561249057612490600080fd5b6000611ab484846123e6565b600080604083850312156124b2576124b2600080fd5b60006124be85856123e6565b92505060206124cf858286016123e6565b9150509250929050565b6000806000606084860312156124f1576124f1600080fd5b60006124fd86866123e6565b935050602061250e868287016123e6565b925050604061251f86828701612465565b9150509250925092565b6000806000806080858703121561254257612542600080fd5b600061254e87876123e6565b945050602061255f878288016123e6565b935050604061257087828801612465565b925050606085013567ffffffffffffffff81111561259057612590600080fd5b61259c87828801612441565b91505092959194509250565b600080604083850312156125be576125be600080fd5b60006125ca85856123e6565b92505060206124cf85828601612415565b600080604083850312156125f1576125f1600080fd5b60006125fd85856123e6565b92505060206124cf85828601612465565b60006020828403121561262357612623600080fd5b813567ffffffffffffffff81111561263d5761263d600080fd5b611ab4848285016123f1565b60006020828403121561265e5761265e600080fd5b6000611ab48484612415565b60006020828403121561267f5761267f600080fd5b6000611ab48484612420565b6000602082840312156126a0576126a0600080fd5b6000611ab4848461242b565b6000602082840312156126c1576126c1600080fd5b6000611ab48484612436565b6000602082840312156126e2576126e2600080fd5b813567ffffffffffffffff8111156126fc576126fc600080fd5b611ab484828501612441565b60006020828403121561271d5761271d600080fd5b6000611ab48484612465565b60006020828403121561273e5761273e600080fd5b6000611ab48484612470565b6000806040838503121561276057612760600080fd5b60006124be8585612465565b6000806040838503121561278257612782600080fd5b60006125ca8585612465565b600080604083850312156127a4576127a4600080fd5b60006125fd8585612465565b60006127bc8383612ef3565b505060200190565b6127cd81613264565b82525050565b60006127dd825190565b80845260209384019383018060005b8381101561281157815161280088826127b0565b9750602083019250506001016127ec565b509495945050505050565b8015156127cd565b600061282e825190565b808452602084019350612845818560208601613292565b601f01601f19169290920192915050565b6127cd81613275565b6000612869825190565b612877818560208601613292565b9290920192915050565b6000815461288e816132be565b6001821680156128a557600181146128b6576128e6565b60ff198316865281860193506128e6565b60008581526020902060005b838110156128de578154888201526001909101906020016128c2565b838801955050505b50505092915050565b601881526000602082017f53616c6520686173206e6f742073746172746564207965740000000000000000815291505b5060200190565b602b81526000602082017f455243373231456e756d657261626c653a206f776e657220696e646578206f7581526a74206f6620626f756e647360a81b602082015291505b5060400190565b603281526000602082017f4552433732313a207472616e7366657220746f206e6f6e20455243373231526581527131b2b4bb32b91034b6b83632b6b2b73a32b960711b6020820152915061296a565b602681526000602082017f4f776e61626c653a206e6577206f776e657220697320746865207a65726f206181526564647265737360d01b6020820152915061296a565b602581526000602082017f4552433732313a207472616e736665722066726f6d20696e636f72726563742081526437bbb732b960d91b6020820152915061296a565b601c81526000602082017f4552433732313a20746f6b656e20616c7265616479206d696e746564000000008152915061291f565b601c81526000602082017f6d6178204e4654207065722061646472657373206578636565646564000000008152915061291f565b602481526000602082017f4552433732313a207472616e7366657220746f20746865207a65726f206164648152637265737360e01b6020820152915061296a565b601981526000602082017f4552433732313a20617070726f766520746f2063616c6c6572000000000000008152915061291f565b602881526000602082017f6d6178206d696e7420616d6f756e7420706572207472616e73616374696f6e20815267195e18d95959195960c21b6020820152915061296a565b602c81526000602082017f4552433732313a206f70657261746f7220717565727920666f72206e6f6e657881526b34b9ba32b73a103a37b5b2b760a11b6020820152915061296a565b603881526000602082017f4552433732313a20617070726f76652063616c6c6572206973206e6f74206f7781527f6e6572206e6f7220617070726f76656420666f7220616c6c00000000000000006020820152915061296a565b602a81526000602082017f4552433732313a2062616c616e636520717565727920666f7220746865207a65815269726f206164647265737360b01b6020820152915061296a565b602981526000602082017f4552433732313a206f776e657220717565727920666f72206e6f6e657869737481526832b73a103a37b5b2b760b91b6020820152915061296a565b60168152600060208201751b585e08139195081b1a5b5a5d08195e18d95959195960521b8152915061291f565b60208082527f4552433732313a206d696e7420746f20746865207a65726f20616464726573739101908152600061291f565b602c81526000602082017f4552433732313a20617070726f76656420717565727920666f72206e6f6e657881526b34b9ba32b73a103a37b5b2b760a11b6020820152915061296a565b60208082527f4f776e61626c653a2063616c6c6572206973206e6f7420746865206f776e65729101908152600061291f565b60168152600060208201751d1a194818dbdb9d1c9858dd081a5cc81c185d5cd95960521b8152915061291f565b602f81526000602082017f4552433732314d657461646174613a2055524920717565727920666f72206e6f81526e3732bc34b9ba32b73a103a37b5b2b760891b6020820152915061296a565b602181526000602082017f4552433732313a20617070726f76616c20746f2063757272656e74206f776e658152603960f91b6020820152915061296a565b603181526000602082017f4552433732313a207472616e736665722063616c6c6572206973206e6f74206f8152701ddb995c881b9bdc88185c1c1c9bdd9959607a1b6020820152915061296a565b602c81526000602082017f455243373231456e756d657261626c653a20676c6f62616c20696e646578206f81526b7574206f6620626f756e647360a01b6020820152915061296a565b601b81526000602082017f6e65656420746f206d696e74206174206c656173742031204e465400000000008152915061291f565b806127cd565b6000612f05828661285f565b9150612f11828561285f565b9150612f1d8284612881565b95945050505050565b60208101610a9f82846127c4565b60608101612f4282866127c4565b612f4f60208301856127c4565b611ab46040830184612ef3565b60808101612f6a82876127c4565b612f7760208301866127c4565b612f846040830185612ef3565b8181036060830152612f968184612824565b9695505050505050565b60408101612fae82856127c4565b6113f26020830184612ef3565b602080825281016113f281846127d3565b60208101610a9f828461281c565b60208101610a9f8284612856565b602080825281016113f28184612824565b60208082528101610a9f816128ef565b60208082528101610a9f81612926565b60208082528101610a9f81612971565b60208082528101610a9f816129c0565b60208082528101610a9f81612a03565b60208082528101610a9f81612a45565b60208082528101610a9f81612a79565b60208082528101610a9f81612aad565b60208082528101610a9f81612aee565b60208082528101610a9f81612b22565b60208082528101610a9f81612b67565b60208082528101610a9f81612bb0565b60208082528101610a9f81612c0a565b60208082528101610a9f81612c51565b60208082528101610a9f81612c97565b60208082528101610a9f81612cc4565b60208082528101610a9f81612cf6565b60208082528101610a9f81612d3f565b60208082528101610a9f81612d71565b60208082528101610a9f81612d9e565b60208082528101610a9f81612dea565b60208082528101610a9f816000815260200190565b60208082528101610a9f81612e28565b60208082528101610a9f81612e76565b60208082528101610a9f81612ebf565b60208101610a9f8284612ef3565b60006131a760405190565b905061176482826132eb565b600067ffffffffffffffff8211156131cd576131cd6133b5565b5060209081020190565b600067ffffffffffffffff8211156131f1576131f16133b5565b601f19601f83011660200192915050565b6000821982111561321557613215613347565b500190565b6000826132295761322961335d565b500490565b600081600019048311821515161561324857613248613347565b500290565b60008282101561325f5761325f613347565b500390565b60006001600160a01b038216610a9f565b6000610a9f826000610a9f82613264565b82818337506000910152565b60005b838110156132ad578181015183820152602001613295565b8381111561138e5750506000910152565b6002810460018216806132d257607f821691505b602082108114156132e5576132e5613373565b50919050565b601f19601f830116810181811067ffffffffffffffff82111715613311576133116133b5565b6040525050565b600060001982141561332c5761332c613347565b5060010190565b6000826133425761334261335d565b500690565b634e487b7160e01b600052601160045260246000fd5b634e487b7160e01b600052601260045260246000fd5b634e487b7160e01b600052602260045260246000fd5b634e487b7160e01b600052603160045260246000fd5b634e487b7160e01b600052603260045260246000fd5b634e487b7160e01b600052604160045260246000fd5b6133d481613264565b81146118fd57600080fd5b8015156133d4565b6001600160e01b031981166133d4565b806133d456fea2646970667358221220203a7a5741c293d6bc445d5ddc9f6932e10611fd2bc4af286f93923e891b815064736f6c63430008070033",
  "devdoc": {
    "kind": "dev",
    "methods": {
      "approve(address,uint256)": {
        "details": "See {IERC721-approve}."
      },
      "balanceOf(address)": {
        "details": "See {IERC721-balanceOf}."
      },
      "getApproved(uint256)": {
        "details": "See {IERC721-getApproved}."
      },
      "isApprovedForAll(address,address)": {
        "details": "See {IERC721-isApprovedForAll}."
      },
      "name()": {
        "details": "See {IERC721Metadata-name}."
      },
      "owner()": {
        "details": "Returns the address of the current owner."
      },
      "ownerOf(uint256)": {
        "details": "See {IERC721-ownerOf}."
      },
      "renounceOwnership()": {
        "details": "Leaves the contract without owner. It will not be possible to call `onlyOwner` functions anymore. Can only be called by the current owner. NOTE: Renouncing ownership will leave the contract without an owner, thereby removing any functionality that is only available to the owner."
      },
      "safeTransferFrom(address,address,uint256)": {
        "details": "See {IERC721-safeTransferFrom}."
      },
      "safeTransferFrom(address,address,uint256,bytes)": {
        "details": "See {IERC721-safeTransferFrom}."
      },
      "setApprovalForAll(address,bool)": {
        "details": "See {IERC721-setApprovalForAll}."
      },
      "supportsInterface(bytes4)": {
        "details": "See {IERC165-supportsInterface}."
      },
      "symbol()": {
        "details": "See {IERC721Metadata-symbol}."
      },
      "tokenByIndex(uint256)": {
        "details": "See {IERC721Enumerable-tokenByIndex}."
      },
      "tokenOfOwnerByIndex(address,uint256)": {
        "details": "See {IERC721Enumerable-tokenOfOwnerByIndex}."
      },
      "tokenURI(uint256)": {
        "details": "See {IERC721Metadata-tokenURI}."
      },
      "totalSupply()": {
        "details": "See {IERC721Enumerable-totalSupply}."
      },
      "transferFrom(address,address,uint256)": {
        "details": "See {IERC721-transferFrom}."
      },
      "transferOwnership(address)": {
        "details": "Transfers ownership of the contract to a new account (`newOwner`). Can only be called by the current owner."
      }
    },
    "version": 1
  },
  "userdoc": {
    "kind": "user",
    "methods": {},
    "version": 1
  },
  "storageLayout": {
    "storage": [
      {
        "astId": 208,
        "contract": "contracts/AWBC.sol:AgencyWolfBillionaireClub",
        "label": "_name",
        "offset": 0,
        "slot": "0",
        "type": "t_string_storage"
      },
      {
        "astId": 210,
        "contract": "contracts/AWBC.sol:AgencyWolfBillionaireClub",
        "label": "_symbol",
        "offset": 0,
        "slot": "1",
        "type": "t_string_storage"
      },
      {
        "astId": 214,
        "contract": "contracts/AWBC.sol:AgencyWolfBillionaireClub",
        "label": "_owners",
        "offset": 0,
        "slot": "2",
        "type": "t_mapping(t_uint256,t_address)"
      },
      {
        "astId": 218,
        "contract": "contracts/AWBC.sol:AgencyWolfBillionaireClub",
        "label": "_balances",
        "offset": 0,
        "slot": "3",
        "type": "t_mapping(t_address,t_uint256)"
      },
      {
        "astId": 222,
        "contract": "contracts/AWBC.sol:AgencyWolfBillionaireClub",
        "label": "_tokenApprovals",
        "offset": 0,
        "slot": "4",
        "type": "t_mapping(t_uint256,t_address)"
      },
      {
        "astId": 228,
        "contract": "contracts/AWBC.sol:AgencyWolfBillionaireClub",
        "label": "_operatorApprovals",
        "offset": 0,
        "slot": "5",
        "type": "t_mapping(t_address,t_mapping(t_address,t_bool))"
      },
      {
        "astId": 1197,
        "contract": "contracts/AWBC.sol:AgencyWolfBillionaireClub",
        "label": "_ownedTokens",
        "offset": 0,
        "slot": "6",
        "type": "t_mapping(t_address,t_mapping(t_uint256,t_uint256))"
      },
      {
        "astId": 1201,
        "contract": "contracts/AWBC.sol:AgencyWolfBillionaireClub",
        "label": "_ownedTokensIndex",
        "offset": 0,
        "slot": "7",
        "type": "t_mapping(t_uint256,t_uint256)"
      },
      {
        "astId": 1204,
        "contract": "contracts/AWBC.sol:AgencyWolfBillionaireClub",
        "label": "_allTokens",
        "offset": 0,
        "slot": "8",
        "type": "t_array(t_uint256)dyn_storage"
      },
      {
        "astId": 1208,
        "contract": "contracts/AWBC.sol:AgencyWolfBillionaireClub",
        "label": "_allTokensIndex",
        "offset": 0,
        "slot": "9",
        "type": "t_mapping(t_uint256,t_uint256)"
      },
      {
        "astId": 7,
        "contract": "contracts/AWBC.sol:AgencyWolfBillionaireClub",
        "label": "_owner",
        "offset": 0,
        "slot": "10",
        "type": "t_address"
      },
      {
        "astId": 2148,
        "contract": "contracts/AWBC.sol:AgencyWolfBillionaireClub",
        "label": "baseURI",
        "offset": 0,
        "slot": "11",
        "type": "t_string_storage"
      },
      {
        "astId": 2151,
        "contract": "contracts/AWBC.sol:AgencyWolfBillionaireClub",
        "label": "baseExtension",
        "offset": 0,
        "slot": "12",
        "type": "t_string_storage"
      },
      {
        "astId": 2153,
        "contract": "contracts/AWBC.sol:AgencyWolfBillionaireClub",
        "label": "notRevealedUri",
        "offset": 0,
        "slot": "13",
        "type": "t_string_storage"
      },
      {
        "astId": 2156,
        "contract": "contracts/AWBC.sol:AgencyWolfBillionaireClub",
        "label": "cost",
        "offset": 0,
        "slot": "14",
        "type": "t_uint256"
      },
      {
        "astId": 2159,
        "contract": "contracts/AWBC.sol:AgencyWolfBillionaireClub",
        "label": "maxSupply",
        "offset": 0,
        "slot": "15",
        "type": "t_uint256"
      },
      {
        "astId": 2162,
        "contract": "contracts/AWBC.sol:AgencyWolfBillionaireClub",
        "label": "maxMintAmount",
        "offset": 0,
        "slot": "16",
        "type": "t_uint256"
      },
      {
        "astId": 2165,
        "contract": "contracts/AWBC.sol:AgencyWolfBillionaireClub",
        "label": "nftPerAddressLimit",
        "offset": 0,
        "slot": "17",
        "type": "t_uint256"
      },
      {
        "astId": 2168,
        "contract": "contracts/AWBC.sol:AgencyWolfBillionaireClub",
        "label": "publicSaleDate",
        "offset": 0,
        "slot": "18",
        "type": "t_uint256"
      },
      {
        "astId": 2170,
        "contract": "contracts/AWBC.sol:AgencyWolfBillionaireClub",
        "label": "stakingAddress",
        "offset": 0,
        "slot": "19",
        "type": "t_address"
      },
      {
        "astId": 2173,
        "contract": "contracts/AWBC.sol:AgencyWolfBillionaireClub",
        "label": "paused",
        "offset": 20,
        "slot": "19",
        "type": "t_bool"
      },
      {
        "astId": 2176,
        "contract": "contracts/AWBC.sol:AgencyWolfBillionaireClub",
        "label": "revealed",
        "offset": 21,
        "slot": "19",
        "type": "t_bool"
      },
      {
        "astId": 2180,
        "contract": "contracts/AWBC.sol:AgencyWolfBillionaireClub",
        "label": "whitelistedAddresses",
        "offset": 0,
        "slot": "20",
        "type": "t_mapping(t_address,t_bool)"
      },
      {
        "astId": 2184,
        "contract": "contracts/AWBC.sol:AgencyWolfBillionaireClub",
        "label": "addressMintedBalance",
        "offset": 0,
        "slot": "21",
        "type": "t_mapping(t_address,t_uint256)"
      },
      {
        "astId": 2188,
        "contract": "contracts/AWBC.sol:AgencyWolfBillionaireClub",
        "label": "stakedInTime",
        "offset": 0,
        "slot": "22",
        "type": "t_mapping(t_uint256,t_uint256)"
      },
      {
        "astId": 2192,
        "contract": "contracts/AWBC.sol:AgencyWolfBillionaireClub",
        "label": "stakeTime",
        "offset": 0,
        "slot": "23",
        "type": "t_mapping(t_uint256,t_uint256)"
      },
      {
        "astId": 2195,
        "contract": "contracts/AWBC.sol:AgencyWolfBillionaireClub",
        "label": "paymentsToken",
        "offset": 0,
        "slot": "24",
        "type": "t_contract(IERC20)182"
      }
    ],
    "types": {
      "t_address": {
        "encoding": "inplace",
        "label": "address",
        "numberOfBytes": "20"
      },
      "t_array(t_uint256)dyn_storage": {
        "base": "t_uint256",
        "encoding": "dynamic_array",
        "label": "uint256[]",
        "numberOfBytes": "32"
      },
      "t_bool": {
        "encoding": "inplace",
        "label": "bool",
        "numberOfBytes": "1"
      },
      "t_contract(IERC20)182": {
        "encoding": "inplace",
        "label": "contract IERC20",
        "numberOfBytes": "20"
      },
      "t_mapping(t_address,t_bool)": {
        "encoding": "mapping",
        "key": "t_address",
        "label": "mapping(address => bool)",
        "numberOfBytes": "32",
        "value": "t_bool"
      },
      "t_mapping(t_address,t_mapping(t_address,t_bool))": {
        "encoding": "mapping",
        "key": "t_address",
        "label": "mapping(address => mapping(address => bool))",
        "numberOfBytes": "32",
        "value": "t_mapping(t_address,t_bool)"
      },
      "t_mapping(t_address,t_mapping(t_uint256,t_uint256))": {
        "encoding": "mapping",
        "key": "t_address",
        "label": "mapping(address => mapping(uint256 => uint256))",
        "numberOfBytes": "32",
        "value": "t_mapping(t_uint256,t_uint256)"
      },
      "t_mapping(t_address,t_uint256)": {
        "encoding": "mapping",
        "key": "t_address",
        "label": "mapping(address => uint256)",
        "numberOfBytes": "32",
        "value": "t_uint256"
      },
      "t_mapping(t_uint256,t_address)": {
        "encoding": "mapping",
        "key": "t_uint256",
        "label": "mapping(uint256 => address)",
        "numberOfBytes": "32",
        "value": "t_address"
      },
      "t_mapping(t_uint256,t_uint256)": {
        "encoding": "mapping",
        "key": "t_uint256",
        "label": "mapping(uint256 => uint256)",
        "numberOfBytes": "32",
        "value": "t_uint256"
      },
      "t_string_storage": {
        "encoding": "bytes",
        "label": "string",
        "numberOfBytes": "32"
      },
      "t_uint256": {
        "encoding": "inplace",
        "label": "uint256",
        "numberOfBytes": "32"
      }
    }
  }
}