{
  "address": "0xDe6B66E8a5165E1b8B28f9b5813c1B36E2B90f64",
  "abi": [
    {
      "inputs": [
        {
          "internalType": "address",
          "name": "_annex",
          "type": "address"
        },
        {
          "internalType": "address",
          "name": "_rewardToken",
          "type": "address"
        },
        {
          "internalType": "address",
          "name": "_vAnn",
          "type": "address"
        },
        {
          "internalType": "address",
          "name": "_boost",
          "type": "address"
        },
        {
          "internalType": "uint256",
          "name": "_rewardPerBlock",
          "type": "uint256"
        },
        {
          "internalType": "uint256",
          "name": "_startBlock",
          "type": "uint256"
        },
        {
          "internalType": "uint256",
          "name": "_bonusEndBlock",
          "type": "uint256"
        }
      ],
      "stateMutability": "nonpayable",
      "type": "constructor"
    },
    {
      "anonymous": false,
      "inputs": [
        {
          "indexed": true,
          "internalType": "address",
          "name": "user",
          "type": "address"
        },
        {
          "indexed": true,
          "internalType": "uint256",
          "name": "pid",
          "type": "uint256"
        },
        {
          "indexed": false,
          "internalType": "uint256",
          "name": "tokenId",
          "type": "uint256"
        }
      ],
      "name": "Boost",
      "type": "event"
    },
    {
      "anonymous": false,
      "inputs": [
        {
          "indexed": true,
          "internalType": "address",
          "name": "user",
          "type": "address"
        },
        {
          "indexed": true,
          "internalType": "uint256",
          "name": "pid",
          "type": "uint256"
        },
        {
          "indexed": false,
          "internalType": "uint256",
          "name": "amount",
          "type": "uint256"
        }
      ],
      "name": "Deposit",
      "type": "event"
    },
    {
      "anonymous": false,
      "inputs": [
        {
          "indexed": true,
          "internalType": "address",
          "name": "user",
          "type": "address"
        },
        {
          "indexed": true,
          "internalType": "uint256",
          "name": "pid",
          "type": "uint256"
        },
        {
          "indexed": false,
          "internalType": "uint256",
          "name": "amount",
          "type": "uint256"
        }
      ],
      "name": "EmergencyWithdraw",
      "type": "event"
    },
    {
      "anonymous": false,
      "inputs": [
        {
          "indexed": true,
          "internalType": "address",
          "name": "previousOwner",
          "type": "address"
        },
        {
          "indexed": true,
          "internalType": "address",
          "name": "newOwner",
          "type": "address"
        }
      ],
      "name": "OwnershipTransferred",
      "type": "event"
    },
    {
      "anonymous": false,
      "inputs": [
        {
          "indexed": true,
          "internalType": "address",
          "name": "user",
          "type": "address"
        },
        {
          "indexed": true,
          "internalType": "uint256",
          "name": "pid",
          "type": "uint256"
        },
        {
          "indexed": false,
          "internalType": "uint256",
          "name": "tokenId",
          "type": "uint256"
        }
      ],
      "name": "UnBoost",
      "type": "event"
    },
    {
      "anonymous": false,
      "inputs": [
        {
          "indexed": true,
          "internalType": "address",
          "name": "user",
          "type": "address"
        },
        {
          "indexed": true,
          "internalType": "uint256",
          "name": "pid",
          "type": "uint256"
        },
        {
          "indexed": false,
          "internalType": "uint256",
          "name": "amount",
          "type": "uint256"
        }
      ],
      "name": "Withdraw",
      "type": "event"
    },
    {
      "inputs": [],
      "name": "BONUS_MULTIPLIER",
      "outputs": [
        {
          "internalType": "uint256",
          "name": "",
          "type": "uint256"
        }
      ],
      "stateMutability": "view",
      "type": "function"
    },
    {
      "inputs": [],
      "name": "VANN_RATE",
      "outputs": [
        {
          "internalType": "uint256",
          "name": "",
          "type": "uint256"
        }
      ],
      "stateMutability": "view",
      "type": "function"
    },
    {
      "inputs": [
        {
          "internalType": "uint256",
          "name": "_allocPoint",
          "type": "uint256"
        },
        {
          "internalType": "contract IERC20",
          "name": "_lpToken",
          "type": "address"
        },
        {
          "internalType": "bool",
          "name": "_withUpdate",
          "type": "bool"
        }
      ],
      "name": "add",
      "outputs": [],
      "stateMutability": "nonpayable",
      "type": "function"
    },
    {
      "inputs": [],
      "name": "annex",
      "outputs": [
        {
          "internalType": "address",
          "name": "",
          "type": "address"
        }
      ],
      "stateMutability": "view",
      "type": "function"
    },
    {
      "inputs": [],
      "name": "bonusEndBlock",
      "outputs": [
        {
          "internalType": "uint256",
          "name": "",
          "type": "uint256"
        }
      ],
      "stateMutability": "view",
      "type": "function"
    },
    {
      "inputs": [
        {
          "internalType": "uint256",
          "name": "_pid",
          "type": "uint256"
        },
        {
          "internalType": "uint256",
          "name": "_tokenId",
          "type": "uint256"
        }
      ],
      "name": "boost",
      "outputs": [],
      "stateMutability": "nonpayable",
      "type": "function"
    },
    {
      "inputs": [
        {
          "internalType": "uint256",
          "name": "_pid",
          "type": "uint256"
        }
      ],
      "name": "boostAll",
      "outputs": [],
      "stateMutability": "nonpayable",
      "type": "function"
    },
    {
      "inputs": [],
      "name": "boostFactor",
      "outputs": [
        {
          "internalType": "contract IBoostToken",
          "name": "",
          "type": "address"
        }
      ],
      "stateMutability": "view",
      "type": "function"
    },
    {
      "inputs": [],
      "name": "boostMultiplierFactor",
      "outputs": [
        {
          "internalType": "uint256",
          "name": "",
          "type": "uint256"
        }
      ],
      "stateMutability": "view",
      "type": "function"
    },
    {
      "inputs": [
        {
          "internalType": "uint256",
          "name": "_pid",
          "type": "uint256"
        },
        {
          "internalType": "uint256",
          "name": "tokenAmount",
          "type": "uint256"
        }
      ],
      "name": "boostPartially",
      "outputs": [],
      "stateMutability": "nonpayable",
      "type": "function"
    },
    {
      "inputs": [],
      "name": "claimBaseRewardTime",
      "outputs": [
        {
          "internalType": "uint256",
          "name": "",
          "type": "uint256"
        }
      ],
      "stateMutability": "view",
      "type": "function"
    },
    {
      "inputs": [
        {
          "internalType": "uint256",
          "name": "_pid",
          "type": "uint256"
        }
      ],
      "name": "claimBaseRewards",
      "outputs": [],
      "stateMutability": "nonpayable",
      "type": "function"
    },
    {
      "inputs": [
        {
          "internalType": "uint256",
          "name": "_pid",
          "type": "uint256"
        }
      ],
      "name": "claimBoostReward",
      "outputs": [],
      "stateMutability": "nonpayable",
      "type": "function"
    },
    {
      "inputs": [],
      "name": "claimBoostRewardTime",
      "outputs": [
        {
          "internalType": "uint256",
          "name": "",
          "type": "uint256"
        }
      ],
      "stateMutability": "view",
      "type": "function"
    },
    {
      "inputs": [],
      "name": "claimOwnership",
      "outputs": [],
      "stateMutability": "nonpayable",
      "type": "function"
    },
    {
      "inputs": [
        {
          "internalType": "uint256",
          "name": "_pid",
          "type": "uint256"
        },
        {
          "internalType": "uint256",
          "name": "_amount",
          "type": "uint256"
        }
      ],
      "name": "deposit",
      "outputs": [],
      "stateMutability": "nonpayable",
      "type": "function"
    },
    {
      "inputs": [],
      "name": "emergencyNftWithdraw",
      "outputs": [],
      "stateMutability": "nonpayable",
      "type": "function"
    },
    {
      "inputs": [
        {
          "internalType": "uint256",
          "name": "_pid",
          "type": "uint256"
        }
      ],
      "name": "emergencyWithdraw",
      "outputs": [],
      "stateMutability": "nonpayable",
      "type": "function"
    },
    {
      "inputs": [
        {
          "internalType": "uint256",
          "name": "_pid",
          "type": "uint256"
        }
      ],
      "name": "getBoostedUserCount",
      "outputs": [
        {
          "internalType": "uint256",
          "name": "",
          "type": "uint256"
        }
      ],
      "stateMutability": "view",
      "type": "function"
    },
    {
      "inputs": [],
      "name": "getClaimablePendingBoostRewards",
      "outputs": [
        {
          "internalType": "uint256",
          "name": "",
          "type": "uint256"
        }
      ],
      "stateMutability": "view",
      "type": "function"
    },
    {
      "inputs": [
        {
          "internalType": "uint256",
          "name": "_from",
          "type": "uint256"
        },
        {
          "internalType": "uint256",
          "name": "_to",
          "type": "uint256"
        }
      ],
      "name": "getMultiplier",
      "outputs": [
        {
          "internalType": "uint256",
          "name": "",
          "type": "uint256"
        }
      ],
      "stateMutability": "view",
      "type": "function"
    },
    {
      "inputs": [
        {
          "internalType": "uint256",
          "name": "_pid",
          "type": "uint256"
        }
      ],
      "name": "getPoolInfo",
      "outputs": [
        {
          "internalType": "contract IERC20",
          "name": "lpToken",
          "type": "address"
        },
        {
          "internalType": "uint256",
          "name": "lpSupply",
          "type": "uint256"
        },
        {
          "internalType": "uint256",
          "name": "allocPoint",
          "type": "uint256"
        },
        {
          "internalType": "uint256",
          "name": "lastRewardBlock",
          "type": "uint256"
        },
        {
          "internalType": "uint256",
          "name": "accRewardPerShare",
          "type": "uint256"
        },
        {
          "internalType": "uint256",
          "name": "totalBoostCount",
          "type": "uint256"
        },
        {
          "internalType": "uint256",
          "name": "rewardEligibleSupply",
          "type": "uint256"
        }
      ],
      "stateMutability": "view",
      "type": "function"
    },
    {
      "inputs": [],
      "name": "getTotalPendingBoostRewards",
      "outputs": [
        {
          "internalType": "uint256",
          "name": "",
          "type": "uint256"
        }
      ],
      "stateMutability": "view",
      "type": "function"
    },
    {
      "inputs": [
        {
          "internalType": "uint256",
          "name": "_pid",
          "type": "uint256"
        },
        {
          "internalType": "address",
          "name": "_user",
          "type": "address"
        }
      ],
      "name": "getUserInfo",
      "outputs": [
        {
          "internalType": "uint256",
          "name": "amount",
          "type": "uint256"
        },
        {
          "internalType": "uint256",
          "name": "pendingAmount",
          "type": "uint256"
        },
        {
          "internalType": "uint256",
          "name": "rewardDebt",
          "type": "uint256"
        },
        {
          "internalType": "uint256",
          "name": "depositedDate",
          "type": "uint256"
        },
        {
          "internalType": "uint256[]",
          "name": "boostFactors",
          "type": "uint256[]"
        },
        {
          "internalType": "uint256",
          "name": "boostRewardDebt",
          "type": "uint256"
        },
        {
          "internalType": "uint256",
          "name": "boostedDate",
          "type": "uint256"
        },
        {
          "internalType": "uint256",
          "name": "accBoostReward",
          "type": "uint256"
        }
      ],
      "stateMutability": "view",
      "type": "function"
    },
    {
      "inputs": [],
      "name": "initialBoostMultiplier",
      "outputs": [
        {
          "internalType": "uint256",
          "name": "",
          "type": "uint256"
        }
      ],
      "stateMutability": "view",
      "type": "function"
    },
    {
      "inputs": [
        {
          "internalType": "uint256",
          "name": "",
          "type": "uint256"
        }
      ],
      "name": "isBoosted",
      "outputs": [
        {
          "internalType": "bool",
          "name": "",
          "type": "bool"
        }
      ],
      "stateMutability": "view",
      "type": "function"
    },
    {
      "inputs": [],
      "name": "massUpdatePools",
      "outputs": [],
      "stateMutability": "nonpayable",
      "type": "function"
    },
    {
      "inputs": [],
      "name": "maximumBoostCount",
      "outputs": [
        {
          "internalType": "uint16",
          "name": "",
          "type": "uint16"
        }
      ],
      "stateMutability": "view",
      "type": "function"
    },
    {
      "inputs": [],
      "name": "minimumValidBoostCount",
      "outputs": [
        {
          "internalType": "uint16",
          "name": "",
          "type": "uint16"
        }
      ],
      "stateMutability": "view",
      "type": "function"
    },
    {
      "inputs": [
        {
          "internalType": "uint256",
          "name": "_pid",
          "type": "uint256"
        },
        {
          "internalType": "address",
          "name": "_sender",
          "type": "address"
        },
        {
          "internalType": "address",
          "name": "_recipient",
          "type": "address"
        },
        {
          "internalType": "uint256",
          "name": "_vannAmount",
          "type": "uint256"
        }
      ],
      "name": "move",
      "outputs": [],
      "stateMutability": "nonpayable",
      "type": "function"
    },
    {
      "inputs": [],
      "name": "owner",
      "outputs": [
        {
          "internalType": "address",
          "name": "",
          "type": "address"
        }
      ],
      "stateMutability": "view",
      "type": "function"
    },
    {
      "inputs": [
        {
          "internalType": "uint256",
          "name": "_pid",
          "type": "uint256"
        },
        {
          "internalType": "address",
          "name": "_user",
          "type": "address"
        }
      ],
      "name": "pendingBaseReward",
      "outputs": [
        {
          "internalType": "uint256",
          "name": "",
          "type": "uint256"
        }
      ],
      "stateMutability": "view",
      "type": "function"
    },
    {
      "inputs": [
        {
          "internalType": "uint256",
          "name": "_pid",
          "type": "uint256"
        },
        {
          "internalType": "address",
          "name": "_user",
          "type": "address"
        }
      ],
      "name": "pendingBoostReward",
      "outputs": [
        {
          "internalType": "uint256",
          "name": "",
          "type": "uint256"
        }
      ],
      "stateMutability": "view",
      "type": "function"
    },
    {
      "inputs": [],
      "name": "pendingOwner",
      "outputs": [
        {
          "internalType": "address",
          "name": "",
          "type": "address"
        }
      ],
      "stateMutability": "view",
      "type": "function"
    },
    {
      "inputs": [
        {
          "internalType": "uint256",
          "name": "_pid",
          "type": "uint256"
        },
        {
          "internalType": "address",
          "name": "_user",
          "type": "address"
        }
      ],
      "name": "pendingReward",
      "outputs": [
        {
          "internalType": "uint256",
          "name": "",
          "type": "uint256"
        }
      ],
      "stateMutability": "view",
      "type": "function"
    },
    {
      "inputs": [],
      "name": "poolLength",
      "outputs": [
        {
          "internalType": "uint256",
          "name": "",
          "type": "uint256"
        }
      ],
      "stateMutability": "view",
      "type": "function"
    },
    {
      "inputs": [],
      "name": "rewardPerBlock",
      "outputs": [
        {
          "internalType": "uint256",
          "name": "",
          "type": "uint256"
        }
      ],
      "stateMutability": "view",
      "type": "function"
    },
    {
      "inputs": [],
      "name": "rewardToken",
      "outputs": [
        {
          "internalType": "address",
          "name": "",
          "type": "address"
        }
      ],
      "stateMutability": "view",
      "type": "function"
    },
    {
      "inputs": [
        {
          "internalType": "uint256",
          "name": "_pid",
          "type": "uint256"
        },
        {
          "internalType": "uint256",
          "name": "_allocPoint",
          "type": "uint256"
        },
        {
          "internalType": "bool",
          "name": "_withUpdate",
          "type": "bool"
        }
      ],
      "name": "set",
      "outputs": [],
      "stateMutability": "nonpayable",
      "type": "function"
    },
    {
      "inputs": [
        {
          "internalType": "uint256",
          "name": "_factor",
          "type": "uint256"
        }
      ],
      "name": "setAccMulFactor",
      "outputs": [],
      "stateMutability": "nonpayable",
      "type": "function"
    },
    {
      "inputs": [
        {
          "internalType": "address",
          "name": "_address",
          "type": "address"
        }
      ],
      "name": "setBoostFactor",
      "outputs": [],
      "stateMutability": "nonpayable",
      "type": "function"
    },
    {
      "inputs": [
        {
          "internalType": "uint256",
          "name": "speed",
          "type": "uint256"
        }
      ],
      "name": "setRewardPerBlock",
      "outputs": [],
      "stateMutability": "nonpayable",
      "type": "function"
    },
    {
      "inputs": [],
      "name": "startBlock",
      "outputs": [
        {
          "internalType": "uint256",
          "name": "",
          "type": "uint256"
        }
      ],
      "stateMutability": "view",
      "type": "function"
    },
    {
      "inputs": [],
      "name": "totalAllocPoint",
      "outputs": [
        {
          "internalType": "uint256",
          "name": "",
          "type": "uint256"
        }
      ],
      "stateMutability": "view",
      "type": "function"
    },
    {
      "inputs": [
        {
          "internalType": "address",
          "name": "newOwner",
          "type": "address"
        },
        {
          "internalType": "bool",
          "name": "direct",
          "type": "bool"
        },
        {
          "internalType": "bool",
          "name": "renounce",
          "type": "bool"
        }
      ],
      "name": "transferOwnership",
      "outputs": [],
      "stateMutability": "nonpayable",
      "type": "function"
    },
    {
      "inputs": [
        {
          "internalType": "uint256",
          "name": "_pid",
          "type": "uint256"
        },
        {
          "internalType": "uint256",
          "name": "_tokenId",
          "type": "uint256"
        }
      ],
      "name": "unBoost",
      "outputs": [],
      "stateMutability": "nonpayable",
      "type": "function"
    },
    {
      "inputs": [
        {
          "internalType": "uint256",
          "name": "_pid",
          "type": "uint256"
        }
      ],
      "name": "unBoostAll",
      "outputs": [],
      "stateMutability": "nonpayable",
      "type": "function"
    },
    {
      "inputs": [
        {
          "internalType": "uint256",
          "name": "_pid",
          "type": "uint256"
        },
        {
          "internalType": "uint256",
          "name": "tokenAmount",
          "type": "uint256"
        }
      ],
      "name": "unBoostPartially",
      "outputs": [],
      "stateMutability": "nonpayable",
      "type": "function"
    },
    {
      "inputs": [],
      "name": "unstakableTime",
      "outputs": [
        {
          "internalType": "uint256",
          "name": "",
          "type": "uint256"
        }
      ],
      "stateMutability": "view",
      "type": "function"
    },
    {
      "inputs": [
        {
          "internalType": "uint256",
          "name": "_claimBaseRewardTime",
          "type": "uint256"
        }
      ],
      "name": "updateClaimBaseRewardTime",
      "outputs": [],
      "stateMutability": "nonpayable",
      "type": "function"
    },
    {
      "inputs": [
        {
          "internalType": "uint256",
          "name": "_claimBoostRewardTime",
          "type": "uint256"
        }
      ],
      "name": "updateClaimBoostRewardTime",
      "outputs": [],
      "stateMutability": "nonpayable",
      "type": "function"
    },
    {
      "inputs": [
        {
          "internalType": "uint256",
          "name": "_initialBoostMultiplier",
          "type": "uint256"
        }
      ],
      "name": "updateInitialBoostMultiplier",
      "outputs": [],
      "stateMutability": "nonpayable",
      "type": "function"
    },
    {
      "inputs": [
        {
          "internalType": "uint16",
          "name": "_count",
          "type": "uint16"
        }
      ],
      "name": "updateMaximumBoostCount",
      "outputs": [],
      "stateMutability": "nonpayable",
      "type": "function"
    },
    {
      "inputs": [
        {
          "internalType": "uint16",
          "name": "_count",
          "type": "uint16"
        }
      ],
      "name": "updateMinimumValidBoostCount",
      "outputs": [],
      "stateMutability": "nonpayable",
      "type": "function"
    },
    {
      "inputs": [
        {
          "internalType": "uint256",
          "name": "_pid",
          "type": "uint256"
        }
      ],
      "name": "updatePool",
      "outputs": [],
      "stateMutability": "nonpayable",
      "type": "function"
    },
    {
      "inputs": [
        {
          "internalType": "address",
          "name": "_reward",
          "type": "address"
        }
      ],
      "name": "updateRewardToken",
      "outputs": [],
      "stateMutability": "nonpayable",
      "type": "function"
    },
    {
      "inputs": [
        {
          "internalType": "uint256",
          "name": "_unstakableTime",
          "type": "uint256"
        }
      ],
      "name": "updateUnstakableTime",
      "outputs": [],
      "stateMutability": "nonpayable",
      "type": "function"
    },
    {
      "inputs": [
        {
          "internalType": "uint256",
          "name": "_boostMultiplierFactor",
          "type": "uint256"
        }
      ],
      "name": "updatedBoostMultiplierFactor",
      "outputs": [],
      "stateMutability": "nonpayable",
      "type": "function"
    },
    {
      "inputs": [
        {
          "internalType": "uint256",
          "name": "",
          "type": "uint256"
        },
        {
          "internalType": "address",
          "name": "",
          "type": "address"
        }
      ],
      "name": "userInfo",
      "outputs": [
        {
          "internalType": "uint256",
          "name": "amount",
          "type": "uint256"
        },
        {
          "internalType": "uint256",
          "name": "pendingAmount",
          "type": "uint256"
        },
        {
          "internalType": "uint256",
          "name": "rewardDebt",
          "type": "uint256"
        },
        {
          "internalType": "uint256",
          "name": "depositedDate",
          "type": "uint256"
        },
        {
          "internalType": "uint256",
          "name": "boostRewardDebt",
          "type": "uint256"
        },
        {
          "internalType": "uint256",
          "name": "boostedDate",
          "type": "uint256"
        },
        {
          "internalType": "uint256",
          "name": "accBoostReward",
          "type": "uint256"
        }
      ],
      "stateMutability": "view",
      "type": "function"
    },
    {
      "inputs": [],
      "name": "vAnn",
      "outputs": [
        {
          "internalType": "address",
          "name": "",
          "type": "address"
        }
      ],
      "stateMutability": "view",
      "type": "function"
    },
    {
      "inputs": [
        {
          "internalType": "uint256",
          "name": "_pid",
          "type": "uint256"
        },
        {
          "internalType": "uint256",
          "name": "_amount",
          "type": "uint256"
        }
      ],
      "name": "withdraw",
      "outputs": [],
      "stateMutability": "nonpayable",
      "type": "function"
    }
  ],
  "transactionHash": "0xc4d30ee1f02a83a7893602b300a513a3b3057250428dee50920e63615a596be4",
  "args": [
    "0xb75f3F9D35d256a94BBd7A3fC2E16c768E17930E",
    "0x16227D60f7a0e586C66B005219dfc887D13C9531",
    "0x30db067e3E6D3AD401124D9bA32bd2Adc04C9236",
    "0xE38314D14F3F62b359b7E8950b2D6542AA37B65d",
    "69444",
    17437841,
    17437841
  ],
  "solcInputHash": "e9fb170b6b62fc2f00c5e4ddc5263550",
  "bytecode": "0x608060405262015180600b556202a300600c556028600d556014600e55600f8054600161ffff199091161763ffff00001916620a000017905562278d00601155600060135564e8d4a5100060155534801561005957600080fd5b506040516200460138038062004601833981810160405260e081101561007e57600080fd5b50805160208201516040808401516060850151608086015160a087015160c090970151600080546001600160a01b0319163390811782559551979896979496939592949192917f8be0079c531659141344cd1fd0a4f28419497f9722a3daafe3b4186f6b6457e0908290a36001600255600380546001600160a01b03199081166001600160a01b03998a1617909155600580548216978916979097179096556004805490961694871694909417909455600f8054600160201b600160c01b031916640100000000939096169290920294909417905560079290925560069190915560145561448f80620001726000396000f3fe608060405234801561001057600080fd5b50600436106103af5760003560e01c8063766d7cfb116101f4578063c0db88871161011a578063e0e2f310116100ad578063f54ac4c11161007c578063f54ac4c114610a7b578063f6d4c18514610a98578063f7c618c114610aa0578063f8cf31cb14610aa8576103af565b8063e0e2f31014610a2b578063e2bbb15814610a33578063e30c397814610a56578063e78c1b1b14610a5e576103af565b8063d895745c116100e9578063d895745c146109cc578063d8fd5a7a146109e9578063d94f11be14610a06578063da38f3af14610a23576103af565b8063c0db88871461099f578063c1ddfb00146109a7578063ca19c5631461084e578063d5f9464e146109af576103af565b806398969e8211610192578063bb872b4a11610161578063bb872b4a14610946578063bcabf89b14610963578063bd48cf221461098f578063c0bccbfb14610997576103af565b806398969e82146108ed5780639b80d28114610919578063abee219a14610921578063b5bda70d14610929576103af565b80638ae39cac116101ce5780638ae39cac146108565780638da5cb5b1461085e5780638dbb1e3a1461086657806393f1a40b14610889576103af565b8063766d7cfb1461081457806378bd92e1146108315780638aa285501461084e576103af565b806342a9026a116102d957806351eb05a61161027757806364482f791161024657806364482f791461077d578063648b8c6b146107a857806369914d62146107c757806373cb07d8146107e8576103af565b806351eb05a6146106ff57806352e0371c1461071c5780635312ea8e14610758578063630b5ba114610775576103af565b8063488a8f58116102b3578063488a8f58146106c157806348cd4cb1146106e75780634ae3e315146106ef5780634e71e0c8146106f7576103af565b806342a9026a14610664578063441a3e70146106815780634638cef5146106a4576103af565b806317caf6f1116103515780631eaaa045116103205780631eaaa0451461057d57806321ab46c8146105b15780632f380b35146105e257806340be7bec14610641576103af565b806317caf6f1146105285780631a249f5c146105305780631aed6553146105515780631b64854c14610559576103af565b80630fc035df1161038d5780630fc035df146104295780631069f3b51461044c57806311aedfbc146104fd57806311ea326414610505576103af565b8063078dfbe7146103b4578063081e3eda146103ec5780630fa6b3a014610406575b600080fd5b6103ea600480360360608110156103ca57600080fd5b506001600160a01b03813516906020810135151590604001351515610ace565b005b6103f4610bf8565b60408051918252519081900360200190f35b6103ea6004803603604081101561041c57600080fd5b5080359060200135610bfe565b6103ea6004803603604081101561043f57600080fd5b5080359060200135610eb0565b6104786004803603604081101561046257600080fd5b50803590602001356001600160a01b031661100d565b6040518089815260200188815260200187815260200186815260200180602001858152602001848152602001838152602001828103825286818151815260200191508051906020019060200280838360005b838110156104e25781810151838201526020016104ca565b50505050905001995050505050505050505060405180910390f35b6103f46110ea565b6103ea6004803603604081101561051b57600080fd5b50803590602001356110f0565b6103f4611358565b6103ea6004803603602081101561054657600080fd5b503561ffff1661135e565b6103f46113c3565b6105616113c9565b604080516001600160a01b039092168252519081900360200190f35b6103ea6004803603606081101561059357600080fd5b508035906001600160a01b03602082013516906040013515156113d8565b6105ce600480360360208110156105c757600080fd5b50356115a3565b604080519115158252519081900360200190f35b6105ff600480360360208110156105f857600080fd5b50356115b8565b604080516001600160a01b0390981688526020880196909652868601949094526060860192909252608085015260a084015260c0830152519081900360e00190f35b6103ea6004803603604081101561065757600080fd5b50803590602001356116ba565b6103ea6004803603602081101561067a57600080fd5b50356117f9565b6103ea6004803603604081101561069757600080fd5b50803590602001356118f9565b6103ea600480360360208110156106ba57600080fd5b5035611b9b565b6103ea600480360360208110156106d757600080fd5b50356001600160a01b0316611bed565b6103f4611c67565b610561611c6d565b6103ea611c7c565b6103ea6004803603602081101561071557600080fd5b5035611d3e565b6103ea6004803603608081101561073257600080fd5b508035906001600160a01b03602082013581169160408101359091169060600135611dff565b6103ea6004803603602081101561076e57600080fd5b503561209e565b6103ea6121c9565b6103ea6004803603606081101561079357600080fd5b508035906020810135906040013515156121ec565b6107b06122ac565b6040805161ffff9092168252519081900360200190f35b6103ea600480360360208110156107dd57600080fd5b503561ffff166122bc565b6103f4600480360360408110156107fe57600080fd5b50803590602001356001600160a01b0316612329565b6103ea6004803603602081101561082a57600080fd5b5035612476565b6103ea6004803603602081101561084757600080fd5b50356124c8565b6103f461274c565b6103f4612751565b610561612757565b6103f46004803603604081101561087c57600080fd5b5080359060200135612766565b6108b56004803603604081101561089f57600080fd5b50803590602001356001600160a01b03166127cc565b604080519788526020880196909652868601949094526060860192909252608085015260a084015260c0830152519081900360e00190f35b6103f46004803603604081101561090357600080fd5b50803590602001356001600160a01b031661281b565b6103f4612950565b6103ea612956565b6103f46004803603602081101561093f57600080fd5b5035612b8c565b6103ea6004803603602081101561095c57600080fd5b5035612ba1565b6103f46004803603604081101561097957600080fd5b50803590602001356001600160a01b0316612bf3565b6103f4612cdd565b6103f4612ce3565b6103f4612ea3565b610561613065565b6103ea600480360360208110156109c557600080fd5b503561307b565b6103ea600480360360208110156109e257600080fd5b50356130cd565b6103ea600480360360208110156109ff57600080fd5b503561311f565b6103ea60048036036020811015610a1c57600080fd5b5035613171565b6103f46133e4565b6103f46133ea565b6103ea60048036036040811015610a4957600080fd5b50803590602001356133f0565b6105616135fa565b6103ea60048036036020811015610a7457600080fd5b5035613609565b6103ea60048036036020811015610a9157600080fd5b5035613676565b6107b06136c8565b6105616136d2565b6103ea60048036036020811015610abe57600080fd5b50356001600160a01b03166136e1565b6000546001600160a01b03163314610b1b576040805162461bcd60e51b81526020600482018190526024820152600080516020614410833981519152604482015290519081900360640190fd5b8115610bd7576001600160a01b038316151580610b355750805b610b7e576040805162461bcd60e51b81526020600482015260156024820152744f776e61626c653a207a65726f206164647265737360581b604482015290519081900360640190fd5b600080546040516001600160a01b03808716939216917f8be0079c531659141344cd1fd0a4f28419497f9722a3daafe3b4186f6b6457e091a3600080546001600160a01b0319166001600160a01b038516179055610bf3565b600180546001600160a01b0319166001600160a01b0385161790555b505050565b60085490565b600060088381548110610c0d57fe5b60009182526020808320868452600a825260408085203386529092529220600481015460069092029092019250610c65576040805162461bcd60e51b8152602060048201526000602482015290519081900360640190fd5b6004810154831115610c98576040805162461bcd60e51b8152602060048201526000602482015290519081900360640190fd5b6000610ca78260030154613750565b9050610cb285611d3e565b8015610cc257610cc2853361376e565b60005b84811015610d3a5760048301805460001981019160009183908110610ce657fe5b90600052602060002001549050610cfd88826138d3565b84600401805480610d0a57fe5b60008281526020812082016000199081019190915590810190915560048701805490910190555050600101610cc5565b504260068301556004820154610e8257815460018301819055600083556005840154610d6591613a2b565b60058401556000805b600087815260126020526040902054811015610dca576000878152601260205260409020805482908110610d9e57fe5b6000918252602090912001546001600160a01b0316331415610dc257809150610dca565b600101610d6e565b50600086815260126020526040902080546000198101908110610de957fe5b60009182526020808320909101548883526012909152604090912080546001600160a01b039092169183908110610e1c57fe5b600091825260208083209190910180546001600160a01b0319166001600160a01b039490941693909317909255878152601290915260409020805480610e5e57fe5b600082815260209020810160001990810180546001600160a01b0319169055019055505b60155460038401548354610ea19291610e9b9190613a74565b90613acd565b82600201819055505050505050565b600060088381548110610ebf57fe5b60009182526020808320868452600a825260408085203386529092529220600481015460069092029092019250610f17576040805162461bcd60e51b8152602060048201526000602482015290519081900360640190fd5b6000610f268260030154613750565b9050610f3185611d3e565b8015610f4157610f41853361376e565b610f4b85856138d3565b81600401805480610f5857fe5b60008281526020812082016000199081019190915590810190915560048085018054909201909155426006840155820154610e8257815460018301819055600083556005840154610fa891613a2b565b60058401556000805b600087815260126020526040902054811015610dca576000878152601260205260409020805482908110610fe157fe5b6000918252602090912001546001600160a01b031633141561100557809150610dca565b600101610fb1565b6000806000806060600080600080600a60008c815260200190815260200160002060008b6001600160a01b03166001600160a01b031681526020019081526020016000209050806000015481600101548260020154836003015484600401856005015486600601548760070154838054806020026020016040519081016040528092919081815260200182805480156110c557602002820191906000526020600020905b8154815260200190600101908083116110b1575b5050505050935098509850985098509850985098509850509295985092959890939650565b60115481565b6000828152600a6020908152604080832033845290915290206001810154815401611154576040805162461bcd60e51b815260206004820152600f60248201526e6e6f207374616b6520746f6b656e7360881b604482015290519081900360640190fd5b600f5460048201546201000090910461ffff16908301111561117557600080fd5b60006008848154811061118457fe5b60009182526020909120600484015460069092020191506111ce5760008481526012602090815260408220805460018101825590835291200180546001600160a01b031916331790555b600f54604080516370a0823160e01b81523360048201529051600092600160201b90046001600160a01b0316916370a08231916024808301926020929190829003018186803b15801561122057600080fd5b505afa158015611234573d6000803e3d6000fd5b505050506040513d602081101561124a57600080fd5b505190508084111561125b57600080fd5b600061126a8460030154613750565b905061127586611d3e565b801561128557611285863361376e565b600f5460408051632f745c5960e01b815233600482015260001990970160248801819052905190966000926001600160a01b03600160201b9091041691632f745c5991604480820192602092909190829003018186803b1580156112e857600080fd5b505afa1580156112fc573d6000803e3d6000fd5b505050506040513d602081101561131257600080fd5b505190506113208782613b0f565b506000851161128557601554600384015485546113429291610e9b9190613a74565b6002850155505042600690920191909155505050565b60135481565b6000546001600160a01b031633146113ab576040805162461bcd60e51b81526020600482018190526024820152600080516020614410833981519152604482015290519081900360640190fd5b600f805461ffff191661ffff92909216919091179055565b60065481565b6003546001600160a01b031681565b6000546001600160a01b03163314611425576040805162461bcd60e51b81526020600482018190526024820152600080516020614410833981519152604482015290519081900360640190fd5b8015611433576114336121c9565b6000601454431161144657601454611448565b435b6013549091506114589085613d35565b6013556040805160c0810182526001600160a01b039485168152602081019586529081019182526000606082018181526080830182815260a0840183815260088054600181018255945293517ff3f7a9fe364faab93b216da50a3214154f22a0a2b415b23a84c8169e8b636ee3600690940293840180546001600160a01b031916919098161790965595517ff3f7a9fe364faab93b216da50a3214154f22a0a2b415b23a84c8169e8b636ee482015591517ff3f7a9fe364faab93b216da50a3214154f22a0a2b415b23a84c8169e8b636ee583015593517ff3f7a9fe364faab93b216da50a3214154f22a0a2b415b23a84c8169e8b636ee682015591517ff3f7a9fe364faab93b216da50a3214154f22a0a2b415b23a84c8169e8b636ee78301555090517ff3f7a9fe364faab93b216da50a3214154f22a0a2b415b23a84c8169e8b636ee890910155565b60106020526000908152604090205460ff1681565b600080600080600080600080600889815481106115d157fe5b60009182526020822060069091020180546003549193506001600160a01b0391821691161415611604575060095461167d565b8154604080516370a0823160e01b815230600482015290516001600160a01b03909216916370a0823191602480820192602092909190829003018186803b15801561164e57600080fd5b505afa158015611662573d6000803e3d6000fd5b505050506040513d602081101561167857600080fd5b505190505b815460018301546002840154600385015460048601546005909601546001600160a01b039094169e949d50919b5099509750919550909350915050565b6000828152600a602090815260408083203384529091529020600181015481540161171e576040805162461bcd60e51b815260206004820152600f60248201526e6e6f207374616b6520746f6b656e7360881b604482015290519081900360640190fd5b600f5460048201546201000090910461ffff166001909101111561174157600080fd5b60006008848154811061175057fe5b600091825260209091206004840154600690920201915061179a5760008481526012602090815260408220805460018101825590835291200180546001600160a01b031916331790555b60006117a98360030154613750565b90506117b485611d3e565b80156117c4576117c4853361376e565b6117ce8585613b0f565b601554600383015484546117e79291610e9b9190613a74565b60028401555050426006909101555050565b6000818152600a6020908152604080832033845290915290206011546006820154420311611866576040805162461bcd60e51b81526020600482015260156024820152746e6f7420656c696769626c6520746f20636c61696d60581b604482015290519081900360640190fd5b60006008838154811061187557fe5b9060005260206000209060060201905061188e83611d3e565b611898833361376e565b601554600382015483546118b19291610e9b9190613a74565b6002830155600582015460078301546000916118cd9190613a2b565b90506118d93382613d8f565b60058301546118e89082613d35565b600584015550504260069091015550565b60028054141561193e576040805162461bcd60e51b815260206004820152601f60248201526000805160206143cf833981519152604482015290519081900360640190fd5b6002808190555060006008838154811061195457fe5b60009182526020808320868452600a825260408085203386529092529220600181015481546006909302909301935091018311156119ce576040805162461bcd60e51b81526020600482015260126024820152711dda5d1a191c985dce881b9bdd0819dbdbd960721b604482015290519081900360640190fd5b600c548160030154420311611a24576040805162461bcd60e51b81526020600482015260176024820152766e6f7420656c696769626c6520746f20756e6474616b6560481b604482015290519081900360640190fd5b611a2d84611d3e565b611a37843361376e565b805415611a65578054611a4a9084613a2b565b81556005820154611a5b9084613a2b565b6005830155611a7a565b6001810154611a749084613a2b565b60018201555b60155460038301548254611a939291610e9b9190613a74565b600282015581546003546001600160a01b0390811691161415611ac157600954611abd9084613a2b565b6009555b8215611b43576004546001600160a01b03166379cc679033611ae486600a613a74565b6040518363ffffffff1660e01b815260040180836001600160a01b0316815260200182815260200192505050600060405180830381600087803b158015611b2a57600080fd5b505af1158015611b3e573d6000803e3d6000fd5b505050505b8154611b59906001600160a01b03163385613f4a565b604080518481529051859133917ff279e6a1f5e320cca91135676d9cb6e44ca8a08c0b88342bcdb1144f6511b5689181900360200190a3505060016002555050565b6000546001600160a01b03163314611be8576040805162461bcd60e51b81526020600482018190526024820152600080516020614410833981519152604482015290519081900360640190fd5b601155565b6000546001600160a01b03163314611c3a576040805162461bcd60e51b81526020600482018190526024820152600080516020614410833981519152604482015290519081900360640190fd5b600f80546001600160a01b03909216600160201b02640100000000600160c01b0319909216919091179055565b60145481565b6004546001600160a01b031681565b6001546001600160a01b0316338114611cdc576040805162461bcd60e51b815260206004820181905260248201527f4f776e61626c653a2063616c6c657220213d2070656e64696e67206f776e6572604482015290519081900360640190fd5b600080546040516001600160a01b03808516939216917f8be0079c531659141344cd1fd0a4f28419497f9722a3daafe3b4186f6b6457e091a3600080546001600160a01b039092166001600160a01b0319928316179055600180549091169055565b600060088281548110611d4d57fe5b9060005260206000209060060201905080600201544311611d6e5750611dfc565b6005810154611d835743600290910155611dfc565b6000611d93826002015443612766565b90506000611dc0601354610e9b8560010154611dba60075487613a7490919063ffffffff16565b90613a74565b9050611ded611de28460050154610e9b60155485613a7490919063ffffffff16565b600385015490613d35565b60038401555050436002909101555b50565b600280541415611e44576040805162461bcd60e51b815260206004820152601f60248201526000805160206143cf833981519152604482015290519081900360640190fd5b600280556004546001600160a01b03163314611e5f57600080fd5b600060088581548110611e6e57fe5b60009182526020808320888452600a80835260408086206001600160a01b038b811688529452808620938916865285206006949094029091019450909290611eb7908690613acd565b90508083600101548460000154011015611f18576040805162461bcd60e51b815260206004820152601760248201527f7472616e73666572206578636565647320616d6f756e74000000000000000000604482015290519081900360640190fd5b600c548360030154420311611f6e576040805162461bcd60e51b81526020600482015260176024820152766e6f7420656c696769626c6520746f20756e6474616b6560481b604482015290519081900360640190fd5b611f7788611d3e565b611f81888861376e565b825415611f9b578254611f949082613a2b565b8355611fb0565b6001830154611faa9082613a2b565b60018401555b60155460038501548454611fc99291610e9b9190613a74565b600284015542600380850191909155820154600090611fe790613750565b90506000611ffb8460040180549050613f9c565b90508180156120075750805b15612016576120168a8961376e565b8015612046576001840154845461203891859161203291613d35565b90613d35565b84556000600185015561205b565b60018401546120559084613d35565b60018501555b601554600387015485546120749291610e9b9190613a74565b60028086019190915542600386018190556006909501949094555050600190915550505050505050565b6002805414156120e3576040805162461bcd60e51b815260206004820152601f60248201526000805160206143cf833981519152604482015290519081900360640190fd5b600280819055506000600882815481106120f957fe5b60009182526020808320858452600a825260408085203380875293529093206001810154815460069094029094019450926121499261213791613d35565b84546001600160a01b03169190613f4a565b80546040805191825251849133917fbb757047c2b5f3974fe26b7c10f732e7bce710b0952a71082702781e62ae05959181900360200190a380541561219e578054600583015461219891613a2b565b60058301555b6000808255600180830182905560028084018390556005840183905560079093019190915590555050565b60085460005b818110156121e8576121e081611d3e565b6001016121cf565b5050565b6000546001600160a01b03163314612239576040805162461bcd60e51b81526020600482018190526024820152600080516020614410833981519152604482015290519081900360640190fd5b8015612247576122476121c9565b61227e826120326008868154811061225b57fe5b906000526020600020906006020160010154601354613a2b90919063ffffffff16565b601381905550816008848154811061229257fe5b906000526020600020906006020160010181905550505050565b600f5462010000900461ffff1681565b6000546001600160a01b03163314612309576040805162461bcd60e51b81526020600482018190526024820152600080516020614410833981519152604482015290519081900360640190fd5b600f805461ffff909216620100000263ffff000019909216919091179055565b6000806008848154811061233957fe5b60009182526020808320878452600a825260408085206001600160a01b03891686529092529220600360069092029092019081015460028201549193509043118015612389575060008360050154115b156123f357600061239e846002015443612766565b905060006123c5601354610e9b8760010154611dba60075487613a7490919063ffffffff16565b90506123ee6123e78660050154610e9b60155485613a7490919063ffffffff16565b8490613d35565b925050505b600482015460009061240490613fb4565b90506000612433846002015461242d601554610e9b878960000154613a7490919063ffffffff16565b90613a2b565b905060006124466064610e9b8585613a74565b90506124678161203287600501548860070154613a2b90919063ffffffff16565b96505050505050505b92915050565b6000546001600160a01b031633146124c3576040805162461bcd60e51b81526020600482018190526024820152600080516020614410833981519152604482015290519081900360640190fd5b600b55565b6000818152600a602090815260408083203384529091529020600181015481540161252c576040805162461bcd60e51b815260206004820152600f60248201526e6e6f207374616b6520746f6b656e7360881b604482015290519081900360640190fd5b600f54604080516370a0823160e01b81523360048201529051600092600160201b90046001600160a01b0316916370a08231916024808301926020929190829003018186803b15801561257e57600080fd5b505afa158015612592573d6000803e3d6000fd5b505050506040513d60208110156125a857600080fd5b50519050806125d8576040805162461bcd60e51b8152602060048201526000602482015290519081900360640190fd5b6000600884815481106125e757fe5b60009182526020909120600485015460069092020191506126315760008481526012602090815260408220805460018101825590835291200180546001600160a01b031916331790555b6004830154600f5462010000900461ffff16038083101561264f5750815b600061265e8560030154613750565b905061266986611d3e565b801561267957612679863361376e565b600f5460408051632f745c5960e01b815233600482015260001990940160248501819052905190936000926001600160a01b03600160201b9091041691632f745c5991604480820192602092909190829003018186803b1580156126dc57600080fd5b505afa1580156126f0573d6000803e3d6000fd5b505050506040513d602081101561270657600080fd5b505190506127148782613b0f565b506000821161267957601554600384015486546127369291610e9b9190613a74565b6002860155505042600690930192909255505050565b600a81565b60075481565b6000546001600160a01b031681565b6000600654821161278757612780600a611dba8486613a2b565b9050612470565b600654831061279a576127808284613a2b565b6127806127b260065484613a2b90919063ffffffff16565b612032600a611dba87600654613a2b90919063ffffffff16565b600a602052816000526040600020602052806000526040600020600091509150508060000154908060010154908060020154908060030154908060050154908060060154908060070154905087565b6000806008848154811061282b57fe5b60009182526020808320878452600a825260408085206001600160a01b0389168652909252922060036006909202909201908101546002820154919350904311801561287b575060008360050154115b156128de576000612890846002015443612766565b905060006128b7601354610e9b8760010154611dba60075487613a7490919063ffffffff16565b90506128d96123e78660050154610e9b60155485613a7490919063ffffffff16565b925050505b60048201546000906128ef90613fb4565b90506000612918846002015461242d601554610e9b878960000154613a7490919063ffffffff16565b90506000612944856005015461242d87600701546120326064610e9b888a613a7490919063ffffffff16565b90506124678282613d35565b600e5481565b60028054141561299b576040805162461bcd60e51b815260206004820152601f60248201526000805160206143cf833981519152604482015290519081900360640190fd5b600280556000546001600160a01b031633146129ec576040805162461bcd60e51b81526020600482018190526024820152600080516020614410833981519152604482015290519081900360640190fd5b600f54604080516370a0823160e01b81523060048201529051600092600160201b90046001600160a01b0316916370a08231916024808301926020929190829003018186803b158015612a3e57600080fd5b505afa158015612a52573d6000803e3d6000fd5b505050506040513d6020811015612a6857600080fd5b5051905060005b81811015612b8357600f5460408051632f745c5960e01b8152306004820152602481018490529051600092600160201b90046001600160a01b031691632f745c59916044808301926020929190829003018186803b158015612ad057600080fd5b505afa158015612ae4573d6000803e3d6000fd5b505050506040513d6020811015612afa57600080fd5b5051600f5460408051632142170760e11b8152306004820152336024820152604481018490529051929350600160201b9091046001600160a01b0316916342842e0e9160648082019260009290919082900301818387803b158015612b5e57600080fd5b505af1158015612b72573d6000803e3d6000fd5b505060019093019250612a6f915050565b50506001600255565b6000818152601260205260409020545b919050565b6000546001600160a01b03163314612bee576040805162461bcd60e51b81526020600482018190526024820152600080516020614410833981519152604482015290519081900360640190fd5b600755565b60008060088481548110612c0357fe5b60009182526020808320878452600a825260408085206001600160a01b03891686529092529220600360069092029092019081015460028201549193509043118015612c53575060008360050154115b15612cb6576000612c68846002015443612766565b90506000612c8f601354610e9b8760010154611dba60075487613a7490919063ffffffff16565b9050612cb16123e78660050154610e9b60155485613a7490919063ffffffff16565b925050505b60028201546015548354612cd3929161242d91610e9b9086613a74565b9695505050505050565b600b5481565b60008060005b600854811015612e9d57600060088281548110612d0257fe5b9060005260206000209060060201905060008160030154905060005b600084815260126020526040902054811015612e92576000848152600a6020908152604080832060129092528220805483919085908110612d5b57fe5b60009182526020808320909101546001600160a01b031683528201929092526040019020600285015490915043118015612d99575060008460050154115b15612e03576000612dae856002015443612766565b90506000612dd5601354610e9b8860010154611dba60075487613a7490919063ffffffff16565b9050612dfe612df78760050154610e9b60155485613a7490919063ffffffff16565b8690613d35565b945050505b6004810154600090612e1490613fb4565b90506000612e3d836002015461242d601554610e9b898860000154613a7490919063ffffffff16565b90506000612e506064610e9b8585613a74565b90506000612e738261203287600501548860070154613a2b90919063ffffffff16565b9050612e7f8a82613d35565b99505060019094019350612d1e92505050565b505050600101612ce9565b50905090565b60008060005b600854811015612e9d57600060088281548110612ec257fe5b9060005260206000209060060201905060008160030154905060005b60008481526012602052604090205481101561305a576000848152600a6020908152604080832060129092528220805483919085908110612f1b57fe5b60009182526020808320909101546001600160a01b031683528201929092526040019020601154600682015491925043919091031061305157836002015443118015612f6b575060008460050154115b15612fce576000612f80856002015443612766565b90506000612fa7601354610e9b8860010154611dba60075487613a7490919063ffffffff16565b9050612fc9612df78760050154610e9b60155485613a7490919063ffffffff16565b945050505b6004810154600090612fdf90613fb4565b90506000613008836002015461242d601554610e9b898860000154613a7490919063ffffffff16565b9050600061301b6064610e9b8585613a74565b9050600061303e8261203287600501548860070154613a2b90919063ffffffff16565b905061304a8a82613d35565b9950505050505b50600101612ede565b505050600101612ea9565b600f54600160201b90046001600160a01b031681565b6000546001600160a01b031633146130c8576040805162461bcd60e51b81526020600482018190526024820152600080516020614410833981519152604482015290519081900360640190fd5b600e55565b6000546001600160a01b0316331461311a576040805162461bcd60e51b81526020600482018190526024820152600080516020614410833981519152604482015290519081900360640190fd5b600d55565b6000546001600160a01b0316331461316c576040805162461bcd60e51b81526020600482018190526024820152600080516020614410833981519152604482015290519081900360640190fd5b600c55565b60006008828154811061318057fe5b60009182526020808320858452600a8252604080852033865290925292206004810154600690920290920192506131d8576040805162461bcd60e51b8152602060048201526000602482015290519081900360640190fd5b60006131e78260030154613750565b90506131f284611d3e565b801561320257613202843361376e565b6004820180546000198101916000918390811061321b57fe5b9060005260206000200154905061323286826138d3565b8360040180548061323f57fe5b6001900381819060005260206000200160009055905560018560040154038560040181905550505060008260040180549050116132025742600683015560048201546133bd578154600183018190556000835560058401546132a091613a2b565b60058401556000805b6000868152601260205260409020548110156133055760008681526012602052604090208054829081106132d957fe5b6000918252602090912001546001600160a01b03163314156132fd57809150613305565b6001016132a9565b5060008581526012602052604090208054600019810190811061332457fe5b60009182526020808320909101548783526012909152604090912080546001600160a01b03909216918390811061335757fe5b600091825260208083209190910180546001600160a01b0319166001600160a01b03949094169390931790925586815260129091526040902080548061339957fe5b600082815260209020810160001990810180546001600160a01b0319169055019055505b601554600384015483546133d69291610e9b9190613a74565b826002018190555050505050565b600c5481565b600d5481565b6000600883815481106133ff57fe5b60009182526020808320868452600a8252604080852033865290925292206006909102909101915061343084611d3e565b600061343f8260030154613750565b905060006134538360040180549050613f9c565b905081801561345f5750805b1561346e5761346e863361376e565b8354613485906001600160a01b0316333088614004565b83546003546001600160a01b03908116911614156134ae576009546134aa9086613d35565b6009555b80156134ec57600183015483546134ca91879161203291613d35565b835560058401546134db9086613d35565b600585015560006001840155613501565b60018301546134fb9086613d35565b60018401555b6015546003850154845461351a9291610e9b9190613a74565b600284015584156135b5576004546001600160a01b03166340c10f193361354288600a613a74565b6040518363ffffffff1660e01b815260040180836001600160a01b0316815260200182815260200192505050602060405180830381600087803b15801561358857600080fd5b505af115801561359c573d6000803e3d6000fd5b505050506040513d60208110156135b257600080fd5b50505b426006840155604080518681529051879133917f90890809c654f11d6e72a28fa60149770a0d11ec6c92319d6ceb2bb0a4ea1a159181900360200190a3505050505050565b6001546001600160a01b031681565b60006008828154811061361857fe5b60009182526020808320858452600a8252604080852033865290925292206006909102909101915061364983611d3e565b613653833361376e565b6015546003830154825461366c9291610e9b9190613a74565b6002909101555050565b6000546001600160a01b031633146136c3576040805162461bcd60e51b81526020600482018190526024820152600080516020614410833981519152604482015290519081900360640190fd5b601555565b600f5461ffff1681565b6005546001600160a01b031681565b6000546001600160a01b0316331461372e576040805162461bcd60e51b81526020600482018190526024820152600080516020614410833981519152604482015290519081900360640190fd5b600580546001600160a01b0319166001600160a01b0392909216919091179055565b6000600b54824203111561376657506001612b9c565b506000919050565b60006008838154811061377d57fe5b60009182526020808320868452600a825260408085206001600160a01b038816865290925290832060038101546006909302909101935091906137bf90613750565b905080156138cc57600383015460048301546000906137dd90613fb4565b90508460020154431180156137f6575060008560050154115b1561386057600061380b866002015443612766565b90506000613832601354610e9b8960010154611dba60075487613a7490919063ffffffff16565b905061385b6138548860050154610e9b60155485613a7490919063ffffffff16565b8590613d35565b935050505b6000613887856002015461242d601554610e9b878a60000154613a7490919063ffffffff16565b9050600061389a6064610e9b8585613a74565b60078701549091506138ac9082613d35565b600787015581156138c1576138c18883613d8f565b505042600385015550505b5050505050565b60008181526010602052604090205460ff1615156001146138f357600080fd5b600f54604080516323b872dd60e01b8152306004820152336024820152604481018490529051600160201b9092046001600160a01b0316916323b872dd9160648082019260009290919082900301818387803b15801561395257600080fd5b505af1158015613966573d6000803e3d6000fd5b5050600f5460408051630a7c981760e31b8152600481018690526000602482018190529151600160201b9093046001600160a01b031694506353e4c0b893506044808201939182900301818387803b1580156139c157600080fd5b505af11580156139d5573d6000803e3d6000fd5b505050600082815260106020908152604091829020805460ff191690558151848152915185935033927fd9ccb4973c95d201bc1724ce7e7f19f8e0835e571f58bf8b6a0de82084f0574f92908290030190a35050565b6000613a6d83836040518060400160405280601e81526020017f536166654d6174683a207375627472616374696f6e206f766572666c6f770000815250614064565b9392505050565b600082613a8357506000612470565b82820282848281613a9057fe5b0414613a6d5760405162461bcd60e51b81526004018080602001828103825260218152602001806143ef6021913960400191505060405180910390fd5b6000613a6d83836040518060400160405280601a81526020017f536166654d6174683a206469766973696f6e206279207a65726f0000000000008152506140fb565b60008181526010602052604090205460ff1615613b65576040805162461bcd60e51b815260206004820152600f60248201526e185b1c9958591e48189bdbdcdd1959608a1b604482015290519081900360640190fd5b600f54604080516323b872dd60e01b8152336004820152306024820152604481018490529051600160201b9092046001600160a01b0316916323b872dd9160648082019260009290919082900301818387803b158015613bc457600080fd5b505af1158015613bd8573d6000803e3d6000fd5b5050600f5460408051630a7c981760e31b815260048101869052600160248201529051600160201b9092046001600160a01b031693506353e4c0b8925060448082019260009290919082900301818387803b158015613c3657600080fd5b505af1158015613c4a573d6000803e3d6000fd5b5050506000828152601060205260408120805460ff19166001179055600880549192509084908110613c7857fe5b60009182526020808320868452600a82526040808520338652909252922060018101546006909202909201925015613ccd5760018101548082556005830154613cc091613d35565b6005830155600060018201555b600480820180546001818101835560009283526020928390209091018690559184018054909201909155604080518581529051869233927faadc628cb4fd3bb7a62795eb460290459458bdc6f387ffde727c740f42c18337929081900390910190a350505050565b600082820183811015613a6d576040805162461bcd60e51b815260206004820152601b60248201527f536166654d6174683a206164646974696f6e206f766572666c6f770000000000604482015290519081900360640190fd5b600554604080516370a0823160e01b815230600482015290516000926001600160a01b0316916370a08231916024808301926020929190829003018186803b158015613dda57600080fd5b505afa158015613dee573d6000803e3d6000fd5b505050506040513d6020811015613e0457600080fd5b50516005546003549192506001600160a01b0391821691161415613e3a57600954811115613e36576009549003613e3a565b5060005b80821115613eca576005546040805163a9059cbb60e01b81526001600160a01b038681166004830152602482018590529151919092169163a9059cbb9160448083019260209291908290030181600087803b158015613e9857600080fd5b505af1158015613eac573d6000803e3d6000fd5b505050506040513d6020811015613ec257600080fd5b50610bf39050565b6005546040805163a9059cbb60e01b81526001600160a01b038681166004830152602482018690529151919092169163a9059cbb9160448083019260209291908290030181600087803b158015613f2057600080fd5b505af1158015613f34573d6000803e3d6000fd5b505050506040513d60208110156138cc57600080fd5b604080516001600160a01b038416602482015260448082018490528251808303909101815260649091019091526020810180516001600160e01b031663a9059cbb60e01b179052610bf3908490614160565b600f5460009061ffff16821061376657506001612b9c565b600f5460009061ffff168211613fcc57506000612b9c565b600f54600090613fe790849061ffff90811660010116613a2b565b9050613a6d600d54612032600e5484613a7490919063ffffffff16565b604080516001600160a01b0380861660248301528416604482015260648082018490528251808303909101815260849091019091526020810180516001600160e01b03166323b872dd60e01b17905261405e908590614160565b50505050565b600081848411156140f35760405162461bcd60e51b81526004018080602001828103825283818151815260200191508051906020019080838360005b838110156140b85781810151838201526020016140a0565b50505050905090810190601f1680156140e55780820380516001836020036101000a031916815260200191505b509250505060405180910390fd5b505050900390565b6000818361414a5760405162461bcd60e51b81526020600482018181528351602484015283519092839260449091019190850190808383600083156140b85781810151838201526020016140a0565b50600083858161415657fe5b0495945050505050565b60606141b5826040518060400160405280602081526020017f5361666545524332303a206c6f772d6c6576656c2063616c6c206661696c6564815250856001600160a01b03166142119092919063ffffffff16565b805190915015610bf3578080602001905160208110156141d457600080fd5b5051610bf35760405162461bcd60e51b815260040180806020018281038252602a815260200180614430602a913960400191505060405180910390fd5b60606142208484600085614228565b949350505050565b606061423385614395565b614284576040805162461bcd60e51b815260206004820152601d60248201527f416464726573733a2063616c6c20746f206e6f6e2d636f6e7472616374000000604482015290519081900360640190fd5b60006060866001600160a01b031685876040518082805190602001908083835b602083106142c35780518252601f1990920191602091820191016142a4565b6001836020036101000a03801982511681845116808217855250505050505090500191505060006040518083038185875af1925050503d8060008114614325576040519150601f19603f3d011682016040523d82523d6000602084013e61432a565b606091505b5091509150811561433e5791506142209050565b80511561434e5780518082602001fd5b60405162461bcd60e51b81526020600482018181528651602484015286518793919283926044019190850190808383600083156140b85781810151838201526020016140a0565b6000813f7fc5d2460186f7233c927e7db2dcc703c0e500b653ca82273b7bfad8045d85a47081811480159061422057505015159291505056fe5265656e7472616e637947756172643a207265656e7472616e742063616c6c00536166654d6174683a206d756c7469706c69636174696f6e206f766572666c6f774f776e61626c653a2063616c6c6572206973206e6f7420746865206f776e65725361666545524332303a204552433230206f7065726174696f6e20646964206e6f742073756363656564a2646970667358221220b276aa4f7a4416916668063bced94fe0a7091e91bdd37108586f9bfa8a6904ed64736f6c634300060c0033",
  "devdoc": {
    "kind": "dev",
    "methods": {},
    "version": 1
  },
  "userdoc": {
    "kind": "user",
    "methods": {},
    "version": 1
  },
  "storageLayout": {
    "storage": [
      {
        "astId": 4818,
        "contract": "contracts/AnnexBoostFarm.sol:AnnexBoostFarm",
        "label": "owner",
        "offset": 0,
        "slot": "0",
        "type": "t_address"
      },
      {
        "astId": 4820,
        "contract": "contracts/AnnexBoostFarm.sol:AnnexBoostFarm",
        "label": "pendingOwner",
        "offset": 0,
        "slot": "1",
        "type": "t_address"
      },
      {
        "astId": 4944,
        "contract": "contracts/AnnexBoostFarm.sol:AnnexBoostFarm",
        "label": "_status",
        "offset": 0,
        "slot": "2",
        "type": "t_uint256"
      },
      {
        "astId": 54,
        "contract": "contracts/AnnexBoostFarm.sol:AnnexBoostFarm",
        "label": "annex",
        "offset": 0,
        "slot": "3",
        "type": "t_address"
      },
      {
        "astId": 56,
        "contract": "contracts/AnnexBoostFarm.sol:AnnexBoostFarm",
        "label": "vAnn",
        "offset": 0,
        "slot": "4",
        "type": "t_address"
      },
      {
        "astId": 58,
        "contract": "contracts/AnnexBoostFarm.sol:AnnexBoostFarm",
        "label": "rewardToken",
        "offset": 0,
        "slot": "5",
        "type": "t_address"
      },
      {
        "astId": 60,
        "contract": "contracts/AnnexBoostFarm.sol:AnnexBoostFarm",
        "label": "bonusEndBlock",
        "offset": 0,
        "slot": "6",
        "type": "t_uint256"
      },
      {
        "astId": 62,
        "contract": "contracts/AnnexBoostFarm.sol:AnnexBoostFarm",
        "label": "rewardPerBlock",
        "offset": 0,
        "slot": "7",
        "type": "t_uint256"
      },
      {
        "astId": 71,
        "contract": "contracts/AnnexBoostFarm.sol:AnnexBoostFarm",
        "label": "poolInfo",
        "offset": 0,
        "slot": "8",
        "type": "t_array(t_struct(PoolInfo)52_storage)dyn_storage"
      },
      {
        "astId": 73,
        "contract": "contracts/AnnexBoostFarm.sol:AnnexBoostFarm",
        "label": "lpSupplyOfAnnPool",
        "offset": 0,
        "slot": "9",
        "type": "t_uint256"
      },
      {
        "astId": 79,
        "contract": "contracts/AnnexBoostFarm.sol:AnnexBoostFarm",
        "label": "userInfo",
        "offset": 0,
        "slot": "10",
        "type": "t_mapping(t_uint256,t_mapping(t_address,t_struct(UserInfo)39_storage))"
      },
      {
        "astId": 82,
        "contract": "contracts/AnnexBoostFarm.sol:AnnexBoostFarm",
        "label": "claimBaseRewardTime",
        "offset": 0,
        "slot": "11",
        "type": "t_uint256"
      },
      {
        "astId": 85,
        "contract": "contracts/AnnexBoostFarm.sol:AnnexBoostFarm",
        "label": "unstakableTime",
        "offset": 0,
        "slot": "12",
        "type": "t_uint256"
      },
      {
        "astId": 88,
        "contract": "contracts/AnnexBoostFarm.sol:AnnexBoostFarm",
        "label": "initialBoostMultiplier",
        "offset": 0,
        "slot": "13",
        "type": "t_uint256"
      },
      {
        "astId": 91,
        "contract": "contracts/AnnexBoostFarm.sol:AnnexBoostFarm",
        "label": "boostMultiplierFactor",
        "offset": 0,
        "slot": "14",
        "type": "t_uint256"
      },
      {
        "astId": 94,
        "contract": "contracts/AnnexBoostFarm.sol:AnnexBoostFarm",
        "label": "minimumValidBoostCount",
        "offset": 0,
        "slot": "15",
        "type": "t_uint16"
      },
      {
        "astId": 97,
        "contract": "contracts/AnnexBoostFarm.sol:AnnexBoostFarm",
        "label": "maximumBoostCount",
        "offset": 2,
        "slot": "15",
        "type": "t_uint16"
      },
      {
        "astId": 99,
        "contract": "contracts/AnnexBoostFarm.sol:AnnexBoostFarm",
        "label": "boostFactor",
        "offset": 4,
        "slot": "15",
        "type": "t_contract(IBoostToken)3916"
      },
      {
        "astId": 103,
        "contract": "contracts/AnnexBoostFarm.sol:AnnexBoostFarm",
        "label": "isBoosted",
        "offset": 0,
        "slot": "16",
        "type": "t_mapping(t_uint256,t_bool)"
      },
      {
        "astId": 108,
        "contract": "contracts/AnnexBoostFarm.sol:AnnexBoostFarm",
        "label": "claimBoostRewardTime",
        "offset": 0,
        "slot": "17",
        "type": "t_uint256"
      },
      {
        "astId": 113,
        "contract": "contracts/AnnexBoostFarm.sol:AnnexBoostFarm",
        "label": "boostedUsers",
        "offset": 0,
        "slot": "18",
        "type": "t_mapping(t_uint256,t_array(t_address)dyn_storage)"
      },
      {
        "astId": 116,
        "contract": "contracts/AnnexBoostFarm.sol:AnnexBoostFarm",
        "label": "totalAllocPoint",
        "offset": 0,
        "slot": "19",
        "type": "t_uint256"
      },
      {
        "astId": 118,
        "contract": "contracts/AnnexBoostFarm.sol:AnnexBoostFarm",
        "label": "startBlock",
        "offset": 0,
        "slot": "20",
        "type": "t_uint256"
      },
      {
        "astId": 121,
        "contract": "contracts/AnnexBoostFarm.sol:AnnexBoostFarm",
        "label": "accMulFactor",
        "offset": 0,
        "slot": "21",
        "type": "t_uint256"
      }
    ],
    "types": {
      "t_address": {
        "encoding": "inplace",
        "label": "address",
        "numberOfBytes": "20"
      },
      "t_array(t_address)dyn_storage": {
        "base": "t_address",
        "encoding": "dynamic_array",
        "label": "address[]",
        "numberOfBytes": "32"
      },
      "t_array(t_struct(PoolInfo)52_storage)dyn_storage": {
        "base": "t_struct(PoolInfo)52_storage",
        "encoding": "dynamic_array",
        "label": "struct AnnexBoostFarm.PoolInfo[]",
        "numberOfBytes": "32"
      },
      "t_array(t_uint256)dyn_storage": {
        "base": "t_uint256",
        "encoding": "dynamic_array",
        "label": "uint256[]",
        "numberOfBytes": "32"
      },
      "t_bool": {
        "encoding": "inplace",
        "label": "bool",
        "numberOfBytes": "1"
      },
      "t_contract(IBoostToken)3916": {
        "encoding": "inplace",
        "label": "contract IBoostToken",
        "numberOfBytes": "20"
      },
      "t_contract(IERC20)4006": {
        "encoding": "inplace",
        "label": "contract IERC20",
        "numberOfBytes": "20"
      },
      "t_mapping(t_address,t_struct(UserInfo)39_storage)": {
        "encoding": "mapping",
        "key": "t_address",
        "label": "mapping(address => struct AnnexBoostFarm.UserInfo)",
        "numberOfBytes": "32",
        "value": "t_struct(UserInfo)39_storage"
      },
      "t_mapping(t_uint256,t_array(t_address)dyn_storage)": {
        "encoding": "mapping",
        "key": "t_uint256",
        "label": "mapping(uint256 => address[])",
        "numberOfBytes": "32",
        "value": "t_array(t_address)dyn_storage"
      },
      "t_mapping(t_uint256,t_bool)": {
        "encoding": "mapping",
        "key": "t_uint256",
        "label": "mapping(uint256 => bool)",
        "numberOfBytes": "32",
        "value": "t_bool"
      },
      "t_mapping(t_uint256,t_mapping(t_address,t_struct(UserInfo)39_storage))": {
        "encoding": "mapping",
        "key": "t_uint256",
        "label": "mapping(uint256 => mapping(address => struct AnnexBoostFarm.UserInfo))",
        "numberOfBytes": "32",
        "value": "t_mapping(t_address,t_struct(UserInfo)39_storage)"
      },
      "t_struct(PoolInfo)52_storage": {
        "encoding": "inplace",
        "label": "struct AnnexBoostFarm.PoolInfo",
        "members": [
          {
            "astId": 41,
            "contract": "contracts/AnnexBoostFarm.sol:AnnexBoostFarm",
            "label": "lpToken",
            "offset": 0,
            "slot": "0",
            "type": "t_contract(IERC20)4006"
          },
          {
            "astId": 43,
            "contract": "contracts/AnnexBoostFarm.sol:AnnexBoostFarm",
            "label": "allocPoint",
            "offset": 0,
            "slot": "1",
            "type": "t_uint256"
          },
          {
            "astId": 45,
            "contract": "contracts/AnnexBoostFarm.sol:AnnexBoostFarm",
            "label": "lastRewardBlock",
            "offset": 0,
            "slot": "2",
            "type": "t_uint256"
          },
          {
            "astId": 47,
            "contract": "contracts/AnnexBoostFarm.sol:AnnexBoostFarm",
            "label": "accRewardPerShare",
            "offset": 0,
            "slot": "3",
            "type": "t_uint256"
          },
          {
            "astId": 49,
            "contract": "contracts/AnnexBoostFarm.sol:AnnexBoostFarm",
            "label": "totalBoostCount",
            "offset": 0,
            "slot": "4",
            "type": "t_uint256"
          },
          {
            "astId": 51,
            "contract": "contracts/AnnexBoostFarm.sol:AnnexBoostFarm",
            "label": "rewardEligibleSupply",
            "offset": 0,
            "slot": "5",
            "type": "t_uint256"
          }
        ],
        "numberOfBytes": "192"
      },
      "t_struct(UserInfo)39_storage": {
        "encoding": "inplace",
        "label": "struct AnnexBoostFarm.UserInfo",
        "members": [
          {
            "astId": 23,
            "contract": "contracts/AnnexBoostFarm.sol:AnnexBoostFarm",
            "label": "amount",
            "offset": 0,
            "slot": "0",
            "type": "t_uint256"
          },
          {
            "astId": 25,
            "contract": "contracts/AnnexBoostFarm.sol:AnnexBoostFarm",
            "label": "pendingAmount",
            "offset": 0,
            "slot": "1",
            "type": "t_uint256"
          },
          {
            "astId": 27,
            "contract": "contracts/AnnexBoostFarm.sol:AnnexBoostFarm",
            "label": "rewardDebt",
            "offset": 0,
            "slot": "2",
            "type": "t_uint256"
          },
          {
            "astId": 29,
            "contract": "contracts/AnnexBoostFarm.sol:AnnexBoostFarm",
            "label": "depositedDate",
            "offset": 0,
            "slot": "3",
            "type": "t_uint256"
          },
          {
            "astId": 32,
            "contract": "contracts/AnnexBoostFarm.sol:AnnexBoostFarm",
            "label": "boostFactors",
            "offset": 0,
            "slot": "4",
            "type": "t_array(t_uint256)dyn_storage"
          },
          {
            "astId": 34,
            "contract": "contracts/AnnexBoostFarm.sol:AnnexBoostFarm",
            "label": "boostRewardDebt",
            "offset": 0,
            "slot": "5",
            "type": "t_uint256"
          },
          {
            "astId": 36,
            "contract": "contracts/AnnexBoostFarm.sol:AnnexBoostFarm",
            "label": "boostedDate",
            "offset": 0,
            "slot": "6",
            "type": "t_uint256"
          },
          {
            "astId": 38,
            "contract": "contracts/AnnexBoostFarm.sol:AnnexBoostFarm",
            "label": "accBoostReward",
            "offset": 0,
            "slot": "7",
            "type": "t_uint256"
          }
        ],
        "numberOfBytes": "256"
      },
      "t_uint16": {
        "encoding": "inplace",
        "label": "uint16",
        "numberOfBytes": "2"
      },
      "t_uint256": {
        "encoding": "inplace",
        "label": "uint256",
        "numberOfBytes": "32"
      }
    }
  }
}