{
  "address": "0x1CBCa3632c34181171d1aafeB2d4b2591057c5b5",
  "abi": [
    {
      "inputs": [
        {
          "internalType": "address",
          "name": "_annex",
          "type": "address"
        },
        {
          "internalType": "address",
          "name": "_rewardToken",
          "type": "address"
        },
        {
          "internalType": "address",
          "name": "_vAnn",
          "type": "address"
        },
        {
          "internalType": "address",
          "name": "_boost",
          "type": "address"
        },
        {
          "internalType": "uint256",
          "name": "_rewardPerBlock",
          "type": "uint256"
        },
        {
          "internalType": "uint256",
          "name": "_startBlock",
          "type": "uint256"
        },
        {
          "internalType": "uint256",
          "name": "_bonusEndBlock",
          "type": "uint256"
        }
      ],
      "stateMutability": "nonpayable",
      "type": "constructor"
    },
    {
      "anonymous": false,
      "inputs": [
        {
          "indexed": true,
          "internalType": "address",
          "name": "user",
          "type": "address"
        },
        {
          "indexed": true,
          "internalType": "uint256",
          "name": "pid",
          "type": "uint256"
        },
        {
          "indexed": false,
          "internalType": "uint256",
          "name": "tokenId",
          "type": "uint256"
        }
      ],
      "name": "Boost",
      "type": "event"
    },
    {
      "anonymous": false,
      "inputs": [
        {
          "indexed": true,
          "internalType": "address",
          "name": "user",
          "type": "address"
        },
        {
          "indexed": true,
          "internalType": "uint256",
          "name": "pid",
          "type": "uint256"
        },
        {
          "indexed": false,
          "internalType": "uint256",
          "name": "amount",
          "type": "uint256"
        }
      ],
      "name": "Deposit",
      "type": "event"
    },
    {
      "anonymous": false,
      "inputs": [
        {
          "indexed": true,
          "internalType": "address",
          "name": "user",
          "type": "address"
        },
        {
          "indexed": true,
          "internalType": "uint256",
          "name": "pid",
          "type": "uint256"
        },
        {
          "indexed": false,
          "internalType": "uint256",
          "name": "amount",
          "type": "uint256"
        }
      ],
      "name": "EmergencyWithdraw",
      "type": "event"
    },
    {
      "anonymous": false,
      "inputs": [
        {
          "indexed": true,
          "internalType": "address",
          "name": "previousOwner",
          "type": "address"
        },
        {
          "indexed": true,
          "internalType": "address",
          "name": "newOwner",
          "type": "address"
        }
      ],
      "name": "OwnershipTransferred",
      "type": "event"
    },
    {
      "anonymous": false,
      "inputs": [
        {
          "indexed": true,
          "internalType": "address",
          "name": "user",
          "type": "address"
        },
        {
          "indexed": true,
          "internalType": "uint256",
          "name": "pid",
          "type": "uint256"
        },
        {
          "indexed": false,
          "internalType": "uint256",
          "name": "tokenId",
          "type": "uint256"
        }
      ],
      "name": "UnBoost",
      "type": "event"
    },
    {
      "anonymous": false,
      "inputs": [
        {
          "indexed": true,
          "internalType": "address",
          "name": "user",
          "type": "address"
        },
        {
          "indexed": true,
          "internalType": "uint256",
          "name": "pid",
          "type": "uint256"
        },
        {
          "indexed": false,
          "internalType": "uint256",
          "name": "amount",
          "type": "uint256"
        }
      ],
      "name": "Withdraw",
      "type": "event"
    },
    {
      "inputs": [],
      "name": "BONUS_MULTIPLIER",
      "outputs": [
        {
          "internalType": "uint256",
          "name": "",
          "type": "uint256"
        }
      ],
      "stateMutability": "view",
      "type": "function"
    },
    {
      "inputs": [],
      "name": "VANN_RATE",
      "outputs": [
        {
          "internalType": "uint256",
          "name": "",
          "type": "uint256"
        }
      ],
      "stateMutability": "view",
      "type": "function"
    },
    {
      "inputs": [
        {
          "internalType": "uint256",
          "name": "_allocPoint",
          "type": "uint256"
        },
        {
          "internalType": "contract IERC20",
          "name": "_lpToken",
          "type": "address"
        },
        {
          "internalType": "bool",
          "name": "_withUpdate",
          "type": "bool"
        }
      ],
      "name": "add",
      "outputs": [],
      "stateMutability": "nonpayable",
      "type": "function"
    },
    {
      "inputs": [],
      "name": "annex",
      "outputs": [
        {
          "internalType": "address",
          "name": "",
          "type": "address"
        }
      ],
      "stateMutability": "view",
      "type": "function"
    },
    {
      "inputs": [],
      "name": "bonusEndBlock",
      "outputs": [
        {
          "internalType": "uint256",
          "name": "",
          "type": "uint256"
        }
      ],
      "stateMutability": "view",
      "type": "function"
    },
    {
      "inputs": [
        {
          "internalType": "uint256",
          "name": "_pid",
          "type": "uint256"
        },
        {
          "internalType": "uint256",
          "name": "_tokenId",
          "type": "uint256"
        }
      ],
      "name": "boost",
      "outputs": [],
      "stateMutability": "nonpayable",
      "type": "function"
    },
    {
      "inputs": [
        {
          "internalType": "uint256",
          "name": "_pid",
          "type": "uint256"
        }
      ],
      "name": "boostAll",
      "outputs": [],
      "stateMutability": "nonpayable",
      "type": "function"
    },
    {
      "inputs": [],
      "name": "boostFactor",
      "outputs": [
        {
          "internalType": "contract IBoostToken",
          "name": "",
          "type": "address"
        }
      ],
      "stateMutability": "view",
      "type": "function"
    },
    {
      "inputs": [],
      "name": "boostMultiplierFactor",
      "outputs": [
        {
          "internalType": "uint256",
          "name": "",
          "type": "uint256"
        }
      ],
      "stateMutability": "view",
      "type": "function"
    },
    {
      "inputs": [
        {
          "internalType": "uint256",
          "name": "_pid",
          "type": "uint256"
        },
        {
          "internalType": "uint256",
          "name": "tokenAmount",
          "type": "uint256"
        }
      ],
      "name": "boostPartially",
      "outputs": [],
      "stateMutability": "nonpayable",
      "type": "function"
    },
    {
      "inputs": [],
      "name": "claimBaseRewardTime",
      "outputs": [
        {
          "internalType": "uint256",
          "name": "",
          "type": "uint256"
        }
      ],
      "stateMutability": "view",
      "type": "function"
    },
    {
      "inputs": [
        {
          "internalType": "uint256",
          "name": "_pid",
          "type": "uint256"
        }
      ],
      "name": "claimBaseRewards",
      "outputs": [],
      "stateMutability": "nonpayable",
      "type": "function"
    },
    {
      "inputs": [
        {
          "internalType": "uint256",
          "name": "_pid",
          "type": "uint256"
        }
      ],
      "name": "claimBoostReward",
      "outputs": [],
      "stateMutability": "nonpayable",
      "type": "function"
    },
    {
      "inputs": [],
      "name": "claimBoostRewardTime",
      "outputs": [
        {
          "internalType": "uint256",
          "name": "",
          "type": "uint256"
        }
      ],
      "stateMutability": "view",
      "type": "function"
    },
    {
      "inputs": [],
      "name": "claimOwnership",
      "outputs": [],
      "stateMutability": "nonpayable",
      "type": "function"
    },
    {
      "inputs": [
        {
          "internalType": "uint256",
          "name": "_pid",
          "type": "uint256"
        },
        {
          "internalType": "uint256",
          "name": "_amount",
          "type": "uint256"
        }
      ],
      "name": "deposit",
      "outputs": [],
      "stateMutability": "nonpayable",
      "type": "function"
    },
    {
      "inputs": [],
      "name": "emergencyNftWithdraw",
      "outputs": [],
      "stateMutability": "nonpayable",
      "type": "function"
    },
    {
      "inputs": [
        {
          "internalType": "uint256",
          "name": "_pid",
          "type": "uint256"
        }
      ],
      "name": "emergencyWithdraw",
      "outputs": [],
      "stateMutability": "nonpayable",
      "type": "function"
    },
    {
      "inputs": [
        {
          "internalType": "uint256",
          "name": "_pid",
          "type": "uint256"
        }
      ],
      "name": "getBoostedUserCount",
      "outputs": [
        {
          "internalType": "uint256",
          "name": "",
          "type": "uint256"
        }
      ],
      "stateMutability": "view",
      "type": "function"
    },
    {
      "inputs": [],
      "name": "getClaimablePendingBoostRewards",
      "outputs": [
        {
          "internalType": "uint256",
          "name": "",
          "type": "uint256"
        }
      ],
      "stateMutability": "view",
      "type": "function"
    },
    {
      "inputs": [
        {
          "internalType": "uint256",
          "name": "_from",
          "type": "uint256"
        },
        {
          "internalType": "uint256",
          "name": "_to",
          "type": "uint256"
        }
      ],
      "name": "getMultiplier",
      "outputs": [
        {
          "internalType": "uint256",
          "name": "",
          "type": "uint256"
        }
      ],
      "stateMutability": "view",
      "type": "function"
    },
    {
      "inputs": [
        {
          "internalType": "uint256",
          "name": "_pid",
          "type": "uint256"
        }
      ],
      "name": "getPoolInfo",
      "outputs": [
        {
          "internalType": "contract IERC20",
          "name": "lpToken",
          "type": "address"
        },
        {
          "internalType": "uint256",
          "name": "lpSupply",
          "type": "uint256"
        },
        {
          "internalType": "uint256",
          "name": "allocPoint",
          "type": "uint256"
        },
        {
          "internalType": "uint256",
          "name": "lastRewardBlock",
          "type": "uint256"
        },
        {
          "internalType": "uint256",
          "name": "accRewardPerShare",
          "type": "uint256"
        },
        {
          "internalType": "uint256",
          "name": "totalBoostCount",
          "type": "uint256"
        },
        {
          "internalType": "uint256",
          "name": "rewardEligibleSupply",
          "type": "uint256"
        }
      ],
      "stateMutability": "view",
      "type": "function"
    },
    {
      "inputs": [],
      "name": "getTotalPendingBoostRewards",
      "outputs": [
        {
          "internalType": "uint256",
          "name": "",
          "type": "uint256"
        }
      ],
      "stateMutability": "view",
      "type": "function"
    },
    {
      "inputs": [
        {
          "internalType": "uint256",
          "name": "_pid",
          "type": "uint256"
        },
        {
          "internalType": "address",
          "name": "_user",
          "type": "address"
        }
      ],
      "name": "getUserInfo",
      "outputs": [
        {
          "internalType": "uint256",
          "name": "amount",
          "type": "uint256"
        },
        {
          "internalType": "uint256",
          "name": "pendingAmount",
          "type": "uint256"
        },
        {
          "internalType": "uint256",
          "name": "rewardDebt",
          "type": "uint256"
        },
        {
          "internalType": "uint256",
          "name": "depositedDate",
          "type": "uint256"
        },
        {
          "internalType": "uint256",
          "name": "boostRewardDebt",
          "type": "uint256"
        },
        {
          "internalType": "uint256",
          "name": "boostedDate",
          "type": "uint256"
        },
        {
          "internalType": "uint256",
          "name": "accBoostReward",
          "type": "uint256"
        }
      ],
      "stateMutability": "view",
      "type": "function"
    },
    {
      "inputs": [],
      "name": "initialBoostMultiplier",
      "outputs": [
        {
          "internalType": "uint256",
          "name": "",
          "type": "uint256"
        }
      ],
      "stateMutability": "view",
      "type": "function"
    },
    {
      "inputs": [
        {
          "internalType": "uint256",
          "name": "",
          "type": "uint256"
        }
      ],
      "name": "isBoosted",
      "outputs": [
        {
          "internalType": "bool",
          "name": "",
          "type": "bool"
        }
      ],
      "stateMutability": "view",
      "type": "function"
    },
    {
      "inputs": [],
      "name": "massUpdatePools",
      "outputs": [],
      "stateMutability": "nonpayable",
      "type": "function"
    },
    {
      "inputs": [],
      "name": "maximumBoostCount",
      "outputs": [
        {
          "internalType": "uint16",
          "name": "",
          "type": "uint16"
        }
      ],
      "stateMutability": "view",
      "type": "function"
    },
    {
      "inputs": [],
      "name": "minimumValidBoostCount",
      "outputs": [
        {
          "internalType": "uint16",
          "name": "",
          "type": "uint16"
        }
      ],
      "stateMutability": "view",
      "type": "function"
    },
    {
      "inputs": [
        {
          "internalType": "uint256",
          "name": "_pid",
          "type": "uint256"
        },
        {
          "internalType": "address",
          "name": "_sender",
          "type": "address"
        },
        {
          "internalType": "address",
          "name": "_recipient",
          "type": "address"
        },
        {
          "internalType": "uint256",
          "name": "_vannAmount",
          "type": "uint256"
        }
      ],
      "name": "move",
      "outputs": [],
      "stateMutability": "nonpayable",
      "type": "function"
    },
    {
      "inputs": [],
      "name": "owner",
      "outputs": [
        {
          "internalType": "address",
          "name": "",
          "type": "address"
        }
      ],
      "stateMutability": "view",
      "type": "function"
    },
    {
      "inputs": [
        {
          "internalType": "uint256",
          "name": "_pid",
          "type": "uint256"
        },
        {
          "internalType": "address",
          "name": "_user",
          "type": "address"
        }
      ],
      "name": "pendingBaseReward",
      "outputs": [
        {
          "internalType": "uint256",
          "name": "",
          "type": "uint256"
        }
      ],
      "stateMutability": "view",
      "type": "function"
    },
    {
      "inputs": [
        {
          "internalType": "uint256",
          "name": "_pid",
          "type": "uint256"
        },
        {
          "internalType": "address",
          "name": "_user",
          "type": "address"
        }
      ],
      "name": "pendingBoostReward",
      "outputs": [
        {
          "internalType": "uint256",
          "name": "",
          "type": "uint256"
        }
      ],
      "stateMutability": "view",
      "type": "function"
    },
    {
      "inputs": [],
      "name": "pendingOwner",
      "outputs": [
        {
          "internalType": "address",
          "name": "",
          "type": "address"
        }
      ],
      "stateMutability": "view",
      "type": "function"
    },
    {
      "inputs": [
        {
          "internalType": "uint256",
          "name": "_pid",
          "type": "uint256"
        },
        {
          "internalType": "address",
          "name": "_user",
          "type": "address"
        }
      ],
      "name": "pendingReward",
      "outputs": [
        {
          "internalType": "uint256",
          "name": "",
          "type": "uint256"
        }
      ],
      "stateMutability": "view",
      "type": "function"
    },
    {
      "inputs": [],
      "name": "poolLength",
      "outputs": [
        {
          "internalType": "uint256",
          "name": "",
          "type": "uint256"
        }
      ],
      "stateMutability": "view",
      "type": "function"
    },
    {
      "inputs": [],
      "name": "rewardPerBlock",
      "outputs": [
        {
          "internalType": "uint256",
          "name": "",
          "type": "uint256"
        }
      ],
      "stateMutability": "view",
      "type": "function"
    },
    {
      "inputs": [],
      "name": "rewardToken",
      "outputs": [
        {
          "internalType": "address",
          "name": "",
          "type": "address"
        }
      ],
      "stateMutability": "view",
      "type": "function"
    },
    {
      "inputs": [
        {
          "internalType": "uint256",
          "name": "_pid",
          "type": "uint256"
        },
        {
          "internalType": "uint256",
          "name": "_allocPoint",
          "type": "uint256"
        },
        {
          "internalType": "bool",
          "name": "_withUpdate",
          "type": "bool"
        }
      ],
      "name": "set",
      "outputs": [],
      "stateMutability": "nonpayable",
      "type": "function"
    },
    {
      "inputs": [
        {
          "internalType": "address",
          "name": "_address",
          "type": "address"
        }
      ],
      "name": "setBoostFactor",
      "outputs": [],
      "stateMutability": "nonpayable",
      "type": "function"
    },
    {
      "inputs": [
        {
          "internalType": "uint256",
          "name": "speed",
          "type": "uint256"
        }
      ],
      "name": "setRewardPerBlock",
      "outputs": [],
      "stateMutability": "nonpayable",
      "type": "function"
    },
    {
      "inputs": [],
      "name": "startBlock",
      "outputs": [
        {
          "internalType": "uint256",
          "name": "",
          "type": "uint256"
        }
      ],
      "stateMutability": "view",
      "type": "function"
    },
    {
      "inputs": [],
      "name": "totalAllocPoint",
      "outputs": [
        {
          "internalType": "uint256",
          "name": "",
          "type": "uint256"
        }
      ],
      "stateMutability": "view",
      "type": "function"
    },
    {
      "inputs": [
        {
          "internalType": "address",
          "name": "newOwner",
          "type": "address"
        },
        {
          "internalType": "bool",
          "name": "direct",
          "type": "bool"
        },
        {
          "internalType": "bool",
          "name": "renounce",
          "type": "bool"
        }
      ],
      "name": "transferOwnership",
      "outputs": [],
      "stateMutability": "nonpayable",
      "type": "function"
    },
    {
      "inputs": [
        {
          "internalType": "uint256",
          "name": "_pid",
          "type": "uint256"
        }
      ],
      "name": "unBoostAll",
      "outputs": [],
      "stateMutability": "nonpayable",
      "type": "function"
    },
    {
      "inputs": [
        {
          "internalType": "uint256",
          "name": "_pid",
          "type": "uint256"
        },
        {
          "internalType": "uint256",
          "name": "tokenAmount",
          "type": "uint256"
        }
      ],
      "name": "unBoostPartially",
      "outputs": [],
      "stateMutability": "nonpayable",
      "type": "function"
    },
    {
      "inputs": [],
      "name": "unstakableTime",
      "outputs": [
        {
          "internalType": "uint256",
          "name": "",
          "type": "uint256"
        }
      ],
      "stateMutability": "view",
      "type": "function"
    },
    {
      "inputs": [
        {
          "internalType": "uint256",
          "name": "_claimBaseRewardTime",
          "type": "uint256"
        }
      ],
      "name": "updateClaimBaseRewardTime",
      "outputs": [],
      "stateMutability": "nonpayable",
      "type": "function"
    },
    {
      "inputs": [
        {
          "internalType": "uint256",
          "name": "_claimBoostRewardTime",
          "type": "uint256"
        }
      ],
      "name": "updateClaimBoostRewardTime",
      "outputs": [],
      "stateMutability": "nonpayable",
      "type": "function"
    },
    {
      "inputs": [
        {
          "internalType": "uint256",
          "name": "_initialBoostMultiplier",
          "type": "uint256"
        }
      ],
      "name": "updateInitialBoostMultiplier",
      "outputs": [],
      "stateMutability": "nonpayable",
      "type": "function"
    },
    {
      "inputs": [
        {
          "internalType": "uint16",
          "name": "_count",
          "type": "uint16"
        }
      ],
      "name": "updateMaximumBoostCount",
      "outputs": [],
      "stateMutability": "nonpayable",
      "type": "function"
    },
    {
      "inputs": [
        {
          "internalType": "uint16",
          "name": "_count",
          "type": "uint16"
        }
      ],
      "name": "updateMinimumValidBoostCount",
      "outputs": [],
      "stateMutability": "nonpayable",
      "type": "function"
    },
    {
      "inputs": [
        {
          "internalType": "uint256",
          "name": "_pid",
          "type": "uint256"
        }
      ],
      "name": "updatePool",
      "outputs": [],
      "stateMutability": "nonpayable",
      "type": "function"
    },
    {
      "inputs": [
        {
          "internalType": "address",
          "name": "_reward",
          "type": "address"
        }
      ],
      "name": "updateRewardToken",
      "outputs": [],
      "stateMutability": "nonpayable",
      "type": "function"
    },
    {
      "inputs": [
        {
          "internalType": "uint256",
          "name": "_unstakableTime",
          "type": "uint256"
        }
      ],
      "name": "updateUnstakableTime",
      "outputs": [],
      "stateMutability": "nonpayable",
      "type": "function"
    },
    {
      "inputs": [
        {
          "internalType": "uint256",
          "name": "_boostMultiplierFactor",
          "type": "uint256"
        }
      ],
      "name": "updatedBoostMultiplierFactor",
      "outputs": [],
      "stateMutability": "nonpayable",
      "type": "function"
    },
    {
      "inputs": [
        {
          "internalType": "uint256",
          "name": "",
          "type": "uint256"
        },
        {
          "internalType": "address",
          "name": "",
          "type": "address"
        }
      ],
      "name": "userInfo",
      "outputs": [
        {
          "internalType": "uint256",
          "name": "amount",
          "type": "uint256"
        },
        {
          "internalType": "uint256",
          "name": "pendingAmount",
          "type": "uint256"
        },
        {
          "internalType": "uint256",
          "name": "rewardDebt",
          "type": "uint256"
        },
        {
          "internalType": "uint256",
          "name": "depositedDate",
          "type": "uint256"
        },
        {
          "internalType": "uint256",
          "name": "boostRewardDebt",
          "type": "uint256"
        },
        {
          "internalType": "uint256",
          "name": "boostedDate",
          "type": "uint256"
        },
        {
          "internalType": "uint256",
          "name": "accBoostReward",
          "type": "uint256"
        }
      ],
      "stateMutability": "view",
      "type": "function"
    },
    {
      "inputs": [],
      "name": "vAnn",
      "outputs": [
        {
          "internalType": "address",
          "name": "",
          "type": "address"
        }
      ],
      "stateMutability": "view",
      "type": "function"
    },
    {
      "inputs": [
        {
          "internalType": "uint256",
          "name": "_pid",
          "type": "uint256"
        },
        {
          "internalType": "uint256",
          "name": "_amount",
          "type": "uint256"
        }
      ],
      "name": "withdraw",
      "outputs": [],
      "stateMutability": "nonpayable",
      "type": "function"
    }
  ],
  "transactionHash": "0xa1c156edb6af595238e417a14e6b9b98c04f4f701373bef4a53880ec7ee29729",
  "args": [
    "0xb75f3F9D35d256a94BBd7A3fC2E16c768E17930E",
    "0x16227D60f7a0e586C66B005219dfc887D13C9531",
    "0xa6eB016318C70Cd120cFcE35ec6453d2D877FACa",
    "0x923F424A0226720BDc984eEb79f23D5B4C273e75",
    "1000000000000000",
    "1000000000000000",
    17437841
  ],
  "solcInputHash": "13a366d87083df2bfa0de96667d33545",
  "bytecode": "0x608060405262015180600b556202a300600c556028600d556014600e55600f8054600161ffff199091161763ffff00001916620a000017905562278d00601155600060135534801561005057600080fd5b506040516200421438038062004214833981810160405260e081101561007557600080fd5b50805160208201516040808401516060850151608086015160a087015160c090970151600080546001600160a01b0319163390811782559551979896979496939592949192917f8be0079c531659141344cd1fd0a4f28419497f9722a3daafe3b4186f6b6457e0908290a36001600255600380546001600160a01b03199081166001600160a01b03998a1617909155600580548216978916979097179096556004805490961694871694909417909455600f8054600160201b600160c01b03191664010000000093909616929092029490941790556007929092556006919091556014556140ab80620001696000396000f3fe608060405234801561001057600080fd5b50600436106103995760003560e01c8063766d7cfb116101e9578063c0db88871161010f578063da38f3af116100ad578063e78c1b1b1161007c578063e78c1b1b146109a0578063f6d4c185146109bd578063f7c618c1146109c5578063f8cf31cb146109cd57610399565b8063da38f3af14610965578063e0e2f3101461096d578063e2bbb15814610975578063e30c39781461099857610399565b8063d5f9464e116100e9578063d5f9464e146108f1578063d895745c1461090e578063d8fd5a7a1461092b578063d94f11be1461094857610399565b8063c0db8887146108e1578063c1ddfb00146108e9578063ca19c563146107c857610399565b806398969e8211610187578063bb872b4a11610156578063bb872b4a14610888578063bcabf89b146108a5578063bd48cf22146108d1578063c0bccbfb146108d957610399565b806398969e821461082f5780639b80d2811461085b578063abee219a14610863578063b5bda70d1461086b57610399565b80638ae39cac116101c35780638ae39cac146107d05780638da5cb5b146107d85780638dbb1e3a146107e057806393f1a40b1461080357610399565b8063766d7cfb1461078e57806378bd92e1146107ab5780638aa28550146107c857610399565b806342a9026a116102ce57806351eb05a61161026c57806364482f791161023b57806364482f79146106f7578063648b8c6b1461072257806369914d621461074157806373cb07d81461076257610399565b806351eb05a61461067957806352e0371c146106965780635312ea8e146106d2578063630b5ba1146106ef57610399565b8063488a8f58116102a8578063488a8f581461063b57806348cd4cb1146106615780634ae3e315146106695780634e71e0c81461067157610399565b806342a9026a146105de578063441a3e70146105fb5780634638cef51461061e57610399565b80631a249f5c1161033b5780631eaaa045116103155780631eaaa045146104f757806321ab46c81461052b5780632f380b351461055c57806340be7bec146105bb57610399565b80631a249f5c146104aa5780631aed6553146104cb5780631b64854c146104d357610399565b80631069f3b5116103775780631069f3b51461041357806311aedfbc1461047757806311ea32641461047f57806317caf6f1146104a257610399565b8063078dfbe71461039e578063081e3eda146103d65780630fa6b3a0146103f0575b600080fd5b6103d4600480360360608110156103b457600080fd5b506001600160a01b038135169060208101351515906040013515156109f3565b005b6103de610b1d565b60408051918252519081900360200190f35b6103d46004803603604081101561040657600080fd5b5080359060200135610b23565b61043f6004803603604081101561042957600080fd5b50803590602001356001600160a01b0316610da3565b604080519788526020880196909652868601949094526060860192909252608085015260a084015260c0830152519081900360e00190f35b6103de610df6565b6103d46004803603604081101561049557600080fd5b5080359060200135610dfc565b6103de611018565b6103d4600480360360208110156104c057600080fd5b503561ffff1661101e565b6103de611083565b6104db611089565b604080516001600160a01b039092168252519081900360200190f35b6103d46004803603606081101561050d57600080fd5b508035906001600160a01b0360208201351690604001351515611098565b6105486004803603602081101561054157600080fd5b5035611263565b604080519115158252519081900360200190f35b6105796004803603602081101561057257600080fd5b5035611278565b604080516001600160a01b0390981688526020880196909652868601949094526060860192909252608085015260a084015260c0830152519081900360e00190f35b6103d4600480360360408110156105d157600080fd5b508035906020013561137a565b6103d4600480360360208110156105f457600080fd5b5035611470565b6103d46004803603604081101561061157600080fd5b5080359060200135611639565b6103d46004803603602081101561063457600080fd5b50356118d4565b6103d46004803603602081101561065157600080fd5b50356001600160a01b0316611926565b6103de6119a0565b6104db6119a6565b6103d46119b5565b6103d46004803603602081101561068f57600080fd5b5035611a77565b6103d4600480360360808110156106ac57600080fd5b508035906001600160a01b03602082013581169160408101359091169060600135611b35565b6103d4600480360360208110156106e857600080fd5b5035611dc1565b6103d4611eec565b6103d46004803603606081101561070d57600080fd5b50803590602081013590604001351515611f0f565b61072a611fcf565b6040805161ffff9092168252519081900360200190f35b6103d46004803603602081101561075757600080fd5b503561ffff16611fdf565b6103de6004803603604081101561077857600080fd5b50803590602001356001600160a01b031661204c565b6103d4600480360360208110156107a457600080fd5b5035612192565b6103d4600480360360208110156107c157600080fd5b50356121e4565b6103de61241f565b6103de612424565b6104db61242a565b6103de600480360360408110156107f657600080fd5b5080359060200135612439565b61043f6004803603604081101561081957600080fd5b50803590602001356001600160a01b031661249f565b6103de6004803603604081101561084557600080fd5b50803590602001356001600160a01b03166124ee565b6103de612629565b6103d461262f565b6103de6004803603602081101561088157600080fd5b5035612865565b6103d46004803603602081101561089e57600080fd5b503561287a565b6103de600480360360408110156108bb57600080fd5b50803590602001356001600160a01b03166128cc565b6103de6129c4565b6103de6129ca565b6103de612b90565b6104db612d58565b6103d46004803603602081101561090757600080fd5b5035612d6e565b6103d46004803603602081101561092457600080fd5b5035612dc0565b6103d46004803603602081101561094157600080fd5b5035612e12565b6103d46004803603602081101561095e57600080fd5b5035612e64565b6103de6130a3565b6103de6130a9565b6103d46004803603604081101561098b57600080fd5b50803590602001356130af565b6104db6132c4565b6103d4600480360360208110156109b657600080fd5b50356132d3565b61072a6132dd565b6104db6132e7565b6103d4600480360360208110156109e357600080fd5b50356001600160a01b03166132f6565b6000546001600160a01b03163314610a40576040805162461bcd60e51b8152602060048201819052602482015260008051602061402c833981519152604482015290519081900360640190fd5b8115610afc576001600160a01b038316151580610a5a5750805b610aa3576040805162461bcd60e51b81526020600482015260156024820152744f776e61626c653a207a65726f206164647265737360581b604482015290519081900360640190fd5b600080546040516001600160a01b03808716939216917f8be0079c531659141344cd1fd0a4f28419497f9722a3daafe3b4186f6b6457e091a3600080546001600160a01b0319166001600160a01b038516179055610b18565b600180546001600160a01b0319166001600160a01b0385161790555b505050565b60085490565b600060088381548110610b3257fe5b60009182526020808320868452600a825260408085203386529092529220600481015460069092029092019250610b8a576040805162461bcd60e51b8152602060048201526000602482015290519081900360640190fd5b6004810154831115610bbd576040805162461bcd60e51b8152602060048201526000602482015290519081900360640190fd5b6000610bcc8260030154613365565b90508015610bde57610bde8533613383565b60005b84811015610c545760048301805460001981019160009183908110610c0257fe5b90600052602060002001549050610c1988826134f5565b84600401805480610c2657fe5b6000828152602081208201600019908101919091550190555050600484018054600190810190915501610be1565b504260068301556004820154610d9c57815460018301819055600083556005840154610c7f9161364d565b60058401556000805b600087815260126020526040902054811015610ce4576000878152601260205260409020805482908110610cb857fe5b6000918252602090912001546001600160a01b0316331415610cdc57809150610ce4565b600101610c88565b50600086815260126020526040902080546000198101908110610d0357fe5b60009182526020808320909101548883526012909152604090912080546001600160a01b039092169183908110610d3657fe5b600091825260208083209190910180546001600160a01b0319166001600160a01b039490941693909317909255878152601290915260409020805480610d7857fe5b600082815260209020810160001990810180546001600160a01b0319169055019055505b5050505050565b6000918252600a602090815260408084206001600160a01b039390931684529190529020805460018201546002830154600384015460058501546006860154600790960154949693959294919390929190565b60115481565b6000828152600a6020908152604080832033845290915290206001810154815401610e60576040805162461bcd60e51b815260206004820152600f60248201526e6e6f207374616b6520746f6b656e7360881b604482015290519081900360640190fd5b600f5460048201546201000090910461ffff169083011115610e8157600080fd5b6004810154610eb95760008381526012602090815260408220805460018101825590835291200180546001600160a01b031916331790555b600f54604080516370a0823160e01b81523360048201529051600092600160201b90046001600160a01b0316916370a08231916024808301926020929190829003018186803b158015610f0b57600080fd5b505afa158015610f1f573d6000803e3d6000fd5b505050506040513d6020811015610f3557600080fd5b5051905080831115610f4657600080fd5b6000610f558360030154613365565b90508015610f6757610f678533613383565b600f5460408051632f745c5960e01b815233600482015260001990960160248701819052905190956000926001600160a01b03600160201b9091041691632f745c5991604480820192602092909190829003018186803b158015610fca57600080fd5b505afa158015610fde573d6000803e3d6000fd5b505050506040513d6020811015610ff457600080fd5b505190506110028682613696565b5060008411610f67575050426006909101555050565b60135481565b6000546001600160a01b0316331461106b576040805162461bcd60e51b8152602060048201819052602482015260008051602061402c833981519152604482015290519081900360640190fd5b600f805461ffff191661ffff92909216919091179055565b60065481565b6003546001600160a01b031681565b6000546001600160a01b031633146110e5576040805162461bcd60e51b8152602060048201819052602482015260008051602061402c833981519152604482015290519081900360640190fd5b80156110f3576110f3611eec565b6000601454431161110657601454611108565b435b60135490915061111890856138bc565b6013556040805160c0810182526001600160a01b039485168152602081019586529081019182526000606082018181526080830182815260a0840183815260088054600181018255945293517ff3f7a9fe364faab93b216da50a3214154f22a0a2b415b23a84c8169e8b636ee3600690940293840180546001600160a01b031916919098161790965595517ff3f7a9fe364faab93b216da50a3214154f22a0a2b415b23a84c8169e8b636ee482015591517ff3f7a9fe364faab93b216da50a3214154f22a0a2b415b23a84c8169e8b636ee583015593517ff3f7a9fe364faab93b216da50a3214154f22a0a2b415b23a84c8169e8b636ee682015591517ff3f7a9fe364faab93b216da50a3214154f22a0a2b415b23a84c8169e8b636ee78301555090517ff3f7a9fe364faab93b216da50a3214154f22a0a2b415b23a84c8169e8b636ee890910155565b60106020526000908152604090205460ff1681565b6000806000806000806000806008898154811061129157fe5b60009182526020822060069091020180546003549193506001600160a01b03918216911614156112c4575060095461133d565b8154604080516370a0823160e01b815230600482015290516001600160a01b03909216916370a0823191602480820192602092909190829003018186803b15801561130e57600080fd5b505afa158015611322573d6000803e3d6000fd5b505050506040513d602081101561133857600080fd5b505190505b815460018301546002840154600385015460048601546005909601546001600160a01b039094169e949d50919b5099509750919550909350915050565b6000828152600a60209081526040808320338452909152902060018101548154016113de576040805162461bcd60e51b815260206004820152600f60248201526e6e6f207374616b6520746f6b656e7360881b604482015290519081900360640190fd5b600f5460048201546201000090910461ffff166001909101111561140157600080fd5b60048101546114395760008381526012602090815260408220805460018101825590835291200180546001600160a01b031916331790555b60006114488260030154613365565b9050801561145a5761145a8433613383565b6114648484613696565b50426006909101555050565b60006008828154811061147f57fe5b60009182526020808320858452600a82526040808520338652909252922060115460068281015493029093019350914291909103116114fd576040805162461bcd60e51b81526020600482015260156024820152746e6f7420656c696769626c6520746f20636c61696d60581b604482015290519081900360640190fd5b6003820154600283015443118015611519575060008360050154115b1561159257600061152e846002015443612439565b9050600061156160135461155b87600101546115556007548761391690919063ffffffff16565b90613916565b9061396f565b905061158d611586866005015461155b64e8d4a510008561391690919063ffffffff16565b84906138bc565b925050505b60048201546000906115a3906139b1565b905060006115d584600201546115cf64e8d4a5100061155b87896000015461391690919063ffffffff16565b9061364d565b905060006115e38383613916565b90506116133361160e8361160889600501548a6007015461364d90919063ffffffff16565b906138bc565b613a01565b600585015461162290826138bc565b600586015550504260069093019290925550505050565b60028054141561167e576040805162461bcd60e51b815260206004820152601f6024820152600080516020613feb833981519152604482015290519081900360640190fd5b6002808190555060006008838154811061169457fe5b60009182526020808320868452600a8252604080852033865290925292206001810154815460069093029093019350910183111561170e576040805162461bcd60e51b81526020600482015260126024820152711dda5d1a191c985dce881b9bdd0819dbdbd960721b604482015290519081900360640190fd5b600c548160030154420311611764576040805162461bcd60e51b81526020600482015260176024820152766e6f7420656c696769626c6520746f20756e6474616b6560481b604482015290519081900360640190fd5b61176e8433613383565b80541561179c578054611781908461364d565b81556005820154611792908461364d565b60058301556117b1565b60018101546117ab908461364d565b60018201555b600382015481546117cc9164e8d4a510009161155b91613916565b600282015581546003546001600160a01b03908116911614156117fa576009546117f6908461364d565b6009555b6004546001600160a01b03166379cc67903361181786600a613916565b6040518363ffffffff1660e01b815260040180836001600160a01b0316815260200182815260200192505050600060405180830381600087803b15801561185d57600080fd5b505af1158015611871573d6000803e3d6000fd5b5050835461188c92506001600160a01b031690503385613bbc565b426003820155604080518481529051859133917ff279e6a1f5e320cca91135676d9cb6e44ca8a08c0b88342bcdb1144f6511b5689181900360200190a3505060016002555050565b6000546001600160a01b03163314611921576040805162461bcd60e51b8152602060048201819052602482015260008051602061402c833981519152604482015290519081900360640190fd5b601155565b6000546001600160a01b03163314611973576040805162461bcd60e51b8152602060048201819052602482015260008051602061402c833981519152604482015290519081900360640190fd5b600f80546001600160a01b03909216600160201b02640100000000600160c01b0319909216919091179055565b60145481565b6004546001600160a01b031681565b6001546001600160a01b0316338114611a15576040805162461bcd60e51b815260206004820181905260248201527f4f776e61626c653a2063616c6c657220213d2070656e64696e67206f776e6572604482015290519081900360640190fd5b600080546040516001600160a01b03808516939216917f8be0079c531659141344cd1fd0a4f28419497f9722a3daafe3b4186f6b6457e091a3600080546001600160a01b039092166001600160a01b0319928316179055600180549091169055565b600060088281548110611a8657fe5b9060005260206000209060060201905080600201544311611aa75750611b32565b6005810154611abc5743600290910155611b32565b6000611acc826002015443612439565b90506000611af360135461155b85600101546115556007548761391690919063ffffffff16565b9050611b23611b18846005015461155b64e8d4a510008561391690919063ffffffff16565b6003850154906138bc565b60038401555050436002909101555b50565b600280541415611b7a576040805162461bcd60e51b815260206004820152601f6024820152600080516020613feb833981519152604482015290519081900360640190fd5b60028081905550600060088581548110611b9057fe5b60009182526020808320888452600a80835260408086206001600160a01b038b811688529452808620938916865285206006949094029091019450909290611bd990869061396f565b90508083600101548460000154011015611c3a576040805162461bcd60e51b815260206004820152601760248201527f7472616e73666572206578636565647320616d6f756e74000000000000000000604482015290519081900360640190fd5b600c548360030154420311611c90576040805162461bcd60e51b81526020600482015260176024820152766e6f7420656c696769626c6520746f20756e6474616b6560481b604482015290519081900360640190fd5b611c9a8888613383565b825415611cb4578254611cad908261364d565b8355611cc9565b6001830154611cc3908261364d565b60018401555b60038401548354611ce49164e8d4a510009161155b91613916565b600284015542600380850191909155820154600090611d0290613365565b90506000611d168460040180549050613c0e565b9050818015611d225750805b15611d3157611d318a89613383565b8015611d5b5760018401548454611d4d918591611608916138bc565b845560006001850155611d70565b6001840154611d6a90846138bc565b60018501555b818015611d7a5750805b15611da05760038601548454611d9a9164e8d4a510009161155b91613916565b60028501555b50504260038301819055600690920191909155505060016002555050505050565b600280541415611e06576040805162461bcd60e51b815260206004820152601f6024820152600080516020613feb833981519152604482015290519081900360640190fd5b60028081905550600060088281548110611e1c57fe5b60009182526020808320858452600a82526040808520338087529352909320600181015481546006909402909401945092611e6c92611e5a916138bc565b84546001600160a01b03169190613bbc565b80546040805191825251849133917fbb757047c2b5f3974fe26b7c10f732e7bce710b0952a71082702781e62ae05959181900360200190a3805415611ec15780546005830154611ebb9161364d565b60058301555b6000808255600180830182905560028084018390556005840183905560079093019190915590555050565b60085460005b81811015611f0b57611f0381611a77565b600101611ef2565b5050565b6000546001600160a01b03163314611f5c576040805162461bcd60e51b8152602060048201819052602482015260008051602061402c833981519152604482015290519081900360640190fd5b8015611f6a57611f6a611eec565b611fa18261160860088681548110611f7e57fe5b90600052602060002090600602016001015460135461364d90919063ffffffff16565b6013819055508160088481548110611fb557fe5b906000526020600020906006020160010181905550505050565b600f5462010000900461ffff1681565b6000546001600160a01b0316331461202c576040805162461bcd60e51b8152602060048201819052602482015260008051602061402c833981519152604482015290519081900360640190fd5b600f805461ffff909216620100000263ffff000019909216919091179055565b6000806008848154811061205c57fe5b60009182526020808320878452600a825260408085206001600160a01b038916865290925292206003600690920290920190810154600282015491935090431180156120ac575060008360050154115b156121125760006120c1846002015443612439565b905060006120e860135461155b87600101546115556007548761391690919063ffffffff16565b905061210d611586866005015461155b64e8d4a510008561391690919063ffffffff16565b925050505b6004820154600090612123906139b1565b9050600061214f84600201546115cf64e8d4a5100061155b87896000015461391690919063ffffffff16565b9050600061215d8383613916565b9050612183606461155b8361160889600501548a6007015461364d90919063ffffffff16565b96505050505050505b92915050565b6000546001600160a01b031633146121df576040805162461bcd60e51b8152602060048201819052602482015260008051602061402c833981519152604482015290519081900360640190fd5b600b55565b6000818152600a6020908152604080832033845290915290206001810154815401612248576040805162461bcd60e51b815260206004820152600f60248201526e6e6f207374616b6520746f6b656e7360881b604482015290519081900360640190fd5b600f54604080516370a0823160e01b81523360048201529051600092600160201b90046001600160a01b0316916370a08231916024808301926020929190829003018186803b15801561229a57600080fd5b505afa1580156122ae573d6000803e3d6000fd5b505050506040513d60208110156122c457600080fd5b50519050806122f4576040805162461bcd60e51b8152602060048201526000602482015290519081900360640190fd5b600482015461232c5760008381526012602090815260408220805460018101825590835291200180546001600160a01b031916331790555b6004820154600f5462010000900461ffff16038082101561234a5750805b60006123598460030154613365565b9050801561236b5761236b8533613383565b600f5460408051632f745c5960e01b815233600482015260001990940160248501819052905190936000926001600160a01b03600160201b9091041691632f745c5991604480820192602092909190829003018186803b1580156123ce57600080fd5b505afa1580156123e2573d6000803e3d6000fd5b505050506040513d60208110156123f857600080fd5b505190506124068682613696565b506000821161236b574284600601819055505050505050565b600a81565b60075481565b6000546001600160a01b031681565b6000600654821161245a57612453600a611555848661364d565b905061218c565b600654831061246d57612453828461364d565b6124536124856006548461364d90919063ffffffff16565b611608600a6115558760065461364d90919063ffffffff16565b600a602052816000526040600020602052806000526040600020600091509150508060000154908060010154908060020154908060030154908060050154908060060154908060070154905087565b600080600884815481106124fe57fe5b60009182526020808320878452600a825260408085206001600160a01b0389168652909252922060036006909202909201908101546002820154919350904311801561254e575060008360050154115b156125b4576000612563846002015443612439565b9050600061258a60135461155b87600101546115556007548761391690919063ffffffff16565b90506125af611586866005015461155b64e8d4a510008561391690919063ffffffff16565b925050505b60048201546000906125c5906139b1565b905060006125f184600201546115cf64e8d4a5100061155b87896000015461391690919063ffffffff16565b9050600061261d606461155b87600501546115cf8960070154611608888a61391690919063ffffffff16565b905061218382826138bc565b600e5481565b600280541415612674576040805162461bcd60e51b815260206004820152601f6024820152600080516020613feb833981519152604482015290519081900360640190fd5b600280556000546001600160a01b031633146126c5576040805162461bcd60e51b8152602060048201819052602482015260008051602061402c833981519152604482015290519081900360640190fd5b600f54604080516370a0823160e01b81523060048201529051600092600160201b90046001600160a01b0316916370a08231916024808301926020929190829003018186803b15801561271757600080fd5b505afa15801561272b573d6000803e3d6000fd5b505050506040513d602081101561274157600080fd5b5051905060005b8181101561285c57600f5460408051632f745c5960e01b8152306004820152602481018490529051600092600160201b90046001600160a01b031691632f745c59916044808301926020929190829003018186803b1580156127a957600080fd5b505afa1580156127bd573d6000803e3d6000fd5b505050506040513d60208110156127d357600080fd5b5051600f5460408051632142170760e11b8152306004820152336024820152604481018490529051929350600160201b9091046001600160a01b0316916342842e0e9160648082019260009290919082900301818387803b15801561283757600080fd5b505af115801561284b573d6000803e3d6000fd5b505060019093019250612748915050565b50506001600255565b6000818152601260205260409020545b919050565b6000546001600160a01b031633146128c7576040805162461bcd60e51b8152602060048201819052602482015260008051602061402c833981519152604482015290519081900360640190fd5b600755565b600080600884815481106128dc57fe5b60009182526020808320878452600a825260408085206001600160a01b0389168652909252922060036006909202909201908101546002820154919350904311801561292c575060008360050154115b15612992576000612941846002015443612439565b9050600061296860135461155b87600101546115556007548761391690919063ffffffff16565b905061298d611586866005015461155b64e8d4a510008561391690919063ffffffff16565b925050505b6129ba82600201546115cf64e8d4a5100061155b85876000015461391690919063ffffffff16565b9695505050505050565b600b5481565b60008060005b600854811015612b8a576000600882815481106129e957fe5b9060005260206000209060060201905060008160030154905060005b600084815260126020526040902054811015612b7f576000848152600a6020908152604080832060129092528220805483919085908110612a4257fe5b60009182526020808320909101546001600160a01b031683528201929092526040019020600285015490915043118015612a80575060008460050154115b15612aed576000612a95856002015443612439565b90506000612abc60135461155b88600101546115556007548761391690919063ffffffff16565b9050612ae8612ae1876005015461155b64e8d4a510008561391690919063ffffffff16565b86906138bc565b945050505b6004810154600090612afe906139b1565b90506000612b2a83600201546115cf64e8d4a5100061155b89886000015461391690919063ffffffff16565b90506000612b388383613916565b90506000612b60606461155b8461160889600501548a6007015461364d90919063ffffffff16565b9050612b6c8a826138bc565b99505060019094019350612a0592505050565b5050506001016129d0565b50905090565b60008060005b600854811015612b8a57600060088281548110612baf57fe5b9060005260206000209060060201905060008160030154905060005b600084815260126020526040902054811015612d4d576000848152600a6020908152604080832060129092528220805483919085908110612c0857fe5b60009182526020808320909101546001600160a01b0316835282019290925260400190206011546006820154919250439190910310612d4457836002015443118015612c58575060008460050154115b15612cbe576000612c6d856002015443612439565b90506000612c9460135461155b88600101546115556007548761391690919063ffffffff16565b9050612cb9612ae1876005015461155b64e8d4a510008561391690919063ffffffff16565b945050505b6004810154600090612ccf906139b1565b90506000612cfb83600201546115cf64e8d4a5100061155b89886000015461391690919063ffffffff16565b90506000612d098383613916565b90506000612d31606461155b8461160889600501548a6007015461364d90919063ffffffff16565b9050612d3d8a826138bc565b9950505050505b50600101612bcb565b505050600101612b96565b600f54600160201b90046001600160a01b031681565b6000546001600160a01b03163314612dbb576040805162461bcd60e51b8152602060048201819052602482015260008051602061402c833981519152604482015290519081900360640190fd5b600e55565b6000546001600160a01b03163314612e0d576040805162461bcd60e51b8152602060048201819052602482015260008051602061402c833981519152604482015290519081900360640190fd5b600d55565b6000546001600160a01b03163314612e5f576040805162461bcd60e51b8152602060048201819052602482015260008051602061402c833981519152604482015290519081900360640190fd5b600c55565b600060088281548110612e7357fe5b60009182526020808320858452600a825260408085203386529092529220600481015460069092029092019250612ecb576040805162461bcd60e51b8152602060048201526000602482015290519081900360640190fd5b6000612eda8260030154613365565b90508015612eec57612eec8433613383565b60048201805460001981019160009183908110612f0557fe5b90600052602060002001549050612f1c86826134f5565b83600401805480612f2957fe5b6000828152602081208201600019908101919091550190555050600480840180546001019055820154612eec57426006830155600482015461309d57815460018301819055600083556005840154612f809161364d565b60058401556000805b600086815260126020526040902054811015612fe5576000868152601260205260409020805482908110612fb957fe5b6000918252602090912001546001600160a01b0316331415612fdd57809150612fe5565b600101612f89565b5060008581526012602052604090208054600019810190811061300457fe5b60009182526020808320909101548783526012909152604090912080546001600160a01b03909216918390811061303757fe5b600091825260208083209190910180546001600160a01b0319166001600160a01b03949094169390931790925586815260129091526040902080548061307957fe5b600082815260209020810160001990810180546001600160a01b0319169055019055505b50505050565b600c5481565b600d5481565b6000600883815481106130be57fe5b60009182526020808320868452600a8252604080852033865290925290832060038101546006909302909101935091906130f790613365565b9050600061310b8360040180549050613c0e565b90508180156131175750805b15613126576131268633613383565b835461313d906001600160a01b0316333088613c26565b83546003546001600160a01b03908116911614156131665760095461316290866138bc565b6009555b80156131a45760018301548354613182918791611608916138bc565b8355600584015461319390866138bc565b6005850155600060018401556131b9565b60018301546131b390866138bc565b60018401555b8180156131c35750805b156131e957600384015483546131e39164e8d4a510009161155b91613916565b60028401555b6004546001600160a01b03166340c10f193361320688600a613916565b6040518363ffffffff1660e01b815260040180836001600160a01b0316815260200182815260200192505050602060405180830381600087803b15801561324c57600080fd5b505af1158015613260573d6000803e3d6000fd5b505050506040513d602081101561327657600080fd5b505042600384018190556006840155604080518681529051879133917f90890809c654f11d6e72a28fa60149770a0d11ec6c92319d6ceb2bb0a4ea1a159181900360200190a3505050505050565b6001546001600160a01b031681565b611b328133613383565b600f5461ffff1681565b6005546001600160a01b031681565b6000546001600160a01b03163314613343576040805162461bcd60e51b8152602060048201819052602482015260008051602061402c833981519152604482015290519081900360640190fd5b600580546001600160a01b0319166001600160a01b0392909216919091179055565b6000600b54824203111561337b57506001612875565b506000919050565b60006008838154811061339257fe5b60009182526020808320868452600a825260408085206001600160a01b038816865290925290832060038101546006909302909101935091906133d490613365565b90508015610d9c57600383015460058401541561344c5760006133fb856002015443612439565b9050600061342260135461155b88600101546115556007548761391690919063ffffffff16565b9050613447611586876005015461155b64e8d4a510008561391690919063ffffffff16565b925050505b600483015460009061345d906139b1565b9050600061348985600201546115cf64e8d4a5100061155b878a6000015461391690919063ffffffff16565b905060006134978383613916565b60078701549091506134a990826138bc565b600787015581156134be576134be8883613a01565b436002880155600387015486546134df9164e8d4a510009161155b91613916565b6002870155505042600385015550505050505050565b60008181526010602052604090205460ff16151560011461351557600080fd5b600f54604080516323b872dd60e01b8152306004820152336024820152604481018490529051600160201b9092046001600160a01b0316916323b872dd9160648082019260009290919082900301818387803b15801561357457600080fd5b505af1158015613588573d6000803e3d6000fd5b5050600f5460408051630a7c981760e31b8152600481018690526000602482018190529151600160201b9093046001600160a01b031694506353e4c0b893506044808201939182900301818387803b1580156135e357600080fd5b505af11580156135f7573d6000803e3d6000fd5b505050600082815260106020908152604091829020805460ff191690558151848152915185935033927fd9ccb4973c95d201bc1724ce7e7f19f8e0835e571f58bf8b6a0de82084f0574f92908290030190a35050565b600061368f83836040518060400160405280601e81526020017f536166654d6174683a207375627472616374696f6e206f766572666c6f770000815250613c80565b9392505050565b60008181526010602052604090205460ff16156136ec576040805162461bcd60e51b815260206004820152600f60248201526e185b1c9958591e48189bdbdcdd1959608a1b604482015290519081900360640190fd5b600f54604080516323b872dd60e01b8152336004820152306024820152604481018490529051600160201b9092046001600160a01b0316916323b872dd9160648082019260009290919082900301818387803b15801561374b57600080fd5b505af115801561375f573d6000803e3d6000fd5b5050600f5460408051630a7c981760e31b815260048101869052600160248201529051600160201b9092046001600160a01b031693506353e4c0b8925060448082019260009290919082900301818387803b1580156137bd57600080fd5b505af11580156137d1573d6000803e3d6000fd5b5050506000828152601060205260408120805460ff191660011790556008805491925090849081106137ff57fe5b60009182526020808320868452600a825260408085203386529092529220600181015460069092029092019250156138545760018101548082556005830154613847916138bc565b6005830155600060018201555b600480820180546001818101835560009283526020928390209091018690559184018054909201909155604080518581529051869233927faadc628cb4fd3bb7a62795eb460290459458bdc6f387ffde727c740f42c18337929081900390910190a350505050565b60008282018381101561368f576040805162461bcd60e51b815260206004820152601b60248201527f536166654d6174683a206164646974696f6e206f766572666c6f770000000000604482015290519081900360640190fd5b6000826139255750600061218c565b8282028284828161393257fe5b041461368f5760405162461bcd60e51b815260040180806020018281038252602181526020018061400b6021913960400191505060405180910390fd5b600061368f83836040518060400160405280601a81526020017f536166654d6174683a206469766973696f6e206279207a65726f000000000000815250613d17565b600f5460009061ffff1682116139c957506000612875565b600f546000906139e490849061ffff9081166001011661364d565b905061368f600d54611608600e548461391690919063ffffffff16565b600554604080516370a0823160e01b815230600482015290516000926001600160a01b0316916370a08231916024808301926020929190829003018186803b158015613a4c57600080fd5b505afa158015613a60573d6000803e3d6000fd5b505050506040513d6020811015613a7657600080fd5b50516005546003549192506001600160a01b0391821691161415613aac57600954811115613aa8576009549003613aac565b5060005b80821115613b3c576005546040805163a9059cbb60e01b81526001600160a01b038681166004830152602482018590529151919092169163a9059cbb9160448083019260209291908290030181600087803b158015613b0a57600080fd5b505af1158015613b1e573d6000803e3d6000fd5b505050506040513d6020811015613b3457600080fd5b50610b189050565b6005546040805163a9059cbb60e01b81526001600160a01b038681166004830152602482018690529151919092169163a9059cbb9160448083019260209291908290030181600087803b158015613b9257600080fd5b505af1158015613ba6573d6000803e3d6000fd5b505050506040513d6020811015610d9c57600080fd5b604080516001600160a01b038416602482015260448082018490528251808303909101815260649091019091526020810180516001600160e01b031663a9059cbb60e01b179052610b18908490613d7c565b600f5460009061ffff16821061337b57506001612875565b604080516001600160a01b0380861660248301528416604482015260648082018490528251808303909101815260849091019091526020810180516001600160e01b03166323b872dd60e01b17905261309d908590613d7c565b60008184841115613d0f5760405162461bcd60e51b81526004018080602001828103825283818151815260200191508051906020019080838360005b83811015613cd4578181015183820152602001613cbc565b50505050905090810190601f168015613d015780820380516001836020036101000a031916815260200191505b509250505060405180910390fd5b505050900390565b60008183613d665760405162461bcd60e51b8152602060048201818152835160248401528351909283926044909101919085019080838360008315613cd4578181015183820152602001613cbc565b506000838581613d7257fe5b0495945050505050565b6060613dd1826040518060400160405280602081526020017f5361666545524332303a206c6f772d6c6576656c2063616c6c206661696c6564815250856001600160a01b0316613e2d9092919063ffffffff16565b805190915015610b1857808060200190516020811015613df057600080fd5b5051610b185760405162461bcd60e51b815260040180806020018281038252602a81526020018061404c602a913960400191505060405180910390fd5b6060613e3c8484600085613e44565b949350505050565b6060613e4f85613fb1565b613ea0576040805162461bcd60e51b815260206004820152601d60248201527f416464726573733a2063616c6c20746f206e6f6e2d636f6e7472616374000000604482015290519081900360640190fd5b60006060866001600160a01b031685876040518082805190602001908083835b60208310613edf5780518252601f199092019160209182019101613ec0565b6001836020036101000a03801982511681845116808217855250505050505090500191505060006040518083038185875af1925050503d8060008114613f41576040519150601f19603f3d011682016040523d82523d6000602084013e613f46565b606091505b50915091508115613f5a579150613e3c9050565b805115613f6a5780518082602001fd5b60405162461bcd60e51b8152602060048201818152865160248401528651879391928392604401919085019080838360008315613cd4578181015183820152602001613cbc565b6000813f7fc5d2460186f7233c927e7db2dcc703c0e500b653ca82273b7bfad8045d85a470818114801590613e3c57505015159291505056fe5265656e7472616e637947756172643a207265656e7472616e742063616c6c00536166654d6174683a206d756c7469706c69636174696f6e206f766572666c6f774f776e61626c653a2063616c6c6572206973206e6f7420746865206f776e65725361666545524332303a204552433230206f7065726174696f6e20646964206e6f742073756363656564a26469706673582212203e3a0a1c30e36d3054c3e4504c8c9c0ee69b96a6be2e80e6ff3f08eb3d00620164736f6c634300060c0033",
  "devdoc": {
    "kind": "dev",
    "methods": {},
    "version": 1
  },
  "userdoc": {
    "kind": "user",
    "methods": {},
    "version": 1
  },
  "storageLayout": {
    "storage": [
      {
        "astId": 4537,
        "contract": "contracts/AnnexBoostFarm.sol:AnnexBoostFarm",
        "label": "owner",
        "offset": 0,
        "slot": "0",
        "type": "t_address"
      },
      {
        "astId": 4539,
        "contract": "contracts/AnnexBoostFarm.sol:AnnexBoostFarm",
        "label": "pendingOwner",
        "offset": 0,
        "slot": "1",
        "type": "t_address"
      },
      {
        "astId": 4663,
        "contract": "contracts/AnnexBoostFarm.sol:AnnexBoostFarm",
        "label": "_status",
        "offset": 0,
        "slot": "2",
        "type": "t_uint256"
      },
      {
        "astId": 54,
        "contract": "contracts/AnnexBoostFarm.sol:AnnexBoostFarm",
        "label": "annex",
        "offset": 0,
        "slot": "3",
        "type": "t_address"
      },
      {
        "astId": 56,
        "contract": "contracts/AnnexBoostFarm.sol:AnnexBoostFarm",
        "label": "vAnn",
        "offset": 0,
        "slot": "4",
        "type": "t_address"
      },
      {
        "astId": 58,
        "contract": "contracts/AnnexBoostFarm.sol:AnnexBoostFarm",
        "label": "rewardToken",
        "offset": 0,
        "slot": "5",
        "type": "t_address"
      },
      {
        "astId": 60,
        "contract": "contracts/AnnexBoostFarm.sol:AnnexBoostFarm",
        "label": "bonusEndBlock",
        "offset": 0,
        "slot": "6",
        "type": "t_uint256"
      },
      {
        "astId": 62,
        "contract": "contracts/AnnexBoostFarm.sol:AnnexBoostFarm",
        "label": "rewardPerBlock",
        "offset": 0,
        "slot": "7",
        "type": "t_uint256"
      },
      {
        "astId": 71,
        "contract": "contracts/AnnexBoostFarm.sol:AnnexBoostFarm",
        "label": "poolInfo",
        "offset": 0,
        "slot": "8",
        "type": "t_array(t_struct(PoolInfo)52_storage)dyn_storage"
      },
      {
        "astId": 73,
        "contract": "contracts/AnnexBoostFarm.sol:AnnexBoostFarm",
        "label": "lpSupplyOfAnnPool",
        "offset": 0,
        "slot": "9",
        "type": "t_uint256"
      },
      {
        "astId": 79,
        "contract": "contracts/AnnexBoostFarm.sol:AnnexBoostFarm",
        "label": "userInfo",
        "offset": 0,
        "slot": "10",
        "type": "t_mapping(t_uint256,t_mapping(t_address,t_struct(UserInfo)39_storage))"
      },
      {
        "astId": 82,
        "contract": "contracts/AnnexBoostFarm.sol:AnnexBoostFarm",
        "label": "claimBaseRewardTime",
        "offset": 0,
        "slot": "11",
        "type": "t_uint256"
      },
      {
        "astId": 85,
        "contract": "contracts/AnnexBoostFarm.sol:AnnexBoostFarm",
        "label": "unstakableTime",
        "offset": 0,
        "slot": "12",
        "type": "t_uint256"
      },
      {
        "astId": 88,
        "contract": "contracts/AnnexBoostFarm.sol:AnnexBoostFarm",
        "label": "initialBoostMultiplier",
        "offset": 0,
        "slot": "13",
        "type": "t_uint256"
      },
      {
        "astId": 91,
        "contract": "contracts/AnnexBoostFarm.sol:AnnexBoostFarm",
        "label": "boostMultiplierFactor",
        "offset": 0,
        "slot": "14",
        "type": "t_uint256"
      },
      {
        "astId": 94,
        "contract": "contracts/AnnexBoostFarm.sol:AnnexBoostFarm",
        "label": "minimumValidBoostCount",
        "offset": 0,
        "slot": "15",
        "type": "t_uint16"
      },
      {
        "astId": 97,
        "contract": "contracts/AnnexBoostFarm.sol:AnnexBoostFarm",
        "label": "maximumBoostCount",
        "offset": 2,
        "slot": "15",
        "type": "t_uint16"
      },
      {
        "astId": 99,
        "contract": "contracts/AnnexBoostFarm.sol:AnnexBoostFarm",
        "label": "boostFactor",
        "offset": 4,
        "slot": "15",
        "type": "t_contract(IBoostToken)3635"
      },
      {
        "astId": 103,
        "contract": "contracts/AnnexBoostFarm.sol:AnnexBoostFarm",
        "label": "isBoosted",
        "offset": 0,
        "slot": "16",
        "type": "t_mapping(t_uint256,t_bool)"
      },
      {
        "astId": 108,
        "contract": "contracts/AnnexBoostFarm.sol:AnnexBoostFarm",
        "label": "claimBoostRewardTime",
        "offset": 0,
        "slot": "17",
        "type": "t_uint256"
      },
      {
        "astId": 113,
        "contract": "contracts/AnnexBoostFarm.sol:AnnexBoostFarm",
        "label": "boostedUsers",
        "offset": 0,
        "slot": "18",
        "type": "t_mapping(t_uint256,t_array(t_address)dyn_storage)"
      },
      {
        "astId": 116,
        "contract": "contracts/AnnexBoostFarm.sol:AnnexBoostFarm",
        "label": "totalAllocPoint",
        "offset": 0,
        "slot": "19",
        "type": "t_uint256"
      },
      {
        "astId": 118,
        "contract": "contracts/AnnexBoostFarm.sol:AnnexBoostFarm",
        "label": "startBlock",
        "offset": 0,
        "slot": "20",
        "type": "t_uint256"
      }
    ],
    "types": {
      "t_address": {
        "encoding": "inplace",
        "label": "address",
        "numberOfBytes": "20"
      },
      "t_array(t_address)dyn_storage": {
        "base": "t_address",
        "encoding": "dynamic_array",
        "label": "address[]",
        "numberOfBytes": "32"
      },
      "t_array(t_struct(PoolInfo)52_storage)dyn_storage": {
        "base": "t_struct(PoolInfo)52_storage",
        "encoding": "dynamic_array",
        "label": "struct AnnexBoostFarm.PoolInfo[]",
        "numberOfBytes": "32"
      },
      "t_array(t_uint256)dyn_storage": {
        "base": "t_uint256",
        "encoding": "dynamic_array",
        "label": "uint256[]",
        "numberOfBytes": "32"
      },
      "t_bool": {
        "encoding": "inplace",
        "label": "bool",
        "numberOfBytes": "1"
      },
      "t_contract(IBoostToken)3635": {
        "encoding": "inplace",
        "label": "contract IBoostToken",
        "numberOfBytes": "20"
      },
      "t_contract(IERC20)3725": {
        "encoding": "inplace",
        "label": "contract IERC20",
        "numberOfBytes": "20"
      },
      "t_mapping(t_address,t_struct(UserInfo)39_storage)": {
        "encoding": "mapping",
        "key": "t_address",
        "label": "mapping(address => struct AnnexBoostFarm.UserInfo)",
        "numberOfBytes": "32",
        "value": "t_struct(UserInfo)39_storage"
      },
      "t_mapping(t_uint256,t_array(t_address)dyn_storage)": {
        "encoding": "mapping",
        "key": "t_uint256",
        "label": "mapping(uint256 => address[])",
        "numberOfBytes": "32",
        "value": "t_array(t_address)dyn_storage"
      },
      "t_mapping(t_uint256,t_bool)": {
        "encoding": "mapping",
        "key": "t_uint256",
        "label": "mapping(uint256 => bool)",
        "numberOfBytes": "32",
        "value": "t_bool"
      },
      "t_mapping(t_uint256,t_mapping(t_address,t_struct(UserInfo)39_storage))": {
        "encoding": "mapping",
        "key": "t_uint256",
        "label": "mapping(uint256 => mapping(address => struct AnnexBoostFarm.UserInfo))",
        "numberOfBytes": "32",
        "value": "t_mapping(t_address,t_struct(UserInfo)39_storage)"
      },
      "t_struct(PoolInfo)52_storage": {
        "encoding": "inplace",
        "label": "struct AnnexBoostFarm.PoolInfo",
        "members": [
          {
            "astId": 41,
            "contract": "contracts/AnnexBoostFarm.sol:AnnexBoostFarm",
            "label": "lpToken",
            "offset": 0,
            "slot": "0",
            "type": "t_contract(IERC20)3725"
          },
          {
            "astId": 43,
            "contract": "contracts/AnnexBoostFarm.sol:AnnexBoostFarm",
            "label": "allocPoint",
            "offset": 0,
            "slot": "1",
            "type": "t_uint256"
          },
          {
            "astId": 45,
            "contract": "contracts/AnnexBoostFarm.sol:AnnexBoostFarm",
            "label": "lastRewardBlock",
            "offset": 0,
            "slot": "2",
            "type": "t_uint256"
          },
          {
            "astId": 47,
            "contract": "contracts/AnnexBoostFarm.sol:AnnexBoostFarm",
            "label": "accRewardPerShare",
            "offset": 0,
            "slot": "3",
            "type": "t_uint256"
          },
          {
            "astId": 49,
            "contract": "contracts/AnnexBoostFarm.sol:AnnexBoostFarm",
            "label": "totalBoostCount",
            "offset": 0,
            "slot": "4",
            "type": "t_uint256"
          },
          {
            "astId": 51,
            "contract": "contracts/AnnexBoostFarm.sol:AnnexBoostFarm",
            "label": "rewardEligibleSupply",
            "offset": 0,
            "slot": "5",
            "type": "t_uint256"
          }
        ],
        "numberOfBytes": "192"
      },
      "t_struct(UserInfo)39_storage": {
        "encoding": "inplace",
        "label": "struct AnnexBoostFarm.UserInfo",
        "members": [
          {
            "astId": 23,
            "contract": "contracts/AnnexBoostFarm.sol:AnnexBoostFarm",
            "label": "amount",
            "offset": 0,
            "slot": "0",
            "type": "t_uint256"
          },
          {
            "astId": 25,
            "contract": "contracts/AnnexBoostFarm.sol:AnnexBoostFarm",
            "label": "pendingAmount",
            "offset": 0,
            "slot": "1",
            "type": "t_uint256"
          },
          {
            "astId": 27,
            "contract": "contracts/AnnexBoostFarm.sol:AnnexBoostFarm",
            "label": "rewardDebt",
            "offset": 0,
            "slot": "2",
            "type": "t_uint256"
          },
          {
            "astId": 29,
            "contract": "contracts/AnnexBoostFarm.sol:AnnexBoostFarm",
            "label": "depositedDate",
            "offset": 0,
            "slot": "3",
            "type": "t_uint256"
          },
          {
            "astId": 32,
            "contract": "contracts/AnnexBoostFarm.sol:AnnexBoostFarm",
            "label": "boostFactors",
            "offset": 0,
            "slot": "4",
            "type": "t_array(t_uint256)dyn_storage"
          },
          {
            "astId": 34,
            "contract": "contracts/AnnexBoostFarm.sol:AnnexBoostFarm",
            "label": "boostRewardDebt",
            "offset": 0,
            "slot": "5",
            "type": "t_uint256"
          },
          {
            "astId": 36,
            "contract": "contracts/AnnexBoostFarm.sol:AnnexBoostFarm",
            "label": "boostedDate",
            "offset": 0,
            "slot": "6",
            "type": "t_uint256"
          },
          {
            "astId": 38,
            "contract": "contracts/AnnexBoostFarm.sol:AnnexBoostFarm",
            "label": "accBoostReward",
            "offset": 0,
            "slot": "7",
            "type": "t_uint256"
          }
        ],
        "numberOfBytes": "256"
      },
      "t_uint16": {
        "encoding": "inplace",
        "label": "uint16",
        "numberOfBytes": "2"
      },
      "t_uint256": {
        "encoding": "inplace",
        "label": "uint256",
        "numberOfBytes": "32"
      }
    }
  }
}