{
  "address": "0xBc3C2b47Ef6E5D32051Ed728F5d646c3242987EB",
  "abi": [
    {
      "inputs": [
        {
          "internalType": "address",
          "name": "_annex",
          "type": "address"
        },
        {
          "internalType": "address",
          "name": "_rewardToken",
          "type": "address"
        },
        {
          "internalType": "address",
          "name": "_vAnn",
          "type": "address"
        },
        {
          "internalType": "address",
          "name": "_boost",
          "type": "address"
        },
        {
          "internalType": "uint256",
          "name": "_rewardPerBlock",
          "type": "uint256"
        },
        {
          "internalType": "uint256",
          "name": "_startBlock",
          "type": "uint256"
        },
        {
          "internalType": "uint256",
          "name": "_bonusEndBlock",
          "type": "uint256"
        }
      ],
      "stateMutability": "nonpayable",
      "type": "constructor"
    },
    {
      "anonymous": false,
      "inputs": [
        {
          "indexed": true,
          "internalType": "address",
          "name": "user",
          "type": "address"
        },
        {
          "indexed": true,
          "internalType": "uint256",
          "name": "pid",
          "type": "uint256"
        },
        {
          "indexed": false,
          "internalType": "uint256",
          "name": "tokenId",
          "type": "uint256"
        }
      ],
      "name": "Boost",
      "type": "event"
    },
    {
      "anonymous": false,
      "inputs": [
        {
          "indexed": true,
          "internalType": "address",
          "name": "user",
          "type": "address"
        },
        {
          "indexed": true,
          "internalType": "uint256",
          "name": "pid",
          "type": "uint256"
        },
        {
          "indexed": false,
          "internalType": "uint256",
          "name": "amount",
          "type": "uint256"
        }
      ],
      "name": "Deposit",
      "type": "event"
    },
    {
      "anonymous": false,
      "inputs": [
        {
          "indexed": true,
          "internalType": "address",
          "name": "user",
          "type": "address"
        },
        {
          "indexed": true,
          "internalType": "uint256",
          "name": "pid",
          "type": "uint256"
        },
        {
          "indexed": false,
          "internalType": "uint256",
          "name": "amount",
          "type": "uint256"
        }
      ],
      "name": "EmergencyWithdraw",
      "type": "event"
    },
    {
      "anonymous": false,
      "inputs": [
        {
          "indexed": true,
          "internalType": "address",
          "name": "previousOwner",
          "type": "address"
        },
        {
          "indexed": true,
          "internalType": "address",
          "name": "newOwner",
          "type": "address"
        }
      ],
      "name": "OwnershipTransferred",
      "type": "event"
    },
    {
      "anonymous": false,
      "inputs": [
        {
          "indexed": true,
          "internalType": "address",
          "name": "user",
          "type": "address"
        },
        {
          "indexed": true,
          "internalType": "uint256",
          "name": "pid",
          "type": "uint256"
        },
        {
          "indexed": false,
          "internalType": "uint256",
          "name": "tokenId",
          "type": "uint256"
        }
      ],
      "name": "UnBoost",
      "type": "event"
    },
    {
      "anonymous": false,
      "inputs": [
        {
          "indexed": true,
          "internalType": "address",
          "name": "user",
          "type": "address"
        },
        {
          "indexed": true,
          "internalType": "uint256",
          "name": "pid",
          "type": "uint256"
        },
        {
          "indexed": false,
          "internalType": "uint256",
          "name": "amount",
          "type": "uint256"
        }
      ],
      "name": "Withdraw",
      "type": "event"
    },
    {
      "inputs": [],
      "name": "BONUS_MULTIPLIER",
      "outputs": [
        {
          "internalType": "uint256",
          "name": "",
          "type": "uint256"
        }
      ],
      "stateMutability": "view",
      "type": "function"
    },
    {
      "inputs": [],
      "name": "VANN_RATE",
      "outputs": [
        {
          "internalType": "uint256",
          "name": "",
          "type": "uint256"
        }
      ],
      "stateMutability": "view",
      "type": "function"
    },
    {
      "inputs": [
        {
          "internalType": "uint256",
          "name": "_allocPoint",
          "type": "uint256"
        },
        {
          "internalType": "contract IERC20",
          "name": "_lpToken",
          "type": "address"
        },
        {
          "internalType": "bool",
          "name": "_withUpdate",
          "type": "bool"
        }
      ],
      "name": "add",
      "outputs": [],
      "stateMutability": "nonpayable",
      "type": "function"
    },
    {
      "inputs": [],
      "name": "annex",
      "outputs": [
        {
          "internalType": "address",
          "name": "",
          "type": "address"
        }
      ],
      "stateMutability": "view",
      "type": "function"
    },
    {
      "inputs": [],
      "name": "bonusEndBlock",
      "outputs": [
        {
          "internalType": "uint256",
          "name": "",
          "type": "uint256"
        }
      ],
      "stateMutability": "view",
      "type": "function"
    },
    {
      "inputs": [
        {
          "internalType": "uint256",
          "name": "_pid",
          "type": "uint256"
        },
        {
          "internalType": "uint256",
          "name": "_tokenId",
          "type": "uint256"
        }
      ],
      "name": "boost",
      "outputs": [],
      "stateMutability": "nonpayable",
      "type": "function"
    },
    {
      "inputs": [
        {
          "internalType": "uint256",
          "name": "_pid",
          "type": "uint256"
        }
      ],
      "name": "boostAll",
      "outputs": [],
      "stateMutability": "nonpayable",
      "type": "function"
    },
    {
      "inputs": [],
      "name": "boostFactor",
      "outputs": [
        {
          "internalType": "contract IBoostToken",
          "name": "",
          "type": "address"
        }
      ],
      "stateMutability": "view",
      "type": "function"
    },
    {
      "inputs": [],
      "name": "boostMultiplierFactor",
      "outputs": [
        {
          "internalType": "uint256",
          "name": "",
          "type": "uint256"
        }
      ],
      "stateMutability": "view",
      "type": "function"
    },
    {
      "inputs": [
        {
          "internalType": "uint256",
          "name": "_pid",
          "type": "uint256"
        },
        {
          "internalType": "uint256",
          "name": "tokenAmount",
          "type": "uint256"
        }
      ],
      "name": "boostPartially",
      "outputs": [],
      "stateMutability": "nonpayable",
      "type": "function"
    },
    {
      "inputs": [],
      "name": "claimBaseRewardTime",
      "outputs": [
        {
          "internalType": "uint256",
          "name": "",
          "type": "uint256"
        }
      ],
      "stateMutability": "view",
      "type": "function"
    },
    {
      "inputs": [
        {
          "internalType": "uint256",
          "name": "_pid",
          "type": "uint256"
        }
      ],
      "name": "claimBaseRewards",
      "outputs": [],
      "stateMutability": "nonpayable",
      "type": "function"
    },
    {
      "inputs": [
        {
          "internalType": "uint256",
          "name": "_pid",
          "type": "uint256"
        }
      ],
      "name": "claimBoostReward",
      "outputs": [],
      "stateMutability": "nonpayable",
      "type": "function"
    },
    {
      "inputs": [],
      "name": "claimBoostRewardTime",
      "outputs": [
        {
          "internalType": "uint256",
          "name": "",
          "type": "uint256"
        }
      ],
      "stateMutability": "view",
      "type": "function"
    },
    {
      "inputs": [],
      "name": "claimOwnership",
      "outputs": [],
      "stateMutability": "nonpayable",
      "type": "function"
    },
    {
      "inputs": [
        {
          "internalType": "uint256",
          "name": "_pid",
          "type": "uint256"
        },
        {
          "internalType": "uint256",
          "name": "_amount",
          "type": "uint256"
        }
      ],
      "name": "deposit",
      "outputs": [],
      "stateMutability": "nonpayable",
      "type": "function"
    },
    {
      "inputs": [],
      "name": "emergencyNftWithdraw",
      "outputs": [],
      "stateMutability": "nonpayable",
      "type": "function"
    },
    {
      "inputs": [
        {
          "internalType": "uint256",
          "name": "_pid",
          "type": "uint256"
        }
      ],
      "name": "emergencyWithdraw",
      "outputs": [],
      "stateMutability": "nonpayable",
      "type": "function"
    },
    {
      "inputs": [
        {
          "internalType": "uint256",
          "name": "_pid",
          "type": "uint256"
        }
      ],
      "name": "getBoostedUserCount",
      "outputs": [
        {
          "internalType": "uint256",
          "name": "",
          "type": "uint256"
        }
      ],
      "stateMutability": "view",
      "type": "function"
    },
    {
      "inputs": [],
      "name": "getClaimablePendingBoostRewards",
      "outputs": [
        {
          "internalType": "uint256",
          "name": "",
          "type": "uint256"
        }
      ],
      "stateMutability": "view",
      "type": "function"
    },
    {
      "inputs": [
        {
          "internalType": "uint256",
          "name": "_from",
          "type": "uint256"
        },
        {
          "internalType": "uint256",
          "name": "_to",
          "type": "uint256"
        }
      ],
      "name": "getMultiplier",
      "outputs": [
        {
          "internalType": "uint256",
          "name": "",
          "type": "uint256"
        }
      ],
      "stateMutability": "view",
      "type": "function"
    },
    {
      "inputs": [
        {
          "internalType": "uint256",
          "name": "_pid",
          "type": "uint256"
        }
      ],
      "name": "getPoolInfo",
      "outputs": [
        {
          "internalType": "contract IERC20",
          "name": "lpToken",
          "type": "address"
        },
        {
          "internalType": "uint256",
          "name": "lpSupply",
          "type": "uint256"
        },
        {
          "internalType": "uint256",
          "name": "allocPoint",
          "type": "uint256"
        },
        {
          "internalType": "uint256",
          "name": "lastRewardBlock",
          "type": "uint256"
        },
        {
          "internalType": "uint256",
          "name": "accRewardPerShare",
          "type": "uint256"
        },
        {
          "internalType": "uint256",
          "name": "totalBoostCount",
          "type": "uint256"
        },
        {
          "internalType": "uint256",
          "name": "rewardEligibleSupply",
          "type": "uint256"
        }
      ],
      "stateMutability": "view",
      "type": "function"
    },
    {
      "inputs": [],
      "name": "getTotalPendingBoostRewards",
      "outputs": [
        {
          "internalType": "uint256",
          "name": "",
          "type": "uint256"
        }
      ],
      "stateMutability": "view",
      "type": "function"
    },
    {
      "inputs": [],
      "name": "initialBoostMultiplier",
      "outputs": [
        {
          "internalType": "uint256",
          "name": "",
          "type": "uint256"
        }
      ],
      "stateMutability": "view",
      "type": "function"
    },
    {
      "inputs": [
        {
          "internalType": "uint256",
          "name": "",
          "type": "uint256"
        }
      ],
      "name": "isBoosted",
      "outputs": [
        {
          "internalType": "bool",
          "name": "",
          "type": "bool"
        }
      ],
      "stateMutability": "view",
      "type": "function"
    },
    {
      "inputs": [],
      "name": "massUpdatePools",
      "outputs": [],
      "stateMutability": "nonpayable",
      "type": "function"
    },
    {
      "inputs": [],
      "name": "maximumBoostCount",
      "outputs": [
        {
          "internalType": "uint16",
          "name": "",
          "type": "uint16"
        }
      ],
      "stateMutability": "view",
      "type": "function"
    },
    {
      "inputs": [],
      "name": "minimumValidBoostCount",
      "outputs": [
        {
          "internalType": "uint16",
          "name": "",
          "type": "uint16"
        }
      ],
      "stateMutability": "view",
      "type": "function"
    },
    {
      "inputs": [
        {
          "internalType": "uint256",
          "name": "_pid",
          "type": "uint256"
        },
        {
          "internalType": "address",
          "name": "_sender",
          "type": "address"
        },
        {
          "internalType": "address",
          "name": "_recipient",
          "type": "address"
        },
        {
          "internalType": "uint256",
          "name": "_vannAmount",
          "type": "uint256"
        }
      ],
      "name": "move",
      "outputs": [],
      "stateMutability": "nonpayable",
      "type": "function"
    },
    {
      "inputs": [],
      "name": "owner",
      "outputs": [
        {
          "internalType": "address",
          "name": "",
          "type": "address"
        }
      ],
      "stateMutability": "view",
      "type": "function"
    },
    {
      "inputs": [
        {
          "internalType": "uint256",
          "name": "_pid",
          "type": "uint256"
        },
        {
          "internalType": "address",
          "name": "_user",
          "type": "address"
        }
      ],
      "name": "pendingBaseReward",
      "outputs": [
        {
          "internalType": "uint256",
          "name": "",
          "type": "uint256"
        }
      ],
      "stateMutability": "view",
      "type": "function"
    },
    {
      "inputs": [
        {
          "internalType": "uint256",
          "name": "_pid",
          "type": "uint256"
        },
        {
          "internalType": "address",
          "name": "_user",
          "type": "address"
        }
      ],
      "name": "pendingBoostReward",
      "outputs": [
        {
          "internalType": "uint256",
          "name": "",
          "type": "uint256"
        }
      ],
      "stateMutability": "view",
      "type": "function"
    },
    {
      "inputs": [],
      "name": "pendingOwner",
      "outputs": [
        {
          "internalType": "address",
          "name": "",
          "type": "address"
        }
      ],
      "stateMutability": "view",
      "type": "function"
    },
    {
      "inputs": [
        {
          "internalType": "uint256",
          "name": "_pid",
          "type": "uint256"
        },
        {
          "internalType": "address",
          "name": "_user",
          "type": "address"
        }
      ],
      "name": "pendingReward",
      "outputs": [
        {
          "internalType": "uint256",
          "name": "",
          "type": "uint256"
        }
      ],
      "stateMutability": "view",
      "type": "function"
    },
    {
      "inputs": [],
      "name": "poolLength",
      "outputs": [
        {
          "internalType": "uint256",
          "name": "",
          "type": "uint256"
        }
      ],
      "stateMutability": "view",
      "type": "function"
    },
    {
      "inputs": [],
      "name": "rewardPerBlock",
      "outputs": [
        {
          "internalType": "uint256",
          "name": "",
          "type": "uint256"
        }
      ],
      "stateMutability": "view",
      "type": "function"
    },
    {
      "inputs": [],
      "name": "rewardToken",
      "outputs": [
        {
          "internalType": "address",
          "name": "",
          "type": "address"
        }
      ],
      "stateMutability": "view",
      "type": "function"
    },
    {
      "inputs": [
        {
          "internalType": "uint256",
          "name": "_pid",
          "type": "uint256"
        },
        {
          "internalType": "uint256",
          "name": "_allocPoint",
          "type": "uint256"
        },
        {
          "internalType": "bool",
          "name": "_withUpdate",
          "type": "bool"
        }
      ],
      "name": "set",
      "outputs": [],
      "stateMutability": "nonpayable",
      "type": "function"
    },
    {
      "inputs": [
        {
          "internalType": "address",
          "name": "_address",
          "type": "address"
        }
      ],
      "name": "setBoostFactor",
      "outputs": [],
      "stateMutability": "nonpayable",
      "type": "function"
    },
    {
      "inputs": [
        {
          "internalType": "uint256",
          "name": "speed",
          "type": "uint256"
        }
      ],
      "name": "setRewardPerBlock",
      "outputs": [],
      "stateMutability": "nonpayable",
      "type": "function"
    },
    {
      "inputs": [],
      "name": "startBlock",
      "outputs": [
        {
          "internalType": "uint256",
          "name": "",
          "type": "uint256"
        }
      ],
      "stateMutability": "view",
      "type": "function"
    },
    {
      "inputs": [],
      "name": "totalAllocPoint",
      "outputs": [
        {
          "internalType": "uint256",
          "name": "",
          "type": "uint256"
        }
      ],
      "stateMutability": "view",
      "type": "function"
    },
    {
      "inputs": [
        {
          "internalType": "address",
          "name": "newOwner",
          "type": "address"
        },
        {
          "internalType": "bool",
          "name": "direct",
          "type": "bool"
        },
        {
          "internalType": "bool",
          "name": "renounce",
          "type": "bool"
        }
      ],
      "name": "transferOwnership",
      "outputs": [],
      "stateMutability": "nonpayable",
      "type": "function"
    },
    {
      "inputs": [
        {
          "internalType": "uint256",
          "name": "_pid",
          "type": "uint256"
        }
      ],
      "name": "unBoostAll",
      "outputs": [],
      "stateMutability": "nonpayable",
      "type": "function"
    },
    {
      "inputs": [
        {
          "internalType": "uint256",
          "name": "_pid",
          "type": "uint256"
        },
        {
          "internalType": "uint256",
          "name": "tokenAmount",
          "type": "uint256"
        }
      ],
      "name": "unBoostPartially",
      "outputs": [],
      "stateMutability": "nonpayable",
      "type": "function"
    },
    {
      "inputs": [],
      "name": "unstakableTime",
      "outputs": [
        {
          "internalType": "uint256",
          "name": "",
          "type": "uint256"
        }
      ],
      "stateMutability": "view",
      "type": "function"
    },
    {
      "inputs": [
        {
          "internalType": "uint256",
          "name": "_claimBaseRewardTime",
          "type": "uint256"
        }
      ],
      "name": "updateClaimBaseRewardTime",
      "outputs": [],
      "stateMutability": "nonpayable",
      "type": "function"
    },
    {
      "inputs": [
        {
          "internalType": "uint256",
          "name": "_claimBoostRewardTime",
          "type": "uint256"
        }
      ],
      "name": "updateClaimBoostRewardTime",
      "outputs": [],
      "stateMutability": "nonpayable",
      "type": "function"
    },
    {
      "inputs": [
        {
          "internalType": "uint256",
          "name": "_initialBoostMultiplier",
          "type": "uint256"
        }
      ],
      "name": "updateInitialBoostMultiplier",
      "outputs": [],
      "stateMutability": "nonpayable",
      "type": "function"
    },
    {
      "inputs": [
        {
          "internalType": "uint16",
          "name": "_count",
          "type": "uint16"
        }
      ],
      "name": "updateMaximumBoostCount",
      "outputs": [],
      "stateMutability": "nonpayable",
      "type": "function"
    },
    {
      "inputs": [
        {
          "internalType": "uint16",
          "name": "_count",
          "type": "uint16"
        }
      ],
      "name": "updateMinimumValidBoostCount",
      "outputs": [],
      "stateMutability": "nonpayable",
      "type": "function"
    },
    {
      "inputs": [
        {
          "internalType": "uint256",
          "name": "_pid",
          "type": "uint256"
        }
      ],
      "name": "updatePool",
      "outputs": [],
      "stateMutability": "nonpayable",
      "type": "function"
    },
    {
      "inputs": [
        {
          "internalType": "address",
          "name": "_reward",
          "type": "address"
        }
      ],
      "name": "updateRewardToken",
      "outputs": [],
      "stateMutability": "nonpayable",
      "type": "function"
    },
    {
      "inputs": [
        {
          "internalType": "uint256",
          "name": "_unstakableTime",
          "type": "uint256"
        }
      ],
      "name": "updateUnstakableTime",
      "outputs": [],
      "stateMutability": "nonpayable",
      "type": "function"
    },
    {
      "inputs": [
        {
          "internalType": "uint256",
          "name": "_boostMultiplierFactor",
          "type": "uint256"
        }
      ],
      "name": "updatedBoostMultiplierFactor",
      "outputs": [],
      "stateMutability": "nonpayable",
      "type": "function"
    },
    {
      "inputs": [
        {
          "internalType": "uint256",
          "name": "",
          "type": "uint256"
        },
        {
          "internalType": "address",
          "name": "",
          "type": "address"
        }
      ],
      "name": "userInfo",
      "outputs": [
        {
          "internalType": "uint256",
          "name": "amount",
          "type": "uint256"
        },
        {
          "internalType": "uint256",
          "name": "pendingAmount",
          "type": "uint256"
        },
        {
          "internalType": "uint256",
          "name": "rewardDebt",
          "type": "uint256"
        },
        {
          "internalType": "uint256",
          "name": "depositedDate",
          "type": "uint256"
        },
        {
          "internalType": "uint256",
          "name": "boostRewardDebt",
          "type": "uint256"
        },
        {
          "internalType": "uint256",
          "name": "boostedDate",
          "type": "uint256"
        },
        {
          "internalType": "uint256",
          "name": "accBoostReward",
          "type": "uint256"
        }
      ],
      "stateMutability": "view",
      "type": "function"
    },
    {
      "inputs": [],
      "name": "vAnn",
      "outputs": [
        {
          "internalType": "address",
          "name": "",
          "type": "address"
        }
      ],
      "stateMutability": "view",
      "type": "function"
    },
    {
      "inputs": [
        {
          "internalType": "uint256",
          "name": "_pid",
          "type": "uint256"
        },
        {
          "internalType": "uint256",
          "name": "_amount",
          "type": "uint256"
        }
      ],
      "name": "withdraw",
      "outputs": [],
      "stateMutability": "nonpayable",
      "type": "function"
    }
  ],
  "transactionHash": "0x1110801e41227e0d0044c332762e29402cb9e4441a033c41b760615ae7f3df44",
  "args": [
    "0xb75f3F9D35d256a94BBd7A3fC2E16c768E17930E",
    "0x16227D60f7a0e586C66B005219dfc887D13C9531",
    "0x381C6A24AE526694fC1CB8c006D91fFa2A448452",
    "0xE5b14B8c7Ae79dad90383f2039194c5C2671912a",
    "1000000000000000",
    "1000000000000000",
    17437841
  ],
  "solcInputHash": "14147fa813ee80da6584e9b523e04244",
  "bytecode": "0x608060405262015180600b556202a300600c556028600d556014600e55600f8054600161ffff199091161763ffff00001916620a000017905562278d00601155600060135534801561005057600080fd5b50604051614193380380614193833981810160405260e081101561007357600080fd5b50805160208201516040808401516060850151608086015160a087015160c090970151600080546001600160a01b0319163390811782559551979896979496939592949192917f8be0079c531659141344cd1fd0a4f28419497f9722a3daafe3b4186f6b6457e0908290a36001600255600380546001600160a01b03199081166001600160a01b03998a1617909155600580548216978916979097179096556004805490961694871694909417909455600f8054600160201b600160c01b031916640100000000939096169290920294909417905560079290925560069190915560145561402d806101666000396000f3fe608060405234801561001057600080fd5b506004361061038e5760003560e01c806378bd92e1116101de578063c0db88871161010f578063da38f3af116100ad578063e78c1b1b1161007c578063e78c1b1b14610969578063f6d4c18514610986578063f7c618c11461098e578063f8cf31cb146109965761038e565b8063da38f3af1461092e578063e0e2f31014610936578063e2bbb1581461093e578063e30c3978146109615761038e565b8063d5f9464e116100e9578063d5f9464e146108ba578063d895745c146108d7578063d8fd5a7a146108f4578063d94f11be146109115761038e565b8063c0db8887146108aa578063c1ddfb00146108b2578063ca19c563146107595761038e565b80639b80d2811161017c578063bb872b4a11610156578063bb872b4a14610851578063bcabf89b1461086e578063bd48cf221461089a578063c0bccbfb146108a25761038e565b80639b80d28114610824578063abee219a1461082c578063b5bda70d146108345761038e565b80638da5cb5b116101b85780638da5cb5b146107695780638dbb1e3a1461077157806393f1a40b1461079457806398969e82146107f85761038e565b806378bd92e11461073c5780638aa28550146107595780638ae39cac146107615761038e565b8063441a3e70116102c357806352e0371c11610261578063648b8c6b11610230578063648b8c6b146106b357806369914d62146106d257806373cb07d8146106f3578063766d7cfb1461071f5761038e565b806352e0371c146106275780635312ea8e14610663578063630b5ba11461068057806364482f79146106885761038e565b806348cd4cb11161029d57806348cd4cb1146105f25780634ae3e315146105fa5780634e71e0c81461060257806351eb05a61461060a5761038e565b8063441a3e701461058c5780634638cef5146105af578063488a8f58146105cc5761038e565b80631aed65531161033057806321ab46c81161030a57806321ab46c8146104bc5780632f380b35146104ed57806340be7bec1461054c57806342a9026a1461056f5761038e565b80631aed65531461045c5780631b64854c146104645780631eaaa045146104885761038e565b806311aedfbc1161036c57806311aedfbc1461040857806311ea32641461041057806317caf6f1146104335780631a249f5c1461043b5761038e565b8063078dfbe714610393578063081e3eda146103cb5780630fa6b3a0146103e5575b600080fd5b6103c9600480360360608110156103a957600080fd5b506001600160a01b038135169060208101351515906040013515156109bc565b005b6103d3610ae6565b60408051918252519081900360200190f35b6103c9600480360360408110156103fb57600080fd5b5080359060200135610aec565b6103d3610d6e565b6103c96004803603604081101561042657600080fd5b5080359060200135610d74565b6103d3610f90565b6103c96004803603602081101561045157600080fd5b503561ffff16610f96565b6103d3610ffb565b61046c611001565b604080516001600160a01b039092168252519081900360200190f35b6103c96004803603606081101561049e57600080fd5b508035906001600160a01b0360208201351690604001351515611010565b6104d9600480360360208110156104d257600080fd5b50356111db565b604080519115158252519081900360200190f35b61050a6004803603602081101561050357600080fd5b50356111f0565b604080516001600160a01b0390981688526020880196909652868601949094526060860192909252608085015260a084015260c0830152519081900360e00190f35b6103c96004803603604081101561056257600080fd5b50803590602001356112f2565b6103c96004803603602081101561058557600080fd5b50356113e8565b6103c9600480360360408110156105a257600080fd5b50803590602001356115b1565b6103c9600480360360208110156105c557600080fd5b503561184c565b6103c9600480360360208110156105e257600080fd5b50356001600160a01b031661189e565b6103d3611918565b61046c61191e565b6103c961192d565b6103c96004803603602081101561062057600080fd5b50356119ef565b6103c96004803603608081101561063d57600080fd5b508035906001600160a01b03602082013581169160408101359091169060600135611aad565b6103c96004803603602081101561067957600080fd5b5035611d39565b6103c9611e64565b6103c96004803603606081101561069e57600080fd5b50803590602081013590604001351515611e87565b6106bb611f47565b6040805161ffff9092168252519081900360200190f35b6103c9600480360360208110156106e857600080fd5b503561ffff16611f57565b6103d36004803603604081101561070957600080fd5b50803590602001356001600160a01b0316611fc4565b6103c96004803603602081101561073557600080fd5b503561210a565b6103c96004803603602081101561075257600080fd5b503561215c565b6103d3612397565b6103d361239c565b61046c6123a2565b6103d36004803603604081101561078757600080fd5b50803590602001356123b1565b6107c0600480360360408110156107aa57600080fd5b50803590602001356001600160a01b0316612417565b604080519788526020880196909652868601949094526060860192909252608085015260a084015260c0830152519081900360e00190f35b6103d36004803603604081101561080e57600080fd5b50803590602001356001600160a01b0316612466565b6103d36125a1565b6103c96125a7565b6103d36004803603602081101561084a57600080fd5b50356127dd565b6103c96004803603602081101561086757600080fd5b50356127f2565b6103d36004803603604081101561088457600080fd5b50803590602001356001600160a01b0316612844565b6103d361293c565b6103d3612942565b6103d3612b08565b61046c612cd0565b6103c9600480360360208110156108d057600080fd5b5035612ce6565b6103c9600480360360208110156108ed57600080fd5b5035612d38565b6103c96004803603602081101561090a57600080fd5b5035612d8a565b6103c96004803603602081101561092757600080fd5b5035612ddc565b6103d3613025565b6103d361302b565b6103c96004803603604081101561095457600080fd5b5080359060200135613031565b61046c613246565b6103c96004803603602081101561097f57600080fd5b5035613255565b6106bb61325f565b61046c613269565b6103c9600480360360208110156109ac57600080fd5b50356001600160a01b0316613278565b6000546001600160a01b03163314610a09576040805162461bcd60e51b81526020600482018190526024820152600080516020613fae833981519152604482015290519081900360640190fd5b8115610ac5576001600160a01b038316151580610a235750805b610a6c576040805162461bcd60e51b81526020600482015260156024820152744f776e61626c653a207a65726f206164647265737360581b604482015290519081900360640190fd5b600080546040516001600160a01b03808716939216917f8be0079c531659141344cd1fd0a4f28419497f9722a3daafe3b4186f6b6457e091a3600080546001600160a01b0319166001600160a01b038516179055610ae1565b600180546001600160a01b0319166001600160a01b0385161790555b505050565b60085490565b600060088381548110610afb57fe5b60009182526020808320868452600a825260408085203386529092529220600481015460069092029092019250610b53576040805162461bcd60e51b8152602060048201526000602482015290519081900360640190fd5b6004810154831115610b86576040805162461bcd60e51b8152602060048201526000602482015290519081900360640190fd5b6000610b9582600301546132e7565b90508015610ba757610ba78533613305565b60005b84811015610c1f5760048301805460001981019160009183908110610bcb57fe5b90600052602060002001549050610be28882613477565b84600401805480610bef57fe5b60008281526020812082016000199081019190915590810190915560048701805490910190555050600101610baa565b504260068301556004820154610d6757815460018301819055600083556005840154610c4a916135cf565b60058401556000805b600087815260126020526040902054811015610caf576000878152601260205260409020805482908110610c8357fe5b6000918252602090912001546001600160a01b0316331415610ca757809150610caf565b600101610c53565b50600086815260126020526040902080546000198101908110610cce57fe5b60009182526020808320909101548883526012909152604090912080546001600160a01b039092169183908110610d0157fe5b600091825260208083209190910180546001600160a01b0319166001600160a01b039490941693909317909255878152601290915260409020805480610d4357fe5b600082815260209020810160001990810180546001600160a01b0319169055019055505b5050505050565b60115481565b6000828152600a6020908152604080832033845290915290206001810154815401610dd8576040805162461bcd60e51b815260206004820152600f60248201526e6e6f207374616b6520746f6b656e7360881b604482015290519081900360640190fd5b600f5460048201546201000090910461ffff169083011115610df957600080fd5b6004810154610e315760008381526012602090815260408220805460018101825590835291200180546001600160a01b031916331790555b600f54604080516370a0823160e01b81523360048201529051600092600160201b90046001600160a01b0316916370a08231916024808301926020929190829003018186803b158015610e8357600080fd5b505afa158015610e97573d6000803e3d6000fd5b505050506040513d6020811015610ead57600080fd5b5051905080831115610ebe57600080fd5b6000610ecd83600301546132e7565b90508015610edf57610edf8533613305565b600f5460408051632f745c5960e01b815233600482015260001990960160248701819052905190956000926001600160a01b03600160201b9091041691632f745c5991604480820192602092909190829003018186803b158015610f4257600080fd5b505afa158015610f56573d6000803e3d6000fd5b505050506040513d6020811015610f6c57600080fd5b50519050610f7a8682613618565b5060008411610edf575050426006909101555050565b60135481565b6000546001600160a01b03163314610fe3576040805162461bcd60e51b81526020600482018190526024820152600080516020613fae833981519152604482015290519081900360640190fd5b600f805461ffff191661ffff92909216919091179055565b60065481565b6003546001600160a01b031681565b6000546001600160a01b0316331461105d576040805162461bcd60e51b81526020600482018190526024820152600080516020613fae833981519152604482015290519081900360640190fd5b801561106b5761106b611e64565b6000601454431161107e57601454611080565b435b601354909150611090908561383e565b6013556040805160c0810182526001600160a01b039485168152602081019586529081019182526000606082018181526080830182815260a0840183815260088054600181018255945293517ff3f7a9fe364faab93b216da50a3214154f22a0a2b415b23a84c8169e8b636ee3600690940293840180546001600160a01b031916919098161790965595517ff3f7a9fe364faab93b216da50a3214154f22a0a2b415b23a84c8169e8b636ee482015591517ff3f7a9fe364faab93b216da50a3214154f22a0a2b415b23a84c8169e8b636ee583015593517ff3f7a9fe364faab93b216da50a3214154f22a0a2b415b23a84c8169e8b636ee682015591517ff3f7a9fe364faab93b216da50a3214154f22a0a2b415b23a84c8169e8b636ee78301555090517ff3f7a9fe364faab93b216da50a3214154f22a0a2b415b23a84c8169e8b636ee890910155565b60106020526000908152604090205460ff1681565b6000806000806000806000806008898154811061120957fe5b60009182526020822060069091020180546003549193506001600160a01b039182169116141561123c57506009546112b5565b8154604080516370a0823160e01b815230600482015290516001600160a01b03909216916370a0823191602480820192602092909190829003018186803b15801561128657600080fd5b505afa15801561129a573d6000803e3d6000fd5b505050506040513d60208110156112b057600080fd5b505190505b815460018301546002840154600385015460048601546005909601546001600160a01b039094169e949d50919b5099509750919550909350915050565b6000828152600a6020908152604080832033845290915290206001810154815401611356576040805162461bcd60e51b815260206004820152600f60248201526e6e6f207374616b6520746f6b656e7360881b604482015290519081900360640190fd5b600f5460048201546201000090910461ffff166001909101111561137957600080fd5b60048101546113b15760008381526012602090815260408220805460018101825590835291200180546001600160a01b031916331790555b60006113c082600301546132e7565b905080156113d2576113d28433613305565b6113dc8484613618565b50426006909101555050565b6000600882815481106113f757fe5b60009182526020808320858452600a8252604080852033865290925292206011546006828101549302909301935091429190910311611475576040805162461bcd60e51b81526020600482015260156024820152746e6f7420656c696769626c6520746f20636c61696d60581b604482015290519081900360640190fd5b6003820154600283015443118015611491575060008360050154115b1561150a5760006114a68460020154436123b1565b905060006114d96013546114d387600101546114cd6007548761389890919063ffffffff16565b90613898565b906138f1565b90506115056114fe86600501546114d364e8d4a510008561389890919063ffffffff16565b849061383e565b925050505b600482015460009061151b90613933565b9050600061154d846002015461154764e8d4a510006114d387896000015461389890919063ffffffff16565b906135cf565b9050600061155b8383613898565b905061158b336115868361158089600501548a600701546135cf90919063ffffffff16565b9061383e565b613983565b600585015461159a908261383e565b600586015550504260069093019290925550505050565b6002805414156115f6576040805162461bcd60e51b815260206004820152601f6024820152600080516020613f6d833981519152604482015290519081900360640190fd5b6002808190555060006008838154811061160c57fe5b60009182526020808320868452600a82526040808520338652909252922060018101548154600690930290930193509101831115611686576040805162461bcd60e51b81526020600482015260126024820152711dda5d1a191c985dce881b9bdd0819dbdbd960721b604482015290519081900360640190fd5b600c5481600301544203116116dc576040805162461bcd60e51b81526020600482015260176024820152766e6f7420656c696769626c6520746f20756e6474616b6560481b604482015290519081900360640190fd5b6116e68433613305565b8054156117145780546116f990846135cf565b8155600582015461170a90846135cf565b6005830155611729565b600181015461172390846135cf565b60018201555b600382015481546117449164e8d4a51000916114d391613898565b600282015581546003546001600160a01b03908116911614156117725760095461176e90846135cf565b6009555b6004546001600160a01b03166379cc67903361178f86600a613898565b6040518363ffffffff1660e01b815260040180836001600160a01b0316815260200182815260200192505050600060405180830381600087803b1580156117d557600080fd5b505af11580156117e9573d6000803e3d6000fd5b5050835461180492506001600160a01b031690503385613b3e565b426003820155604080518481529051859133917ff279e6a1f5e320cca91135676d9cb6e44ca8a08c0b88342bcdb1144f6511b5689181900360200190a3505060016002555050565b6000546001600160a01b03163314611899576040805162461bcd60e51b81526020600482018190526024820152600080516020613fae833981519152604482015290519081900360640190fd5b601155565b6000546001600160a01b031633146118eb576040805162461bcd60e51b81526020600482018190526024820152600080516020613fae833981519152604482015290519081900360640190fd5b600f80546001600160a01b03909216600160201b02640100000000600160c01b0319909216919091179055565b60145481565b6004546001600160a01b031681565b6001546001600160a01b031633811461198d576040805162461bcd60e51b815260206004820181905260248201527f4f776e61626c653a2063616c6c657220213d2070656e64696e67206f776e6572604482015290519081900360640190fd5b600080546040516001600160a01b03808516939216917f8be0079c531659141344cd1fd0a4f28419497f9722a3daafe3b4186f6b6457e091a3600080546001600160a01b039092166001600160a01b0319928316179055600180549091169055565b6000600882815481106119fe57fe5b9060005260206000209060060201905080600201544311611a1f5750611aaa565b6005810154611a345743600290910155611aaa565b6000611a448260020154436123b1565b90506000611a6b6013546114d385600101546114cd6007548761389890919063ffffffff16565b9050611a9b611a9084600501546114d364e8d4a510008561389890919063ffffffff16565b60038501549061383e565b60038401555050436002909101555b50565b600280541415611af2576040805162461bcd60e51b815260206004820152601f6024820152600080516020613f6d833981519152604482015290519081900360640190fd5b60028081905550600060088581548110611b0857fe5b60009182526020808320888452600a80835260408086206001600160a01b038b811688529452808620938916865285206006949094029091019450909290611b519086906138f1565b90508083600101548460000154011015611bb2576040805162461bcd60e51b815260206004820152601760248201527f7472616e73666572206578636565647320616d6f756e74000000000000000000604482015290519081900360640190fd5b600c548360030154420311611c08576040805162461bcd60e51b81526020600482015260176024820152766e6f7420656c696769626c6520746f20756e6474616b6560481b604482015290519081900360640190fd5b611c128888613305565b825415611c2c578254611c2590826135cf565b8355611c41565b6001830154611c3b90826135cf565b60018401555b60038401548354611c5c9164e8d4a51000916114d391613898565b600284015542600380850191909155820154600090611c7a906132e7565b90506000611c8e8460040180549050613b90565b9050818015611c9a5750805b15611ca957611ca98a89613305565b8015611cd35760018401548454611cc59185916115809161383e565b845560006001850155611ce8565b6001840154611ce2908461383e565b60018501555b818015611cf25750805b15611d185760038601548454611d129164e8d4a51000916114d391613898565b60028501555b50504260038301819055600690920191909155505060016002555050505050565b600280541415611d7e576040805162461bcd60e51b815260206004820152601f6024820152600080516020613f6d833981519152604482015290519081900360640190fd5b60028081905550600060088281548110611d9457fe5b60009182526020808320858452600a82526040808520338087529352909320600181015481546006909402909401945092611de492611dd29161383e565b84546001600160a01b03169190613b3e565b80546040805191825251849133917fbb757047c2b5f3974fe26b7c10f732e7bce710b0952a71082702781e62ae05959181900360200190a3805415611e395780546005830154611e33916135cf565b60058301555b6000808255600180830182905560028084018390556005840183905560079093019190915590555050565b60085460005b81811015611e8357611e7b816119ef565b600101611e6a565b5050565b6000546001600160a01b03163314611ed4576040805162461bcd60e51b81526020600482018190526024820152600080516020613fae833981519152604482015290519081900360640190fd5b8015611ee257611ee2611e64565b611f198261158060088681548110611ef657fe5b9060005260206000209060060201600101546013546135cf90919063ffffffff16565b6013819055508160088481548110611f2d57fe5b906000526020600020906006020160010181905550505050565b600f5462010000900461ffff1681565b6000546001600160a01b03163314611fa4576040805162461bcd60e51b81526020600482018190526024820152600080516020613fae833981519152604482015290519081900360640190fd5b600f805461ffff909216620100000263ffff000019909216919091179055565b60008060088481548110611fd457fe5b60009182526020808320878452600a825260408085206001600160a01b03891686529092529220600360069092029092019081015460028201549193509043118015612024575060008360050154115b1561208a5760006120398460020154436123b1565b905060006120606013546114d387600101546114cd6007548761389890919063ffffffff16565b90506120856114fe86600501546114d364e8d4a510008561389890919063ffffffff16565b925050505b600482015460009061209b90613933565b905060006120c7846002015461154764e8d4a510006114d387896000015461389890919063ffffffff16565b905060006120d58383613898565b90506120fb60646114d38361158089600501548a600701546135cf90919063ffffffff16565b96505050505050505b92915050565b6000546001600160a01b03163314612157576040805162461bcd60e51b81526020600482018190526024820152600080516020613fae833981519152604482015290519081900360640190fd5b600b55565b6000818152600a60209081526040808320338452909152902060018101548154016121c0576040805162461bcd60e51b815260206004820152600f60248201526e6e6f207374616b6520746f6b656e7360881b604482015290519081900360640190fd5b600f54604080516370a0823160e01b81523360048201529051600092600160201b90046001600160a01b0316916370a08231916024808301926020929190829003018186803b15801561221257600080fd5b505afa158015612226573d6000803e3d6000fd5b505050506040513d602081101561223c57600080fd5b505190508061226c576040805162461bcd60e51b8152602060048201526000602482015290519081900360640190fd5b60048201546122a45760008381526012602090815260408220805460018101825590835291200180546001600160a01b031916331790555b6004820154600f5462010000900461ffff1603808210156122c25750805b60006122d184600301546132e7565b905080156122e3576122e38533613305565b600f5460408051632f745c5960e01b815233600482015260001990940160248501819052905190936000926001600160a01b03600160201b9091041691632f745c5991604480820192602092909190829003018186803b15801561234657600080fd5b505afa15801561235a573d6000803e3d6000fd5b505050506040513d602081101561237057600080fd5b5051905061237e8682613618565b50600082116122e3574284600601819055505050505050565b600a81565b60075481565b6000546001600160a01b031681565b600060065482116123d2576123cb600a6114cd84866135cf565b9050612104565b60065483106123e5576123cb82846135cf565b6123cb6123fd600654846135cf90919063ffffffff16565b611580600a6114cd876006546135cf90919063ffffffff16565b600a602052816000526040600020602052806000526040600020600091509150508060000154908060010154908060020154908060030154908060050154908060060154908060070154905087565b6000806008848154811061247657fe5b60009182526020808320878452600a825260408085206001600160a01b038916865290925292206003600690920290920190810154600282015491935090431180156124c6575060008360050154115b1561252c5760006124db8460020154436123b1565b905060006125026013546114d387600101546114cd6007548761389890919063ffffffff16565b90506125276114fe86600501546114d364e8d4a510008561389890919063ffffffff16565b925050505b600482015460009061253d90613933565b90506000612569846002015461154764e8d4a510006114d387896000015461389890919063ffffffff16565b9050600061259560646114d387600501546115478960070154611580888a61389890919063ffffffff16565b90506120fb828261383e565b600e5481565b6002805414156125ec576040805162461bcd60e51b815260206004820152601f6024820152600080516020613f6d833981519152604482015290519081900360640190fd5b600280556000546001600160a01b0316331461263d576040805162461bcd60e51b81526020600482018190526024820152600080516020613fae833981519152604482015290519081900360640190fd5b600f54604080516370a0823160e01b81523060048201529051600092600160201b90046001600160a01b0316916370a08231916024808301926020929190829003018186803b15801561268f57600080fd5b505afa1580156126a3573d6000803e3d6000fd5b505050506040513d60208110156126b957600080fd5b5051905060005b818110156127d457600f5460408051632f745c5960e01b8152306004820152602481018490529051600092600160201b90046001600160a01b031691632f745c59916044808301926020929190829003018186803b15801561272157600080fd5b505afa158015612735573d6000803e3d6000fd5b505050506040513d602081101561274b57600080fd5b5051600f5460408051632142170760e11b8152306004820152336024820152604481018490529051929350600160201b9091046001600160a01b0316916342842e0e9160648082019260009290919082900301818387803b1580156127af57600080fd5b505af11580156127c3573d6000803e3d6000fd5b5050600190930192506126c0915050565b50506001600255565b6000818152601260205260409020545b919050565b6000546001600160a01b0316331461283f576040805162461bcd60e51b81526020600482018190526024820152600080516020613fae833981519152604482015290519081900360640190fd5b600755565b6000806008848154811061285457fe5b60009182526020808320878452600a825260408085206001600160a01b038916865290925292206003600690920290920190810154600282015491935090431180156128a4575060008360050154115b1561290a5760006128b98460020154436123b1565b905060006128e06013546114d387600101546114cd6007548761389890919063ffffffff16565b90506129056114fe86600501546114d364e8d4a510008561389890919063ffffffff16565b925050505b612932826002015461154764e8d4a510006114d385876000015461389890919063ffffffff16565b9695505050505050565b600b5481565b60008060005b600854811015612b025760006008828154811061296157fe5b9060005260206000209060060201905060008160030154905060005b600084815260126020526040902054811015612af7576000848152600a60209081526040808320601290925282208054839190859081106129ba57fe5b60009182526020808320909101546001600160a01b0316835282019290925260400190206002850154909150431180156129f8575060008460050154115b15612a65576000612a0d8560020154436123b1565b90506000612a346013546114d388600101546114cd6007548761389890919063ffffffff16565b9050612a60612a5987600501546114d364e8d4a510008561389890919063ffffffff16565b869061383e565b945050505b6004810154600090612a7690613933565b90506000612aa2836002015461154764e8d4a510006114d389886000015461389890919063ffffffff16565b90506000612ab08383613898565b90506000612ad860646114d38461158089600501548a600701546135cf90919063ffffffff16565b9050612ae48a8261383e565b9950506001909401935061297d92505050565b505050600101612948565b50905090565b60008060005b600854811015612b0257600060088281548110612b2757fe5b9060005260206000209060060201905060008160030154905060005b600084815260126020526040902054811015612cc5576000848152600a6020908152604080832060129092528220805483919085908110612b8057fe5b60009182526020808320909101546001600160a01b0316835282019290925260400190206011546006820154919250439190910310612cbc57836002015443118015612bd0575060008460050154115b15612c36576000612be58560020154436123b1565b90506000612c0c6013546114d388600101546114cd6007548761389890919063ffffffff16565b9050612c31612a5987600501546114d364e8d4a510008561389890919063ffffffff16565b945050505b6004810154600090612c4790613933565b90506000612c73836002015461154764e8d4a510006114d389886000015461389890919063ffffffff16565b90506000612c818383613898565b90506000612ca960646114d38461158089600501548a600701546135cf90919063ffffffff16565b9050612cb58a8261383e565b9950505050505b50600101612b43565b505050600101612b0e565b600f54600160201b90046001600160a01b031681565b6000546001600160a01b03163314612d33576040805162461bcd60e51b81526020600482018190526024820152600080516020613fae833981519152604482015290519081900360640190fd5b600e55565b6000546001600160a01b03163314612d85576040805162461bcd60e51b81526020600482018190526024820152600080516020613fae833981519152604482015290519081900360640190fd5b600d55565b6000546001600160a01b03163314612dd7576040805162461bcd60e51b81526020600482018190526024820152600080516020613fae833981519152604482015290519081900360640190fd5b600c55565b600060088281548110612deb57fe5b60009182526020808320858452600a825260408085203386529092529220600481015460069092029092019250612e43576040805162461bcd60e51b8152602060048201526000602482015290519081900360640190fd5b6000612e5282600301546132e7565b90508015612e6457612e648433613305565b60048201805460001981019160009183908110612e7d57fe5b90600052602060002001549050612e948682613477565b83600401805480612ea157fe5b600190038181906000526020600020016000905590556001856004015403856004018190555050506000826004018054905011612e6457426006830155600482015461301f57815460018301819055600083556005840154612f02916135cf565b60058401556000805b600086815260126020526040902054811015612f67576000868152601260205260409020805482908110612f3b57fe5b6000918252602090912001546001600160a01b0316331415612f5f57809150612f67565b600101612f0b565b50600085815260126020526040902080546000198101908110612f8657fe5b60009182526020808320909101548783526012909152604090912080546001600160a01b039092169183908110612fb957fe5b600091825260208083209190910180546001600160a01b0319166001600160a01b039490941693909317909255868152601290915260409020805480612ffb57fe5b600082815260209020810160001990810180546001600160a01b0319169055019055505b50505050565b600c5481565b600d5481565b60006008838154811061304057fe5b60009182526020808320868452600a825260408085203386529092529083206003810154600690930290910193509190613079906132e7565b9050600061308d8360040180549050613b90565b90508180156130995750805b156130a8576130a88633613305565b83546130bf906001600160a01b0316333088613ba8565b83546003546001600160a01b03908116911614156130e8576009546130e4908661383e565b6009555b801561312657600183015483546131049187916115809161383e565b83556005840154613115908661383e565b60058501556000600184015561313b565b6001830154613135908661383e565b60018401555b8180156131455750805b1561316b57600384015483546131659164e8d4a51000916114d391613898565b60028401555b6004546001600160a01b03166340c10f193361318888600a613898565b6040518363ffffffff1660e01b815260040180836001600160a01b0316815260200182815260200192505050602060405180830381600087803b1580156131ce57600080fd5b505af11580156131e2573d6000803e3d6000fd5b505050506040513d60208110156131f857600080fd5b505042600384018190556006840155604080518681529051879133917f90890809c654f11d6e72a28fa60149770a0d11ec6c92319d6ceb2bb0a4ea1a159181900360200190a3505050505050565b6001546001600160a01b031681565b611aaa8133613305565b600f5461ffff1681565b6005546001600160a01b031681565b6000546001600160a01b031633146132c5576040805162461bcd60e51b81526020600482018190526024820152600080516020613fae833981519152604482015290519081900360640190fd5b600580546001600160a01b0319166001600160a01b0392909216919091179055565b6000600b5482420311156132fd575060016127ed565b506000919050565b60006008838154811061331457fe5b60009182526020808320868452600a825260408085206001600160a01b03881686529092529083206003810154600690930290910193509190613356906132e7565b90508015610d675760038301546005840154156133ce57600061337d8560020154436123b1565b905060006133a46013546114d388600101546114cd6007548761389890919063ffffffff16565b90506133c96114fe87600501546114d364e8d4a510008561389890919063ffffffff16565b925050505b60048301546000906133df90613933565b9050600061340b856002015461154764e8d4a510006114d3878a6000015461389890919063ffffffff16565b905060006134198383613898565b600787015490915061342b908261383e565b60078701558115613440576134408883613983565b436002880155600387015486546134619164e8d4a51000916114d391613898565b6002870155505042600385015550505050505050565b60008181526010602052604090205460ff16151560011461349757600080fd5b600f54604080516323b872dd60e01b8152306004820152336024820152604481018490529051600160201b9092046001600160a01b0316916323b872dd9160648082019260009290919082900301818387803b1580156134f657600080fd5b505af115801561350a573d6000803e3d6000fd5b5050600f5460408051630a7c981760e31b8152600481018690526000602482018190529151600160201b9093046001600160a01b031694506353e4c0b893506044808201939182900301818387803b15801561356557600080fd5b505af1158015613579573d6000803e3d6000fd5b505050600082815260106020908152604091829020805460ff191690558151848152915185935033927fd9ccb4973c95d201bc1724ce7e7f19f8e0835e571f58bf8b6a0de82084f0574f92908290030190a35050565b600061361183836040518060400160405280601e81526020017f536166654d6174683a207375627472616374696f6e206f766572666c6f770000815250613c02565b9392505050565b60008181526010602052604090205460ff161561366e576040805162461bcd60e51b815260206004820152600f60248201526e185b1c9958591e48189bdbdcdd1959608a1b604482015290519081900360640190fd5b600f54604080516323b872dd60e01b8152336004820152306024820152604481018490529051600160201b9092046001600160a01b0316916323b872dd9160648082019260009290919082900301818387803b1580156136cd57600080fd5b505af11580156136e1573d6000803e3d6000fd5b5050600f5460408051630a7c981760e31b815260048101869052600160248201529051600160201b9092046001600160a01b031693506353e4c0b8925060448082019260009290919082900301818387803b15801561373f57600080fd5b505af1158015613753573d6000803e3d6000fd5b5050506000828152601060205260408120805460ff1916600117905560088054919250908490811061378157fe5b60009182526020808320868452600a825260408085203386529092529220600181015460069092029092019250156137d657600181015480825560058301546137c99161383e565b6005830155600060018201555b600480820180546001818101835560009283526020928390209091018690559184018054909201909155604080518581529051869233927faadc628cb4fd3bb7a62795eb460290459458bdc6f387ffde727c740f42c18337929081900390910190a350505050565b600082820183811015613611576040805162461bcd60e51b815260206004820152601b60248201527f536166654d6174683a206164646974696f6e206f766572666c6f770000000000604482015290519081900360640190fd5b6000826138a757506000612104565b828202828482816138b457fe5b04146136115760405162461bcd60e51b8152600401808060200182810382526021815260200180613f8d6021913960400191505060405180910390fd5b600061361183836040518060400160405280601a81526020017f536166654d6174683a206469766973696f6e206279207a65726f000000000000815250613c99565b600f5460009061ffff16821161394b575060006127ed565b600f5460009061396690849061ffff908116600101166135cf565b9050613611600d54611580600e548461389890919063ffffffff16565b600554604080516370a0823160e01b815230600482015290516000926001600160a01b0316916370a08231916024808301926020929190829003018186803b1580156139ce57600080fd5b505afa1580156139e2573d6000803e3d6000fd5b505050506040513d60208110156139f857600080fd5b50516005546003549192506001600160a01b0391821691161415613a2e57600954811115613a2a576009549003613a2e565b5060005b80821115613abe576005546040805163a9059cbb60e01b81526001600160a01b038681166004830152602482018590529151919092169163a9059cbb9160448083019260209291908290030181600087803b158015613a8c57600080fd5b505af1158015613aa0573d6000803e3d6000fd5b505050506040513d6020811015613ab657600080fd5b50610ae19050565b6005546040805163a9059cbb60e01b81526001600160a01b038681166004830152602482018690529151919092169163a9059cbb9160448083019260209291908290030181600087803b158015613b1457600080fd5b505af1158015613b28573d6000803e3d6000fd5b505050506040513d6020811015610d6757600080fd5b604080516001600160a01b038416602482015260448082018490528251808303909101815260649091019091526020810180516001600160e01b031663a9059cbb60e01b179052610ae1908490613cfe565b600f5460009061ffff1682106132fd575060016127ed565b604080516001600160a01b0380861660248301528416604482015260648082018490528251808303909101815260849091019091526020810180516001600160e01b03166323b872dd60e01b17905261301f908590613cfe565b60008184841115613c915760405162461bcd60e51b81526004018080602001828103825283818151815260200191508051906020019080838360005b83811015613c56578181015183820152602001613c3e565b50505050905090810190601f168015613c835780820380516001836020036101000a031916815260200191505b509250505060405180910390fd5b505050900390565b60008183613ce85760405162461bcd60e51b8152602060048201818152835160248401528351909283926044909101919085019080838360008315613c56578181015183820152602001613c3e565b506000838581613cf457fe5b0495945050505050565b6060613d53826040518060400160405280602081526020017f5361666545524332303a206c6f772d6c6576656c2063616c6c206661696c6564815250856001600160a01b0316613daf9092919063ffffffff16565b805190915015610ae157808060200190516020811015613d7257600080fd5b5051610ae15760405162461bcd60e51b815260040180806020018281038252602a815260200180613fce602a913960400191505060405180910390fd5b6060613dbe8484600085613dc6565b949350505050565b6060613dd185613f33565b613e22576040805162461bcd60e51b815260206004820152601d60248201527f416464726573733a2063616c6c20746f206e6f6e2d636f6e7472616374000000604482015290519081900360640190fd5b60006060866001600160a01b031685876040518082805190602001908083835b60208310613e615780518252601f199092019160209182019101613e42565b6001836020036101000a03801982511681845116808217855250505050505090500191505060006040518083038185875af1925050503d8060008114613ec3576040519150601f19603f3d011682016040523d82523d6000602084013e613ec8565b606091505b50915091508115613edc579150613dbe9050565b805115613eec5780518082602001fd5b60405162461bcd60e51b8152602060048201818152865160248401528651879391928392604401919085019080838360008315613c56578181015183820152602001613c3e565b6000813f7fc5d2460186f7233c927e7db2dcc703c0e500b653ca82273b7bfad8045d85a470818114801590613dbe57505015159291505056fe5265656e7472616e637947756172643a207265656e7472616e742063616c6c00536166654d6174683a206d756c7469706c69636174696f6e206f766572666c6f774f776e61626c653a2063616c6c6572206973206e6f7420746865206f776e65725361666545524332303a204552433230206f7065726174696f6e20646964206e6f742073756363656564a2646970667358221220e4f404e82e9c82090aa7b925767a8335408a80dde34fabc4415620057640b3c064736f6c634300060c0033",
  "devdoc": {
    "kind": "dev",
    "methods": {},
    "version": 1
  },
  "userdoc": {
    "kind": "user",
    "methods": {},
    "version": 1
  },
  "storageLayout": {
    "storage": [
      {
        "astId": 4491,
        "contract": "contracts/AnnexBoostFarm.sol:AnnexBoostFarm",
        "label": "owner",
        "offset": 0,
        "slot": "0",
        "type": "t_address"
      },
      {
        "astId": 4493,
        "contract": "contracts/AnnexBoostFarm.sol:AnnexBoostFarm",
        "label": "pendingOwner",
        "offset": 0,
        "slot": "1",
        "type": "t_address"
      },
      {
        "astId": 4617,
        "contract": "contracts/AnnexBoostFarm.sol:AnnexBoostFarm",
        "label": "_status",
        "offset": 0,
        "slot": "2",
        "type": "t_uint256"
      },
      {
        "astId": 54,
        "contract": "contracts/AnnexBoostFarm.sol:AnnexBoostFarm",
        "label": "annex",
        "offset": 0,
        "slot": "3",
        "type": "t_address"
      },
      {
        "astId": 56,
        "contract": "contracts/AnnexBoostFarm.sol:AnnexBoostFarm",
        "label": "vAnn",
        "offset": 0,
        "slot": "4",
        "type": "t_address"
      },
      {
        "astId": 58,
        "contract": "contracts/AnnexBoostFarm.sol:AnnexBoostFarm",
        "label": "rewardToken",
        "offset": 0,
        "slot": "5",
        "type": "t_address"
      },
      {
        "astId": 60,
        "contract": "contracts/AnnexBoostFarm.sol:AnnexBoostFarm",
        "label": "bonusEndBlock",
        "offset": 0,
        "slot": "6",
        "type": "t_uint256"
      },
      {
        "astId": 62,
        "contract": "contracts/AnnexBoostFarm.sol:AnnexBoostFarm",
        "label": "rewardPerBlock",
        "offset": 0,
        "slot": "7",
        "type": "t_uint256"
      },
      {
        "astId": 71,
        "contract": "contracts/AnnexBoostFarm.sol:AnnexBoostFarm",
        "label": "poolInfo",
        "offset": 0,
        "slot": "8",
        "type": "t_array(t_struct(PoolInfo)52_storage)dyn_storage"
      },
      {
        "astId": 73,
        "contract": "contracts/AnnexBoostFarm.sol:AnnexBoostFarm",
        "label": "lpSupplyOfAnnPool",
        "offset": 0,
        "slot": "9",
        "type": "t_uint256"
      },
      {
        "astId": 79,
        "contract": "contracts/AnnexBoostFarm.sol:AnnexBoostFarm",
        "label": "userInfo",
        "offset": 0,
        "slot": "10",
        "type": "t_mapping(t_uint256,t_mapping(t_address,t_struct(UserInfo)39_storage))"
      },
      {
        "astId": 82,
        "contract": "contracts/AnnexBoostFarm.sol:AnnexBoostFarm",
        "label": "claimBaseRewardTime",
        "offset": 0,
        "slot": "11",
        "type": "t_uint256"
      },
      {
        "astId": 85,
        "contract": "contracts/AnnexBoostFarm.sol:AnnexBoostFarm",
        "label": "unstakableTime",
        "offset": 0,
        "slot": "12",
        "type": "t_uint256"
      },
      {
        "astId": 88,
        "contract": "contracts/AnnexBoostFarm.sol:AnnexBoostFarm",
        "label": "initialBoostMultiplier",
        "offset": 0,
        "slot": "13",
        "type": "t_uint256"
      },
      {
        "astId": 91,
        "contract": "contracts/AnnexBoostFarm.sol:AnnexBoostFarm",
        "label": "boostMultiplierFactor",
        "offset": 0,
        "slot": "14",
        "type": "t_uint256"
      },
      {
        "astId": 94,
        "contract": "contracts/AnnexBoostFarm.sol:AnnexBoostFarm",
        "label": "minimumValidBoostCount",
        "offset": 0,
        "slot": "15",
        "type": "t_uint16"
      },
      {
        "astId": 97,
        "contract": "contracts/AnnexBoostFarm.sol:AnnexBoostFarm",
        "label": "maximumBoostCount",
        "offset": 2,
        "slot": "15",
        "type": "t_uint16"
      },
      {
        "astId": 99,
        "contract": "contracts/AnnexBoostFarm.sol:AnnexBoostFarm",
        "label": "boostFactor",
        "offset": 4,
        "slot": "15",
        "type": "t_contract(IBoostToken)3589"
      },
      {
        "astId": 103,
        "contract": "contracts/AnnexBoostFarm.sol:AnnexBoostFarm",
        "label": "isBoosted",
        "offset": 0,
        "slot": "16",
        "type": "t_mapping(t_uint256,t_bool)"
      },
      {
        "astId": 108,
        "contract": "contracts/AnnexBoostFarm.sol:AnnexBoostFarm",
        "label": "claimBoostRewardTime",
        "offset": 0,
        "slot": "17",
        "type": "t_uint256"
      },
      {
        "astId": 113,
        "contract": "contracts/AnnexBoostFarm.sol:AnnexBoostFarm",
        "label": "boostedUsers",
        "offset": 0,
        "slot": "18",
        "type": "t_mapping(t_uint256,t_array(t_address)dyn_storage)"
      },
      {
        "astId": 116,
        "contract": "contracts/AnnexBoostFarm.sol:AnnexBoostFarm",
        "label": "totalAllocPoint",
        "offset": 0,
        "slot": "19",
        "type": "t_uint256"
      },
      {
        "astId": 118,
        "contract": "contracts/AnnexBoostFarm.sol:AnnexBoostFarm",
        "label": "startBlock",
        "offset": 0,
        "slot": "20",
        "type": "t_uint256"
      }
    ],
    "types": {
      "t_address": {
        "encoding": "inplace",
        "label": "address",
        "numberOfBytes": "20"
      },
      "t_array(t_address)dyn_storage": {
        "base": "t_address",
        "encoding": "dynamic_array",
        "label": "address[]",
        "numberOfBytes": "32"
      },
      "t_array(t_struct(PoolInfo)52_storage)dyn_storage": {
        "base": "t_struct(PoolInfo)52_storage",
        "encoding": "dynamic_array",
        "label": "struct AnnexBoostFarm.PoolInfo[]",
        "numberOfBytes": "32"
      },
      "t_array(t_uint256)dyn_storage": {
        "base": "t_uint256",
        "encoding": "dynamic_array",
        "label": "uint256[]",
        "numberOfBytes": "32"
      },
      "t_bool": {
        "encoding": "inplace",
        "label": "bool",
        "numberOfBytes": "1"
      },
      "t_contract(IBoostToken)3589": {
        "encoding": "inplace",
        "label": "contract IBoostToken",
        "numberOfBytes": "20"
      },
      "t_contract(IERC20)3679": {
        "encoding": "inplace",
        "label": "contract IERC20",
        "numberOfBytes": "20"
      },
      "t_mapping(t_address,t_struct(UserInfo)39_storage)": {
        "encoding": "mapping",
        "key": "t_address",
        "label": "mapping(address => struct AnnexBoostFarm.UserInfo)",
        "numberOfBytes": "32",
        "value": "t_struct(UserInfo)39_storage"
      },
      "t_mapping(t_uint256,t_array(t_address)dyn_storage)": {
        "encoding": "mapping",
        "key": "t_uint256",
        "label": "mapping(uint256 => address[])",
        "numberOfBytes": "32",
        "value": "t_array(t_address)dyn_storage"
      },
      "t_mapping(t_uint256,t_bool)": {
        "encoding": "mapping",
        "key": "t_uint256",
        "label": "mapping(uint256 => bool)",
        "numberOfBytes": "32",
        "value": "t_bool"
      },
      "t_mapping(t_uint256,t_mapping(t_address,t_struct(UserInfo)39_storage))": {
        "encoding": "mapping",
        "key": "t_uint256",
        "label": "mapping(uint256 => mapping(address => struct AnnexBoostFarm.UserInfo))",
        "numberOfBytes": "32",
        "value": "t_mapping(t_address,t_struct(UserInfo)39_storage)"
      },
      "t_struct(PoolInfo)52_storage": {
        "encoding": "inplace",
        "label": "struct AnnexBoostFarm.PoolInfo",
        "members": [
          {
            "astId": 41,
            "contract": "contracts/AnnexBoostFarm.sol:AnnexBoostFarm",
            "label": "lpToken",
            "offset": 0,
            "slot": "0",
            "type": "t_contract(IERC20)3679"
          },
          {
            "astId": 43,
            "contract": "contracts/AnnexBoostFarm.sol:AnnexBoostFarm",
            "label": "allocPoint",
            "offset": 0,
            "slot": "1",
            "type": "t_uint256"
          },
          {
            "astId": 45,
            "contract": "contracts/AnnexBoostFarm.sol:AnnexBoostFarm",
            "label": "lastRewardBlock",
            "offset": 0,
            "slot": "2",
            "type": "t_uint256"
          },
          {
            "astId": 47,
            "contract": "contracts/AnnexBoostFarm.sol:AnnexBoostFarm",
            "label": "accRewardPerShare",
            "offset": 0,
            "slot": "3",
            "type": "t_uint256"
          },
          {
            "astId": 49,
            "contract": "contracts/AnnexBoostFarm.sol:AnnexBoostFarm",
            "label": "totalBoostCount",
            "offset": 0,
            "slot": "4",
            "type": "t_uint256"
          },
          {
            "astId": 51,
            "contract": "contracts/AnnexBoostFarm.sol:AnnexBoostFarm",
            "label": "rewardEligibleSupply",
            "offset": 0,
            "slot": "5",
            "type": "t_uint256"
          }
        ],
        "numberOfBytes": "192"
      },
      "t_struct(UserInfo)39_storage": {
        "encoding": "inplace",
        "label": "struct AnnexBoostFarm.UserInfo",
        "members": [
          {
            "astId": 23,
            "contract": "contracts/AnnexBoostFarm.sol:AnnexBoostFarm",
            "label": "amount",
            "offset": 0,
            "slot": "0",
            "type": "t_uint256"
          },
          {
            "astId": 25,
            "contract": "contracts/AnnexBoostFarm.sol:AnnexBoostFarm",
            "label": "pendingAmount",
            "offset": 0,
            "slot": "1",
            "type": "t_uint256"
          },
          {
            "astId": 27,
            "contract": "contracts/AnnexBoostFarm.sol:AnnexBoostFarm",
            "label": "rewardDebt",
            "offset": 0,
            "slot": "2",
            "type": "t_uint256"
          },
          {
            "astId": 29,
            "contract": "contracts/AnnexBoostFarm.sol:AnnexBoostFarm",
            "label": "depositedDate",
            "offset": 0,
            "slot": "3",
            "type": "t_uint256"
          },
          {
            "astId": 32,
            "contract": "contracts/AnnexBoostFarm.sol:AnnexBoostFarm",
            "label": "boostFactors",
            "offset": 0,
            "slot": "4",
            "type": "t_array(t_uint256)dyn_storage"
          },
          {
            "astId": 34,
            "contract": "contracts/AnnexBoostFarm.sol:AnnexBoostFarm",
            "label": "boostRewardDebt",
            "offset": 0,
            "slot": "5",
            "type": "t_uint256"
          },
          {
            "astId": 36,
            "contract": "contracts/AnnexBoostFarm.sol:AnnexBoostFarm",
            "label": "boostedDate",
            "offset": 0,
            "slot": "6",
            "type": "t_uint256"
          },
          {
            "astId": 38,
            "contract": "contracts/AnnexBoostFarm.sol:AnnexBoostFarm",
            "label": "accBoostReward",
            "offset": 0,
            "slot": "7",
            "type": "t_uint256"
          }
        ],
        "numberOfBytes": "256"
      },
      "t_uint16": {
        "encoding": "inplace",
        "label": "uint16",
        "numberOfBytes": "2"
      },
      "t_uint256": {
        "encoding": "inplace",
        "label": "uint256",
        "numberOfBytes": "32"
      }
    }
  }
}