{
  "address": "0x86C589dded5FE018AB792282389c8C1F7d6ffd1c",
  "abi": [
    {
      "inputs": [
        {
          "internalType": "address",
          "name": "_annex",
          "type": "address"
        },
        {
          "internalType": "address",
          "name": "_rewardToken",
          "type": "address"
        },
        {
          "internalType": "address",
          "name": "_vAnn",
          "type": "address"
        },
        {
          "internalType": "address",
          "name": "_boost",
          "type": "address"
        },
        {
          "internalType": "uint256",
          "name": "_rewardPerBlock",
          "type": "uint256"
        },
        {
          "internalType": "uint256",
          "name": "_startBlock",
          "type": "uint256"
        },
        {
          "internalType": "uint256",
          "name": "_bonusEndBlock",
          "type": "uint256"
        }
      ],
      "stateMutability": "nonpayable",
      "type": "constructor"
    },
    {
      "anonymous": false,
      "inputs": [
        {
          "indexed": true,
          "internalType": "address",
          "name": "user",
          "type": "address"
        },
        {
          "indexed": true,
          "internalType": "uint256",
          "name": "pid",
          "type": "uint256"
        },
        {
          "indexed": false,
          "internalType": "uint256",
          "name": "tokenId",
          "type": "uint256"
        }
      ],
      "name": "Boost",
      "type": "event"
    },
    {
      "anonymous": false,
      "inputs": [
        {
          "indexed": true,
          "internalType": "address",
          "name": "user",
          "type": "address"
        },
        {
          "indexed": true,
          "internalType": "uint256",
          "name": "pid",
          "type": "uint256"
        },
        {
          "indexed": false,
          "internalType": "uint256",
          "name": "amount",
          "type": "uint256"
        }
      ],
      "name": "Deposit",
      "type": "event"
    },
    {
      "anonymous": false,
      "inputs": [
        {
          "indexed": true,
          "internalType": "address",
          "name": "user",
          "type": "address"
        },
        {
          "indexed": true,
          "internalType": "uint256",
          "name": "pid",
          "type": "uint256"
        },
        {
          "indexed": false,
          "internalType": "uint256",
          "name": "amount",
          "type": "uint256"
        }
      ],
      "name": "EmergencyWithdraw",
      "type": "event"
    },
    {
      "anonymous": false,
      "inputs": [
        {
          "indexed": true,
          "internalType": "address",
          "name": "previousOwner",
          "type": "address"
        },
        {
          "indexed": true,
          "internalType": "address",
          "name": "newOwner",
          "type": "address"
        }
      ],
      "name": "OwnershipTransferred",
      "type": "event"
    },
    {
      "anonymous": false,
      "inputs": [
        {
          "indexed": true,
          "internalType": "address",
          "name": "user",
          "type": "address"
        },
        {
          "indexed": true,
          "internalType": "uint256",
          "name": "pid",
          "type": "uint256"
        },
        {
          "indexed": false,
          "internalType": "uint256",
          "name": "tokenId",
          "type": "uint256"
        }
      ],
      "name": "UnBoost",
      "type": "event"
    },
    {
      "anonymous": false,
      "inputs": [
        {
          "indexed": true,
          "internalType": "address",
          "name": "user",
          "type": "address"
        },
        {
          "indexed": true,
          "internalType": "uint256",
          "name": "pid",
          "type": "uint256"
        },
        {
          "indexed": false,
          "internalType": "uint256",
          "name": "amount",
          "type": "uint256"
        }
      ],
      "name": "Withdraw",
      "type": "event"
    },
    {
      "inputs": [],
      "name": "BONUS_MULTIPLIER",
      "outputs": [
        {
          "internalType": "uint256",
          "name": "",
          "type": "uint256"
        }
      ],
      "stateMutability": "view",
      "type": "function"
    },
    {
      "inputs": [],
      "name": "VANN_RATE",
      "outputs": [
        {
          "internalType": "uint256",
          "name": "",
          "type": "uint256"
        }
      ],
      "stateMutability": "view",
      "type": "function"
    },
    {
      "inputs": [
        {
          "internalType": "uint256",
          "name": "_allocPoint",
          "type": "uint256"
        },
        {
          "internalType": "contract IERC20",
          "name": "_lpToken",
          "type": "address"
        },
        {
          "internalType": "bool",
          "name": "_withUpdate",
          "type": "bool"
        }
      ],
      "name": "add",
      "outputs": [],
      "stateMutability": "nonpayable",
      "type": "function"
    },
    {
      "inputs": [],
      "name": "annex",
      "outputs": [
        {
          "internalType": "address",
          "name": "",
          "type": "address"
        }
      ],
      "stateMutability": "view",
      "type": "function"
    },
    {
      "inputs": [],
      "name": "bonusEndBlock",
      "outputs": [
        {
          "internalType": "uint256",
          "name": "",
          "type": "uint256"
        }
      ],
      "stateMutability": "view",
      "type": "function"
    },
    {
      "inputs": [
        {
          "internalType": "uint256",
          "name": "_pid",
          "type": "uint256"
        },
        {
          "internalType": "uint256",
          "name": "_tokenId",
          "type": "uint256"
        }
      ],
      "name": "boost",
      "outputs": [],
      "stateMutability": "nonpayable",
      "type": "function"
    },
    {
      "inputs": [
        {
          "internalType": "uint256",
          "name": "_pid",
          "type": "uint256"
        },
        {
          "internalType": "uint256[]",
          "name": "_tokenIds",
          "type": "uint256[]"
        }
      ],
      "name": "boostAll",
      "outputs": [],
      "stateMutability": "nonpayable",
      "type": "function"
    },
    {
      "inputs": [],
      "name": "boostFactor",
      "outputs": [
        {
          "internalType": "contract IBoostToken",
          "name": "",
          "type": "address"
        }
      ],
      "stateMutability": "view",
      "type": "function"
    },
    {
      "inputs": [],
      "name": "boostMultiplierFactor",
      "outputs": [
        {
          "internalType": "uint256",
          "name": "",
          "type": "uint256"
        }
      ],
      "stateMutability": "view",
      "type": "function"
    },
    {
      "inputs": [
        {
          "internalType": "uint256",
          "name": "_pid",
          "type": "uint256"
        },
        {
          "internalType": "uint256",
          "name": "tokenAmount",
          "type": "uint256"
        }
      ],
      "name": "boostPartially",
      "outputs": [],
      "stateMutability": "nonpayable",
      "type": "function"
    },
    {
      "inputs": [],
      "name": "claimBaseRewardTime",
      "outputs": [
        {
          "internalType": "uint256",
          "name": "",
          "type": "uint256"
        }
      ],
      "stateMutability": "view",
      "type": "function"
    },
    {
      "inputs": [
        {
          "internalType": "uint256",
          "name": "_pid",
          "type": "uint256"
        }
      ],
      "name": "claimBaseRewards",
      "outputs": [],
      "stateMutability": "nonpayable",
      "type": "function"
    },
    {
      "inputs": [
        {
          "internalType": "uint256",
          "name": "_pid",
          "type": "uint256"
        }
      ],
      "name": "claimBoostReward",
      "outputs": [],
      "stateMutability": "nonpayable",
      "type": "function"
    },
    {
      "inputs": [],
      "name": "claimBoostRewardTime",
      "outputs": [
        {
          "internalType": "uint256",
          "name": "",
          "type": "uint256"
        }
      ],
      "stateMutability": "view",
      "type": "function"
    },
    {
      "inputs": [],
      "name": "claimOwnership",
      "outputs": [],
      "stateMutability": "nonpayable",
      "type": "function"
    },
    {
      "inputs": [
        {
          "internalType": "uint256",
          "name": "_pid",
          "type": "uint256"
        },
        {
          "internalType": "uint256",
          "name": "_amount",
          "type": "uint256"
        }
      ],
      "name": "deposit",
      "outputs": [],
      "stateMutability": "nonpayable",
      "type": "function"
    },
    {
      "inputs": [],
      "name": "emergencyNftWithdraw",
      "outputs": [],
      "stateMutability": "nonpayable",
      "type": "function"
    },
    {
      "inputs": [
        {
          "internalType": "uint256",
          "name": "_pid",
          "type": "uint256"
        }
      ],
      "name": "emergencyWithdraw",
      "outputs": [],
      "stateMutability": "nonpayable",
      "type": "function"
    },
    {
      "inputs": [
        {
          "internalType": "uint256",
          "name": "_pid",
          "type": "uint256"
        }
      ],
      "name": "getBoostedUserCount",
      "outputs": [
        {
          "internalType": "uint256",
          "name": "",
          "type": "uint256"
        }
      ],
      "stateMutability": "view",
      "type": "function"
    },
    {
      "inputs": [],
      "name": "getClaimablePendingBoostRewards",
      "outputs": [
        {
          "internalType": "uint256",
          "name": "",
          "type": "uint256"
        }
      ],
      "stateMutability": "view",
      "type": "function"
    },
    {
      "inputs": [
        {
          "internalType": "uint256",
          "name": "_from",
          "type": "uint256"
        },
        {
          "internalType": "uint256",
          "name": "_to",
          "type": "uint256"
        }
      ],
      "name": "getMultiplier",
      "outputs": [
        {
          "internalType": "uint256",
          "name": "",
          "type": "uint256"
        }
      ],
      "stateMutability": "view",
      "type": "function"
    },
    {
      "inputs": [
        {
          "internalType": "uint256",
          "name": "_pid",
          "type": "uint256"
        }
      ],
      "name": "getPoolInfo",
      "outputs": [
        {
          "internalType": "contract IERC20",
          "name": "lpToken",
          "type": "address"
        },
        {
          "internalType": "uint256",
          "name": "lpSupply",
          "type": "uint256"
        },
        {
          "internalType": "uint256",
          "name": "allocPoint",
          "type": "uint256"
        },
        {
          "internalType": "uint256",
          "name": "lastRewardBlock",
          "type": "uint256"
        },
        {
          "internalType": "uint256",
          "name": "accRewardPerShare",
          "type": "uint256"
        },
        {
          "internalType": "uint256",
          "name": "totalBoostCount",
          "type": "uint256"
        },
        {
          "internalType": "uint256",
          "name": "rewardEligibleSupply",
          "type": "uint256"
        }
      ],
      "stateMutability": "view",
      "type": "function"
    },
    {
      "inputs": [],
      "name": "getTotalPendingBoostRewards",
      "outputs": [
        {
          "internalType": "uint256",
          "name": "",
          "type": "uint256"
        }
      ],
      "stateMutability": "view",
      "type": "function"
    },
    {
      "inputs": [
        {
          "internalType": "uint256",
          "name": "_pid",
          "type": "uint256"
        },
        {
          "internalType": "address",
          "name": "_user",
          "type": "address"
        }
      ],
      "name": "getUserInfo",
      "outputs": [
        {
          "internalType": "uint256",
          "name": "amount",
          "type": "uint256"
        },
        {
          "internalType": "uint256",
          "name": "pendingAmount",
          "type": "uint256"
        },
        {
          "internalType": "uint256",
          "name": "rewardDebt",
          "type": "uint256"
        },
        {
          "internalType": "uint256",
          "name": "depositedDate",
          "type": "uint256"
        },
        {
          "internalType": "uint256[]",
          "name": "boostFactors",
          "type": "uint256[]"
        },
        {
          "internalType": "uint256",
          "name": "boostRewardDebt",
          "type": "uint256"
        },
        {
          "internalType": "uint256",
          "name": "boostedDate",
          "type": "uint256"
        },
        {
          "internalType": "uint256",
          "name": "accBoostReward",
          "type": "uint256"
        },
        {
          "internalType": "uint256",
          "name": "accBaseReward",
          "type": "uint256"
        }
      ],
      "stateMutability": "view",
      "type": "function"
    },
    {
      "inputs": [],
      "name": "initialBoostMultiplier",
      "outputs": [
        {
          "internalType": "uint256",
          "name": "",
          "type": "uint256"
        }
      ],
      "stateMutability": "view",
      "type": "function"
    },
    {
      "inputs": [
        {
          "internalType": "uint256",
          "name": "",
          "type": "uint256"
        }
      ],
      "name": "isBoosted",
      "outputs": [
        {
          "internalType": "bool",
          "name": "",
          "type": "bool"
        }
      ],
      "stateMutability": "view",
      "type": "function"
    },
    {
      "inputs": [],
      "name": "massUpdatePools",
      "outputs": [],
      "stateMutability": "nonpayable",
      "type": "function"
    },
    {
      "inputs": [],
      "name": "maximumBoostCount",
      "outputs": [
        {
          "internalType": "uint16",
          "name": "",
          "type": "uint16"
        }
      ],
      "stateMutability": "view",
      "type": "function"
    },
    {
      "inputs": [],
      "name": "minimumValidBoostCount",
      "outputs": [
        {
          "internalType": "uint16",
          "name": "",
          "type": "uint16"
        }
      ],
      "stateMutability": "view",
      "type": "function"
    },
    {
      "inputs": [
        {
          "internalType": "uint256",
          "name": "_pid",
          "type": "uint256"
        },
        {
          "internalType": "address",
          "name": "_sender",
          "type": "address"
        },
        {
          "internalType": "address",
          "name": "_recipient",
          "type": "address"
        },
        {
          "internalType": "uint256",
          "name": "_vannAmount",
          "type": "uint256"
        }
      ],
      "name": "move",
      "outputs": [],
      "stateMutability": "nonpayable",
      "type": "function"
    },
    {
      "inputs": [],
      "name": "owner",
      "outputs": [
        {
          "internalType": "address",
          "name": "",
          "type": "address"
        }
      ],
      "stateMutability": "view",
      "type": "function"
    },
    {
      "inputs": [
        {
          "internalType": "uint256",
          "name": "_pid",
          "type": "uint256"
        },
        {
          "internalType": "address",
          "name": "_user",
          "type": "address"
        }
      ],
      "name": "pendingBaseReward",
      "outputs": [
        {
          "internalType": "uint256",
          "name": "",
          "type": "uint256"
        }
      ],
      "stateMutability": "view",
      "type": "function"
    },
    {
      "inputs": [
        {
          "internalType": "uint256",
          "name": "_pid",
          "type": "uint256"
        },
        {
          "internalType": "address",
          "name": "_user",
          "type": "address"
        }
      ],
      "name": "pendingBoostReward",
      "outputs": [
        {
          "internalType": "uint256",
          "name": "",
          "type": "uint256"
        }
      ],
      "stateMutability": "view",
      "type": "function"
    },
    {
      "inputs": [],
      "name": "pendingOwner",
      "outputs": [
        {
          "internalType": "address",
          "name": "",
          "type": "address"
        }
      ],
      "stateMutability": "view",
      "type": "function"
    },
    {
      "inputs": [
        {
          "internalType": "uint256",
          "name": "_pid",
          "type": "uint256"
        },
        {
          "internalType": "address",
          "name": "_user",
          "type": "address"
        }
      ],
      "name": "pendingReward",
      "outputs": [
        {
          "internalType": "uint256",
          "name": "",
          "type": "uint256"
        }
      ],
      "stateMutability": "view",
      "type": "function"
    },
    {
      "inputs": [],
      "name": "poolLength",
      "outputs": [
        {
          "internalType": "uint256",
          "name": "",
          "type": "uint256"
        }
      ],
      "stateMutability": "view",
      "type": "function"
    },
    {
      "inputs": [],
      "name": "rewardPerBlock",
      "outputs": [
        {
          "internalType": "uint256",
          "name": "",
          "type": "uint256"
        }
      ],
      "stateMutability": "view",
      "type": "function"
    },
    {
      "inputs": [],
      "name": "rewardToken",
      "outputs": [
        {
          "internalType": "address",
          "name": "",
          "type": "address"
        }
      ],
      "stateMutability": "view",
      "type": "function"
    },
    {
      "inputs": [
        {
          "internalType": "uint256",
          "name": "_pid",
          "type": "uint256"
        },
        {
          "internalType": "uint256",
          "name": "_allocPoint",
          "type": "uint256"
        },
        {
          "internalType": "bool",
          "name": "_withUpdate",
          "type": "bool"
        }
      ],
      "name": "set",
      "outputs": [],
      "stateMutability": "nonpayable",
      "type": "function"
    },
    {
      "inputs": [
        {
          "internalType": "uint256",
          "name": "_factor",
          "type": "uint256"
        }
      ],
      "name": "setAccMulFactor",
      "outputs": [],
      "stateMutability": "nonpayable",
      "type": "function"
    },
    {
      "inputs": [
        {
          "internalType": "address",
          "name": "_address",
          "type": "address"
        }
      ],
      "name": "setBoostFactor",
      "outputs": [],
      "stateMutability": "nonpayable",
      "type": "function"
    },
    {
      "inputs": [
        {
          "internalType": "uint256",
          "name": "speed",
          "type": "uint256"
        }
      ],
      "name": "setRewardPerBlock",
      "outputs": [],
      "stateMutability": "nonpayable",
      "type": "function"
    },
    {
      "inputs": [],
      "name": "startBlock",
      "outputs": [
        {
          "internalType": "uint256",
          "name": "",
          "type": "uint256"
        }
      ],
      "stateMutability": "view",
      "type": "function"
    },
    {
      "inputs": [],
      "name": "totalAllocPoint",
      "outputs": [
        {
          "internalType": "uint256",
          "name": "",
          "type": "uint256"
        }
      ],
      "stateMutability": "view",
      "type": "function"
    },
    {
      "inputs": [
        {
          "internalType": "address",
          "name": "newOwner",
          "type": "address"
        },
        {
          "internalType": "bool",
          "name": "direct",
          "type": "bool"
        },
        {
          "internalType": "bool",
          "name": "renounce",
          "type": "bool"
        }
      ],
      "name": "transferOwnership",
      "outputs": [],
      "stateMutability": "nonpayable",
      "type": "function"
    },
    {
      "inputs": [
        {
          "internalType": "uint256",
          "name": "_pid",
          "type": "uint256"
        },
        {
          "internalType": "uint256",
          "name": "_tokenId",
          "type": "uint256"
        }
      ],
      "name": "unBoost",
      "outputs": [],
      "stateMutability": "nonpayable",
      "type": "function"
    },
    {
      "inputs": [
        {
          "internalType": "uint256",
          "name": "_pid",
          "type": "uint256"
        }
      ],
      "name": "unBoostAll",
      "outputs": [],
      "stateMutability": "nonpayable",
      "type": "function"
    },
    {
      "inputs": [
        {
          "internalType": "uint256",
          "name": "_pid",
          "type": "uint256"
        },
        {
          "internalType": "uint256",
          "name": "tokenAmount",
          "type": "uint256"
        }
      ],
      "name": "unBoostPartially",
      "outputs": [],
      "stateMutability": "nonpayable",
      "type": "function"
    },
    {
      "inputs": [],
      "name": "unstakableTime",
      "outputs": [
        {
          "internalType": "uint256",
          "name": "",
          "type": "uint256"
        }
      ],
      "stateMutability": "view",
      "type": "function"
    },
    {
      "inputs": [
        {
          "internalType": "uint256",
          "name": "_claimBaseRewardTime",
          "type": "uint256"
        }
      ],
      "name": "updateClaimBaseRewardTime",
      "outputs": [],
      "stateMutability": "nonpayable",
      "type": "function"
    },
    {
      "inputs": [
        {
          "internalType": "uint256",
          "name": "_claimBoostRewardTime",
          "type": "uint256"
        }
      ],
      "name": "updateClaimBoostRewardTime",
      "outputs": [],
      "stateMutability": "nonpayable",
      "type": "function"
    },
    {
      "inputs": [
        {
          "internalType": "uint256",
          "name": "_initialBoostMultiplier",
          "type": "uint256"
        }
      ],
      "name": "updateInitialBoostMultiplier",
      "outputs": [],
      "stateMutability": "nonpayable",
      "type": "function"
    },
    {
      "inputs": [
        {
          "internalType": "uint16",
          "name": "_count",
          "type": "uint16"
        }
      ],
      "name": "updateMaximumBoostCount",
      "outputs": [],
      "stateMutability": "nonpayable",
      "type": "function"
    },
    {
      "inputs": [
        {
          "internalType": "uint16",
          "name": "_count",
          "type": "uint16"
        }
      ],
      "name": "updateMinimumValidBoostCount",
      "outputs": [],
      "stateMutability": "nonpayable",
      "type": "function"
    },
    {
      "inputs": [
        {
          "internalType": "uint256",
          "name": "_pid",
          "type": "uint256"
        }
      ],
      "name": "updatePool",
      "outputs": [],
      "stateMutability": "nonpayable",
      "type": "function"
    },
    {
      "inputs": [
        {
          "internalType": "address",
          "name": "_reward",
          "type": "address"
        }
      ],
      "name": "updateRewardToken",
      "outputs": [],
      "stateMutability": "nonpayable",
      "type": "function"
    },
    {
      "inputs": [
        {
          "internalType": "uint256",
          "name": "_unstakableTime",
          "type": "uint256"
        }
      ],
      "name": "updateUnstakableTime",
      "outputs": [],
      "stateMutability": "nonpayable",
      "type": "function"
    },
    {
      "inputs": [
        {
          "internalType": "uint256",
          "name": "_boostMultiplierFactor",
          "type": "uint256"
        }
      ],
      "name": "updatedBoostMultiplierFactor",
      "outputs": [],
      "stateMutability": "nonpayable",
      "type": "function"
    },
    {
      "inputs": [
        {
          "internalType": "uint256",
          "name": "",
          "type": "uint256"
        },
        {
          "internalType": "address",
          "name": "",
          "type": "address"
        }
      ],
      "name": "userInfo",
      "outputs": [
        {
          "internalType": "uint256",
          "name": "amount",
          "type": "uint256"
        },
        {
          "internalType": "uint256",
          "name": "pendingAmount",
          "type": "uint256"
        },
        {
          "internalType": "uint256",
          "name": "rewardDebt",
          "type": "uint256"
        },
        {
          "internalType": "uint256",
          "name": "depositedDate",
          "type": "uint256"
        },
        {
          "internalType": "uint256",
          "name": "boostRewardDebt",
          "type": "uint256"
        },
        {
          "internalType": "uint256",
          "name": "boostedDate",
          "type": "uint256"
        },
        {
          "internalType": "uint256",
          "name": "accBoostReward",
          "type": "uint256"
        },
        {
          "internalType": "uint256",
          "name": "accBaseReward",
          "type": "uint256"
        }
      ],
      "stateMutability": "view",
      "type": "function"
    },
    {
      "inputs": [],
      "name": "vAnn",
      "outputs": [
        {
          "internalType": "address",
          "name": "",
          "type": "address"
        }
      ],
      "stateMutability": "view",
      "type": "function"
    },
    {
      "inputs": [
        {
          "internalType": "uint256",
          "name": "_pid",
          "type": "uint256"
        },
        {
          "internalType": "uint256",
          "name": "_amount",
          "type": "uint256"
        }
      ],
      "name": "withdraw",
      "outputs": [],
      "stateMutability": "nonpayable",
      "type": "function"
    }
  ],
  "transactionHash": "0x8c5630cab3fa7d6f78d08c83d59be910d202233f16c74e1ac22926e4124aa73c",
  "args": [
    "0xb75f3F9D35d256a94BBd7A3fC2E16c768E17930E",
    "0x16227D60f7a0e586C66B005219dfc887D13C9531",
    "0x06d0aCC534D7258d0E08C5DAF6916D1de20cbf68",
    "0x60f5bfBDC3f571612734660475cD2C6D2933a2bC",
    "69444",
    17437841,
    17437841
  ],
  "solcInputHash": "85294c607a84f9b97de3871f67ab7838",
  "bytecode": "0x608060405262015180600b556202a300600c556028600d556014600e55600f8054600161ffff199091161763ffff00001916620a000017905562278d00601155600060135564e8d4a5100060155534801561005957600080fd5b506040516200482d3803806200482d833981810160405260e081101561007e57600080fd5b50805160208201516040808401516060850151608086015160a087015160c090970151600080546001600160a01b0319163390811782559551979896979496939592949192917f8be0079c531659141344cd1fd0a4f28419497f9722a3daafe3b4186f6b6457e0908290a36001600255600380546001600160a01b03199081166001600160a01b03998a1617909155600580548216978916979097179096556004805490961694871694909417909455600f8054600160201b600160c01b03191664010000000093909616929092029490941790556007929092556006919091556014556146bb80620001726000396000f3fe608060405234801561001057600080fd5b50600436106103af5760003560e01c806373cb07d8116101f4578063c0db88871161011a578063e0e2f310116100ad578063f54ac4c11161007c578063f54ac4c114610b16578063f6d4c18514610b33578063f7c618c114610b3b578063f8cf31cb14610b43576103af565b8063e0e2f31014610ac6578063e2bbb15814610ace578063e30c397814610af1578063e78c1b1b14610af9576103af565b8063d895745c116100e9578063d895745c14610a67578063d8fd5a7a14610a84578063d94f11be14610aa1578063da38f3af14610abe576103af565b8063c0db888714610a3a578063c1ddfb0014610a42578063ca19c563146108e0578063d5f9464e14610a4a576103af565b806398969e8211610192578063bb872b4a11610161578063bb872b4a146109e1578063bcabf89b146109fe578063bd48cf2214610a2a578063c0bccbfb14610a32576103af565b806398969e82146109885780639b80d281146109b4578063abee219a146109bc578063b5bda70d146109c4576103af565b80638ae39cac116101ce5780638ae39cac146108e85780638da5cb5b146108f05780638dbb1e3a146108f857806393f1a40b1461091b576103af565b806373cb07d814610897578063766d7cfb146108c35780638aa28550146108e0576103af565b806342a9026a116102d957806351eb05a61161027757806364482f791161024657806364482f7914610784578063648b8c6b146107af57806369914d62146107ce5780636e2cba99146107ef576103af565b806351eb05a61461070657806352e0371c146107235780635312ea8e1461075f578063630b5ba11461077c576103af565b8063488a8f58116102b3578063488a8f58146106c857806348cd4cb1146106ee5780634ae3e315146106f65780634e71e0c8146106fe576103af565b806342a9026a1461066b578063441a3e70146106885780634638cef5146106ab576103af565b806317caf6f1116103515780631eaaa045116103205780631eaaa0451461058457806321ab46c8146105b85780632f380b35146105e957806340be7bec14610648576103af565b806317caf6f11461052f5780631a249f5c146105375780631aed6553146105585780631b64854c14610560576103af565b80630fc035df1161038d5780630fc035df146104295780631069f3b51461044c57806311aedfbc1461050457806311ea32641461050c576103af565b8063078dfbe7146103b4578063081e3eda146103ec5780630fa6b3a014610406575b600080fd5b6103ea600480360360608110156103ca57600080fd5b506001600160a01b03813516906020810135151590604001351515610b69565b005b6103f4610c93565b60408051918252519081900360200190f35b6103ea6004803603604081101561041c57600080fd5b5080359060200135610c99565b6103ea6004803603604081101561043f57600080fd5b5080359060200135610f47565b6104786004803603604081101561046257600080fd5b50803590602001356001600160a01b03166111f9565b604051808a815260200189815260200188815260200187815260200180602001868152602001858152602001848152602001838152602001828103825287818151815260200191508051906020019060200280838360005b838110156104e85781810151838201526020016104d0565b505050509050019a505050505050505050505060405180910390f35b6103f46112df565b6103ea6004803603604081101561052257600080fd5b50803590602001356112e5565b6103f4611536565b6103ea6004803603602081101561054d57600080fd5b503561ffff1661153c565b6103f46115a1565b6105686115a7565b604080516001600160a01b039092168252519081900360200190f35b6103ea6004803603606081101561059a57600080fd5b508035906001600160a01b03602082013516906040013515156115b6565b6105d5600480360360208110156105ce57600080fd5b5035611781565b604080519115158252519081900360200190f35b610606600480360360208110156105ff57600080fd5b5035611796565b604080516001600160a01b0390981688526020880196909652868601949094526060860192909252608085015260a084015260c0830152519081900360e00190f35b6103ea6004803603604081101561065e57600080fd5b5080359060200135611898565b6103ea6004803603602081101561068157600080fd5b50356119bf565b6103ea6004803603604081101561069e57600080fd5b5080359060200135611abf565b6103ea600480360360208110156106c157600080fd5b5035611d7b565b6103ea600480360360208110156106de57600080fd5b50356001600160a01b0316611dcd565b6103f4611e47565b610568611e4d565b6103ea611e5c565b6103ea6004803603602081101561071c57600080fd5b5035611f1e565b6103ea6004803603608081101561073957600080fd5b508035906001600160a01b03602082013581169160408101359091169060600135611fdf565b6103ea6004803603602081101561077557600080fd5b5035612288565b6103ea6123b3565b6103ea6004803603606081101561079a57600080fd5b508035906020810135906040013515156123d6565b6107b7612496565b6040805161ffff9092168252519081900360200190f35b6103ea600480360360208110156107e457600080fd5b503561ffff166124a6565b6103ea6004803603604081101561080557600080fd5b81359190810190604081016020820135600160201b81111561082657600080fd5b82018360208201111561083857600080fd5b803590602001918460208302840111600160201b8311171561085957600080fd5b919080806020026020016040519081016040528093929190818152602001838360200280828437600092019190915250929550612513945050505050565b6103f4600480360360408110156108ad57600080fd5b50803590602001356001600160a01b031661278e565b6103ea600480360360208110156108d957600080fd5b50356128db565b6103f461292d565b6103f4612932565b610568612938565b6103f46004803603604081101561090e57600080fd5b5080359060200135612947565b6109476004803603604081101561093157600080fd5b50803590602001356001600160a01b03166129ad565b604080519889526020890197909752878701959095526060870193909352608086019190915260a085015260c084015260e083015251908190036101000190f35b6103f46004803603604081101561099e57600080fd5b50803590602001356001600160a01b0316612a02565b6103f4612b41565b6103ea612b47565b6103f4600480360360208110156109da57600080fd5b5035612d7d565b6103ea600480360360208110156109f757600080fd5b5035612d92565b6103f460048036036040811015610a1457600080fd5b50803590602001356001600160a01b0316612de4565b6103f4612ef2565b6103f4612ef8565b6103f46130b8565b61056861327a565b6103ea60048036036020811015610a6057600080fd5b5035613290565b6103ea60048036036020811015610a7d57600080fd5b50356132e2565b6103ea60048036036020811015610a9a57600080fd5b5035613334565b6103ea60048036036020811015610ab757600080fd5b5035613386565b6103f46135d5565b6103f46135db565b6103ea60048036036040811015610ae457600080fd5b50803590602001356135e1565b6105686137c9565b6103ea60048036036020811015610b0f57600080fd5b50356137d8565b6103ea60048036036020811015610b2c57600080fd5b50356138a8565b6107b76138fa565b610568613904565b6103ea60048036036020811015610b5957600080fd5b50356001600160a01b0316613913565b6000546001600160a01b03163314610bb6576040805162461bcd60e51b8152602060048201819052602482015260008051602061463c833981519152604482015290519081900360640190fd5b8115610c72576001600160a01b038316151580610bd05750805b610c19576040805162461bcd60e51b81526020600482015260156024820152744f776e61626c653a207a65726f206164647265737360581b604482015290519081900360640190fd5b600080546040516001600160a01b03808716939216917f8be0079c531659141344cd1fd0a4f28419497f9722a3daafe3b4186f6b6457e091a3600080546001600160a01b0319166001600160a01b038516179055610c8e565b600180546001600160a01b0319166001600160a01b0385161790555b505050565b60085490565b600060088381548110610ca857fe5b60009182526020808320868452600a825260408085203386529092529220600481015460069092029092019250610d00576040805162461bcd60e51b8152602060048201526000602482015290519081900360640190fd5b6004810154831115610d33576040805162461bcd60e51b8152602060048201526000602482015290519081900360640190fd5b6004810154610d4185611f1e565b610d4b8533613982565b60015b848111610dc157600081830390506000846004018281548110610d6d57fe5b90600052602060002001549050610d848882613aa8565b84600401805480610d9157fe5b60008281526020812082016000199081019190915590810190915560048701805490910190555050600101610d4e565b5042600683015560006007830181905560058301819055858152601260205260409020546004830154610f1857825460018401819055600084556005850154610e0991613c00565b60058501556000805b82811015610e60576000888152601260205260409020805482908110610e3457fe5b6000918252602090912001546001600160a01b0316331415610e5857809150610e60565b600101610e12565b50600087815260126020526040902080546000198401908110610e7f57fe5b60009182526020808320909101548983526012909152604090912080546001600160a01b039092169183908110610eb257fe5b600091825260208083209190910180546001600160a01b0319166001600160a01b039490941693909317909255888152601290915260409020805480610ef457fe5b600082815260209020810160001990810180546001600160a01b0319169055019055505b60155460038501548454610f379291610f319190613c49565b90613ca2565b8360020181905550505050505050565b600060088381548110610f5657fe5b60009182526020808320868452600a825260408085203386529092529220600481015460069092029092019250610fae576040805162461bcd60e51b8152602060048201526000602482015290519081900360640190fd5b6004810154610fbc85611f1e565b610fc68533613982565b610fd08585613aa8565b6000805b8281101561100d57836004018181548110610feb57fe5b90600052602060002001548614156110055780915061100d565b600101610fd4565b5082600401600183038154811061102057fe5b906000526020600020015483600401828154811061103a57fe5b6000918252602090912001556004830180548061105357fe5b6000828152602080822083016000199081018390559283019093556004808801805490930190925542600687015560078601819055600586018190558881526012909252604090912054908401546111cf578354600185018190556000855560058601546110c091613c00565b60058601556000805b828110156111175760008981526012602052604090208054829081106110eb57fe5b6000918252602090912001546001600160a01b031633141561110f57809150611117565b6001016110c9565b5060008881526012602052604090208054600019840190811061113657fe5b60009182526020808320909101548a83526012909152604090912080546001600160a01b03909216918390811061116957fe5b600091825260208083209190910180546001600160a01b0319166001600160a01b0394909416939093179092558981526012909152604090208054806111ab57fe5b600082815260209020810160001990810180546001600160a01b0319169055019055505b601554600386015485546111e89291610f319190613c49565b846002018190555050505050505050565b60008060008060606000806000806000600a60008d815260200190815260200160002060008c6001600160a01b03166001600160a01b0316815260200190815260200160002090508060000154816001015482600201548360030154846004018560050154866006015487600701548860080154848054806020026020016040519081016040528092919081815260200182805480156112b857602002820191906000526020600020905b8154815260200190600101908083116112a4575b50505050509450995099509950995099509950995099509950509295985092959850929598565b60115481565b6000828152600a6020908152604080832033845290915290206001810154815401611349576040805162461bcd60e51b815260206004820152600f60248201526e6e6f207374616b6520746f6b656e7360881b604482015290519081900360640190fd5b600f5460048201546201000090910461ffff16908301111561136a57600080fd5b60006008848154811061137957fe5b60009182526020909120600484015460069092020191506113c35760008481526012602090815260408220805460018101825590835291200180546001600160a01b031916331790555b600f54604080516370a0823160e01b81523360048201529051600092600160201b90046001600160a01b0316916370a08231916024808301926020929190829003018186803b15801561141557600080fd5b505afa158015611429573d6000803e3d6000fd5b505050506040513d602081101561143f57600080fd5b505190508084111561145057600080fd5b61145985611f1e565b6114638533613982565b60005b8481101561150a57600f5460408051632f745c5960e01b815233600482015260006024820181905291519192600160201b90046001600160a01b031691632f745c5991604480820192602092909190829003018186803b1580156114c957600080fd5b505afa1580156114dd573d6000803e3d6000fd5b505050506040513d60208110156114f357600080fd5b505190506115018782613ce4565b50600101611466565b50601554600383015484546115249291610f319190613c49565b60028401555050426006909101555050565b60135481565b6000546001600160a01b03163314611589576040805162461bcd60e51b8152602060048201819052602482015260008051602061463c833981519152604482015290519081900360640190fd5b600f805461ffff191661ffff92909216919091179055565b60065481565b6003546001600160a01b031681565b6000546001600160a01b03163314611603576040805162461bcd60e51b8152602060048201819052602482015260008051602061463c833981519152604482015290519081900360640190fd5b8015611611576116116123b3565b6000601454431161162457601454611626565b435b6013549091506116369085613f0a565b6013556040805160c0810182526001600160a01b039485168152602081019586529081019182526000606082018181526080830182815260a0840183815260088054600181018255945293517ff3f7a9fe364faab93b216da50a3214154f22a0a2b415b23a84c8169e8b636ee3600690940293840180546001600160a01b031916919098161790965595517ff3f7a9fe364faab93b216da50a3214154f22a0a2b415b23a84c8169e8b636ee482015591517ff3f7a9fe364faab93b216da50a3214154f22a0a2b415b23a84c8169e8b636ee583015593517ff3f7a9fe364faab93b216da50a3214154f22a0a2b415b23a84c8169e8b636ee682015591517ff3f7a9fe364faab93b216da50a3214154f22a0a2b415b23a84c8169e8b636ee78301555090517ff3f7a9fe364faab93b216da50a3214154f22a0a2b415b23a84c8169e8b636ee890910155565b60106020526000908152604090205460ff1681565b600080600080600080600080600889815481106117af57fe5b60009182526020822060069091020180546003549193506001600160a01b03918216911614156117e2575060095461185b565b8154604080516370a0823160e01b815230600482015290516001600160a01b03909216916370a0823191602480820192602092909190829003018186803b15801561182c57600080fd5b505afa158015611840573d6000803e3d6000fd5b505050506040513d602081101561185657600080fd5b505190505b815460018301546002840154600385015460048601546005909601546001600160a01b039094169e949d50919b5099509750919550909350915050565b6000828152600a60209081526040808320338452909152902060018101548154016118fc576040805162461bcd60e51b815260206004820152600f60248201526e6e6f207374616b6520746f6b656e7360881b604482015290519081900360640190fd5b600f5460048201546201000090910461ffff166001909101111561191f57600080fd5b60006008848154811061192e57fe5b60009182526020909120600484015460069092020191506119785760008481526012602090815260408220805460018101825590835291200180546001600160a01b031916331790555b61198184611f1e565b61198b8433613982565b6119958484613ce4565b601554600382015483546119ae9291610f319190613c49565b600283015550426006909101555050565b6000818152600a6020908152604080832033845290915290206011546006820154420311611a2c576040805162461bcd60e51b81526020600482015260156024820152746e6f7420656c696769626c6520746f20636c61696d60581b604482015290519081900360640190fd5b600060088381548110611a3b57fe5b90600052602060002090600602019050611a5483611f1e565b611a5e8333613982565b60155460038201548354611a779291610f319190613c49565b600283015560058201546007830154600091611a939190613c00565b9050611a9f3382613f64565b6005830154611aae9082613f0a565b600584015550504260069091015550565b600280541415611b04576040805162461bcd60e51b815260206004820152601f60248201526000805160206145fb833981519152604482015290519081900360640190fd5b60028081905550600060088381548110611b1a57fe5b60009182526020808320868452600a82526040808520338652909252922060018101548154600690930290930193509101831115611b94576040805162461bcd60e51b81526020600482015260126024820152711dda5d1a191c985dce881b9bdd0819dbdbd960721b604482015290519081900360640190fd5b600c548160030154420311611bf0576040805162461bcd60e51b815260206004820152601860248201527f6e6f7420656c696769626c6520746f2077697468647261770000000000000000604482015290519081900360640190fd5b611bf984611f1e565b611c038433613982565b805415611c31578054611c169084613c00565b81556005820154611c279084613c00565b6005830155611c46565b6001810154611c409084613c00565b60018201555b60155460038301548254611c5f9291610f319190613c49565b6002820155600060078201819055600582015542600682015581546003546001600160a01b0390811691161415611ca157600954611c9d9084613c00565b6009555b8215611d23576004546001600160a01b03166379cc679033611cc486600a613c49565b6040518363ffffffff1660e01b815260040180836001600160a01b0316815260200182815260200192505050600060405180830381600087803b158015611d0a57600080fd5b505af1158015611d1e573d6000803e3d6000fd5b505050505b8154611d39906001600160a01b03163385614126565b604080518481529051859133917ff279e6a1f5e320cca91135676d9cb6e44ca8a08c0b88342bcdb1144f6511b5689181900360200190a3505060016002555050565b6000546001600160a01b03163314611dc8576040805162461bcd60e51b8152602060048201819052602482015260008051602061463c833981519152604482015290519081900360640190fd5b601155565b6000546001600160a01b03163314611e1a576040805162461bcd60e51b8152602060048201819052602482015260008051602061463c833981519152604482015290519081900360640190fd5b600f80546001600160a01b03909216600160201b02640100000000600160c01b0319909216919091179055565b60145481565b6004546001600160a01b031681565b6001546001600160a01b0316338114611ebc576040805162461bcd60e51b815260206004820181905260248201527f4f776e61626c653a2063616c6c657220213d2070656e64696e67206f776e6572604482015290519081900360640190fd5b600080546040516001600160a01b03808516939216917f8be0079c531659141344cd1fd0a4f28419497f9722a3daafe3b4186f6b6457e091a3600080546001600160a01b039092166001600160a01b0319928316179055600180549091169055565b600060088281548110611f2d57fe5b9060005260206000209060060201905080600201544311611f4e5750611fdc565b6005810154611f635743600290910155611fdc565b6000611f73826002015443612947565b90506000611fa0601354610f318560010154611f9a60075487613c4990919063ffffffff16565b90613c49565b9050611fcd611fc28460050154610f3160155485613c4990919063ffffffff16565b600385015490613f0a565b60038401555050436002909101555b50565b600280541415612024576040805162461bcd60e51b815260206004820152601f60248201526000805160206145fb833981519152604482015290519081900360640190fd5b600280556004546001600160a01b0316331461203f57600080fd5b60006008858154811061204e57fe5b60009182526020808320888452600a80835260408086206001600160a01b038b811688529452808620938916865285206006949094029091019450909290612097908690613ca2565b905080836001015484600001540110156120f8576040805162461bcd60e51b815260206004820152601760248201527f7472616e73666572206578636565647320616d6f756e74000000000000000000604482015290519081900360640190fd5b600c548360030154420311612154576040805162461bcd60e51b815260206004820152601760248201527f6e6f7420656c696769626c6520746f20756e6474616b65000000000000000000604482015290519081900360640190fd5b61215d88611f1e565b6121678888613982565b82541561218157825461217a9082613c00565b8355612196565b60018301546121909082613c00565b60018401555b601554600385015484546121af9291610f319190613c49565b60028401554260068401556000600784018190556005840181905560038301546121d890614178565b905060006121ec8460040180549050614196565b90508180156121f85750805b15612207576122078a89613982565b8015612237576001840154845461222991859161222391613f0a565b90613f0a565b84556000600185015561224c565b60018401546122469084613f0a565b60018501555b601554600387015485546122659291610f319190613c49565b600280860191909155426006909501949094555050600190915550505050505050565b6002805414156122cd576040805162461bcd60e51b815260206004820152601f60248201526000805160206145fb833981519152604482015290519081900360640190fd5b600280819055506000600882815481106122e357fe5b60009182526020808320858452600a825260408085203380875293529093206001810154815460069094029094019450926123339261232191613f0a565b84546001600160a01b03169190614126565b80546040805191825251849133917fbb757047c2b5f3974fe26b7c10f732e7bce710b0952a71082702781e62ae05959181900360200190a3805415612388578054600583015461238291613c00565b60058301555b6000808255600180830182905560028084018390556005840183905560079093019190915590555050565b60085460005b818110156123d2576123ca81611f1e565b6001016123b9565b5050565b6000546001600160a01b03163314612423576040805162461bcd60e51b8152602060048201819052602482015260008051602061463c833981519152604482015290519081900360640190fd5b8015612431576124316123b3565b612468826122236008868154811061244557fe5b906000526020600020906006020160010154601354613c0090919063ffffffff16565b601381905550816008848154811061247c57fe5b906000526020600020906006020160010181905550505050565b600f5462010000900461ffff1681565b6000546001600160a01b031633146124f3576040805162461bcd60e51b8152602060048201819052602482015260008051602061463c833981519152604482015290519081900360640190fd5b600f805461ffff909216620100000263ffff000019909216919091179055565b805180612541576040805162461bcd60e51b8152602060048201526000602482015290519081900360640190fd5b6000838152600a60209081526040808320338452909152902060018101548154016125a5576040805162461bcd60e51b815260206004820152600f60248201526e6e6f207374616b6520746f6b656e7360881b604482015290519081900360640190fd5b600f54604080516370a0823160e01b81523360048201529051600092600160201b90046001600160a01b0316916370a08231916024808301926020929190829003018186803b1580156125f757600080fd5b505afa15801561260b573d6000803e3d6000fd5b505050506040513d602081101561262157600080fd5b5051905080612651576040805162461bcd60e51b8152602060048201526000602482015290519081900360640190fd5b60006008868154811061266057fe5b60009182526020909120600485015460069092020191506126aa5760008681526012602090815260408220805460018101825590835291200180546001600160a01b031916331790555b6004830154600f5462010000900461ffff16038061270f576040805162461bcd60e51b815260206004820152601960248201527f6f766572666c6f77206d6178696d756d20626f6f7374696e6700000000000000604482015290519081900360640190fd5b8085101561271a5750835b61272387611f1e565b61272d8733613982565b60005b8181101561275d576127558888838151811061274857fe5b6020026020010151613ce4565b600101612730565b50601554600383015485546127779291610f319190613c49565b600285015550504260069092019190915550505050565b6000806008848154811061279e57fe5b60009182526020808320878452600a825260408085206001600160a01b038916865290925292206003600690920290920190810154600282015491935090431180156127ee575060008360050154115b15612858576000612803846002015443612947565b9050600061282a601354610f318760010154611f9a60075487613c4990919063ffffffff16565b905061285361284c8660050154610f3160155485613c4990919063ffffffff16565b8490613f0a565b925050505b6004820154600090612869906141ae565b905060006128988460020154612892601554610f31878960000154613c4990919063ffffffff16565b90613c00565b905060006128ab6064610f318585613c49565b90506128cc8161222387600501548860070154613c0090919063ffffffff16565b96505050505050505b92915050565b6000546001600160a01b03163314612928576040805162461bcd60e51b8152602060048201819052602482015260008051602061463c833981519152604482015290519081900360640190fd5b600b55565b600a81565b60075481565b6000546001600160a01b031681565b6000600654821161296857612961600a611f9a8486613c00565b90506128d5565b600654831061297b576129618284613c00565b61296161299360065484613c0090919063ffffffff16565b612223600a611f9a87600654613c0090919063ffffffff16565b600a602052816000526040600020602052806000526040600020600091509150508060000154908060010154908060020154908060030154908060050154908060060154908060070154908060080154905088565b60008060088481548110612a1257fe5b60009182526020808320878452600a825260408085206001600160a01b03891686529092529220600360069092029092019081015460028201549193509043118015612a62575060008360050154115b15612ac5576000612a77846002015443612947565b90506000612a9e601354610f318760010154611f9a60075487613c4990919063ffffffff16565b9050612ac061284c8660050154610f3160155485613c4990919063ffffffff16565b925050505b6004820154600090612ad6906141ae565b90506000612aff8460020154612892601554610f31878960000154613c4990919063ffffffff16565b90506000612b2b856005015461289287600701546122236064610f31888a613c4990919063ffffffff16565b60088601549091506128cc906122238484613f0a565b600e5481565b600280541415612b8c576040805162461bcd60e51b815260206004820152601f60248201526000805160206145fb833981519152604482015290519081900360640190fd5b600280556000546001600160a01b03163314612bdd576040805162461bcd60e51b8152602060048201819052602482015260008051602061463c833981519152604482015290519081900360640190fd5b600f54604080516370a0823160e01b81523060048201529051600092600160201b90046001600160a01b0316916370a08231916024808301926020929190829003018186803b158015612c2f57600080fd5b505afa158015612c43573d6000803e3d6000fd5b505050506040513d6020811015612c5957600080fd5b5051905060005b81811015612d7457600f5460408051632f745c5960e01b8152306004820152602481018490529051600092600160201b90046001600160a01b031691632f745c59916044808301926020929190829003018186803b158015612cc157600080fd5b505afa158015612cd5573d6000803e3d6000fd5b505050506040513d6020811015612ceb57600080fd5b5051600f5460408051632142170760e11b8152306004820152336024820152604481018490529051929350600160201b9091046001600160a01b0316916342842e0e9160648082019260009290919082900301818387803b158015612d4f57600080fd5b505af1158015612d63573d6000803e3d6000fd5b505060019093019250612c60915050565b50506001600255565b6000818152601260205260409020545b919050565b6000546001600160a01b03163314612ddf576040805162461bcd60e51b8152602060048201819052602482015260008051602061463c833981519152604482015290519081900360640190fd5b600755565b60008060088481548110612df457fe5b60009182526020808320878452600a825260408085206001600160a01b03891686529092529220600360069092029092019081015460028201549193509043118015612e44575060008360050154115b15612ea7576000612e59846002015443612947565b90506000612e80601354610f318760010154611f9a60075487613c4990919063ffffffff16565b9050612ea261284c8660050154610f3160155485613c4990919063ffffffff16565b925050505b6000612ece8360020154612892601554610f31868860000154613c4990919063ffffffff16565b9050612ee7836008015482613f0a90919063ffffffff16565b979650505050505050565b600b5481565b60008060005b6008548110156130b257600060088281548110612f1757fe5b9060005260206000209060060201905060008160030154905060005b6000848152601260205260409020548110156130a7576000848152600a6020908152604080832060129092528220805483919085908110612f7057fe5b60009182526020808320909101546001600160a01b031683528201929092526040019020600285015490915043118015612fae575060008460050154115b15613018576000612fc3856002015443612947565b90506000612fea601354610f318860010154611f9a60075487613c4990919063ffffffff16565b905061301361300c8760050154610f3160155485613c4990919063ffffffff16565b8690613f0a565b945050505b6004810154600090613029906141ae565b905060006130528360020154612892601554610f31898860000154613c4990919063ffffffff16565b905060006130656064610f318585613c49565b905060006130888261222387600501548860070154613c0090919063ffffffff16565b90506130948a82613f0a565b99505060019094019350612f3392505050565b505050600101612efe565b50905090565b60008060005b6008548110156130b2576000600882815481106130d757fe5b9060005260206000209060060201905060008160030154905060005b60008481526012602052604090205481101561326f576000848152600a602090815260408083206012909252822080548391908590811061313057fe5b60009182526020808320909101546001600160a01b031683528201929092526040019020601154600682015491925042919091031061326657836002015443118015613180575060008460050154115b156131e3576000613195856002015443612947565b905060006131bc601354610f318860010154611f9a60075487613c4990919063ffffffff16565b90506131de61300c8760050154610f3160155485613c4990919063ffffffff16565b945050505b60048101546000906131f4906141ae565b9050600061321d8360020154612892601554610f31898860000154613c4990919063ffffffff16565b905060006132306064610f318585613c49565b905060006132538261222387600501548860070154613c0090919063ffffffff16565b905061325f8a82613f0a565b9950505050505b506001016130f3565b5050506001016130be565b600f54600160201b90046001600160a01b031681565b6000546001600160a01b031633146132dd576040805162461bcd60e51b8152602060048201819052602482015260008051602061463c833981519152604482015290519081900360640190fd5b600e55565b6000546001600160a01b0316331461332f576040805162461bcd60e51b8152602060048201819052602482015260008051602061463c833981519152604482015290519081900360640190fd5b600d55565b6000546001600160a01b03163314613381576040805162461bcd60e51b8152602060048201819052602482015260008051602061463c833981519152604482015290519081900360640190fd5b600c55565b60006008828154811061339557fe5b60009182526020808320858452600a825260408085203386529092529220600481015460069092029092019250806133ee576040805162461bcd60e51b8152602060048201526000602482015290519081900360640190fd5b6133f784611f1e565b6134018433613982565b60005b8181101561343d57600083600401828154811061341d57fe5b906000526020600020015490506134348682613aa8565b50600101613404565b5061344c6004830160006145c8565b6004808401805483900390554260068401556000600784018190556005840181905585815260126020526040902054908301546135ad5782546001840181905560008455600585015461349e91613c00565b60058501556000805b828110156134f55760008781526012602052604090208054829081106134c957fe5b6000918252602090912001546001600160a01b03163314156134ed578091506134f5565b6001016134a7565b5060008681526012602052604090208054600019840190811061351457fe5b60009182526020808320909101548883526012909152604090912080546001600160a01b03909216918390811061354757fe5b600091825260208083209190910180546001600160a01b0319166001600160a01b03949094169390931790925587815260129091526040902080548061358957fe5b600082815260209020810160001990810180546001600160a01b0319169055019055505b601554600385015484546135c69291610f319190613c49565b83600201819055505050505050565b600c5481565b600d5481565b6000600883815481106135f057fe5b60009182526020808320868452600a8252604080852033865290925292206006909102909101915061362184611f1e565b600481015460009061363290614196565b905061363e8533613982565b8254613655906001600160a01b03163330876141fe565b82546003546001600160a01b039081169116141561367e5760095461367a9085613f0a565b6009555b80156136bc576001820154825461369a91869161222391613f0a565b825560058301546136ab9085613f0a565b6005840155600060018301556136d1565b60018201546136cb9085613f0a565b60018301555b601554600384015483546136ea9291610f319190613c49565b60028301558315613785576004546001600160a01b03166340c10f193361371287600a613c49565b6040518363ffffffff1660e01b815260040180836001600160a01b0316815260200182815260200192505050602060405180830381600087803b15801561375857600080fd5b505af115801561376c573d6000803e3d6000fd5b505050506040513d602081101561378257600080fd5b50505b426006830155604080518581529051869133917f90890809c654f11d6e72a28fa60149770a0d11ec6c92319d6ceb2bb0a4ea1a159181900360200190a35050505050565b6001546001600160a01b031681565b6000600882815481106137e757fe5b60009182526020808320858452600a82526040808520338652909252908320600381015460069093029091019350919061382090614178565b905060018115151461386e576040805162461bcd60e51b81526020600482015260126024820152716e6f7420636c61696d20656c696769626c6560701b604482015290519081900360640190fd5b61387784611f1e565b6138818433613982565b6015546003840154835461389a9291610f319190613c49565b826002018190555050505050565b6000546001600160a01b031633146138f5576040805162461bcd60e51b8152602060048201819052602482015260008051602061463c833981519152604482015290519081900360640190fd5b601555565b600f5461ffff1681565b6005546001600160a01b031681565b6000546001600160a01b03163314613960576040805162461bcd60e51b8152602060048201819052602482015260008051602061463c833981519152604482015290519081900360640190fd5b600580546001600160a01b0319166001600160a01b0392909216919091179055565b60006008838154811061399157fe5b60009182526020808320868452600a825260408085206001600160a01b038816865290925290832060038101546006909302909101935091906139d390614178565b60038401546004840154919250906000906139ed906141ae565b90506000613a168560020154612892601554610f31878a60000154613c4990919063ffffffff16565b90506000613a296064610f318585613c49565b6007870154909150613a3b9082613f0a565b6007870155848015613a4d5750600082115b15613a7e57613a7288613a6d886008015485613f0a90919063ffffffff16565b613f64565b60006008870155613a94565b6008860154613a8e908390613f0a565b60088701555b428660030181905550505050505050505050565b60008181526010602052604090205460ff161515600114613ac857600080fd5b600f54604080516323b872dd60e01b8152306004820152336024820152604481018490529051600160201b9092046001600160a01b0316916323b872dd9160648082019260009290919082900301818387803b158015613b2757600080fd5b505af1158015613b3b573d6000803e3d6000fd5b5050600f5460408051630a7c981760e31b8152600481018690526000602482018190529151600160201b9093046001600160a01b031694506353e4c0b893506044808201939182900301818387803b158015613b9657600080fd5b505af1158015613baa573d6000803e3d6000fd5b505050600082815260106020908152604091829020805460ff191690558151848152915185935033927fd9ccb4973c95d201bc1724ce7e7f19f8e0835e571f58bf8b6a0de82084f0574f92908290030190a35050565b6000613c4283836040518060400160405280601e81526020017f536166654d6174683a207375627472616374696f6e206f766572666c6f77000081525061425e565b9392505050565b600082613c58575060006128d5565b82820282848281613c6557fe5b0414613c425760405162461bcd60e51b815260040180806020018281038252602181526020018061461b6021913960400191505060405180910390fd5b6000613c4283836040518060400160405280601a81526020017f536166654d6174683a206469766973696f6e206279207a65726f0000000000008152506142f5565b60008181526010602052604090205460ff1615613d3a576040805162461bcd60e51b815260206004820152600f60248201526e185b1c9958591e48189bdbdcdd1959608a1b604482015290519081900360640190fd5b600f54604080516323b872dd60e01b8152336004820152306024820152604481018490529051600160201b9092046001600160a01b0316916323b872dd9160648082019260009290919082900301818387803b158015613d9957600080fd5b505af1158015613dad573d6000803e3d6000fd5b5050600f5460408051630a7c981760e31b815260048101869052600160248201529051600160201b9092046001600160a01b031693506353e4c0b8925060448082019260009290919082900301818387803b158015613e0b57600080fd5b505af1158015613e1f573d6000803e3d6000fd5b5050506000828152601060205260408120805460ff19166001179055600880549192509084908110613e4d57fe5b60009182526020808320868452600a82526040808520338652909252922060018101546006909202909201925015613ea25760018101548082556005830154613e9591613f0a565b6005830155600060018201555b600480820180546001818101835560009283526020928390209091018690559184018054909201909155604080518581529051869233927faadc628cb4fd3bb7a62795eb460290459458bdc6f387ffde727c740f42c18337929081900390910190a350505050565b600082820183811015613c42576040805162461bcd60e51b815260206004820152601b60248201527f536166654d6174683a206164646974696f6e206f766572666c6f770000000000604482015290519081900360640190fd5b600554604080516370a0823160e01b815230600482015290516000926001600160a01b0316916370a08231916024808301926020929190829003018186803b158015613faf57600080fd5b505afa158015613fc3573d6000803e3d6000fd5b505050506040513d6020811015613fd957600080fd5b50516005546003549192506001600160a01b039182169116141561400f5760095481111561400b57600954900361400f565b5060005b8082111561409f576005546040805163a9059cbb60e01b81526001600160a01b038681166004830152602482018590529151919092169163a9059cbb9160448083019260209291908290030181600087803b15801561406d57600080fd5b505af1158015614081573d6000803e3d6000fd5b505050506040513d602081101561409757600080fd5b50610c8e9050565b6005546040805163a9059cbb60e01b81526001600160a01b038681166004830152602482018690529151919092169163a9059cbb9160448083019260209291908290030181600087803b1580156140f557600080fd5b505af1158015614109573d6000803e3d6000fd5b505050506040513d602081101561411f57600080fd5b5050505050565b604080516001600160a01b038416602482015260448082018490528251808303909101815260649091019091526020810180516001600160e01b031663a9059cbb60e01b179052610c8e90849061435a565b6000600b54824203111561418e57506001612d8d565b506000919050565b600f5460009061ffff16821061418e57506001612d8d565b600f5460009061ffff1682116141c657506000612d8d565b600f546000906141e190849061ffff90811660010116613c00565b9050613c42600d54612223600e5484613c4990919063ffffffff16565b604080516001600160a01b0380861660248301528416604482015260648082018490528251808303909101815260849091019091526020810180516001600160e01b03166323b872dd60e01b17905261425890859061435a565b50505050565b600081848411156142ed5760405162461bcd60e51b81526004018080602001828103825283818151815260200191508051906020019080838360005b838110156142b257818101518382015260200161429a565b50505050905090810190601f1680156142df5780820380516001836020036101000a031916815260200191505b509250505060405180910390fd5b505050900390565b600081836143445760405162461bcd60e51b81526020600482018181528351602484015283519092839260449091019190850190808383600083156142b257818101518382015260200161429a565b50600083858161435057fe5b0495945050505050565b60606143af826040518060400160405280602081526020017f5361666545524332303a206c6f772d6c6576656c2063616c6c206661696c6564815250856001600160a01b031661440b9092919063ffffffff16565b805190915015610c8e578080602001905160208110156143ce57600080fd5b5051610c8e5760405162461bcd60e51b815260040180806020018281038252602a81526020018061465c602a913960400191505060405180910390fd5b606061441a8484600085614422565b949350505050565b606061442d8561458f565b61447e576040805162461bcd60e51b815260206004820152601d60248201527f416464726573733a2063616c6c20746f206e6f6e2d636f6e7472616374000000604482015290519081900360640190fd5b60006060866001600160a01b031685876040518082805190602001908083835b602083106144bd5780518252601f19909201916020918201910161449e565b6001836020036101000a03801982511681845116808217855250505050505090500191505060006040518083038185875af1925050503d806000811461451f576040519150601f19603f3d011682016040523d82523d6000602084013e614524565b606091505b5091509150811561453857915061441a9050565b8051156145485780518082602001fd5b60405162461bcd60e51b81526020600482018181528651602484015286518793919283926044019190850190808383600083156142b257818101518382015260200161429a565b6000813f7fc5d2460186f7233c927e7db2dcc703c0e500b653ca82273b7bfad8045d85a47081811480159061441a575050151592915050565b5080546000825590600052602060002090810190611fdc91905b808211156145f657600081556001016145e2565b509056fe5265656e7472616e637947756172643a207265656e7472616e742063616c6c00536166654d6174683a206d756c7469706c69636174696f6e206f766572666c6f774f776e61626c653a2063616c6c6572206973206e6f7420746865206f776e65725361666545524332303a204552433230206f7065726174696f6e20646964206e6f742073756363656564a26469706673582212208f818ee28c72735d39fa11237bb6b79557aa3e6e4b3e974242e6a3c6310ec2df64736f6c634300060c0033",
  "devdoc": {
    "kind": "dev",
    "methods": {},
    "version": 1
  },
  "userdoc": {
    "kind": "user",
    "methods": {},
    "version": 1
  },
  "storageLayout": {
    "storage": [
      {
        "astId": 4882,
        "contract": "contracts/AnnexBoostFarm.sol:AnnexBoostFarm",
        "label": "owner",
        "offset": 0,
        "slot": "0",
        "type": "t_address"
      },
      {
        "astId": 4884,
        "contract": "contracts/AnnexBoostFarm.sol:AnnexBoostFarm",
        "label": "pendingOwner",
        "offset": 0,
        "slot": "1",
        "type": "t_address"
      },
      {
        "astId": 5008,
        "contract": "contracts/AnnexBoostFarm.sol:AnnexBoostFarm",
        "label": "_status",
        "offset": 0,
        "slot": "2",
        "type": "t_uint256"
      },
      {
        "astId": 56,
        "contract": "contracts/AnnexBoostFarm.sol:AnnexBoostFarm",
        "label": "annex",
        "offset": 0,
        "slot": "3",
        "type": "t_address"
      },
      {
        "astId": 58,
        "contract": "contracts/AnnexBoostFarm.sol:AnnexBoostFarm",
        "label": "vAnn",
        "offset": 0,
        "slot": "4",
        "type": "t_address"
      },
      {
        "astId": 60,
        "contract": "contracts/AnnexBoostFarm.sol:AnnexBoostFarm",
        "label": "rewardToken",
        "offset": 0,
        "slot": "5",
        "type": "t_address"
      },
      {
        "astId": 62,
        "contract": "contracts/AnnexBoostFarm.sol:AnnexBoostFarm",
        "label": "bonusEndBlock",
        "offset": 0,
        "slot": "6",
        "type": "t_uint256"
      },
      {
        "astId": 64,
        "contract": "contracts/AnnexBoostFarm.sol:AnnexBoostFarm",
        "label": "rewardPerBlock",
        "offset": 0,
        "slot": "7",
        "type": "t_uint256"
      },
      {
        "astId": 73,
        "contract": "contracts/AnnexBoostFarm.sol:AnnexBoostFarm",
        "label": "poolInfo",
        "offset": 0,
        "slot": "8",
        "type": "t_array(t_struct(PoolInfo)54_storage)dyn_storage"
      },
      {
        "astId": 75,
        "contract": "contracts/AnnexBoostFarm.sol:AnnexBoostFarm",
        "label": "lpSupplyOfAnnPool",
        "offset": 0,
        "slot": "9",
        "type": "t_uint256"
      },
      {
        "astId": 81,
        "contract": "contracts/AnnexBoostFarm.sol:AnnexBoostFarm",
        "label": "userInfo",
        "offset": 0,
        "slot": "10",
        "type": "t_mapping(t_uint256,t_mapping(t_address,t_struct(UserInfo)41_storage))"
      },
      {
        "astId": 84,
        "contract": "contracts/AnnexBoostFarm.sol:AnnexBoostFarm",
        "label": "claimBaseRewardTime",
        "offset": 0,
        "slot": "11",
        "type": "t_uint256"
      },
      {
        "astId": 87,
        "contract": "contracts/AnnexBoostFarm.sol:AnnexBoostFarm",
        "label": "unstakableTime",
        "offset": 0,
        "slot": "12",
        "type": "t_uint256"
      },
      {
        "astId": 90,
        "contract": "contracts/AnnexBoostFarm.sol:AnnexBoostFarm",
        "label": "initialBoostMultiplier",
        "offset": 0,
        "slot": "13",
        "type": "t_uint256"
      },
      {
        "astId": 93,
        "contract": "contracts/AnnexBoostFarm.sol:AnnexBoostFarm",
        "label": "boostMultiplierFactor",
        "offset": 0,
        "slot": "14",
        "type": "t_uint256"
      },
      {
        "astId": 96,
        "contract": "contracts/AnnexBoostFarm.sol:AnnexBoostFarm",
        "label": "minimumValidBoostCount",
        "offset": 0,
        "slot": "15",
        "type": "t_uint16"
      },
      {
        "astId": 99,
        "contract": "contracts/AnnexBoostFarm.sol:AnnexBoostFarm",
        "label": "maximumBoostCount",
        "offset": 2,
        "slot": "15",
        "type": "t_uint16"
      },
      {
        "astId": 101,
        "contract": "contracts/AnnexBoostFarm.sol:AnnexBoostFarm",
        "label": "boostFactor",
        "offset": 4,
        "slot": "15",
        "type": "t_contract(IBoostToken)3980"
      },
      {
        "astId": 105,
        "contract": "contracts/AnnexBoostFarm.sol:AnnexBoostFarm",
        "label": "isBoosted",
        "offset": 0,
        "slot": "16",
        "type": "t_mapping(t_uint256,t_bool)"
      },
      {
        "astId": 110,
        "contract": "contracts/AnnexBoostFarm.sol:AnnexBoostFarm",
        "label": "claimBoostRewardTime",
        "offset": 0,
        "slot": "17",
        "type": "t_uint256"
      },
      {
        "astId": 115,
        "contract": "contracts/AnnexBoostFarm.sol:AnnexBoostFarm",
        "label": "boostedUsers",
        "offset": 0,
        "slot": "18",
        "type": "t_mapping(t_uint256,t_array(t_address)dyn_storage)"
      },
      {
        "astId": 118,
        "contract": "contracts/AnnexBoostFarm.sol:AnnexBoostFarm",
        "label": "totalAllocPoint",
        "offset": 0,
        "slot": "19",
        "type": "t_uint256"
      },
      {
        "astId": 120,
        "contract": "contracts/AnnexBoostFarm.sol:AnnexBoostFarm",
        "label": "startBlock",
        "offset": 0,
        "slot": "20",
        "type": "t_uint256"
      },
      {
        "astId": 123,
        "contract": "contracts/AnnexBoostFarm.sol:AnnexBoostFarm",
        "label": "accMulFactor",
        "offset": 0,
        "slot": "21",
        "type": "t_uint256"
      }
    ],
    "types": {
      "t_address": {
        "encoding": "inplace",
        "label": "address",
        "numberOfBytes": "20"
      },
      "t_array(t_address)dyn_storage": {
        "base": "t_address",
        "encoding": "dynamic_array",
        "label": "address[]",
        "numberOfBytes": "32"
      },
      "t_array(t_struct(PoolInfo)54_storage)dyn_storage": {
        "base": "t_struct(PoolInfo)54_storage",
        "encoding": "dynamic_array",
        "label": "struct AnnexBoostFarm.PoolInfo[]",
        "numberOfBytes": "32"
      },
      "t_array(t_uint256)dyn_storage": {
        "base": "t_uint256",
        "encoding": "dynamic_array",
        "label": "uint256[]",
        "numberOfBytes": "32"
      },
      "t_bool": {
        "encoding": "inplace",
        "label": "bool",
        "numberOfBytes": "1"
      },
      "t_contract(IBoostToken)3980": {
        "encoding": "inplace",
        "label": "contract IBoostToken",
        "numberOfBytes": "20"
      },
      "t_contract(IERC20)4070": {
        "encoding": "inplace",
        "label": "contract IERC20",
        "numberOfBytes": "20"
      },
      "t_mapping(t_address,t_struct(UserInfo)41_storage)": {
        "encoding": "mapping",
        "key": "t_address",
        "label": "mapping(address => struct AnnexBoostFarm.UserInfo)",
        "numberOfBytes": "32",
        "value": "t_struct(UserInfo)41_storage"
      },
      "t_mapping(t_uint256,t_array(t_address)dyn_storage)": {
        "encoding": "mapping",
        "key": "t_uint256",
        "label": "mapping(uint256 => address[])",
        "numberOfBytes": "32",
        "value": "t_array(t_address)dyn_storage"
      },
      "t_mapping(t_uint256,t_bool)": {
        "encoding": "mapping",
        "key": "t_uint256",
        "label": "mapping(uint256 => bool)",
        "numberOfBytes": "32",
        "value": "t_bool"
      },
      "t_mapping(t_uint256,t_mapping(t_address,t_struct(UserInfo)41_storage))": {
        "encoding": "mapping",
        "key": "t_uint256",
        "label": "mapping(uint256 => mapping(address => struct AnnexBoostFarm.UserInfo))",
        "numberOfBytes": "32",
        "value": "t_mapping(t_address,t_struct(UserInfo)41_storage)"
      },
      "t_struct(PoolInfo)54_storage": {
        "encoding": "inplace",
        "label": "struct AnnexBoostFarm.PoolInfo",
        "members": [
          {
            "astId": 43,
            "contract": "contracts/AnnexBoostFarm.sol:AnnexBoostFarm",
            "label": "lpToken",
            "offset": 0,
            "slot": "0",
            "type": "t_contract(IERC20)4070"
          },
          {
            "astId": 45,
            "contract": "contracts/AnnexBoostFarm.sol:AnnexBoostFarm",
            "label": "allocPoint",
            "offset": 0,
            "slot": "1",
            "type": "t_uint256"
          },
          {
            "astId": 47,
            "contract": "contracts/AnnexBoostFarm.sol:AnnexBoostFarm",
            "label": "lastRewardBlock",
            "offset": 0,
            "slot": "2",
            "type": "t_uint256"
          },
          {
            "astId": 49,
            "contract": "contracts/AnnexBoostFarm.sol:AnnexBoostFarm",
            "label": "accRewardPerShare",
            "offset": 0,
            "slot": "3",
            "type": "t_uint256"
          },
          {
            "astId": 51,
            "contract": "contracts/AnnexBoostFarm.sol:AnnexBoostFarm",
            "label": "totalBoostCount",
            "offset": 0,
            "slot": "4",
            "type": "t_uint256"
          },
          {
            "astId": 53,
            "contract": "contracts/AnnexBoostFarm.sol:AnnexBoostFarm",
            "label": "rewardEligibleSupply",
            "offset": 0,
            "slot": "5",
            "type": "t_uint256"
          }
        ],
        "numberOfBytes": "192"
      },
      "t_struct(UserInfo)41_storage": {
        "encoding": "inplace",
        "label": "struct AnnexBoostFarm.UserInfo",
        "members": [
          {
            "astId": 23,
            "contract": "contracts/AnnexBoostFarm.sol:AnnexBoostFarm",
            "label": "amount",
            "offset": 0,
            "slot": "0",
            "type": "t_uint256"
          },
          {
            "astId": 25,
            "contract": "contracts/AnnexBoostFarm.sol:AnnexBoostFarm",
            "label": "pendingAmount",
            "offset": 0,
            "slot": "1",
            "type": "t_uint256"
          },
          {
            "astId": 27,
            "contract": "contracts/AnnexBoostFarm.sol:AnnexBoostFarm",
            "label": "rewardDebt",
            "offset": 0,
            "slot": "2",
            "type": "t_uint256"
          },
          {
            "astId": 29,
            "contract": "contracts/AnnexBoostFarm.sol:AnnexBoostFarm",
            "label": "depositedDate",
            "offset": 0,
            "slot": "3",
            "type": "t_uint256"
          },
          {
            "astId": 32,
            "contract": "contracts/AnnexBoostFarm.sol:AnnexBoostFarm",
            "label": "boostFactors",
            "offset": 0,
            "slot": "4",
            "type": "t_array(t_uint256)dyn_storage"
          },
          {
            "astId": 34,
            "contract": "contracts/AnnexBoostFarm.sol:AnnexBoostFarm",
            "label": "boostRewardDebt",
            "offset": 0,
            "slot": "5",
            "type": "t_uint256"
          },
          {
            "astId": 36,
            "contract": "contracts/AnnexBoostFarm.sol:AnnexBoostFarm",
            "label": "boostedDate",
            "offset": 0,
            "slot": "6",
            "type": "t_uint256"
          },
          {
            "astId": 38,
            "contract": "contracts/AnnexBoostFarm.sol:AnnexBoostFarm",
            "label": "accBoostReward",
            "offset": 0,
            "slot": "7",
            "type": "t_uint256"
          },
          {
            "astId": 40,
            "contract": "contracts/AnnexBoostFarm.sol:AnnexBoostFarm",
            "label": "accBaseReward",
            "offset": 0,
            "slot": "8",
            "type": "t_uint256"
          }
        ],
        "numberOfBytes": "288"
      },
      "t_uint16": {
        "encoding": "inplace",
        "label": "uint16",
        "numberOfBytes": "2"
      },
      "t_uint256": {
        "encoding": "inplace",
        "label": "uint256",
        "numberOfBytes": "32"
      }
    }
  }
}