{
  "address": "0xE5b14B8c7Ae79dad90383f2039194c5C2671912a",
  "abi": [
    {
      "inputs": [
        {
          "internalType": "string",
          "name": "_name",
          "type": "string"
        },
        {
          "internalType": "string",
          "name": "_symbol",
          "type": "string"
        },
        {
          "internalType": "string",
          "name": "_initNotRevealedUri",
          "type": "string"
        },
        {
          "internalType": "address",
          "name": "_paymentsToken",
          "type": "address"
        }
      ],
      "stateMutability": "nonpayable",
      "type": "constructor"
    },
    {
      "anonymous": false,
      "inputs": [
        {
          "indexed": true,
          "internalType": "address",
          "name": "owner",
          "type": "address"
        },
        {
          "indexed": true,
          "internalType": "address",
          "name": "approved",
          "type": "address"
        },
        {
          "indexed": true,
          "internalType": "uint256",
          "name": "tokenId",
          "type": "uint256"
        }
      ],
      "name": "Approval",
      "type": "event"
    },
    {
      "anonymous": false,
      "inputs": [
        {
          "indexed": true,
          "internalType": "address",
          "name": "owner",
          "type": "address"
        },
        {
          "indexed": true,
          "internalType": "address",
          "name": "operator",
          "type": "address"
        },
        {
          "indexed": false,
          "internalType": "bool",
          "name": "approved",
          "type": "bool"
        }
      ],
      "name": "ApprovalForAll",
      "type": "event"
    },
    {
      "anonymous": false,
      "inputs": [
        {
          "indexed": true,
          "internalType": "address",
          "name": "previousOwner",
          "type": "address"
        },
        {
          "indexed": true,
          "internalType": "address",
          "name": "newOwner",
          "type": "address"
        }
      ],
      "name": "OwnershipTransferred",
      "type": "event"
    },
    {
      "anonymous": false,
      "inputs": [
        {
          "indexed": true,
          "internalType": "address",
          "name": "from",
          "type": "address"
        },
        {
          "indexed": true,
          "internalType": "address",
          "name": "to",
          "type": "address"
        },
        {
          "indexed": true,
          "internalType": "uint256",
          "name": "tokenId",
          "type": "uint256"
        }
      ],
      "name": "Transfer",
      "type": "event"
    },
    {
      "inputs": [
        {
          "internalType": "address",
          "name": "",
          "type": "address"
        }
      ],
      "name": "addressMintedBalance",
      "outputs": [
        {
          "internalType": "uint256",
          "name": "",
          "type": "uint256"
        }
      ],
      "stateMutability": "view",
      "type": "function"
    },
    {
      "inputs": [
        {
          "internalType": "address",
          "name": "to",
          "type": "address"
        },
        {
          "internalType": "uint256",
          "name": "tokenId",
          "type": "uint256"
        }
      ],
      "name": "approve",
      "outputs": [],
      "stateMutability": "nonpayable",
      "type": "function"
    },
    {
      "inputs": [
        {
          "internalType": "address",
          "name": "owner",
          "type": "address"
        }
      ],
      "name": "balanceOf",
      "outputs": [
        {
          "internalType": "uint256",
          "name": "",
          "type": "uint256"
        }
      ],
      "stateMutability": "view",
      "type": "function"
    },
    {
      "inputs": [],
      "name": "baseExtension",
      "outputs": [
        {
          "internalType": "string",
          "name": "",
          "type": "string"
        }
      ],
      "stateMutability": "view",
      "type": "function"
    },
    {
      "inputs": [],
      "name": "cost",
      "outputs": [
        {
          "internalType": "uint256",
          "name": "",
          "type": "uint256"
        }
      ],
      "stateMutability": "view",
      "type": "function"
    },
    {
      "inputs": [
        {
          "internalType": "uint256",
          "name": "tokenId",
          "type": "uint256"
        }
      ],
      "name": "getApproved",
      "outputs": [
        {
          "internalType": "address",
          "name": "",
          "type": "address"
        }
      ],
      "stateMutability": "view",
      "type": "function"
    },
    {
      "inputs": [],
      "name": "getBaseURI",
      "outputs": [
        {
          "internalType": "string",
          "name": "",
          "type": "string"
        }
      ],
      "stateMutability": "view",
      "type": "function"
    },
    {
      "inputs": [],
      "name": "getContractBalance",
      "outputs": [
        {
          "internalType": "uint256",
          "name": "",
          "type": "uint256"
        }
      ],
      "stateMutability": "view",
      "type": "function"
    },
    {
      "inputs": [],
      "name": "getCurrentCost",
      "outputs": [
        {
          "internalType": "uint256",
          "name": "",
          "type": "uint256"
        }
      ],
      "stateMutability": "view",
      "type": "function"
    },
    {
      "inputs": [],
      "name": "getSaleStarted",
      "outputs": [
        {
          "internalType": "bool",
          "name": "",
          "type": "bool"
        }
      ],
      "stateMutability": "view",
      "type": "function"
    },
    {
      "inputs": [
        {
          "internalType": "uint256",
          "name": "tokenId",
          "type": "uint256"
        }
      ],
      "name": "getStakedTime",
      "outputs": [
        {
          "internalType": "uint256",
          "name": "",
          "type": "uint256"
        }
      ],
      "stateMutability": "view",
      "type": "function"
    },
    {
      "inputs": [
        {
          "internalType": "address",
          "name": "_owner",
          "type": "address"
        }
      ],
      "name": "getUserMints",
      "outputs": [
        {
          "internalType": "uint256",
          "name": "",
          "type": "uint256"
        }
      ],
      "stateMutability": "view",
      "type": "function"
    },
    {
      "inputs": [
        {
          "internalType": "uint256",
          "name": "_mintAmount",
          "type": "uint256"
        },
        {
          "internalType": "address",
          "name": "destination",
          "type": "address"
        }
      ],
      "name": "gift",
      "outputs": [],
      "stateMutability": "nonpayable",
      "type": "function"
    },
    {
      "inputs": [
        {
          "internalType": "address",
          "name": "owner",
          "type": "address"
        },
        {
          "internalType": "address",
          "name": "operator",
          "type": "address"
        }
      ],
      "name": "isApprovedForAll",
      "outputs": [
        {
          "internalType": "bool",
          "name": "",
          "type": "bool"
        }
      ],
      "stateMutability": "view",
      "type": "function"
    },
    {
      "inputs": [
        {
          "internalType": "address",
          "name": "_user",
          "type": "address"
        }
      ],
      "name": "isWhitelisted",
      "outputs": [
        {
          "internalType": "bool",
          "name": "",
          "type": "bool"
        }
      ],
      "stateMutability": "view",
      "type": "function"
    },
    {
      "inputs": [],
      "name": "maxMintAmount",
      "outputs": [
        {
          "internalType": "uint256",
          "name": "",
          "type": "uint256"
        }
      ],
      "stateMutability": "view",
      "type": "function"
    },
    {
      "inputs": [],
      "name": "maxSupply",
      "outputs": [
        {
          "internalType": "uint256",
          "name": "",
          "type": "uint256"
        }
      ],
      "stateMutability": "view",
      "type": "function"
    },
    {
      "inputs": [
        {
          "internalType": "uint256",
          "name": "_mintAmount",
          "type": "uint256"
        }
      ],
      "name": "mint",
      "outputs": [],
      "stateMutability": "nonpayable",
      "type": "function"
    },
    {
      "inputs": [],
      "name": "name",
      "outputs": [
        {
          "internalType": "string",
          "name": "",
          "type": "string"
        }
      ],
      "stateMutability": "view",
      "type": "function"
    },
    {
      "inputs": [],
      "name": "nftPerAddressLimit",
      "outputs": [
        {
          "internalType": "uint256",
          "name": "",
          "type": "uint256"
        }
      ],
      "stateMutability": "view",
      "type": "function"
    },
    {
      "inputs": [],
      "name": "notRevealedUri",
      "outputs": [
        {
          "internalType": "string",
          "name": "",
          "type": "string"
        }
      ],
      "stateMutability": "view",
      "type": "function"
    },
    {
      "inputs": [],
      "name": "owner",
      "outputs": [
        {
          "internalType": "address",
          "name": "",
          "type": "address"
        }
      ],
      "stateMutability": "view",
      "type": "function"
    },
    {
      "inputs": [
        {
          "internalType": "uint256",
          "name": "tokenId",
          "type": "uint256"
        }
      ],
      "name": "ownerOf",
      "outputs": [
        {
          "internalType": "address",
          "name": "",
          "type": "address"
        }
      ],
      "stateMutability": "view",
      "type": "function"
    },
    {
      "inputs": [
        {
          "internalType": "bool",
          "name": "_state",
          "type": "bool"
        }
      ],
      "name": "pause",
      "outputs": [],
      "stateMutability": "nonpayable",
      "type": "function"
    },
    {
      "inputs": [],
      "name": "paused",
      "outputs": [
        {
          "internalType": "bool",
          "name": "",
          "type": "bool"
        }
      ],
      "stateMutability": "view",
      "type": "function"
    },
    {
      "inputs": [],
      "name": "paymentsToken",
      "outputs": [
        {
          "internalType": "contract IERC20",
          "name": "",
          "type": "address"
        }
      ],
      "stateMutability": "view",
      "type": "function"
    },
    {
      "inputs": [],
      "name": "publicSaleDate",
      "outputs": [
        {
          "internalType": "uint256",
          "name": "",
          "type": "uint256"
        }
      ],
      "stateMutability": "view",
      "type": "function"
    },
    {
      "inputs": [
        {
          "internalType": "uint256",
          "name": "_ownerMintedCount",
          "type": "uint256"
        },
        {
          "internalType": "uint256",
          "name": "_mintAmount",
          "type": "uint256"
        }
      ],
      "name": "publicsaleValidations",
      "outputs": [],
      "stateMutability": "view",
      "type": "function"
    },
    {
      "inputs": [],
      "name": "renounceOwnership",
      "outputs": [],
      "stateMutability": "nonpayable",
      "type": "function"
    },
    {
      "inputs": [],
      "name": "reveal",
      "outputs": [],
      "stateMutability": "nonpayable",
      "type": "function"
    },
    {
      "inputs": [],
      "name": "revealed",
      "outputs": [
        {
          "internalType": "bool",
          "name": "",
          "type": "bool"
        }
      ],
      "stateMutability": "view",
      "type": "function"
    },
    {
      "inputs": [
        {
          "internalType": "address",
          "name": "from",
          "type": "address"
        },
        {
          "internalType": "address",
          "name": "to",
          "type": "address"
        },
        {
          "internalType": "uint256",
          "name": "tokenId",
          "type": "uint256"
        }
      ],
      "name": "safeTransferFrom",
      "outputs": [],
      "stateMutability": "nonpayable",
      "type": "function"
    },
    {
      "inputs": [
        {
          "internalType": "address",
          "name": "from",
          "type": "address"
        },
        {
          "internalType": "address",
          "name": "to",
          "type": "address"
        },
        {
          "internalType": "uint256",
          "name": "tokenId",
          "type": "uint256"
        },
        {
          "internalType": "bytes",
          "name": "_data",
          "type": "bytes"
        }
      ],
      "name": "safeTransferFrom",
      "outputs": [],
      "stateMutability": "nonpayable",
      "type": "function"
    },
    {
      "inputs": [
        {
          "internalType": "address",
          "name": "operator",
          "type": "address"
        },
        {
          "internalType": "bool",
          "name": "approved",
          "type": "bool"
        }
      ],
      "name": "setApprovalForAll",
      "outputs": [],
      "stateMutability": "nonpayable",
      "type": "function"
    },
    {
      "inputs": [
        {
          "internalType": "string",
          "name": "_newBaseExtension",
          "type": "string"
        }
      ],
      "name": "setBaseExtension",
      "outputs": [],
      "stateMutability": "nonpayable",
      "type": "function"
    },
    {
      "inputs": [
        {
          "internalType": "string",
          "name": "_newBaseURI",
          "type": "string"
        }
      ],
      "name": "setBaseURI",
      "outputs": [],
      "stateMutability": "nonpayable",
      "type": "function"
    },
    {
      "inputs": [
        {
          "internalType": "uint256",
          "name": "_newCost",
          "type": "uint256"
        }
      ],
      "name": "setCost",
      "outputs": [],
      "stateMutability": "nonpayable",
      "type": "function"
    },
    {
      "inputs": [
        {
          "internalType": "uint256",
          "name": "_limit",
          "type": "uint256"
        }
      ],
      "name": "setNftPerAddressLimit",
      "outputs": [],
      "stateMutability": "nonpayable",
      "type": "function"
    },
    {
      "inputs": [
        {
          "internalType": "string",
          "name": "_notRevealedURI",
          "type": "string"
        }
      ],
      "name": "setNotRevealedURI",
      "outputs": [],
      "stateMutability": "nonpayable",
      "type": "function"
    },
    {
      "inputs": [
        {
          "internalType": "uint256",
          "name": "_publicSaleDate",
          "type": "uint256"
        }
      ],
      "name": "setPublicSaleDate",
      "outputs": [],
      "stateMutability": "nonpayable",
      "type": "function"
    },
    {
      "inputs": [
        {
          "internalType": "address",
          "name": "_address",
          "type": "address"
        }
      ],
      "name": "setStakingAddress",
      "outputs": [],
      "stateMutability": "nonpayable",
      "type": "function"
    },
    {
      "inputs": [
        {
          "internalType": "uint256",
          "name": "_point",
          "type": "uint256"
        }
      ],
      "name": "setStopPoint",
      "outputs": [],
      "stateMutability": "nonpayable",
      "type": "function"
    },
    {
      "inputs": [
        {
          "internalType": "uint256",
          "name": "_newmaxMintAmount",
          "type": "uint256"
        }
      ],
      "name": "setmaxMintAmount",
      "outputs": [],
      "stateMutability": "nonpayable",
      "type": "function"
    },
    {
      "inputs": [
        {
          "internalType": "uint256",
          "name": "",
          "type": "uint256"
        }
      ],
      "name": "stakeTime",
      "outputs": [
        {
          "internalType": "uint256",
          "name": "",
          "type": "uint256"
        }
      ],
      "stateMutability": "view",
      "type": "function"
    },
    {
      "inputs": [
        {
          "internalType": "uint256",
          "name": "",
          "type": "uint256"
        }
      ],
      "name": "stakedInTime",
      "outputs": [
        {
          "internalType": "uint256",
          "name": "",
          "type": "uint256"
        }
      ],
      "stateMutability": "view",
      "type": "function"
    },
    {
      "inputs": [],
      "name": "stakingAddress",
      "outputs": [
        {
          "internalType": "address",
          "name": "",
          "type": "address"
        }
      ],
      "stateMutability": "view",
      "type": "function"
    },
    {
      "inputs": [],
      "name": "stopPoint",
      "outputs": [
        {
          "internalType": "uint256",
          "name": "",
          "type": "uint256"
        }
      ],
      "stateMutability": "view",
      "type": "function"
    },
    {
      "inputs": [
        {
          "internalType": "bytes4",
          "name": "interfaceId",
          "type": "bytes4"
        }
      ],
      "name": "supportsInterface",
      "outputs": [
        {
          "internalType": "bool",
          "name": "",
          "type": "bool"
        }
      ],
      "stateMutability": "view",
      "type": "function"
    },
    {
      "inputs": [],
      "name": "symbol",
      "outputs": [
        {
          "internalType": "string",
          "name": "",
          "type": "string"
        }
      ],
      "stateMutability": "view",
      "type": "function"
    },
    {
      "inputs": [
        {
          "internalType": "uint256",
          "name": "index",
          "type": "uint256"
        }
      ],
      "name": "tokenByIndex",
      "outputs": [
        {
          "internalType": "uint256",
          "name": "",
          "type": "uint256"
        }
      ],
      "stateMutability": "view",
      "type": "function"
    },
    {
      "inputs": [
        {
          "internalType": "address",
          "name": "owner",
          "type": "address"
        },
        {
          "internalType": "uint256",
          "name": "index",
          "type": "uint256"
        }
      ],
      "name": "tokenOfOwnerByIndex",
      "outputs": [
        {
          "internalType": "uint256",
          "name": "",
          "type": "uint256"
        }
      ],
      "stateMutability": "view",
      "type": "function"
    },
    {
      "inputs": [
        {
          "internalType": "uint256",
          "name": "tokenId",
          "type": "uint256"
        }
      ],
      "name": "tokenURI",
      "outputs": [
        {
          "internalType": "string",
          "name": "",
          "type": "string"
        }
      ],
      "stateMutability": "view",
      "type": "function"
    },
    {
      "inputs": [],
      "name": "totalSupply",
      "outputs": [
        {
          "internalType": "uint256",
          "name": "",
          "type": "uint256"
        }
      ],
      "stateMutability": "view",
      "type": "function"
    },
    {
      "inputs": [
        {
          "internalType": "address",
          "name": "from",
          "type": "address"
        },
        {
          "internalType": "address",
          "name": "to",
          "type": "address"
        },
        {
          "internalType": "uint256",
          "name": "tokenId",
          "type": "uint256"
        }
      ],
      "name": "transferFrom",
      "outputs": [],
      "stateMutability": "nonpayable",
      "type": "function"
    },
    {
      "inputs": [
        {
          "internalType": "address",
          "name": "newOwner",
          "type": "address"
        }
      ],
      "name": "transferOwnership",
      "outputs": [],
      "stateMutability": "nonpayable",
      "type": "function"
    },
    {
      "inputs": [
        {
          "internalType": "uint256",
          "name": "tokenId",
          "type": "uint256"
        },
        {
          "internalType": "bool",
          "name": "isStake",
          "type": "bool"
        }
      ],
      "name": "updateStakeTime",
      "outputs": [],
      "stateMutability": "nonpayable",
      "type": "function"
    },
    {
      "inputs": [
        {
          "internalType": "address",
          "name": "_owner",
          "type": "address"
        }
      ],
      "name": "walletOfOwner",
      "outputs": [
        {
          "internalType": "uint256[]",
          "name": "",
          "type": "uint256[]"
        }
      ],
      "stateMutability": "view",
      "type": "function"
    },
    {
      "inputs": [
        {
          "internalType": "address[]",
          "name": "addresses",
          "type": "address[]"
        }
      ],
      "name": "whitelistUsers",
      "outputs": [],
      "stateMutability": "nonpayable",
      "type": "function"
    },
    {
      "inputs": [],
      "name": "withdraw",
      "outputs": [],
      "stateMutability": "nonpayable",
      "type": "function"
    }
  ],
  "transactionHash": "0x4c9ba5c4c60de4be52f4ce9a2bb29cce84c3ef5b59bab876cd44bb77c3a8dbd4",
  "args": [
    "AnnexIronWolf",
    "AWN",
    "https://nftassets.annex.finance/ipfs/QmeHoeon52U4HYuemkfuKtzxcSZV2xSW69rBeEKKPzav4G",
    "0xb75f3F9D35d256a94BBd7A3fC2E16c768E17930E"
  ],
  "solcInputHash": "9d9fcc3a8f6766da8204060fc9194e73",
  "bytecode": "0x60c06040526005608081905264173539b7b760d91b60a09081526200002891600c9190620001b6565b50691fc3842bd1f071c00000600e556107d0600f81905560146010819055606460115563623892f0601255601391909155805461ffff60a01b191690553480156200007257600080fd5b5060405162003843380380620038438339810160408190526200009591620002e8565b835184908490620000ae906000906020850190620001b6565b508051620000c4906001906020840190620001b6565b505050620000e1620000db6200011160201b60201c565b62000115565b601980546001600160a01b0319166001600160a01b038316179055620001078262000167565b505050506200051b565b3390565b600a80546001600160a01b038381166001600160a01b0319831681179093556040519116919082907f8be0079c531659141344cd1fd0a4f28419497f9722a3daafe3b4186f6b6457e090600090a35050565b600a546001600160a01b031633146200019d5760405162461bcd60e51b81526004016200019490620003a9565b60405180910390fd5b8051620001b290600d906020840190620001b6565b5050565b828054620001c49062000475565b90600052602060002090601f016020900481019282620001e8576000855562000233565b82601f106200020357805160ff191683800117855562000233565b8280016001018555821562000233579182015b828111156200023357825182559160200191906001019062000216565b506200024192915062000245565b5090565b5b8082111562000241576000815560010162000246565b6000620002736200026d8462000403565b620003e4565b905082815260208101848484011115620002905762000290600080fd5b6200029d84828562000442565b509392505050565b8051620002b28162000501565b92915050565b600082601f830112620002ce57620002ce600080fd5b8151620002e08482602086016200025c565b949350505050565b60008060008060808587031215620003035762000303600080fd5b84516001600160401b038111156200031e576200031e600080fd5b6200032c87828801620002b8565b94505060208501516001600160401b038111156200034d576200034d600080fd5b6200035b87828801620002b8565b93505060408501516001600160401b038111156200037c576200037c600080fd5b6200038a87828801620002b8565b92505060606200039d87828801620002a5565b91505092959194509250565b60208082528181019081527f4f776e61626c653a2063616c6c6572206973206e6f7420746865206f776e6572604083015260608201620002b2565b6000620003f060405190565b9050620003fe8282620004a6565b919050565b60006001600160401b038211156200041f576200041f620004eb565b601f19601f83011660200192915050565b60006001600160a01b038216620002b2565b60005b838110156200045f57818101518382015260200162000445565b838111156200046f576000848401525b50505050565b6002810460018216806200048a57607f821691505b60208210811415620004a057620004a0620004d5565b50919050565b601f19601f83011681018181106001600160401b0382111715620004ce57620004ce620004eb565b6040525050565b634e487b7160e01b600052602260045260246000fd5b634e487b7160e01b600052604160045260246000fd5b6200050c8162000430565b81146200051857600080fd5b50565b613318806200052b6000396000f3fe608060405234801561001057600080fd5b50600436106103995760003560e01c8063714c5398116101e9578063ba7d2c761161010f578063da3ef23f116100ad578063f2c4ce1e1161007c578063f2c4ce1e146107b5578063f2fde38b146107c8578063f4e0d9ac146107db578063ffb75cab146107ee57600080fd5b8063da3ef23f1461074a578063e985e9c51461075d578063eced387314610799578063edec5f27146107a257600080fd5b8063cfa92d94116100e9578063cfa92d94146106fb578063d0eb26b01461071b578063d5abeb011461072e578063d7b4be241461073757600080fd5b8063ba7d2c76146106d7578063c6682862146106e0578063c87b56dd146106e857600080fd5b806395d89b4111610187578063a2c2239f11610156578063a2c2239f14610693578063a475b5dd1461069c578063ae1f5a94146106a4578063b88d4fde146106c457600080fd5b806395d89b41146106525780639b6b3f6b1461065a578063a0712d681461066d578063a22cb4651461068057600080fd5b80637f00c7a6116101c35780637f00c7a614610613578063831e60de1461062657806383a076be1461062e5780638da5cb5b1461064157600080fd5b8063714c5398146105f0578063715018a6146105f85780637d332a1c1461060057600080fd5b80632f745c59116102ce578063518302271161026c5780635c975abb1161023b5780635c975abb146105ae5780636352211e146105c25780636f9fb98a146105d557806370a08231146105dd57600080fd5b8063518302271461056157806353e4c0b81461057557806355f804b3146105885780635b0d65d81461059b57600080fd5b806342842e0e116102a857806342842e0e14610508578063438b63001461051b57806344a0d68a1461053b5780634f6ccce71461054e57600080fd5b80632f745c59146104c15780633af32abf146104d45780633ccfd60b1461050057600080fd5b80630b64251e1161033b57806318160ddd1161031557806318160ddd1461047d57806318cae26914610485578063239c70ae146104a557806323b872dd146104ae57600080fd5b80630b64251e146104595780630e54a8831461046157806313faede61461047457600080fd5b8063081812fc11610377578063081812fc146103f1578063081c8c4414610411578063095ea7b3146104195780630a42f0491461042c57600080fd5b806301ffc9a71461039e57806302329a29146103c757806306fdde03146103dc575b600080fd5b6103b16103ac3660046124e8565b610817565b6040516103be9190612e91565b60405180910390f35b6103da6103d53660046124a6565b610842565b005b6103e4610893565b6040516103be9190612ead565b6104046103ff366004612565565b610925565b6040516103be9190612deb565b6103e4610975565b6103da610427366004612438565b610a03565b61044c61043a366004612565565b60186020526000908152604090205481565b6040516103be9190613073565b6103b1610a89565b6103da61046f366004612565565b610aac565b61044c600e5481565b60085461044c565b61044c6104933660046122d8565b60166020526000908152604090205481565b61044c60105481565b6103da6104bc366004612336565b610adb565b61044c6104cf366004612438565b610b0c565b6103b16104e23660046122d8565b6001600160a01b031660009081526015602052604090205460ff1690565b6103da610b5e565b6103da610516366004612336565b610ca0565b61052e6105293660046122d8565b610cbb565b6040516103be9190612e80565b6103da610549366004612565565b610d5d565b61044c61055c366004612565565b610d8c565b6014546103b190600160a81b900460ff1681565b6103da6105833660046125c9565b610dda565b6103da61059636600461252a565b610e6f565b6103da6105a93660046125eb565b610eac565b6014546103b190600160a01b900460ff1681565b6104046105d0366004612565565b610ef9565b61044c610f2e565b61044c6105eb3660046122d8565b610fdb565b6103e461101f565b6103da611059565b6103da61060e366004612565565b61108f565b6103da610621366004612565565b6110e0565b600e5461044c565b6103da61063c3660046125a7565b61110f565b600a546001600160a01b0316610404565b6103e46111f1565b61044c610668366004612565565b611200565b6103da61067b366004612565565b611256565b6103da61068e366004612405565b611400565b61044c60135481565b6103da61140b565b6019546106b7906001600160a01b031681565b6040516103be9190612e9f565b6103da6106d2366004612386565b61144a565b61044c60115481565b6103e461147c565b6103e46106f6366004612565565b611489565b61044c610709366004612565565b60176020526000908152604090205481565b6103da610729366004612565565b6115c6565b61044c600f5481565b601454610404906001600160a01b031681565b6103da61075836600461252a565b6115f5565b6103b161076b3660046122f9565b6001600160a01b03918216600090815260056020908152604080832093909416825291909152205460ff1690565b61044c60125481565b6103da6107b036600461246b565b611632565b6103da6107c336600461252a565b6116c4565b6103da6107d63660046122d8565b611701565b6103da6107e93660046122d8565b61175d565b61044c6107fc3660046122d8565b6001600160a01b031660009081526016602052604090205490565b60006001600160e01b0319821663780e9d6360e01b148061083c575061083c826117a9565b92915050565b600a546001600160a01b031633146108755760405162461bcd60e51b815260040161086c90612fde565b60405180910390fd5b60148054911515600160a01b0260ff60a01b19909216919091179055565b6060600080546108a2906131a3565b80601f01602080910402602001604051908101604052809291908181526020018280546108ce906131a3565b801561091b5780601f106108f05761010080835404028352916020019161091b565b820191906000526020600020905b8154815290600101906020018083116108fe57829003601f168201915b5050505050905090565b6000818152600260205260408120546001600160a01b03166109595760405162461bcd60e51b815260040161086c90612fce565b506000908152600460205260409020546001600160a01b031690565b600d8054610982906131a3565b80601f01602080910402602001604051908101604052809291908181526020018280546109ae906131a3565b80156109fb5780601f106109d0576101008083540402835291602001916109fb565b820191906000526020600020905b8154815290600101906020018083116109de57829003601f168201915b505050505081565b6000610a0e82610ef9565b9050806001600160a01b0316836001600160a01b03161415610a425760405162461bcd60e51b815260040161086c9061301e565b336001600160a01b0382161480610a5e5750610a5e813361076b565b610a7a5760405162461bcd60e51b815260040161086c90612f7e565b610a8483836117f9565b505050565b60006012544210158015610aa75750601454600160a01b900460ff16155b905090565b600a546001600160a01b03163314610ad65760405162461bcd60e51b815260040161086c90612fde565b601255565b610ae53382611867565b610b015760405162461bcd60e51b815260040161086c90613043565b610a84838383611919565b6000610b1783610fdb565b8210610b355760405162461bcd60e51b815260040161086c90612ece565b506001600160a01b03919091166000908152600660209081526040808320938352929052205490565b600a546001600160a01b03163314610b885760405162461bcd60e51b815260040161086c90612fde565b6019546040516370a0823160e01b81526000916001600160a01b0316906370a0823190610bb9903090600401612deb565b60206040518083038186803b158015610bd157600080fd5b505afa158015610be5573d6000803e3d6000fd5b505050506040513d601f19601f82011682018060405250810190610c099190612586565b905060008111610c1857600080fd5b60195460405163a9059cbb60e01b81526001600160a01b039091169063a9059cbb90610c4a9033908590600401612e65565b602060405180830381600087803b158015610c6457600080fd5b505af1158015610c78573d6000803e3d6000fd5b505050506040513d601f19601f82011682018060405250810190610c9c91906124c7565b5050565b610a848383836040518060200160405280600081525061144a565b60606000610cc883610fdb565b905060008167ffffffffffffffff811115610ce557610ce561329a565b604051908082528060200260200182016040528015610d0e578160200160208202803683370190505b50905060005b82811015610d5557610d268582610b0c565b828281518110610d3857610d38613284565b602090810291909101015280610d4d816131fd565b915050610d14565b509392505050565b600a546001600160a01b03163314610d875760405162461bcd60e51b815260040161086c90612fde565b600e55565b6000610d9760085490565b8210610db55760405162461bcd60e51b815260040161086c90613053565b60088281548110610dc857610dc8613284565b90600052602060002001549050919050565b6014546001600160a01b03163314610e045760405162461bcd60e51b815260040161086c9061302e565b8015610e1e57506000908152601860205260409020429055565b600082815260186020908152604080832054601790925290912054610e449042906130e7565b610e4e9190613132565b60008381526017602090815260408083209390935560189052908120555050565b600a546001600160a01b03163314610e995760405162461bcd60e51b815260040161086c90612fde565b8051610c9c90600b90602084019061210b565b601154610eb982846130e7565b1115610ed75760405162461bcd60e51b815260040161086c90612f2e565b601054811115610c9c5760405162461bcd60e51b815260040161086c90612f5e565b6000818152600260205260408120546001600160a01b03168061083c5760405162461bcd60e51b815260040161086c90612f9e565b600a546000906001600160a01b03163314610f5b5760405162461bcd60e51b815260040161086c90612fde565b6019546040516370a0823160e01b81526001600160a01b03909116906370a0823190610f8b903090600401612deb565b60206040518083038186803b158015610fa357600080fd5b505afa158015610fb7573d6000803e3d6000fd5b505050506040513d601f19601f82011682018060405250810190610aa79190612586565b60006001600160a01b0382166110035760405162461bcd60e51b815260040161086c90612f8e565b506001600160a01b031660009081526003602052604090205490565b600a546060906001600160a01b0316331461104c5760405162461bcd60e51b815260040161086c90612fde565b600b80546108a2906131a3565b600a546001600160a01b031633146110835760405162461bcd60e51b815260040161086c90612fde565b61108d6000611a46565b565b600a546001600160a01b031633146110b95760405162461bcd60e51b815260040161086c90612fde565b600f548111156110db5760405162461bcd60e51b815260040161086c9061300e565b601355565b600a546001600160a01b0316331461110a5760405162461bcd60e51b815260040161086c90612fde565b601055565b600a546001600160a01b031633146111395760405162461bcd60e51b815260040161086c90612fde565b600082116111595760405162461bcd60e51b815260040161086c90613063565b600061116460085490565b600f5490915061117484836130e7565b11156111925760405162461bcd60e51b815260040161086c90612fae565b60015b8381116111eb576001600160a01b03831660009081526016602052604081208054916111c0836131fd565b909155506111d99050836111d483856130e7565b611a98565b806111e3816131fd565b915050611195565b50505050565b6060600180546108a2906131a3565b60008181526017602090815260408083205460189092528220541561083c576000838152601860209081526040808320546017909252909120546112459042906130e7565b61124f9190613132565b9392505050565b601454600160a01b900460ff16156112805760405162461bcd60e51b815260040161086c90612fee565b6012544210156112a25760405162461bcd60e51b815260040161086c90612ebe565b80600081116112c35760405162461bcd60e51b815260040161086c90613063565b60006112ce60085490565b336000908152601660205260409020549091506112eb8185610eac565b6013546112f885846130e7565b11156113165760405162461bcd60e51b815260040161086c90612f0e565b601954600e546001600160a01b03909116906323b872dd903390309061133d908990613113565b6040518463ffffffff1660e01b815260040161135b93929190612df9565b602060405180830381600087803b15801561137557600080fd5b505af1158015611389573d6000803e3d6000fd5b505050506040513d601f19601f820116820180604052508101906113ad91906124c7565b5060015b8481116113f9573360009081526016602052604081208054916113d3836131fd565b909155506113e79050336111d483866130e7565b806113f1816131fd565b9150506113b1565b5050505050565b610c9c338383611ab2565b600a546001600160a01b031633146114355760405162461bcd60e51b815260040161086c90612fde565b6014805460ff60a81b1916600160a81b179055565b6114543383611867565b6114705760405162461bcd60e51b815260040161086c90613043565b6111eb84848484611b55565b600c8054610982906131a3565b6000818152600260205260409020546060906001600160a01b03166114c05760405162461bcd60e51b815260040161086c90612ffe565b601454600160a81b900460ff1661156357600d80546114de906131a3565b80601f016020809104026020016040519081016040528092919081815260200182805461150a906131a3565b80156115575780601f1061152c57610100808354040283529160200191611557565b820191906000526020600020905b81548152906001019060200180831161153a57829003601f168201915b50505050509050919050565b600061156d611b88565b9050600081511161158d576040518060200160405280600081525061124f565b8061159784611b97565b600c6040516020016115ab93929190612dbe565b6040516020818303038152906040529392505050565b919050565b600a546001600160a01b031633146115f05760405162461bcd60e51b815260040161086c90612fde565b601155565b600a546001600160a01b0316331461161f5760405162461bcd60e51b815260040161086c90612fde565b8051610c9c90600c90602084019061210b565b600a546001600160a01b0316331461165c5760405162461bcd60e51b815260040161086c90612fde565b60005b8151811015610c9c5760016015600084848151811061168057611680613284565b6020908102919091018101516001600160a01b03168252810191909152604001600020805460ff1916911515919091179055806116bc816131fd565b91505061165f565b600a546001600160a01b031633146116ee5760405162461bcd60e51b815260040161086c90612fde565b8051610c9c90600d90602084019061210b565b600a546001600160a01b0316331461172b5760405162461bcd60e51b815260040161086c90612fde565b6001600160a01b0381166117515760405162461bcd60e51b815260040161086c90612eee565b61175a81611a46565b50565b600a546001600160a01b031633146117875760405162461bcd60e51b815260040161086c90612fde565b601480546001600160a01b0319166001600160a01b0392909216919091179055565b60006001600160e01b031982166380ac58cd60e01b14806117da57506001600160e01b03198216635b5e139f60e01b145b8061083c57506301ffc9a760e01b6001600160e01b031983161461083c565b600081815260046020526040902080546001600160a01b0319166001600160a01b038416908117909155819061182e82610ef9565b6001600160a01b03167f8c5be1e5ebec7d5bd14f71427d1e84f3dd0314c0f7b2291e5b200ac8c7c3b92560405160405180910390a45050565b6000818152600260205260408120546001600160a01b031661189b5760405162461bcd60e51b815260040161086c90612f6e565b60006118a683610ef9565b9050806001600160a01b0316846001600160a01b031614806118e15750836001600160a01b03166118d684610925565b6001600160a01b0316145b8061191157506001600160a01b0380821660009081526005602090815260408083209388168352929052205460ff165b949350505050565b826001600160a01b031661192c82610ef9565b6001600160a01b0316146119525760405162461bcd60e51b815260040161086c90612efe565b6001600160a01b0382166119785760405162461bcd60e51b815260040161086c90612f3e565b611983838383611c95565b61198e6000826117f9565b6001600160a01b03831660009081526003602052604081208054600192906119b7908490613132565b90915550506001600160a01b03821660009081526003602052604081208054600192906119e59084906130e7565b909155505060008181526002602052604080822080546001600160a01b0319166001600160a01b0386811691821790925591518493918716917fddf252ad1be2c89b69c2b068fc378daa952ba7f163c4a11628f55a4df523b3ef91a4505050565b600a80546001600160a01b038381166001600160a01b0319831681179093556040519116919082907f8be0079c531659141344cd1fd0a4f28419497f9722a3daafe3b4186f6b6457e090600090a35050565b610c9c828260405180602001604052806000815250611d4d565b816001600160a01b0316836001600160a01b03161415611ae45760405162461bcd60e51b815260040161086c90612f4e565b6001600160a01b0383811660008181526005602090815260408083209487168084529490915290819020805460ff1916851515179055517f17307eab39ab6107e8899845ad3d59bd9653f200f220920489ca2b5937696c3190611b48908590612e91565b60405180910390a3505050565b611b60848484611919565b611b6c84848484611d80565b6111eb5760405162461bcd60e51b815260040161086c90612ede565b6060600b80546108a2906131a3565b606081611bbb5750506040805180820190915260018152600360fc1b602082015290565b8160005b8115611be55780611bcf816131fd565b9150611bde9050600a836130ff565b9150611bbf565b60008167ffffffffffffffff811115611c0057611c0061329a565b6040519080825280601f01601f191660200182016040528015611c2a576020820181803683370190505b5090505b841561191157611c3f600183613132565b9150611c4c600a86613218565b611c579060306130e7565b60f81b818381518110611c6c57611c6c613284565b60200101906001600160f81b031916908160001a905350611c8e600a866130ff565b9450611c2e565b6001600160a01b038316611cf057611ceb81600880546000838152600960205260408120829055600182018355919091527ff3f7a9fe364faab93b216da50a3214154f22a0a2b415b23a84c8169e8b636ee30155565b611d13565b816001600160a01b0316836001600160a01b031614611d1357611d138382611e8d565b6001600160a01b038216611d2a57610a8481611f2a565b826001600160a01b0316826001600160a01b031614610a8457610a848282611fd9565b611d57838361201d565b611d646000848484611d80565b610a845760405162461bcd60e51b815260040161086c90612ede565b60006001600160a01b0384163b15611e8257604051630a85bd0160e11b81526001600160a01b0385169063150b7a0290611dc4903390899088908890600401612e21565b602060405180830381600087803b158015611dde57600080fd5b505af1925050508015611e0e575060408051601f3d908101601f19168201909252611e0b91810190612509565b60015b611e68573d808015611e3c576040519150601f19603f3d011682016040523d82523d6000602084013e611e41565b606091505b508051611e605760405162461bcd60e51b815260040161086c90612ede565b805181602001fd5b6001600160e01b031916630a85bd0160e11b149050611911565b506001949350505050565b60006001611e9a84610fdb565b611ea49190613132565b600083815260076020526040902054909150808214611ef7576001600160a01b03841660009081526006602090815260408083208584528252808320548484528184208190558352600790915290208190555b5060009182526007602090815260408084208490556001600160a01b039094168352600681528383209183525290812055565b600854600090611f3c90600190613132565b60008381526009602052604081205460088054939450909284908110611f6457611f64613284565b906000526020600020015490508060088381548110611f8557611f85613284565b6000918252602080832090910192909255828152600990915260408082208490558582528120556008805480611fbd57611fbd61326e565b6001900381819060005260206000200160009055905550505050565b6000611fe483610fdb565b6001600160a01b039093166000908152600660209081526040808320868452825280832085905593825260079052919091209190915550565b6001600160a01b0382166120435760405162461bcd60e51b815260040161086c90612fbe565b6000818152600260205260409020546001600160a01b0316156120785760405162461bcd60e51b815260040161086c90612f1e565b61208460008383611c95565b6001600160a01b03821660009081526003602052604081208054600192906120ad9084906130e7565b909155505060008181526002602052604080822080546001600160a01b0319166001600160a01b03861690811790915590518392907fddf252ad1be2c89b69c2b068fc378daa952ba7f163c4a11628f55a4df523b3ef908290a45050565b828054612117906131a3565b90600052602060002090601f016020900481019282612139576000855561217f565b82601f1061215257805160ff191683800117855561217f565b8280016001018555821561217f579182015b8281111561217f578251825591602001919060010190612164565b5061218b92915061218f565b5090565b5b8082111561218b5760008155600101612190565b60006121b76121b284613098565b613081565b905080838252602082019050828560208602820111156121d9576121d9600080fd5b60005b8581101561220557816121ef8882612243565b84525060209283019291909101906001016121dc565b5050509392505050565b600061221d6121b2846130bc565b90508281526020810184848401111561223857612238600080fd5b610d5584828561316b565b803561083c816132b0565b600082601f83011261226257612262600080fd5b81356119118482602086016121a4565b803561083c816132c4565b805161083c816132c4565b803561083c816132cc565b805161083c816132cc565b600082601f8301126122b2576122b2600080fd5b813561191184826020860161220f565b803561083c816132dc565b805161083c816132dc565b6000602082840312156122ed576122ed600080fd5b60006119118484612243565b6000806040838503121561230f5761230f600080fd5b600061231b8585612243565b925050602061232c85828601612243565b9150509250929050565b60008060006060848603121561234e5761234e600080fd5b600061235a8686612243565b935050602061236b86828701612243565b925050604061237c868287016122c2565b9150509250925092565b6000806000806080858703121561239f5761239f600080fd5b60006123ab8787612243565b94505060206123bc87828801612243565b93505060406123cd878288016122c2565b925050606085013567ffffffffffffffff8111156123ed576123ed600080fd5b6123f98782880161229e565b91505092959194509250565b6000806040838503121561241b5761241b600080fd5b60006124278585612243565b925050602061232c85828601612272565b6000806040838503121561244e5761244e600080fd5b600061245a8585612243565b925050602061232c858286016122c2565b60006020828403121561248057612480600080fd5b813567ffffffffffffffff81111561249a5761249a600080fd5b6119118482850161224e565b6000602082840312156124bb576124bb600080fd5b60006119118484612272565b6000602082840312156124dc576124dc600080fd5b6000611911848461227d565b6000602082840312156124fd576124fd600080fd5b60006119118484612288565b60006020828403121561251e5761251e600080fd5b60006119118484612293565b60006020828403121561253f5761253f600080fd5b813567ffffffffffffffff81111561255957612559600080fd5b6119118482850161229e565b60006020828403121561257a5761257a600080fd5b600061191184846122c2565b60006020828403121561259b5761259b600080fd5b600061191184846122cd565b600080604083850312156125bd576125bd600080fd5b600061231b85856122c2565b600080604083850312156125df576125df600080fd5b600061242785856122c2565b6000806040838503121561260157612601600080fd5b600061245a85856122c2565b60006126198383612db8565b505060200190565b61262a81613149565b82525050565b600061263a825190565b80845260209384019383018060005b8381101561266e57815161265d888261260d565b975060208301925050600101612649565b509495945050505050565b80151561262a565b600061268b825190565b8084526020840193506126a2818560208601613177565b601f01601f19169290920192915050565b61262a8161315a565b60006126c6825190565b6126d4818560208601613177565b9290920192915050565b600081546126eb816131a3565b600182168015612702576001811461271357612743565b60ff19831686528186019350612743565b60008581526020902060005b8381101561273b5781548882015260019091019060200161271f565b838801955050505b50505092915050565b601881526000602082017f53616c6520686173206e6f742073746172746564207965740000000000000000815291505b5060200190565b602b81526000602082017f455243373231456e756d657261626c653a206f776e657220696e646578206f7581526a74206f6620626f756e647360a81b602082015291505b5060400190565b603281526000602082017f4552433732313a207472616e7366657220746f206e6f6e20455243373231526581527131b2b4bb32b91034b6b83632b6b2b73a32b960711b602082015291506127c7565b602681526000602082017f4f776e61626c653a206e6577206f776e657220697320746865207a65726f206181526564647265737360d01b602082015291506127c7565b602581526000602082017f4552433732313a207472616e736665722066726f6d20696e636f72726563742081526437bbb732b960d91b602082015291506127c7565b601881526000602082017f73616c6564204e4654206c696d697420657863656564656400000000000000008152915061277c565b601c81526000602082017f4552433732313a20746f6b656e20616c7265616479206d696e746564000000008152915061277c565b601c81526000602082017f6d6178204e4654207065722061646472657373206578636565646564000000008152915061277c565b602481526000602082017f4552433732313a207472616e7366657220746f20746865207a65726f206164648152637265737360e01b602082015291506127c7565b601981526000602082017f4552433732313a20617070726f766520746f2063616c6c6572000000000000008152915061277c565b602881526000602082017f6d6178206d696e7420616d6f756e7420706572207472616e73616374696f6e20815267195e18d95959195960c21b602082015291506127c7565b602c81526000602082017f4552433732313a206f70657261746f7220717565727920666f72206e6f6e657881526b34b9ba32b73a103a37b5b2b760a11b602082015291506127c7565b603881526000602082017f4552433732313a20617070726f76652063616c6c6572206973206e6f74206f7781527f6e6572206e6f7220617070726f76656420666f7220616c6c0000000000000000602082015291506127c7565b602a81526000602082017f4552433732313a2062616c616e636520717565727920666f7220746865207a65815269726f206164647265737360b01b602082015291506127c7565b602981526000602082017f4552433732313a206f776e657220717565727920666f72206e6f6e657869737481526832b73a103a37b5b2b760b91b602082015291506127c7565b60168152600060208201751b585e08139195081b1a5b5a5d08195e18d95959195960521b8152915061277c565b60208082527f4552433732313a206d696e7420746f20746865207a65726f20616464726573739101908152600061277c565b602c81526000602082017f4552433732313a20617070726f76656420717565727920666f72206e6f6e657881526b34b9ba32b73a103a37b5b2b760a11b602082015291506127c7565b60208082527f4f776e61626c653a2063616c6c6572206973206e6f7420746865206f776e65729101908152600061277c565b60168152600060208201751d1a194818dbdb9d1c9858dd081a5cc81c185d5cd95960521b8152915061277c565b602f81526000602082017f4552433732314d657461646174613a2055524920717565727920666f72206e6f81526e3732bc34b9ba32b73a103a37b5b2b760891b602082015291506127c7565b601c81526000602082017f63616e206e6f7420626520657863656564206d617820737570706c79000000008152915061277c565b602181526000602082017f4552433732313a20617070726f76616c20746f2063757272656e74206f776e658152603960f91b602082015291506127c7565b603181526000602082017f4552433732313a207472616e736665722063616c6c6572206973206e6f74206f8152701ddb995c881b9bdc88185c1c1c9bdd9959607a1b602082015291506127c7565b602c81526000602082017f455243373231456e756d657261626c653a20676c6f62616c20696e646578206f81526b7574206f6620626f756e647360a01b602082015291506127c7565b601b81526000602082017f6e65656420746f206d696e74206174206c656173742031204e465400000000008152915061277c565b8061262a565b6000612dca82866126bc565b9150612dd682856126bc565b9150612de282846126de565b95945050505050565b6020810161083c8284612621565b60608101612e078286612621565b612e146020830185612621565b6119116040830184612db8565b60808101612e2f8287612621565b612e3c6020830186612621565b612e496040830185612db8565b8181036060830152612e5b8184612681565b9695505050505050565b60408101612e738285612621565b61124f6020830184612db8565b6020808252810161124f8184612630565b6020810161083c8284612679565b6020810161083c82846126b3565b6020808252810161124f8184612681565b6020808252810161083c8161274c565b6020808252810161083c81612783565b6020808252810161083c816127ce565b6020808252810161083c8161281d565b6020808252810161083c81612860565b6020808252810161083c816128a2565b6020808252810161083c816128d6565b6020808252810161083c8161290a565b6020808252810161083c8161293e565b6020808252810161083c8161297f565b6020808252810161083c816129b3565b6020808252810161083c816129f8565b6020808252810161083c81612a41565b6020808252810161083c81612a9b565b6020808252810161083c81612ae2565b6020808252810161083c81612b28565b6020808252810161083c81612b55565b6020808252810161083c81612b87565b6020808252810161083c81612bd0565b6020808252810161083c81612c02565b6020808252810161083c81612c2f565b6020808252810161083c81612c7b565b6020808252810161083c81612caf565b6020808252810161083c816000815260200190565b6020808252810161083c81612ced565b6020808252810161083c81612d3b565b6020808252810161083c81612d84565b6020810161083c8284612db8565b600061308c60405190565b90506115c182826131d0565b600067ffffffffffffffff8211156130b2576130b261329a565b5060209081020190565b600067ffffffffffffffff8211156130d6576130d661329a565b601f19601f83011660200192915050565b600082198211156130fa576130fa61322c565b500190565b60008261310e5761310e613242565b500490565b600081600019048311821515161561312d5761312d61322c565b500290565b6000828210156131445761314461322c565b500390565b60006001600160a01b03821661083c565b600061083c82600061083c82613149565b82818337506000910152565b60005b8381101561319257818101518382015260200161317a565b838111156111eb5750506000910152565b6002810460018216806131b757607f821691505b602082108114156131ca576131ca613258565b50919050565b601f19601f830116810181811067ffffffffffffffff821117156131f6576131f661329a565b6040525050565b60006000198214156132115761321161322c565b5060010190565b60008261322757613227613242565b500690565b634e487b7160e01b600052601160045260246000fd5b634e487b7160e01b600052601260045260246000fd5b634e487b7160e01b600052602260045260246000fd5b634e487b7160e01b600052603160045260246000fd5b634e487b7160e01b600052603260045260246000fd5b634e487b7160e01b600052604160045260246000fd5b6132b981613149565b811461175a57600080fd5b8015156132b9565b6001600160e01b031981166132b9565b806132b956fea264697066735822122070a1ae26c362e0079f48096d6c47f0337226ccd357337252e519e2431ba1cd3664736f6c63430008070033",
  "devdoc": {
    "kind": "dev",
    "methods": {
      "approve(address,uint256)": {
        "details": "See {IERC721-approve}."
      },
      "balanceOf(address)": {
        "details": "See {IERC721-balanceOf}."
      },
      "getApproved(uint256)": {
        "details": "See {IERC721-getApproved}."
      },
      "isApprovedForAll(address,address)": {
        "details": "See {IERC721-isApprovedForAll}."
      },
      "name()": {
        "details": "See {IERC721Metadata-name}."
      },
      "owner()": {
        "details": "Returns the address of the current owner."
      },
      "ownerOf(uint256)": {
        "details": "See {IERC721-ownerOf}."
      },
      "renounceOwnership()": {
        "details": "Leaves the contract without owner. It will not be possible to call `onlyOwner` functions anymore. Can only be called by the current owner. NOTE: Renouncing ownership will leave the contract without an owner, thereby removing any functionality that is only available to the owner."
      },
      "safeTransferFrom(address,address,uint256)": {
        "details": "See {IERC721-safeTransferFrom}."
      },
      "safeTransferFrom(address,address,uint256,bytes)": {
        "details": "See {IERC721-safeTransferFrom}."
      },
      "setApprovalForAll(address,bool)": {
        "details": "See {IERC721-setApprovalForAll}."
      },
      "supportsInterface(bytes4)": {
        "details": "See {IERC165-supportsInterface}."
      },
      "symbol()": {
        "details": "See {IERC721Metadata-symbol}."
      },
      "tokenByIndex(uint256)": {
        "details": "See {IERC721Enumerable-tokenByIndex}."
      },
      "tokenOfOwnerByIndex(address,uint256)": {
        "details": "See {IERC721Enumerable-tokenOfOwnerByIndex}."
      },
      "tokenURI(uint256)": {
        "details": "See {IERC721Metadata-tokenURI}."
      },
      "totalSupply()": {
        "details": "See {IERC721Enumerable-totalSupply}."
      },
      "transferFrom(address,address,uint256)": {
        "details": "See {IERC721-transferFrom}."
      },
      "transferOwnership(address)": {
        "details": "Transfers ownership of the contract to a new account (`newOwner`). Can only be called by the current owner."
      }
    },
    "version": 1
  },
  "userdoc": {
    "kind": "user",
    "methods": {},
    "version": 1
  },
  "storageLayout": {
    "storage": [
      {
        "astId": 208,
        "contract": "contracts/AnnexIronWolf.sol:AnnexIronWolf",
        "label": "_name",
        "offset": 0,
        "slot": "0",
        "type": "t_string_storage"
      },
      {
        "astId": 210,
        "contract": "contracts/AnnexIronWolf.sol:AnnexIronWolf",
        "label": "_symbol",
        "offset": 0,
        "slot": "1",
        "type": "t_string_storage"
      },
      {
        "astId": 214,
        "contract": "contracts/AnnexIronWolf.sol:AnnexIronWolf",
        "label": "_owners",
        "offset": 0,
        "slot": "2",
        "type": "t_mapping(t_uint256,t_address)"
      },
      {
        "astId": 218,
        "contract": "contracts/AnnexIronWolf.sol:AnnexIronWolf",
        "label": "_balances",
        "offset": 0,
        "slot": "3",
        "type": "t_mapping(t_address,t_uint256)"
      },
      {
        "astId": 222,
        "contract": "contracts/AnnexIronWolf.sol:AnnexIronWolf",
        "label": "_tokenApprovals",
        "offset": 0,
        "slot": "4",
        "type": "t_mapping(t_uint256,t_address)"
      },
      {
        "astId": 228,
        "contract": "contracts/AnnexIronWolf.sol:AnnexIronWolf",
        "label": "_operatorApprovals",
        "offset": 0,
        "slot": "5",
        "type": "t_mapping(t_address,t_mapping(t_address,t_bool))"
      },
      {
        "astId": 1197,
        "contract": "contracts/AnnexIronWolf.sol:AnnexIronWolf",
        "label": "_ownedTokens",
        "offset": 0,
        "slot": "6",
        "type": "t_mapping(t_address,t_mapping(t_uint256,t_uint256))"
      },
      {
        "astId": 1201,
        "contract": "contracts/AnnexIronWolf.sol:AnnexIronWolf",
        "label": "_ownedTokensIndex",
        "offset": 0,
        "slot": "7",
        "type": "t_mapping(t_uint256,t_uint256)"
      },
      {
        "astId": 1204,
        "contract": "contracts/AnnexIronWolf.sol:AnnexIronWolf",
        "label": "_allTokens",
        "offset": 0,
        "slot": "8",
        "type": "t_array(t_uint256)dyn_storage"
      },
      {
        "astId": 1208,
        "contract": "contracts/AnnexIronWolf.sol:AnnexIronWolf",
        "label": "_allTokensIndex",
        "offset": 0,
        "slot": "9",
        "type": "t_mapping(t_uint256,t_uint256)"
      },
      {
        "astId": 7,
        "contract": "contracts/AnnexIronWolf.sol:AnnexIronWolf",
        "label": "_owner",
        "offset": 0,
        "slot": "10",
        "type": "t_address"
      },
      {
        "astId": 2148,
        "contract": "contracts/AnnexIronWolf.sol:AnnexIronWolf",
        "label": "baseURI",
        "offset": 0,
        "slot": "11",
        "type": "t_string_storage"
      },
      {
        "astId": 2151,
        "contract": "contracts/AnnexIronWolf.sol:AnnexIronWolf",
        "label": "baseExtension",
        "offset": 0,
        "slot": "12",
        "type": "t_string_storage"
      },
      {
        "astId": 2153,
        "contract": "contracts/AnnexIronWolf.sol:AnnexIronWolf",
        "label": "notRevealedUri",
        "offset": 0,
        "slot": "13",
        "type": "t_string_storage"
      },
      {
        "astId": 2156,
        "contract": "contracts/AnnexIronWolf.sol:AnnexIronWolf",
        "label": "cost",
        "offset": 0,
        "slot": "14",
        "type": "t_uint256"
      },
      {
        "astId": 2159,
        "contract": "contracts/AnnexIronWolf.sol:AnnexIronWolf",
        "label": "maxSupply",
        "offset": 0,
        "slot": "15",
        "type": "t_uint256"
      },
      {
        "astId": 2162,
        "contract": "contracts/AnnexIronWolf.sol:AnnexIronWolf",
        "label": "maxMintAmount",
        "offset": 0,
        "slot": "16",
        "type": "t_uint256"
      },
      {
        "astId": 2165,
        "contract": "contracts/AnnexIronWolf.sol:AnnexIronWolf",
        "label": "nftPerAddressLimit",
        "offset": 0,
        "slot": "17",
        "type": "t_uint256"
      },
      {
        "astId": 2168,
        "contract": "contracts/AnnexIronWolf.sol:AnnexIronWolf",
        "label": "publicSaleDate",
        "offset": 0,
        "slot": "18",
        "type": "t_uint256"
      },
      {
        "astId": 2171,
        "contract": "contracts/AnnexIronWolf.sol:AnnexIronWolf",
        "label": "stopPoint",
        "offset": 0,
        "slot": "19",
        "type": "t_uint256"
      },
      {
        "astId": 2173,
        "contract": "contracts/AnnexIronWolf.sol:AnnexIronWolf",
        "label": "stakingAddress",
        "offset": 0,
        "slot": "20",
        "type": "t_address"
      },
      {
        "astId": 2176,
        "contract": "contracts/AnnexIronWolf.sol:AnnexIronWolf",
        "label": "paused",
        "offset": 20,
        "slot": "20",
        "type": "t_bool"
      },
      {
        "astId": 2179,
        "contract": "contracts/AnnexIronWolf.sol:AnnexIronWolf",
        "label": "revealed",
        "offset": 21,
        "slot": "20",
        "type": "t_bool"
      },
      {
        "astId": 2183,
        "contract": "contracts/AnnexIronWolf.sol:AnnexIronWolf",
        "label": "whitelistedAddresses",
        "offset": 0,
        "slot": "21",
        "type": "t_mapping(t_address,t_bool)"
      },
      {
        "astId": 2187,
        "contract": "contracts/AnnexIronWolf.sol:AnnexIronWolf",
        "label": "addressMintedBalance",
        "offset": 0,
        "slot": "22",
        "type": "t_mapping(t_address,t_uint256)"
      },
      {
        "astId": 2191,
        "contract": "contracts/AnnexIronWolf.sol:AnnexIronWolf",
        "label": "stakedInTime",
        "offset": 0,
        "slot": "23",
        "type": "t_mapping(t_uint256,t_uint256)"
      },
      {
        "astId": 2195,
        "contract": "contracts/AnnexIronWolf.sol:AnnexIronWolf",
        "label": "stakeTime",
        "offset": 0,
        "slot": "24",
        "type": "t_mapping(t_uint256,t_uint256)"
      },
      {
        "astId": 2198,
        "contract": "contracts/AnnexIronWolf.sol:AnnexIronWolf",
        "label": "paymentsToken",
        "offset": 0,
        "slot": "25",
        "type": "t_contract(IERC20)182"
      }
    ],
    "types": {
      "t_address": {
        "encoding": "inplace",
        "label": "address",
        "numberOfBytes": "20"
      },
      "t_array(t_uint256)dyn_storage": {
        "base": "t_uint256",
        "encoding": "dynamic_array",
        "label": "uint256[]",
        "numberOfBytes": "32"
      },
      "t_bool": {
        "encoding": "inplace",
        "label": "bool",
        "numberOfBytes": "1"
      },
      "t_contract(IERC20)182": {
        "encoding": "inplace",
        "label": "contract IERC20",
        "numberOfBytes": "20"
      },
      "t_mapping(t_address,t_bool)": {
        "encoding": "mapping",
        "key": "t_address",
        "label": "mapping(address => bool)",
        "numberOfBytes": "32",
        "value": "t_bool"
      },
      "t_mapping(t_address,t_mapping(t_address,t_bool))": {
        "encoding": "mapping",
        "key": "t_address",
        "label": "mapping(address => mapping(address => bool))",
        "numberOfBytes": "32",
        "value": "t_mapping(t_address,t_bool)"
      },
      "t_mapping(t_address,t_mapping(t_uint256,t_uint256))": {
        "encoding": "mapping",
        "key": "t_address",
        "label": "mapping(address => mapping(uint256 => uint256))",
        "numberOfBytes": "32",
        "value": "t_mapping(t_uint256,t_uint256)"
      },
      "t_mapping(t_address,t_uint256)": {
        "encoding": "mapping",
        "key": "t_address",
        "label": "mapping(address => uint256)",
        "numberOfBytes": "32",
        "value": "t_uint256"
      },
      "t_mapping(t_uint256,t_address)": {
        "encoding": "mapping",
        "key": "t_uint256",
        "label": "mapping(uint256 => address)",
        "numberOfBytes": "32",
        "value": "t_address"
      },
      "t_mapping(t_uint256,t_uint256)": {
        "encoding": "mapping",
        "key": "t_uint256",
        "label": "mapping(uint256 => uint256)",
        "numberOfBytes": "32",
        "value": "t_uint256"
      },
      "t_string_storage": {
        "encoding": "bytes",
        "label": "string",
        "numberOfBytes": "32"
      },
      "t_uint256": {
        "encoding": "inplace",
        "label": "uint256",
        "numberOfBytes": "32"
      }
    }
  }
}