{
  "address": "0xD9ECDa7436f619aB2EECA58A856ad9fe814915Fd",
  "abi": [
    {
      "inputs": [
        {
          "internalType": "address",
          "name": "_annex",
          "type": "address"
        },
        {
          "internalType": "address",
          "name": "_boost",
          "type": "address"
        },
        {
          "internalType": "address",
          "name": "_devaddr",
          "type": "address"
        },
        {
          "internalType": "uint256",
          "name": "_annexPerBlock",
          "type": "uint256"
        },
        {
          "internalType": "uint256",
          "name": "_boostAnnexPerBlock",
          "type": "uint256"
        },
        {
          "internalType": "uint256",
          "name": "_startBlock",
          "type": "uint256"
        },
        {
          "internalType": "uint256",
          "name": "_bonusEndBlock",
          "type": "uint256"
        }
      ],
      "stateMutability": "nonpayable",
      "type": "constructor"
    },
    {
      "anonymous": false,
      "inputs": [
        {
          "indexed": true,
          "internalType": "address",
          "name": "user",
          "type": "address"
        },
        {
          "indexed": true,
          "internalType": "uint256",
          "name": "pid",
          "type": "uint256"
        },
        {
          "indexed": false,
          "internalType": "uint256",
          "name": "tokenId",
          "type": "uint256"
        }
      ],
      "name": "Boost",
      "type": "event"
    },
    {
      "anonymous": false,
      "inputs": [
        {
          "indexed": true,
          "internalType": "address",
          "name": "user",
          "type": "address"
        },
        {
          "indexed": true,
          "internalType": "uint256",
          "name": "pid",
          "type": "uint256"
        },
        {
          "indexed": false,
          "internalType": "uint256",
          "name": "amount",
          "type": "uint256"
        }
      ],
      "name": "Deposit",
      "type": "event"
    },
    {
      "anonymous": false,
      "inputs": [
        {
          "indexed": true,
          "internalType": "address",
          "name": "user",
          "type": "address"
        },
        {
          "indexed": true,
          "internalType": "uint256",
          "name": "pid",
          "type": "uint256"
        },
        {
          "indexed": false,
          "internalType": "uint256",
          "name": "amount",
          "type": "uint256"
        }
      ],
      "name": "EmergencyWithdraw",
      "type": "event"
    },
    {
      "anonymous": false,
      "inputs": [
        {
          "indexed": true,
          "internalType": "address",
          "name": "previousOwner",
          "type": "address"
        },
        {
          "indexed": true,
          "internalType": "address",
          "name": "newOwner",
          "type": "address"
        }
      ],
      "name": "OwnershipTransferred",
      "type": "event"
    },
    {
      "anonymous": false,
      "inputs": [
        {
          "indexed": true,
          "internalType": "address",
          "name": "user",
          "type": "address"
        },
        {
          "indexed": true,
          "internalType": "uint256",
          "name": "pid",
          "type": "uint256"
        },
        {
          "indexed": false,
          "internalType": "uint256",
          "name": "tokenId",
          "type": "uint256"
        }
      ],
      "name": "UnBoost",
      "type": "event"
    },
    {
      "anonymous": false,
      "inputs": [
        {
          "indexed": true,
          "internalType": "address",
          "name": "user",
          "type": "address"
        },
        {
          "indexed": true,
          "internalType": "uint256",
          "name": "pid",
          "type": "uint256"
        },
        {
          "indexed": false,
          "internalType": "uint256",
          "name": "amount",
          "type": "uint256"
        }
      ],
      "name": "Withdraw",
      "type": "event"
    },
    {
      "inputs": [],
      "name": "BONUS_MULTIPLIER",
      "outputs": [
        {
          "internalType": "uint256",
          "name": "",
          "type": "uint256"
        }
      ],
      "stateMutability": "view",
      "type": "function"
    },
    {
      "inputs": [
        {
          "internalType": "uint256",
          "name": "_allocPoint",
          "type": "uint256"
        },
        {
          "internalType": "contract IERC20",
          "name": "_lpToken",
          "type": "address"
        },
        {
          "internalType": "bool",
          "name": "_withUpdate",
          "type": "bool"
        }
      ],
      "name": "add",
      "outputs": [],
      "stateMutability": "nonpayable",
      "type": "function"
    },
    {
      "inputs": [],
      "name": "annex",
      "outputs": [
        {
          "internalType": "address",
          "name": "",
          "type": "address"
        }
      ],
      "stateMutability": "view",
      "type": "function"
    },
    {
      "inputs": [],
      "name": "annexPerBlock",
      "outputs": [
        {
          "internalType": "uint256",
          "name": "",
          "type": "uint256"
        }
      ],
      "stateMutability": "view",
      "type": "function"
    },
    {
      "inputs": [],
      "name": "bonusEndBlock",
      "outputs": [
        {
          "internalType": "uint256",
          "name": "",
          "type": "uint256"
        }
      ],
      "stateMutability": "view",
      "type": "function"
    },
    {
      "inputs": [
        {
          "internalType": "uint256",
          "name": "_pid",
          "type": "uint256"
        },
        {
          "internalType": "uint256",
          "name": "_tokenId",
          "type": "uint256"
        }
      ],
      "name": "boost",
      "outputs": [],
      "stateMutability": "nonpayable",
      "type": "function"
    },
    {
      "inputs": [
        {
          "internalType": "uint256",
          "name": "_pid",
          "type": "uint256"
        }
      ],
      "name": "boostAll",
      "outputs": [],
      "stateMutability": "nonpayable",
      "type": "function"
    },
    {
      "inputs": [],
      "name": "boostAnnexPerBlock",
      "outputs": [
        {
          "internalType": "uint256",
          "name": "",
          "type": "uint256"
        }
      ],
      "stateMutability": "view",
      "type": "function"
    },
    {
      "inputs": [],
      "name": "boostFactor",
      "outputs": [
        {
          "internalType": "contract IBoostToken",
          "name": "",
          "type": "address"
        }
      ],
      "stateMutability": "view",
      "type": "function"
    },
    {
      "inputs": [
        {
          "internalType": "address",
          "name": "",
          "type": "address"
        },
        {
          "internalType": "uint256",
          "name": "",
          "type": "uint256"
        }
      ],
      "name": "boostFactors",
      "outputs": [
        {
          "internalType": "uint256",
          "name": "",
          "type": "uint256"
        }
      ],
      "stateMutability": "view",
      "type": "function"
    },
    {
      "inputs": [
        {
          "internalType": "uint256",
          "name": "_pid",
          "type": "uint256"
        },
        {
          "internalType": "uint256",
          "name": "tokenAmount",
          "type": "uint256"
        }
      ],
      "name": "boostPartially",
      "outputs": [],
      "stateMutability": "nonpayable",
      "type": "function"
    },
    {
      "inputs": [],
      "name": "claimOwnership",
      "outputs": [],
      "stateMutability": "nonpayable",
      "type": "function"
    },
    {
      "inputs": [
        {
          "internalType": "uint256",
          "name": "_pid",
          "type": "uint256"
        },
        {
          "internalType": "uint256",
          "name": "_amount",
          "type": "uint256"
        }
      ],
      "name": "deposit",
      "outputs": [],
      "stateMutability": "nonpayable",
      "type": "function"
    },
    {
      "inputs": [
        {
          "internalType": "address",
          "name": "_devaddr",
          "type": "address"
        }
      ],
      "name": "dev",
      "outputs": [],
      "stateMutability": "nonpayable",
      "type": "function"
    },
    {
      "inputs": [],
      "name": "devaddr",
      "outputs": [
        {
          "internalType": "address",
          "name": "",
          "type": "address"
        }
      ],
      "stateMutability": "view",
      "type": "function"
    },
    {
      "inputs": [],
      "name": "emergencyNftWithdraw",
      "outputs": [],
      "stateMutability": "nonpayable",
      "type": "function"
    },
    {
      "inputs": [
        {
          "internalType": "uint256",
          "name": "_pid",
          "type": "uint256"
        }
      ],
      "name": "emergencyWithdraw",
      "outputs": [],
      "stateMutability": "nonpayable",
      "type": "function"
    },
    {
      "inputs": [
        {
          "internalType": "uint256",
          "name": "_from",
          "type": "uint256"
        },
        {
          "internalType": "uint256",
          "name": "_to",
          "type": "uint256"
        }
      ],
      "name": "getMultiplier",
      "outputs": [
        {
          "internalType": "uint256",
          "name": "",
          "type": "uint256"
        }
      ],
      "stateMutability": "view",
      "type": "function"
    },
    {
      "inputs": [
        {
          "internalType": "uint256",
          "name": "_pid",
          "type": "uint256"
        }
      ],
      "name": "getPoolInfo",
      "outputs": [
        {
          "internalType": "contract IERC20",
          "name": "lpToken",
          "type": "address"
        },
        {
          "internalType": "uint256",
          "name": "lpSupply",
          "type": "uint256"
        },
        {
          "internalType": "uint256",
          "name": "allocPoint",
          "type": "uint256"
        },
        {
          "internalType": "uint256",
          "name": "lastRewardBlock",
          "type": "uint256"
        },
        {
          "internalType": "uint256",
          "name": "accAnnexPerShare",
          "type": "uint256"
        },
        {
          "internalType": "uint256",
          "name": "totalValidBoostNum",
          "type": "uint256"
        },
        {
          "internalType": "uint256",
          "name": "totalValidBoostCount",
          "type": "uint256"
        },
        {
          "internalType": "uint256",
          "name": "accBoostAnnexPerShare",
          "type": "uint256"
        }
      ],
      "stateMutability": "view",
      "type": "function"
    },
    {
      "inputs": [
        {
          "internalType": "uint256",
          "name": "",
          "type": "uint256"
        }
      ],
      "name": "isBoosted",
      "outputs": [
        {
          "internalType": "bool",
          "name": "",
          "type": "bool"
        }
      ],
      "stateMutability": "view",
      "type": "function"
    },
    {
      "inputs": [],
      "name": "massUpdatePools",
      "outputs": [],
      "stateMutability": "nonpayable",
      "type": "function"
    },
    {
      "inputs": [],
      "name": "minimumValidBoostCount",
      "outputs": [
        {
          "internalType": "uint16",
          "name": "",
          "type": "uint16"
        }
      ],
      "stateMutability": "view",
      "type": "function"
    },
    {
      "inputs": [],
      "name": "owner",
      "outputs": [
        {
          "internalType": "address",
          "name": "",
          "type": "address"
        }
      ],
      "stateMutability": "view",
      "type": "function"
    },
    {
      "inputs": [
        {
          "internalType": "uint256",
          "name": "_pid",
          "type": "uint256"
        },
        {
          "internalType": "address",
          "name": "_user",
          "type": "address"
        }
      ],
      "name": "pendingAnnex",
      "outputs": [
        {
          "internalType": "uint256",
          "name": "",
          "type": "uint256"
        }
      ],
      "stateMutability": "view",
      "type": "function"
    },
    {
      "inputs": [],
      "name": "pendingOwner",
      "outputs": [
        {
          "internalType": "address",
          "name": "",
          "type": "address"
        }
      ],
      "stateMutability": "view",
      "type": "function"
    },
    {
      "inputs": [],
      "name": "poolLength",
      "outputs": [
        {
          "internalType": "uint256",
          "name": "",
          "type": "uint256"
        }
      ],
      "stateMutability": "view",
      "type": "function"
    },
    {
      "inputs": [
        {
          "internalType": "uint256",
          "name": "_pid",
          "type": "uint256"
        },
        {
          "internalType": "uint256",
          "name": "_allocPoint",
          "type": "uint256"
        },
        {
          "internalType": "bool",
          "name": "_withUpdate",
          "type": "bool"
        }
      ],
      "name": "set",
      "outputs": [],
      "stateMutability": "nonpayable",
      "type": "function"
    },
    {
      "inputs": [
        {
          "internalType": "uint256",
          "name": "speed",
          "type": "uint256"
        }
      ],
      "name": "setAnnexPerBlock",
      "outputs": [],
      "stateMutability": "nonpayable",
      "type": "function"
    },
    {
      "inputs": [
        {
          "internalType": "uint256",
          "name": "speed",
          "type": "uint256"
        }
      ],
      "name": "setBoostAnnexPerBlock",
      "outputs": [],
      "stateMutability": "nonpayable",
      "type": "function"
    },
    {
      "inputs": [
        {
          "internalType": "address",
          "name": "_address",
          "type": "address"
        }
      ],
      "name": "setBoostFactor",
      "outputs": [],
      "stateMutability": "nonpayable",
      "type": "function"
    },
    {
      "inputs": [
        {
          "internalType": "uint16",
          "name": "_count",
          "type": "uint16"
        }
      ],
      "name": "setMinimumValidBoostCount",
      "outputs": [],
      "stateMutability": "nonpayable",
      "type": "function"
    },
    {
      "inputs": [],
      "name": "startBlock",
      "outputs": [
        {
          "internalType": "uint256",
          "name": "",
          "type": "uint256"
        }
      ],
      "stateMutability": "view",
      "type": "function"
    },
    {
      "inputs": [],
      "name": "totalAllocPoint",
      "outputs": [
        {
          "internalType": "uint256",
          "name": "",
          "type": "uint256"
        }
      ],
      "stateMutability": "view",
      "type": "function"
    },
    {
      "inputs": [
        {
          "internalType": "address",
          "name": "newOwner",
          "type": "address"
        },
        {
          "internalType": "bool",
          "name": "direct",
          "type": "bool"
        },
        {
          "internalType": "bool",
          "name": "renounce",
          "type": "bool"
        }
      ],
      "name": "transferOwnership",
      "outputs": [],
      "stateMutability": "nonpayable",
      "type": "function"
    },
    {
      "inputs": [
        {
          "internalType": "uint256",
          "name": "_pid",
          "type": "uint256"
        }
      ],
      "name": "unBoostAll",
      "outputs": [],
      "stateMutability": "nonpayable",
      "type": "function"
    },
    {
      "inputs": [
        {
          "internalType": "uint256",
          "name": "_pid",
          "type": "uint256"
        },
        {
          "internalType": "uint256",
          "name": "tokenAmount",
          "type": "uint256"
        }
      ],
      "name": "unBoostPartially",
      "outputs": [],
      "stateMutability": "nonpayable",
      "type": "function"
    },
    {
      "inputs": [
        {
          "internalType": "uint256",
          "name": "_pid",
          "type": "uint256"
        }
      ],
      "name": "updatePool",
      "outputs": [],
      "stateMutability": "nonpayable",
      "type": "function"
    },
    {
      "inputs": [
        {
          "internalType": "address",
          "name": "_reward",
          "type": "address"
        }
      ],
      "name": "updateRewardToken",
      "outputs": [],
      "stateMutability": "nonpayable",
      "type": "function"
    },
    {
      "inputs": [
        {
          "internalType": "uint256",
          "name": "",
          "type": "uint256"
        },
        {
          "internalType": "address",
          "name": "",
          "type": "address"
        }
      ],
      "name": "userInfo",
      "outputs": [
        {
          "internalType": "uint256",
          "name": "amount",
          "type": "uint256"
        },
        {
          "internalType": "uint256",
          "name": "rewardDebt",
          "type": "uint256"
        },
        {
          "internalType": "uint256",
          "name": "boostRewardDebt",
          "type": "uint256"
        }
      ],
      "stateMutability": "view",
      "type": "function"
    },
    {
      "inputs": [
        {
          "internalType": "uint256",
          "name": "_pid",
          "type": "uint256"
        },
        {
          "internalType": "uint256",
          "name": "_amount",
          "type": "uint256"
        }
      ],
      "name": "withdraw",
      "outputs": [],
      "stateMutability": "nonpayable",
      "type": "function"
    }
  ],
  "transactionHash": "0xef7bd51a8cb373b643c5b1790ee67dd7bd6a2f7cf0537d09dd353cf9fdb83cfb",
  "args": [
    "0xb75f3F9D35d256a94BBd7A3fC2E16c768E17930E",
    "0x70Cc3a8FD70C5925a92FE1932616b6c89C78C698",
    "0x79395B873119a42c3B9E4211FCEA9CC0358769Ed",
    "10000000000000000",
    "10000000000000000",
    17437841,
    17507606
  ],
  "solcInputHash": "1984b35c543a8446cd1e30d225978377",
  "bytecode": "0x6080604052600b805461ffff191660031790556000600e5534801561002357600080fd5b50604051612f96380380612f96833981810160405260e081101561004657600080fd5b50805160208201516040808401516060850151608086015160a087015160c090970151600080546001600160a01b0319163390811782559551979896979496939592949192917f8be0079c531659141344cd1fd0a4f28419497f9722a3daafe3b4186f6b6457e0908290a36001600255600380546001600160a01b039889166001600160a01b031991821617909155600b8054978916620100000262010000600160b01b03199098169790971790965560048054959097169490951693909317909455600655600a92909255600555600f55612e6f806101276000396000f3fe608060405234801561001057600080fd5b50600436106102485760003560e01c80636ff4f3f61161013b578063c1ddfb00116100b8578063e30c39781161007c578063e30c39781461065d578063e3443ce714610665578063ef35f00e14610691578063f6d4c185146106b2578063f8cf31cb146106d157610248565b8063c1ddfb00146105f0578063d49e77cd146105f8578063d94f11be14610600578063ddb2d8571461061d578063e2bbb1581461063a57610248565b80638da5cb5b116100ff5780638da5cb5b1461056b5780638dbb1e3a1461057357806393f1a40b14610596578063a22abfbf146105e0578063abee219a146105e857610248565b80636ff4f3f6146104ec5780637053c75c146104f457806378bd92e1146105205780638aa285501461053d5780638d88a90e1461054557610248565b80633e0bc9f4116101c95780634e71e0c81161018d5780634e71e0c81461047757806351eb05a61461047f5780635312ea8e1461049c578063630b5ba1146104b957806364482f79146104c157610248565b80633e0bc9f4146103e657806340be7bec14610403578063441a3e7014610426578063488a8f581461044957806348cd4cb11461046f57610248565b80631aed6553116102105780631aed6553146102ed5780631b64854c146102f55780631eaaa0451461031957806321ab46c81461034d5780632f380b351461037e57610248565b8063078dfbe71461024d578063081e3eda146102855780630fa6b3a01461029f57806311ea3264146102c257806317caf6f1146102e5575b600080fd5b6102836004803603606081101561026357600080fd5b506001600160a01b038135169060208101351515906040013515156106f7565b005b61028d610821565b60408051918252519081900360200190f35b610283600480360360408110156102b557600080fd5b5080359060200135610827565b610283600480360360408110156102d857600080fd5b5080359060200135610922565b61028d610a65565b61028d610a6b565b6102fd610a71565b604080516001600160a01b039092168252519081900360200190f35b6102836004803603606081101561032f57600080fd5b508035906001600160a01b0360208201351690604001351515610a80565b61036a6004803603602081101561036357600080fd5b5035610c7c565b604080519115158252519081900360200190f35b61039b6004803603602081101561039457600080fd5b5035610c91565b604080516001600160a01b0390991689526020890197909752878701959095526060870193909352608086019190915260a085015260c084015260e083015251908190036101000190f35b610283600480360360208110156103fc57600080fd5b5035610da3565b6102836004803603604081101561041957600080fd5b5080359060200135610df5565b6102836004803603604081101561043c57600080fd5b5080359060200135610e17565b6102836004803603602081101561045f57600080fd5b50356001600160a01b0316611063565b61028d6110da565b6102836110e0565b6102836004803603602081101561049557600080fd5b50356111a2565b610283600480360360208110156104b257600080fd5b5035611394565b610283611490565b610283600480360360608110156104d757600080fd5b508035906020810135906040013515156114af565b61028d611575565b61028d6004803603604081101561050a57600080fd5b50803590602001356001600160a01b031661157b565b6102836004803603602081101561053657600080fd5b50356117c7565b61028d61199d565b6102836004803603602081101561055b57600080fd5b50356001600160a01b03166119a2565b6102fd611a0f565b61028d6004803603604081101561058957600080fd5b5080359060200135611a1e565b6105c2600480360360408110156105ac57600080fd5b50803590602001356001600160a01b0316611a84565b60408051938452602084019290925282820152519081900360600190f35b61028d611ab0565b610283611ab6565b6102fd611cfb565b6102fd611d10565b6102836004803603602081101561061657600080fd5b5035611d1f565b6102836004803603602081101561063357600080fd5b5035611de0565b6102836004803603604081101561065057600080fd5b5080359060200135611e32565b6102fd611fc6565b61028d6004803603604081101561067b57600080fd5b506001600160a01b038135169060200135611fd5565b610283600480360360208110156106a757600080fd5b503561ffff16612003565b6106ba612068565b6040805161ffff9092168252519081900360200190f35b610283600480360360208110156106e757600080fd5b50356001600160a01b0316612072565b6000546001600160a01b03163314610744576040805162461bcd60e51b81526020600482018190526024820152600080516020612df0833981519152604482015290519081900360640190fd5b8115610800576001600160a01b03831615158061075e5750805b6107a7576040805162461bcd60e51b81526020600482015260156024820152744f776e61626c653a207a65726f206164647265737360581b604482015290519081900360640190fd5b600080546040516001600160a01b03808716939216917f8be0079c531659141344cd1fd0a4f28419497f9722a3daafe3b4186f6b6457e091a3600080546001600160a01b0319166001600160a01b03851617905561081c565b600180546001600160a01b0319166001600160a01b0385161790555b505050565b60075490565b600082815260096020908152604080832033845290915290206002810154610870576040805162461bcd60e51b8152602060048201526000602482015290519081900360640190fd5b60028101548211156108a3576040805162461bcd60e51b8152602060048201526000602482015290519081900360640190fd5b6108ad83336120e1565b60005b8281101561091757600282018054600019810191600091839081106108d157fe5b906000526020600020015490506108e886826121fb565b836002018054806108f557fe5b60008281526020812082016000199081019190915501905550506001016108b0565b5061081c83336123f2565b61092c82336120e1565b600b54604080516370a0823160e01b815233600482015290516000926201000090046001600160a01b0316916370a08231916024808301926020929190829003018186803b15801561097d57600080fd5b505afa158015610991573d6000803e3d6000fd5b505050506040513d60208110156109a757600080fd5b50519050808211156109b857600080fd5b600b5460408051632f745c5960e01b815233600482015260001990940160248501819052905190936000926001600160a01b03620100009091041691632f745c5991604480820192602092909190829003018186803b158015610a1a57600080fd5b505afa158015610a2e573d6000803e3d6000fd5b505050506040513d6020811015610a4457600080fd5b50519050610a528482612498565b50600082116109b85761081c83336123f2565b600e5481565b60055481565b6003546001600160a01b031681565b6000546001600160a01b03163314610acd576040805162461bcd60e51b81526020600482018190526024820152600080516020612df0833981519152604482015290519081900360640190fd5b8015610adb57610adb611490565b6000600f544311610aee57600f54610af0565b435b600e54909150610b0090856126a4565b600e556040805160e0810182526001600160a01b039485168152602081019586529081019182526000606082018181526080830182815260a0840183815260c08501848152600780546001810182559581905295517fa66cc928b5edb82af9bd49922954155ab7b0942694bea4ce44661d9a8736c6889590960294850180546001600160a01b031916969099169590951790975596517fa66cc928b5edb82af9bd49922954155ab7b0942694bea4ce44661d9a8736c68983015592517fa66cc928b5edb82af9bd49922954155ab7b0942694bea4ce44661d9a8736c68a82015591517fa66cc928b5edb82af9bd49922954155ab7b0942694bea4ce44661d9a8736c68b83015593517fa66cc928b5edb82af9bd49922954155ab7b0942694bea4ce44661d9a8736c68c82015591517fa66cc928b5edb82af9bd49922954155ab7b0942694bea4ce44661d9a8736c68d8301555090517fa66cc928b5edb82af9bd49922954155ab7b0942694bea4ce44661d9a8736c68e90910155565b600c6020526000908152604090205460ff1681565b600080600080600080600080600060078a81548110610cac57fe5b60009182526020822060079091020180546003549193506001600160a01b0391821691161415610cdf5750600854610d58565b8154604080516370a0823160e01b815230600482015290516001600160a01b03909216916370a0823191602480820192602092909190829003018186803b158015610d2957600080fd5b505afa158015610d3d573d6000803e3d6000fd5b505050506040513d6020811015610d5357600080fd5b505190505b8154600183015460028401546003850154600486015460058701546006909701546001600160a01b039095169e50949c50919a50985096509094509092509050919395975091939597565b6000546001600160a01b03163314610df0576040805162461bcd60e51b81526020600482018190526024820152600080516020612df0833981519152604482015290519081900360640190fd5b600655565b610dff82336120e1565b610e098282612498565b610e1382336123f2565b5050565b600280541415610e6e576040805162461bcd60e51b815260206004820152601f60248201527f5265656e7472616e637947756172643a207265656e7472616e742063616c6c00604482015290519081900360640190fd5b60028081905550600060078381548110610e8457fe5b600091825260208083208684526009825260408085203386529092529220805460079092029092019250831115610ef7576040805162461bcd60e51b81526020600482015260126024820152711dda5d1a191c985dce881b9bdd0819dbdbd960721b604482015290519081900360640190fd5b610f00846111a2565b6002810154600090610f1190612705565b90506000610f4d8360010154610f4764e8d4a51000610f418860030154886000015461272c90919063ffffffff16565b90612785565b906127c7565b90506000610f798460030154610f4764e8d4a51000610f4189600601548861272c90919063ffffffff16565b9050610f8e33610f8984846126a4565b612809565b8354610f9a90876127c7565b8085556003860154610fb79164e8d4a5100091610f41919061272c565b60018501556006850154610fd79064e8d4a5100090610f4190869061272c565b600380860191909155855490546001600160a01b03908116911614156110085760085461100490876127c7565b6008555b845461101e906001600160a01b031633886129b2565b604080518781529051889133917ff279e6a1f5e320cca91135676d9cb6e44ca8a08c0b88342bcdb1144f6511b5689181900360200190a3505060016002555050505050565b6000546001600160a01b031633146110b0576040805162461bcd60e51b81526020600482018190526024820152600080516020612df0833981519152604482015290519081900360640190fd5b600b80546001600160a01b03909216620100000262010000600160b01b0319909216919091179055565b600f5481565b6001546001600160a01b0316338114611140576040805162461bcd60e51b815260206004820181905260248201527f4f776e61626c653a2063616c6c657220213d2070656e64696e67206f776e6572604482015290519081900360640190fd5b600080546040516001600160a01b03808516939216917f8be0079c531659141344cd1fd0a4f28419497f9722a3daafe3b4186f6b6457e091a3600080546001600160a01b039092166001600160a01b0319928316179055600180549091169055565b6000600782815481106111b157fe5b90600052602060002090600702019050806002015443116111d25750611391565b80546003546000916001600160a01b03918216911614156111f6575060085461126f565b8154604080516370a0823160e01b815230600482015290516001600160a01b03909216916370a0823191602480820192602092909190829003018186803b15801561124057600080fd5b505afa158015611254573d6000803e3d6000fd5b505050506040513d602081101561126a57600080fd5b505190505b80611281575043600290910155611391565b6000611291836002015443611a1e565b905060006112be600e54610f4186600101546112b86006548761272c90919063ffffffff16565b9061272c565b6004549091506112dc906001600160a01b0316610f8983600a612785565b6112fd6112f284610f418464e8d4a5100061272c565b6003860154906126a4565b8460030181905550600061132a600e54610f4187600101546112b8600a548861272c90919063ffffffff16565b6005860154600b54600488015492935061ffff1602900315611382576005850154600b54600487015461137c926113719261ffff16029003610f418464e8d4a5100061272c565b6006870154906126a4565b60068601555b43856002018190555050505050505b50565b6002805414156113eb576040805162461bcd60e51b815260206004820152601f60248201527f5265656e7472616e637947756172643a207265656e7472616e742063616c6c00604482015290519081900360640190fd5b6002808190555060006007828154811061140157fe5b60009182526020808320858452600982526040808520338087529352909320805460079093029093018054909450611446926001600160a01b039190911691906129b2565b80546040805191825251849133917fbb757047c2b5f3974fe26b7c10f732e7bce710b0952a71082702781e62ae05959181900360200190a360008082556001918201556002555050565b60075460005b81811015610e13576114a7816111a2565b600101611496565b6000546001600160a01b031633146114fc576040805162461bcd60e51b81526020600482018190526024820152600080516020612df0833981519152604482015290519081900360640190fd5b801561150a5761150a611490565b611547826115416007868154811061151e57fe5b906000526020600020906007020160010154600e546127c790919063ffffffff16565b906126a4565b600e81905550816007848154811061155b57fe5b906000526020600020906007020160010181905550505050565b600a5481565b6000806007848154811061158b57fe5b600091825260208083208784526009825260408085206001600160a01b038981168752935284206007939093020160038181015460068301548354925493975094959094939092918116911614156115e6575060085461165f565b8454604080516370a0823160e01b815230600482015290516001600160a01b03909216916370a0823191602480820192602092909190829003018186803b15801561163057600080fd5b505afa158015611644573d6000803e3d6000fd5b505050506040513d602081101561165a57600080fd5b505190505b84600201544311801561167157508015155b15611741576000611686866002015443611a1e565b905060006116ad600e54610f4189600101546112b86006548761272c90919063ffffffff16565b90506116cc6116c584610f418464e8d4a5100061272c565b86906126a4565b945060006116f3600e54610f418a600101546112b8600a548861272c90919063ffffffff16565b6005890154600b5460048b015492935061ffff160290031561173d576005880154600b5460048a015461173a926116c59261ffff16029003610f418464e8d4a5100061272c565b94505b5050505b600061176b8560010154610f4764e8d4a51000610f41888a6000015461272c90919063ffffffff16565b9050600061177f8660020180549050612705565b905060006117a78760030154610f4764e8d4a51000610f41898761272c90919063ffffffff16565b905060006117b584836126a4565b99505050505050505050505b92915050565b6117d181336120e1565b600b54604080516370a0823160e01b815233600482015290516000926201000090046001600160a01b0316916370a08231916024808301926020929190829003018186803b15801561182257600080fd5b505afa158015611836573d6000803e3d6000fd5b505050506040513d602081101561184c57600080fd5b505190508061187c576040805162461bcd60e51b8152602060048201526000602482015290519081900360640190fd5b600b5460408051632f745c5960e01b81523360048201526000198401602482015290516000926201000090046001600160a01b031691632f745c59916044808301926020929190829003018186803b1580156118d757600080fd5b505afa1580156118eb573d6000803e3d6000fd5b505050506040513d602081101561190157600080fd5b5051905061190f8382612498565b600b54604080516370a0823160e01b81523360048201529051620100009092046001600160a01b0316916370a0823191602480820192602092909190829003018186803b15801561195f57600080fd5b505afa158015611973573d6000803e3d6000fd5b505050506040513d602081101561198957600080fd5b50519150508061187c57610e1382336123f2565b600a81565b6004546001600160a01b031633146119ed576040805162461bcd60e51b81526020600482015260096024820152686465763a207775743f60b81b604482015290519081900360640190fd5b600480546001600160a01b0319166001600160a01b0392909216919091179055565b6000546001600160a01b031681565b60006005548211611a3f57611a38600a6112b884866127c7565b90506117c1565b6005548310611a5257611a3882846127c7565b611a38611a6a600554846127c790919063ffffffff16565b611541600a6112b8876005546127c790919063ffffffff16565b600960209081526000928352604080842090915290825290208054600182015460039092015490919083565b60065481565b600280541415611b0d576040805162461bcd60e51b815260206004820152601f60248201527f5265656e7472616e637947756172643a207265656e7472616e742063616c6c00604482015290519081900360640190fd5b600280556000546001600160a01b03163314611b5e576040805162461bcd60e51b81526020600482018190526024820152600080516020612df0833981519152604482015290519081900360640190fd5b600b54604080516370a0823160e01b815230600482015290516000926201000090046001600160a01b0316916370a08231916024808301926020929190829003018186803b158015611baf57600080fd5b505afa158015611bc3573d6000803e3d6000fd5b505050506040513d6020811015611bd957600080fd5b5051905060005b81811015611cf257600b5460408051632f745c5960e01b81523060048201526024810184905290516000926201000090046001600160a01b031691632f745c59916044808301926020929190829003018186803b158015611c4057600080fd5b505afa158015611c54573d6000803e3d6000fd5b505050506040513d6020811015611c6a57600080fd5b5051600b5460408051632142170760e11b8152306004820152336024820152604481018490529051929350620100009091046001600160a01b0316916342842e0e9160648082019260009290919082900301818387803b158015611ccd57600080fd5b505af1158015611ce1573d6000803e3d6000fd5b505060019093019250611be0915050565b50506001600255565b600b546201000090046001600160a01b031681565b6004546001600160a01b031681565b600081815260096020908152604080832033845290915290206002810154611d68576040805162461bcd60e51b8152602060048201526000602482015290519081900360640190fd5b611d7282336120e1565b60028101805460001981019160009183908110611d8b57fe5b90600052602060002001549050611da284826121fb565b82600201805480611daf57fe5b6001900381819060005260206000200160009055905550506000816002018054905011611d7257610e1382336123f2565b6000546001600160a01b03163314611e2d576040805162461bcd60e51b81526020600482018190526024820152600080516020612df0833981519152604482015290519081900360640190fd5b600a55565b600060078381548110611e4157fe5b60009182526020808320868452600982526040808520338652909252922060079091029091019150611e72846111a2565b6002810154600090611e8390612705565b825490915015611efa576000611ebb8360010154610f4764e8d4a51000610f418860030154886000015461272c90919063ffffffff16565b90506000611ee78460030154610f4764e8d4a51000610f4189600601548861272c90919063ffffffff16565b9050611ef733610f8984846126a4565b50505b8254611f11906001600160a01b0316333087612a04565b82546003546001600160a01b0390811691161415611f3a57600854611f3690856126a4565b6008555b8154611f4690856126a4565b8083556003840154611f639164e8d4a5100091610f41919061272c565b60018301556006830154611f839064e8d4a5100090610f4190849061272c565b6003830155604080518581529051869133917f90890809c654f11d6e72a28fa60149770a0d11ec6c92319d6ceb2bb0a4ea1a159181900360200190a35050505050565b6001546001600160a01b031681565b600d6020528160005260406000208181548110611fee57fe5b90600052602060002001600091509150505481565b6000546001600160a01b03163314612050576040805162461bcd60e51b81526020600482018190526024820152600080516020612df0833981519152604482015290519081900360640190fd5b600b805461ffff191661ffff92909216919091179055565b600b5461ffff1681565b6000546001600160a01b031633146120bf576040805162461bcd60e51b81526020600482018190526024820152600080516020612df0833981519152604482015290519081900360640190fd5b600380546001600160a01b0319166001600160a01b0392909216919091179055565b6000600783815481106120f057fe5b600091825260208083208684526009825260408085206001600160a01b0388168652909252922080546007909202909201925061216c576040805162461bcd60e51b81526020600482015260156024820152744e6f206465706f7369746564206c70746f6b656e7360581b604482015290519081900360640190fd5b612175846111a2565b600281015460009061218690612705565b905060006121b68360010154610f4764e8d4a51000610f418860030154886000015461272c90919063ffffffff16565b905060006121e28460030154610f4764e8d4a51000610f4189600601548861272c90919063ffffffff16565b90506121f286610f8984846126a4565b50505050505050565b6000818152600c602052604090205460ff16151560011461221b57600080fd5b600b54604080516323b872dd60e01b8152306004820152336024820152604481018490529051620100009092046001600160a01b0316916323b872dd9160648082019260009290919082900301818387803b15801561227957600080fd5b505af115801561228d573d6000803e3d6000fd5b5050600b5460408051630a7c981760e31b8152600481018690526000602482018190529151620100009093046001600160a01b031694506353e4c0b893506044808201939182900301818387803b1580156122e757600080fd5b505af11580156122fb573d6000803e3d6000fd5b5050506000828152600c60209081526040808320805460ff1916905585835260098252808320338452909152812060078054919350908590811061233b57fe5b600091825260209091206002840154600b54600790930290910192509061ffff16811180156123745750600b5461ffff16600019820111155b156123955760058201805460001901905560048201805482900390556123b4565b600b5461ffff16600019820111156123b4576004820180546000190190555b604080518581529051869133917fd9ccb4973c95d201bc1724ce7e7f19f8e0835e571f58bf8b6a0de82084f0574f9181900360200190a35050505050565b60006007838154811061240157fe5b600091825260208083208684526009825260408085206001600160a01b0388168652909252908320600281015460079093029091019350919061244390612705565b905061246964e8d4a51000610f418560030154856000015461272c90919063ffffffff16565b600183015560068301546124899064e8d4a5100090610f4190849061272c565b82600301819055505050505050565b6000818152600c602052604090205460ff16156124b457600080fd5b600b54604080516323b872dd60e01b8152336004820152306024820152604481018490529051620100009092046001600160a01b0316916323b872dd9160648082019260009290919082900301818387803b15801561251257600080fd5b505af1158015612526573d6000803e3d6000fd5b5050600b5460408051630a7c981760e31b815260048101869052600160248201529051620100009092046001600160a01b031693506353e4c0b8925060448082019260009290919082900301818387803b15801561258357600080fd5b505af1158015612597573d6000803e3d6000fd5b5050506000828152600c60209081526040808320805460ff1916600190811790915586845260098352818420338552835290832060028101805492830181558452918320810185905560078054929450909291869081106125f457fe5b60009182526020909120600b5460028601546007909302909101925061ffff161080156126275750600b5461ffff168211155b1561264c57600581018054600101905560028301546004820180549091019055612666565b600b5461ffff168211156126665760048101805460010190555b604080518581529051869133917faadc628cb4fd3bb7a62795eb460290459458bdc6f387ffde727c740f42c183379181900360200190a35050505050565b6000828201838110156126fe576040805162461bcd60e51b815260206004820152601b60248201527f536166654d6174683a206164646974696f6e206f766572666c6f770000000000604482015290519081900360640190fd5b9392505050565b600b54600090819061ffff16831161271e5760006126fe565b5050600b5461ffff16900390565b60008261273b575060006117c1565b8282028284828161274857fe5b04146126fe5760405162461bcd60e51b8152600401808060200182810382526021815260200180612dcf6021913960400191505060405180910390fd5b60006126fe83836040518060400160405280601a81526020017f536166654d6174683a206469766973696f6e206279207a65726f000000000000815250612a64565b60006126fe83836040518060400160405280601e81526020017f536166654d6174683a207375627472616374696f6e206f766572666c6f770000815250612b06565b600354604080516370a0823160e01b815230600482015290516000926001600160a01b0316916370a08231916024808301926020929190829003018186803b15801561285457600080fd5b505afa158015612868573d6000803e3d6000fd5b505050506040513d602081101561287e57600080fd5b505160085490915081111561289757600854900361289b565b5060005b8082111561292b576003546040805163a9059cbb60e01b81526001600160a01b038681166004830152602482018590529151919092169163a9059cbb9160448083019260209291908290030181600087803b1580156128f957600080fd5b505af115801561290d573d6000803e3d6000fd5b505050506040513d602081101561292357600080fd5b5061081c9050565b6003546040805163a9059cbb60e01b81526001600160a01b038681166004830152602482018690529151919092169163a9059cbb9160448083019260209291908290030181600087803b15801561298157600080fd5b505af1158015612995573d6000803e3d6000fd5b505050506040513d60208110156129ab57600080fd5b5050505050565b604080516001600160a01b038416602482015260448082018490528251808303909101815260649091019091526020810180516001600160e01b031663a9059cbb60e01b17905261081c908490612b60565b604080516001600160a01b0380861660248301528416604482015260648082018490528251808303909101815260849091019091526020810180516001600160e01b03166323b872dd60e01b179052612a5e908590612b60565b50505050565b60008183612af05760405162461bcd60e51b81526004018080602001828103825283818151815260200191508051906020019080838360005b83811015612ab5578181015183820152602001612a9d565b50505050905090810190601f168015612ae25780820380516001836020036101000a031916815260200191505b509250505060405180910390fd5b506000838581612afc57fe5b0495945050505050565b60008184841115612b585760405162461bcd60e51b8152602060048201818152835160248401528351909283926044909101919085019080838360008315612ab5578181015183820152602001612a9d565b505050900390565b6060612bb5826040518060400160405280602081526020017f5361666545524332303a206c6f772d6c6576656c2063616c6c206661696c6564815250856001600160a01b0316612c119092919063ffffffff16565b80519091501561081c57808060200190516020811015612bd457600080fd5b505161081c5760405162461bcd60e51b815260040180806020018281038252602a815260200180612e10602a913960400191505060405180910390fd5b6060612c208484600085612c28565b949350505050565b6060612c3385612d95565b612c84576040805162461bcd60e51b815260206004820152601d60248201527f416464726573733a2063616c6c20746f206e6f6e2d636f6e7472616374000000604482015290519081900360640190fd5b60006060866001600160a01b031685876040518082805190602001908083835b60208310612cc35780518252601f199092019160209182019101612ca4565b6001836020036101000a03801982511681845116808217855250505050505090500191505060006040518083038185875af1925050503d8060008114612d25576040519150601f19603f3d011682016040523d82523d6000602084013e612d2a565b606091505b50915091508115612d3e579150612c209050565b805115612d4e5780518082602001fd5b60405162461bcd60e51b8152602060048201818152865160248401528651879391928392604401919085019080838360008315612ab5578181015183820152602001612a9d565b6000813f7fc5d2460186f7233c927e7db2dcc703c0e500b653ca82273b7bfad8045d85a470818114801590612c2057505015159291505056fe536166654d6174683a206d756c7469706c69636174696f6e206f766572666c6f774f776e61626c653a2063616c6c6572206973206e6f7420746865206f776e65725361666545524332303a204552433230206f7065726174696f6e20646964206e6f742073756363656564a26469706673582212208fe006bb4f76303a35437207cec2d882d95c137ebd4fce442664ca34f1d5c43364736f6c634300060c0033",
  "devdoc": {
    "kind": "dev",
    "methods": {},
    "version": 1
  },
  "userdoc": {
    "kind": "user",
    "methods": {},
    "version": 1
  },
  "storageLayout": {
    "storage": [
      {
        "astId": 2973,
        "contract": "contracts/AnnexBoostFarm.sol:AnnexBoostFarm",
        "label": "owner",
        "offset": 0,
        "slot": "0",
        "type": "t_address"
      },
      {
        "astId": 2975,
        "contract": "contracts/AnnexBoostFarm.sol:AnnexBoostFarm",
        "label": "pendingOwner",
        "offset": 0,
        "slot": "1",
        "type": "t_address"
      },
      {
        "astId": 3099,
        "contract": "contracts/AnnexBoostFarm.sol:AnnexBoostFarm",
        "label": "_status",
        "offset": 0,
        "slot": "2",
        "type": "t_uint256"
      },
      {
        "astId": 46,
        "contract": "contracts/AnnexBoostFarm.sol:AnnexBoostFarm",
        "label": "annex",
        "offset": 0,
        "slot": "3",
        "type": "t_address"
      },
      {
        "astId": 48,
        "contract": "contracts/AnnexBoostFarm.sol:AnnexBoostFarm",
        "label": "devaddr",
        "offset": 0,
        "slot": "4",
        "type": "t_address"
      },
      {
        "astId": 50,
        "contract": "contracts/AnnexBoostFarm.sol:AnnexBoostFarm",
        "label": "bonusEndBlock",
        "offset": 0,
        "slot": "5",
        "type": "t_uint256"
      },
      {
        "astId": 52,
        "contract": "contracts/AnnexBoostFarm.sol:AnnexBoostFarm",
        "label": "annexPerBlock",
        "offset": 0,
        "slot": "6",
        "type": "t_uint256"
      },
      {
        "astId": 58,
        "contract": "contracts/AnnexBoostFarm.sol:AnnexBoostFarm",
        "label": "poolInfo",
        "offset": 0,
        "slot": "7",
        "type": "t_array(t_struct(PoolInfo)44_storage)dyn_storage"
      },
      {
        "astId": 60,
        "contract": "contracts/AnnexBoostFarm.sol:AnnexBoostFarm",
        "label": "lpSupplyOfAnnPool",
        "offset": 0,
        "slot": "8",
        "type": "t_uint256"
      },
      {
        "astId": 66,
        "contract": "contracts/AnnexBoostFarm.sol:AnnexBoostFarm",
        "label": "userInfo",
        "offset": 0,
        "slot": "9",
        "type": "t_mapping(t_uint256,t_mapping(t_address,t_struct(UserInfo)29_storage))"
      },
      {
        "astId": 68,
        "contract": "contracts/AnnexBoostFarm.sol:AnnexBoostFarm",
        "label": "boostAnnexPerBlock",
        "offset": 0,
        "slot": "10",
        "type": "t_uint256"
      },
      {
        "astId": 71,
        "contract": "contracts/AnnexBoostFarm.sol:AnnexBoostFarm",
        "label": "minimumValidBoostCount",
        "offset": 0,
        "slot": "11",
        "type": "t_uint16"
      },
      {
        "astId": 73,
        "contract": "contracts/AnnexBoostFarm.sol:AnnexBoostFarm",
        "label": "boostFactor",
        "offset": 2,
        "slot": "11",
        "type": "t_contract(IBoostToken)2092"
      },
      {
        "astId": 77,
        "contract": "contracts/AnnexBoostFarm.sol:AnnexBoostFarm",
        "label": "isBoosted",
        "offset": 0,
        "slot": "12",
        "type": "t_mapping(t_uint256,t_bool)"
      },
      {
        "astId": 82,
        "contract": "contracts/AnnexBoostFarm.sol:AnnexBoostFarm",
        "label": "boostFactors",
        "offset": 0,
        "slot": "13",
        "type": "t_mapping(t_address,t_array(t_uint256)dyn_storage)"
      },
      {
        "astId": 85,
        "contract": "contracts/AnnexBoostFarm.sol:AnnexBoostFarm",
        "label": "totalAllocPoint",
        "offset": 0,
        "slot": "14",
        "type": "t_uint256"
      },
      {
        "astId": 87,
        "contract": "contracts/AnnexBoostFarm.sol:AnnexBoostFarm",
        "label": "startBlock",
        "offset": 0,
        "slot": "15",
        "type": "t_uint256"
      }
    ],
    "types": {
      "t_address": {
        "encoding": "inplace",
        "label": "address",
        "numberOfBytes": "20"
      },
      "t_array(t_struct(PoolInfo)44_storage)dyn_storage": {
        "base": "t_struct(PoolInfo)44_storage",
        "encoding": "dynamic_array",
        "label": "struct AnnexBoostFarm.PoolInfo[]",
        "numberOfBytes": "32"
      },
      "t_array(t_uint256)dyn_storage": {
        "base": "t_uint256",
        "encoding": "dynamic_array",
        "label": "uint256[]",
        "numberOfBytes": "32"
      },
      "t_bool": {
        "encoding": "inplace",
        "label": "bool",
        "numberOfBytes": "1"
      },
      "t_contract(IBoostToken)2092": {
        "encoding": "inplace",
        "label": "contract IBoostToken",
        "numberOfBytes": "20"
      },
      "t_contract(IERC20)2182": {
        "encoding": "inplace",
        "label": "contract IERC20",
        "numberOfBytes": "20"
      },
      "t_mapping(t_address,t_array(t_uint256)dyn_storage)": {
        "encoding": "mapping",
        "key": "t_address",
        "label": "mapping(address => uint256[])",
        "numberOfBytes": "32",
        "value": "t_array(t_uint256)dyn_storage"
      },
      "t_mapping(t_address,t_struct(UserInfo)29_storage)": {
        "encoding": "mapping",
        "key": "t_address",
        "label": "mapping(address => struct AnnexBoostFarm.UserInfo)",
        "numberOfBytes": "32",
        "value": "t_struct(UserInfo)29_storage"
      },
      "t_mapping(t_uint256,t_bool)": {
        "encoding": "mapping",
        "key": "t_uint256",
        "label": "mapping(uint256 => bool)",
        "numberOfBytes": "32",
        "value": "t_bool"
      },
      "t_mapping(t_uint256,t_mapping(t_address,t_struct(UserInfo)29_storage))": {
        "encoding": "mapping",
        "key": "t_uint256",
        "label": "mapping(uint256 => mapping(address => struct AnnexBoostFarm.UserInfo))",
        "numberOfBytes": "32",
        "value": "t_mapping(t_address,t_struct(UserInfo)29_storage)"
      },
      "t_struct(PoolInfo)44_storage": {
        "encoding": "inplace",
        "label": "struct AnnexBoostFarm.PoolInfo",
        "members": [
          {
            "astId": 31,
            "contract": "contracts/AnnexBoostFarm.sol:AnnexBoostFarm",
            "label": "lpToken",
            "offset": 0,
            "slot": "0",
            "type": "t_contract(IERC20)2182"
          },
          {
            "astId": 33,
            "contract": "contracts/AnnexBoostFarm.sol:AnnexBoostFarm",
            "label": "allocPoint",
            "offset": 0,
            "slot": "1",
            "type": "t_uint256"
          },
          {
            "astId": 35,
            "contract": "contracts/AnnexBoostFarm.sol:AnnexBoostFarm",
            "label": "lastRewardBlock",
            "offset": 0,
            "slot": "2",
            "type": "t_uint256"
          },
          {
            "astId": 37,
            "contract": "contracts/AnnexBoostFarm.sol:AnnexBoostFarm",
            "label": "accAnnexPerShare",
            "offset": 0,
            "slot": "3",
            "type": "t_uint256"
          },
          {
            "astId": 39,
            "contract": "contracts/AnnexBoostFarm.sol:AnnexBoostFarm",
            "label": "totalValidBoostNum",
            "offset": 0,
            "slot": "4",
            "type": "t_uint256"
          },
          {
            "astId": 41,
            "contract": "contracts/AnnexBoostFarm.sol:AnnexBoostFarm",
            "label": "totalValidBoostCount",
            "offset": 0,
            "slot": "5",
            "type": "t_uint256"
          },
          {
            "astId": 43,
            "contract": "contracts/AnnexBoostFarm.sol:AnnexBoostFarm",
            "label": "accBoostAnnexPerShare",
            "offset": 0,
            "slot": "6",
            "type": "t_uint256"
          }
        ],
        "numberOfBytes": "224"
      },
      "t_struct(UserInfo)29_storage": {
        "encoding": "inplace",
        "label": "struct AnnexBoostFarm.UserInfo",
        "members": [
          {
            "astId": 21,
            "contract": "contracts/AnnexBoostFarm.sol:AnnexBoostFarm",
            "label": "amount",
            "offset": 0,
            "slot": "0",
            "type": "t_uint256"
          },
          {
            "astId": 23,
            "contract": "contracts/AnnexBoostFarm.sol:AnnexBoostFarm",
            "label": "rewardDebt",
            "offset": 0,
            "slot": "1",
            "type": "t_uint256"
          },
          {
            "astId": 26,
            "contract": "contracts/AnnexBoostFarm.sol:AnnexBoostFarm",
            "label": "boostFactors",
            "offset": 0,
            "slot": "2",
            "type": "t_array(t_uint256)dyn_storage"
          },
          {
            "astId": 28,
            "contract": "contracts/AnnexBoostFarm.sol:AnnexBoostFarm",
            "label": "boostRewardDebt",
            "offset": 0,
            "slot": "3",
            "type": "t_uint256"
          }
        ],
        "numberOfBytes": "128"
      },
      "t_uint16": {
        "encoding": "inplace",
        "label": "uint16",
        "numberOfBytes": "2"
      },
      "t_uint256": {
        "encoding": "inplace",
        "label": "uint256",
        "numberOfBytes": "32"
      }
    }
  }
}